:020000040200F8
:10000000B8510122C9820002D5FE0002B582000269
:10001000B5820002B5820002B5820002B5820002FC
:100020000000000000000000000000002184000229
:10003000B582000200000000B58300028DAA000214
:10004000ED850002ED850002ED850002ED850002E0
:10005000ED850002ED850002ED850002ED850002D0
:10006000ED850002ED850002ED850002ED850002C0
:10007000ED850002ED850002ED850002ED850002B0
:10008000ED850002ED850002ED850002ED850002A0
:10009000ED850002ED850002ED850002ED85000290
:1000A000ED850002ED850002ED850002ED85000280
:1000B000ED850002ED850002ED850002ED85000270
:1000C000ED850002ED850002ED850002ED85000260
:1000D000ED850002ED850002ED850002ED85000250
:1000E000ED850002ED850002ED850002ED85000240
:1000F000ED850002ED850002ED850002ED85000230
:10010000ED850002ED850002ED850002ED8500021F
:10011000ED850002ED850002ED850002ED8500020F
:10012000ED850002ED850002ED850002ED850002FF
:10013000ED850002ED850002ED850002ED850002EF
:10014000ED850002ED850002ED850002ED850002DF
:10015000ED850002ED850002ED850002ED850002CF
:10016000ED850002ED850002ED850002ED850002BF
:10017000ED850002ED850002ED850002ED850002AF
:10018000ED850002ED850002ED850002ED8500029F
:10019000ED850002ED850002ED850002ED8500028F
:1001A000ED850002ED850002ED8500026574000218
:1001B00091750002A176000249770002ED850002E8
:1001C0009FED0B7B41EC160B9FED0B5B26EE077B47
:1001D000BCEEC77BB8EE474B17EE101AA4EE456B8A
:1001E000FCEEC67B17EE900A704700BFAFF30080AD
:1001F000000000000000F03D000000000000F041A1
:10020000002902D0B0FBF1F0704708B14FF0FF3089
:1002100000F01EB80029F8D00246B0FBF1F000FB58
:1002200011217047002902D090FBF1F0704700289F
:10023000C8BF6FF00040B8BF4FF0004000F008B8F2
:100240000029F4D0024690FBF1F000FB1121704729
:10025000704700BF81F0004102E000BF83F000431F
:1002600030B54FEA41044FEA430594EA050F08BF51
:1002700090EA020F1FBF54EA000C55EA020C7FEA15
:10028000645C7FEA655C00F0E2804FEA5454D4EB92
:100290005555B8BF6D420CDD2C4480EA020281EA5C
:1002A000030382EA000083EA010180EA020281EA94
:1002B0000303362D88BF30BD11F0004F4FEA0131E6
:1002C0004FF4801C4CEA113102D0404261EB4101F5
:1002D00013F0004F4FEA03334CEA133302D052427B
:1002E00063EB430394EA050F00F0A780A4F1010437
:1002F000D5F1200E0DDB02FA0EFC22FA05F2801871
:1003000041F1000103FA0EF2801843FA05F3594156
:100310000EE0A5F120050EF1200E012A03FA0EFCD5
:1003200028BF4CF0020C43FA05F3C01851EBE371FF
:1003300001F0004507D54FF0000EDCF1000C7EEB1C
:1003400000006EEB0101B1F5801F1BD3B1F5001F5A
:100350000CD349085FEA30004FEA3C0C04F1010479
:100360004FEA445212F5800F80F09A80BCF1004FA2
:1003700008BF5FEA500C50F1000041EB045141EA24
:10038000050130BD5FEA4C0C404141EB0101013CED
:1003900028BFB1F5801FE9D291F0000F04BF0146DC
:1003A0000020B1FA81F308BF2033A3F10B03B3F1AE
:1003B00020020CDA0C3208DD02F1140CC2F10C023E
:1003C00001FA0CF021FA02F10CE002F11402D8BF9C
:1003D000C2F1200C01FA02F120FA0CFCDCBF41EA68
:1003E0000C019040E41AA2BF01EB0451294330BD37
:1003F0006FEA04041F3C1CDA0C340EDC04F1140414
:10040000C4F1200220FA04F001FA02F340EA0300EA
:1004100021FA04F345EA030130BDC4F10C04C4F130
:10042000200220FA02F001FA04F340EA0300294610
:1004300030BD21FA04F0294630BD94F0000F83F45A
:10044000801306BF81F480110134013D4EE77FEA3D
:10045000645C18BF7FEA655C29D094EA050F08BF89
:1004600090EA020F05D054EA000C04BF194610466A
:1004700030BD91EA030F1EBF0021002030BD5FEAAE
:10048000545C05D14000494128BF41F0004130BDD6
:1004900014F580043CBF01F5801130BD01F000452A
:1004A00045F0FE4141F470014FF0000030BD7FEA9D
:1004B000645C1ABF194610467FEA655C1CBF0B4698
:1004C000024650EA013406BF52EA033591EA030FAF
:1004D00041F4002130BD00BF90F0000F04BF0021A7
:1004E000704730B54FF4806404F132044FF00005DA
:1004F0004FF0000150E700BF90F0000F04BF002153
:10050000704730B54FF4806404F1320410F00045B8
:1005100048BF40424FF000013EE700BF42004FEAB3
:10052000E2014FEA31014FEA02701FBF12F07F4330
:1005300093F07F4F81F06051704732F07F4208BFE7
:10054000704793F07F4F04BF41F40021704730B5EE
:100550004FF4607401F0004521F000411CE700BF3A
:1005600050EA010208BF704730B54FF000050AE0BD
:1005700050EA010208BF704730B511F0004502D5BE
:10058000404261EB41014FF4806404F132045FEAC0
:10059000915C3FF4D8AE4FF003025FEADC0C18BF69
:1005A00003325FEADC0C18BF033202EBDC02C2F15B
:1005B000200300FA03FC20FA02F001FA03FE40EAED
:1005C0000E0021FA02F11444BDE600BF70B54FF0F1
:1005D000FF0C4CF4E06C1CEA11541DBF1CEA1355CF
:1005E00094EA0C0F95EA0C0F00F0DEF82C4481EA37
:1005F000030621EA4C5123EA4C5350EA013518BF57
:1006000052EA033541F4801143F4801338D0A0FB43
:1006100002CE4FF00005E1FB02E506F00042E0FBF0
:1006200003E54FF00006E1FB03569CF0000F18BFF6
:100630004EF0010EA4F1FF04B6F5007F64F540749E
:1006400004D25FEA4E0E6D4146EB060642EAC62131
:1006500041EA55514FEAC52040EA5E504FEACE2E9E
:10066000B4F1FD0C88BFBCF5E06F1ED8BEF1004FA1
:1006700008BF5FEA500E50F1000041EB045170BD1D
:1006800006F0004646EA010140EA020081EA030161
:10069000B4EB5C04C2BFD4EB0C0541EA045170BD5D
:1006A00041F480114FF0000E013C00F3AB8014F1D7
:1006B000360FDEBF002001F0004170BDC4F1000420
:1006C000203C35DA0C341BDC04F11404C4F12005A1
:1006D00000FA05F320FA04F001FA05F240EA0200FC
:1006E00001F0004221F0004110EBD37021FA04F632
:1006F00042EB06015EEA430E08BF20EAD37070BDEC
:10070000C4F10C04C4F1200500FA04F320FA05F04A
:1007100001FA04F240EA020001F0004110EBD3704C
:1007200041F100015EEA430E08BF20EAD37070BDBC
:10073000C4F1200500FA05F24EEA020E20FA04F395
:1007400001FA05F243EA020321FA04F001F0004144
:1007500021FA04F220EA020000EBD3705EEA430EB5
:1007600008BF20EAD37070BD94F0000F0FD101F0E4
:100770000046400041EB010111F4801F08BF013C1D
:10078000F7D041EA060195F0000F18BF704703F05B
:100790000046520043EB030313F4801F08BF013DE2
:1007A000F7D043EA0603704794EA0C0F0CEA13559E
:1007B00018BF95EA0C0F0CD050EA410618BF52EA58
:1007C0004306D1D181EA030101F000414FF000005E
:1007D00070BD50EA410606BF1046194652EA43066C
:1007E00019D094EA0C0F02D150EA013613D195EAE0
:1007F0000C0F05D152EA03361CBF104619460AD128
:1008000081EA030101F0004141F0FE4141F4700131
:100810004FF0000070BD41F0FE4141F4780170BD21
:1008200070B54FF0FF0C4CF4E06C1CEA11541DBF86
:100830001CEA135594EA0C0F95EA0C0F00F0A7F888
:10084000A4EB050481EA030E52EA03354FEA0131B5
:1008500000F088804FEA03334FF0805545EA1313C8
:1008600043EA12634FEA022245EA111545EA106590
:100870004FEA00260EF000419D4208BF964244F127
:10088000FD0404F5407402D25B084FEA3202B61A46
:1008900065EB03055B084FEA32024FF480104FF41A
:1008A000002CB6EB020E75EB030E22BFB61A75468E
:1008B00040EA0C005B084FEA3202B6EB020E75EB21
:1008C000030E22BFB61A754640EA5C005B084FEA89
:1008D0003202B6EB020E75EB030E22BFB61A754656
:1008E00040EA9C005B084FEA3202B6EB020E75EB61
:1008F000030E22BFB61A754640EADC0055EA060E22
:1009000018D04FEA051545EA16754FEA06164FEA64
:10091000C30343EA52734FEAC2025FEA1C1CC0D110
:1009200011F4801F0BD141EA00014FF000004FF09D
:10093000004CB6E711F4801F04BF01430020B4F15E
:10094000FD0C88BFBCF5E06F3FF6AFAEB5EB030C16
:1009500004BFB6EB020C5FEA500C50F1000041EB13
:10096000045170BD0EF0004E4EEA113114EB5C04E0
:10097000C2BFD4EB0C0541EA045170BD41F48011B3
:100980004FF0000E013C90E645EA060E8DE60CEABB
:10099000135594EA0C0F08BF95EA0C0F3FF43BAFD8
:1009A00094EA0C0F0AD150EA01347FF434AF95EA8F
:1009B0000C0F7FF425AF104619462CE795EA0C0F73
:1009C00006D152EA03353FF4FDAE1046194622E740
:1009D00050EA410618BF52EA43067FF4C5AE50EA1A
:1009E00041047FF40DAF52EA43057FF4EBAE12E70A
:1009F0004FF0FF3C06E000BF4FF0010C02E000BFEB
:100A00004FF0010C4DF804CD4FEA410C7FEA6C5CCD
:100A10004FEA430C18BF7FEA6C5C1BD001B050EA70
:100A2000410C0CBF52EA430C91EA030F02BF90EA5B
:100A3000020F0020704710F1000F91EA030F58BF1A
:100A4000994208BF90422CBFD8176FEAE37040F07C
:100A5000010070474FEA410C7FEA6C5C02D150EA1A
:100A6000013C07D14FEA430C7FEA6C5CD6D152EAD5
:100A7000033CD3D05DF8040B704700BF844610469A
:100A800062468C461946634600E000BF01B5FFF799
:100A9000B7FF002848BF10F1000F01BD4DF808ED69
:100AA000FFF7F4FF0CBF012000205DF808FB00BF3A
:100AB0004DF808EDFFF7EAFF34BF012000205DF894
:100AC00008FB00BF4DF808EDFFF7E0FF94BF0120E1
:100AD00000205DF808FB00BF4DF808EDFFF7CEFFE2
:100AE00094BF012000205DF808FB00BF4DF808ED21
:100AF000FFF7C4FF34BF012000205DF808FB00BFF2
:100B00004FEA410C7FEA6C5C02D150EA013C0AD109
:100B10004FEA430C7FEA6C5C02D152EA033C02D1FB
:100B20004FF0000070474FF0010070474FEA41025C
:100B300012F5001215D211D56FF47873B3EB62522F
:100B400012D94FEAC12343F0004343EA505311F056
:100B5000004F23FA02F018BF404270474FF00000E8
:100B6000704750EA013005D111F0004008BF6FF026
:100B7000004070474FF00000704700BF4A0011D29C
:100B800012F5001211D20DD56FF47873B3EB6252E7
:100B90000ED44FEAC12343F0004343EA505323FAF3
:100BA00002F070474FF00000704750EA013002D168
:100BB0004FF0FF3070474FF0000070474FEA41029E
:100BC000B2F1E04324BFB3F5001CDCF1FE5C0DD9AB
:100BD00001F0004C4FEAC0024CEA5070B2F1004FF5
:100BE00040EB830008BF20F00100704711F0804FF8
:100BF00021D113F13872BCBF01F00040704741F4BD
:100C000080114FEA5252C2F11802C2F1200C10FAC0
:100C10000CF320FA02F018BF40F001004FEAC123A4
:100C20004FEAD32303FA0CFC40EA0C0023FA02F348
:100C30004FEA4303CCE77FEA625307D150EA01331E
:100C40001EBF4FF0FE4040F44000704701F00040EE
:100C500040F0FE4040F40000704700BF4FF0FF3C02
:100C600006E000BF4FF0010C02E000BF4FF0010CA6
:100C70004DF804CD4FEA40024FEA41037FEA226C6F
:100C800018BF7FEA236C11D001B052EA530C18BF91
:100C900090EA010F58BFB2EB030088BFC81738BFF6
:100CA0006FEAE17018BF40F0010070477FEA226CE4
:100CB00002D15FEA402C05D17FEA236CE4D15FEAE0
:100CC000412CE1D05DF8040B704700BF8446084614
:100CD0006146FFE70FB5FFF7C9FF002848BF10F1D5
:100CE000000F0FBD4DF808EDFFF7F4FF0CBF01201A
:100CF00000205DF808FB00BF4DF808EDFFF7EAFFA4
:100D000034BF012000205DF808FB00BF4DF808ED5E
:100D1000FFF7E0FF94BF012000205DF808FB00BF53
:100D20004DF808EDFFF7D2FF94BF012000205DF8D9
:100D300008FB00BF4DF808EDFFF7C8FF34BF0120E6
:100D400000205DF808FB00BF4FEA40024FEA410374
:100D50007FEA226C02D15FEA402C08D17FEA236C43
:100D600002D15FEA412C02D14FF0000070474FF0F2
:100D7000010070477BB972B90029BEBF00204FF057
:100D8000004106E008BF00281CBF6FF000414FF093
:100D9000FF30FFF75DBAADF1080C6DE904CE002914
:100DA00009DB002B1ADB00F065F8DDF804E0DDE973
:100DB000022304B07047404261EB4101002B1BDB72
:100DC00000F058F8DDF804E0DDE9022304B0404209
:100DD00061EB4101524263EB43037047524263EBC4
:100DE000430300F047F8DDF804E0DDE9022304B036
:100DF000404261EB41017047524263EB430300F014
:100E000039F8DDF804E0DDE9022304B0524263EB77
:100E10004303704753B94AB9002908BF00281CBFD3
:100E20004FF0FF314FF0FF30FFF712BAADF1080C71
:100E30006DE904CE00F01EF8DDF804E0DDE90223E0
:100E400004B07047024608B50B4643EC172BB5EECD
:100E5000C07BF1EE10FA03D4BDE80840FFF7B0B94B
:100E6000B1EE477B51EC170BFFF7AAF9404261EB5B
:100E7000410108BD2DE9F04786468C460846089E8C
:100E8000154674461946002B40F0C1808542B2FADF
:100E900082F245D94AB1C2F1200300FA02FC954022
:100EA00094402EFA03F343EA0C0C4FEA154EA8B215
:100EB000230CBCFBFEF80EFB18CC08FB00F943EA40
:100EC0000C43994528D9EB1808F1FF3704D299450E
:100ED00002D9A8F102072B44A3EB0903A4B2B3FB88
:100EE000FEFC0EFB1C330CFB00F044EA0344A04262
:100EF00014D92C190CF1FF3304D2A04202D9ACF161
:100F000002032C44241A43EA07401EB1D4400023B4
:100F100034607360BDE8F0874746DDE76346F1E77C
:100F200092BB431B01214FEA154EAFB2200CB3FB1D
:100F3000FEFC0EFB1C330CFB07F840EA034398450C
:100F400061D9EB180CF1FF3004D2984502D9ACF10D
:100F500002002B44A3EB0803A4B2B3FBFEFC0EFB80
:100F60001C330CFB07F744EA0344A7424DD92C1964
:100F70000CF1FF3304D2A74202D9ACF102032C4496
:100F8000E41B43EA0040C0E7C2F1200395409440CF
:100F900020FA03F12EFA03F34FEA154E9040AFB258
:100FA0000343B1FBFEFC0EFB1C10190C0CFB07F8F5
:100FB00041EA0041884522D969180CF1FF3004D27A
:100FC000884502D9ACF102002944A1EB08019BB28B
:100FD000B1FBFEFC0EFB1C110CFB07F743EA0143BF
:100FE0009F420ED9EB180CF1FF3104D29F4202D977
:100FF000ACF102012B44DB1B41EA004193E7604660
:10100000E3E76146F7E76046A4E76346B8E7834253
:1010100006D916B9002108467CE7C6E900E0F9E7E1
:10102000B3FA83F78FB9834201D3724508D8BEEB78
:10103000020460EB030301209C461EB9002169E70E
:101040003846FAE7C6E9004CF8E7C7F1200CBB4088
:101050000EFA07F522FA0CF42EFA0CF1BA401C43F2
:1010600020FA0CF3B8404FEA144901431FFA84FEFA
:10107000B3FBF9F809FB18300B0C08FB0EFA43EA36
:1010800000439A4540D9E31808F1FF3004D29A454D
:1010900002D9A8F102002344A3EB0A0389B2B3FBEF
:1010A000F9F809FB183308FB0EFE41EA03418E45AF
:1010B0002CD9611808F1FF3304D28E4502D9A8F16A
:1010C0000203214443EA0040A1EB0E01A0FB029879
:1010D0004145CE46434602D306D14D4504D20138A0
:1010E000B9EB020E68EB0403002EA7D0B5EB0E029D
:1010F00061EB030101FA0CFC22FA07F3F9404CEA18
:101100000303C6E9003199E74046C5E74346D9E7FE
:1011100010F8012B11F8013B012A28BF9A42F7D0A1
:10112000D01A7047034611F8012B03F8012B002A4F
:10113000F9D17047034613F8012B002AFBD1181A86
:1011400001387047000000002DE9F047044688464A
:1011500017468AB010F00DF80A220023FFF75AFE56
:10116000B8F1010F06460D4608D1CDE900012A4A23
:10117000082120460DF024FE002012E07F68274859
:101180003946FFF7C5FF78B139462548FFF7C0FF5C
:1011900050B120463B460121224A0DF011FE6FF06E
:1011A00004000AB0BDE8F087304619A3D3E9002354
:1011B0002946FFF7DFFD06460D46104619461A4A36
:1011C0000023FFF7D7FD80460F46104619464EF61E
:1011D00060220023FFF7CEFD82468946104619465D
:1011E0004FF47A720023FFF7C5FDCDE904A9CDE9DC
:1011F0000601CDE9082308212046CDE90287CDE983
:1012000000650A4A0DF0DCFDB6E700BFAFF30080D1
:10121000005C260500000000EC3D0102FD3D0102DE
:10122000003E0102093E010280EE3600203E01022E
:10123000A0F101000028FBD1704700BF00000000B2
:101240002DE9F843D0ED037A9846B8EE677B9FED21
:101250002C5B846887EE053B089D1746D0F81490F8
:101260000E46D0ED047A08F067FEE31CB8F1000FDB
:1012700004F1020408BF1C4620FA08F006EB440300
:10128000B8EE677BB3FBF0F387EE056B07EE903AA1
:10129000B8EE675B35EE034BB7EE002B34EE064B32
:1012A0003C4482EE047BB4FBF0F4BCEEC77B07EE5B
:1012B000904A36EE036B85ED007AB8EE677B36EE2A
:1012C000055B37EE037B87EE056B9FED0F7B26EE0C
:1012D000077BFCEEC77B17EE900AA0EB090248459E
:1012E000A9EB000388BF1346B3FBF9F3C5E9010876
:1012F000F61B2F61EE606B61BDE8F883AFF30080F1
:101300000000000065CDCD41000000000000594004
:101310002DE9F04F2DED028B83689DB00C46D0E98E
:101320000375069306469146D0F814A008F004FE13
:101330007B4B09909C4205D07A4B9C4202D07A4B61
:101340009C4256D1069B182203F101084FEA48033C
:1013500007930AAB0021184610F035FB00230090DC
:10136000424630460799FFF76BFF07EE904AB7EE0B
:10137000006BB8EEE77B86EE078B07EE907A9FED69
:10138000665BB8EE676B86EE057B06EE905AB8EEAC
:10139000666B86EE054B37EE047B002738EE478BF5
:1013A000069B03F1030B099BFB4006EE103A4FEA44
:1013B0004B0307EE103AB8EE466BB8EE477B16EEDD
:1013C000087BBAFE477BFCEEC77B17EE904A3E2CAB
:1013D00002D8079BA34228D90137082F1ED10D9BA5
:1013E00089F802300E9B89F801300C9B89F8003097
:1013F0000FE04E490B685B070BD04D4B0122039366
:101400004C4B0494029300231846CDE900330FF0AF
:1014100094F81DB0BDEC028BBDE8F08F069B012F48
:1014200003F1020308BF9B46BDE7642304FB0AF5F2
:10143000B5FBF3F510AB45454FF018024FF0000136
:10144000184638BF454610F0BEFA3B4600902A4683
:1014500021463046FFF7F4FE119B0893089B9A45FE
:1014600010D3089B9A4531D8DDE9132313431F2B72
:10147000B2D80AAC10AD0FCD0FC495E8030084E8D4
:101480000300ACE7013DA845EBD8631B1F2BE8D850
:101490001822002116A810F096FA16AB2A460093DF
:1014A00021463B463046FFF7CBFE1B9A159B9A42DE
:1014B000D7D20DF1400C0DF1580EBEE80F00ACE88C
:1014C0000F009EE803008CE80300C7E70135AC423B
:1014D000CAD31F2DC8D8631B9845C5D81822002130
:1014E00016A810F070FA16AB2A46009321463B4628
:1014F0003046FFF7A5FE1B9A159B9A42B4D20DF118
:10150000400C0DF1580EBEE80F00ACE80F009EE84D
:1015100003008CE80300A4E70000000065CDCD4186
:10152000801A060040420F00A0860100D00300226E
:101530001E600102FB5D01022DE9F84F81468846DD
:1015400000232DED028B19F803605A1C202E00F0A9
:101550006881A6F10901042940F263812B2E15460A
:1015600032D02D2E35D0042446F02003692B4BD0E9
:101570006E2B55D000224FF00A0A944613461046AF
:10158000114614F4006E51D046F02007A7F1610B0C
:10159000BBF1050F4AD8573FFFB2BA454BDC46F0C6
:1015A000200604F08007782E40F0CD80002F00F058
:1015B000CA8050EA010A40F0C68044F4006E4FF041
:1015C000100A1FFA8EFE45E0042419F802609D1CE3
:1015D000CAE74424F9E719F80520681C42F0200204
:1015E0008A4221D0984A934215D000259FED908BD6
:1015F000B8F1000F02D04D44C8F80050B0EE480BCF
:10160000BDEC028BBDE8F88F9FED8B8B8F4B13F8F1
:10161000011B0029DFD16306EAD5B1EE488BE7E76D
:101620009FED878B8A4BF2E70546F0E7A6F130077E
:10163000FFB257452DDA44F0800E14F4807F04F495
:1016400000761FFA8EFE0AD0002F18BF43F0010368
:1016500006B9013219F805607446013591E706B103
:10166000013AAAFB00060AFB0161381841F10001AA
:1016700050EA0106EED0BAF10A0F0CF1010C0CBFD2
:1016800010260F26B445E5DD44F4C07E1FFA8EFE19
:10169000E0E7FE2F83D1A70552D514F08006A4D031
:1016A00050EA010605F1FF3500F0B880260540F14B
:1016B000A2803632B1F5800FC0F08280654FB1F55F
:1016C000000F80F08280BA427FDB0343084603F0BC
:1016D0000306032E03D003F00606062E7ED1043344
:1016E00041F10000B0F5000F78D30132B2F5806F00
:1016F00080F2918000234FF4801102F2FF3221F436
:1017000080111E4641EA025747EC186BB0EE480BB9
:101710000CF06CFB0138022804D84F4B222210F049
:1017200037FA1A50B0EE480B0CF060FB0138022873
:101730003FF671AF484B222210F02AFA1A506AE79E
:1017400044F4007EA2E71FFA87FA002F6BD0BEF1A7
:10175000000F0CBF65277027BE42A1D119F80560A4
:101760006F1C2B2E04D02D2E24D144F48064A4B2FF
:1017700019F80760A6F13007092F91D8AF1C3D4634
:1017800040F2D34A00274FF00A0B5745DCBF303EEA
:101790000BFB076719F805600135A6F1300EBEF1A5
:1017A000090FF2D9660548BF7F42260548BF92005F
:1017B0003A4475E7A6F1300EBEF1090FDFD96FE7A5
:1017C000001802F1FF32494174E7460800F00100B9
:1017D000013246EAC1764908304370E7B2F5806FBE
:1017E00019DA9B08B0F5800F4FEA900143EA807345
:1017F00083D2002285E70CEB020313F5A27F07DDFD
:10180000B3F59B7F07DA00F02BF8B0EE408B89E749
:101810009FED078B86E79FED088B83E79FED048B99
:10182000F9E613468FE69FED028B5546E0E600BFD2
:101830000000000000000000000000000000F07F39
:10184000000000000000F87F75730102727301024E
:101850006F73010202FCFFFF140000000000000093
:101860002DE9FF47804616460F46002900F0A2806A
:10187000B1FA81F4341B002E04F10A04C0F2A280F4
:1018800030460CF097F9044430460CF099F9A4EB7B
:1018900006090546694630460CF0BAF9A9EB05037E
:1018A0006A4640467D3339460FF03FFFA6428246E6
:1018B0000D4600F38380B9F13F0F00F381804FF0B4
:1018C000FF33A9F12000C9F1200103FA00F003FA67
:1018D00009F223FA01F103FA09F3024328EA0303A8
:1018E0000A4327EA020213430CBF01200020002D07
:1018F00000F08A80B5FA85F3E31A40F2FE7203F233
:101900003E43934200F38980002B23EAE376D4BF61
:1019100001223246121BA2F23341A2F23447A2F254
:101920005344C1F1200C2AFA01F325FA04F4C7F15B
:10193000200E05FA0CFC25FA01F105FA0EFE43EA29
:101940000C03A2F2544CA2F2544223432AFA07F4A5
:1019500025FA0CFC44EA0E0444EA0C04C7F1200CFE
:1019600014F0010F54D0A8B14FF0FF3000FA02F28A
:1019700000FA07F4144320FA0CF2B840144303F0C1
:1019800001022AEA000A25EA04054AEA020A5AEA9A
:10199000050A3DD0013341F10002C2F3130253EABC
:1019A000020138D0184642EA065141EC100B04B04F
:1019B000BDE8F087B0FA80F420345BE7012096E7B9
:1019C000002094E7C6F1000948460CF0F9F8241A03
:1019D00048460CF0F5F8A61B0546694648462E44D5
:1019E0000CF088F96A46404606F17C0339460FF050
:1019F0009CFE82460D46404639460CF0F1F8814582
:101A00008CBF0020012072E7BAFA8AF3203373E713
:101A1000C1F31302C6E70136C4E79FED010BC6E729
:101A2000000000000000F07F10EE902A764922F0BE
:101A300000438B4217D975498B4203D805D110EE6C
:101A4000103A13B130EE000B7047002A9FED500B97
:101A500004DD9FED517B37EE000B70479FED507B0F
:101A600037EE400B70476A498B4212D8A1F1DE7104
:101A70008B420BD8B7EE006B9FED4B7B30EE077BB4
:101A8000B4EEC67BF1EE10FA00F381804FF0FF3325
:101A900015E06049B0EEC07B8B424FD8A1F55021D4
:101AA000B7EE006B8B4241D837EE075B002335EE73
:101AB000465BB0EE006B37EE067B85EE070B591CDC
:101AC00020EE005B9FED3A7B9FED3B4B25EE056BD7
:101AD0009FED3B3B06EE074B9FED3B7B04EE067B09
:101AE0009FED3B4B07EE064B9FED3B7B04EE067BE9
:101AF0009FED3B4B07EE064B9FED3B7B16EE073B06
:101B00009FED3B7B13EE067B9FED3B3B17EE063BC9
:101B10009FED3B7B13EE067B27EE067B04EE057BF9
:101B200027EE007B1FD130EE470B704737EE465B48
:101B3000012337EE066B85EE060BC0E736498B4274
:101B40000BD2B7EE085B0223B7EE006B37EE454BC6
:101B500007EE056B84EE060BB1E7BFEE006B0323C7
:101B600086EE070BABE72D49002A2D4801EBC30198
:101B700000EBC30393ED006B37EE467B37EE407B03
:101B800091ED000B30EE470BB8BFB1EE400B704744
:101B9000075C143326A6913C182D4454FB21F93FD1
:101BA000182D4454FB21F9BF9C7500883CE4377E16
:101BB00011DA22E33AAD903FEB0D76244B7BA93F3F
:101BC0009AFDDE522DDEAD3F513DD0A0660DB13FF6
:101BD0006E204CC5CD45B73FFF8300922449C23FDC
:101BE0000D5555555555D53F2F6C6A2C44B4A2BFA1
:101BF0006D9A74AFF2B0B33F711623FEC671BC3F4D
:101C0000C4EB98999999C93FFFFF0F440000F07FFA
:101C1000FFFFDB3FFFFFF23F00800340982D0102F2
:101C2000782D0102000000007FB58DED000B019BB7
:101C3000214A23F00043934206D89FED1D1B07B0B5
:101C40005DF804EB00F014BA1C4A934204D907B0C3
:101C50005DF804EB00F0F4B902A800F031F800F0F0
:101C6000030001280BD0022812D0C0B99DED041B3F
:101C70009DED020B00F0FCF907B05DF804FB9DED53
:101C8000041B9DED020B00F0DFFCB1EE400BF3E70F
:101C90009DED041B9DED020B00F0EAF9F5E79DEDCB
:101CA000041B9DED020B012000F0CEFCE4E700BF19
:101CB0000000000000000000FB21E93FFFFFEF7F74
:101CC000F0B510EE907A964B89B0064627F00041A9
:101CD000994207D80022002380ED000BC0E90223BF
:101CE00000201BE08F4B99423BD8A3F51B23002F0C
:101CF0009FED7B7BA3F5F06319DD994230EE470B36
:101D00000ED09FED796B30EE467B012030EE470B15
:101D100086ED007B30EE460B86ED020B09B0F0BD80
:101D20009FED737B9FED746B30EE470BEBE79942B1
:101D300030EE070B0ED09FED6C6B30EE067B4FF054
:101D4000FF3030EE470B86ED007B30EE060B86ED64
:101D5000020BE3E79FED667B9FED676B30EE070BB1
:101D6000EBE7714B99426BD8B6EE007BB0EEC00B3F
:101D70009FED636B00EE067BFDEEC77BB8EEE75B85
:101D800017EE900A9FED567B1F2805EE470B9FED3F
:101D9000567B25EE077B30EE476B05DC421E634B1E
:101DA00053F822308B4208D116EE903A0A15C3F34D
:101DB0000A53C3EB1153102B02DC86ED006B1AE0C3
:101DC0009FED4B4B25EE044B30EE446B30EE467BE3
:101DD00037EE447B9FED484B15EE047B36EE474BC8
:101DE00014EE903AC3F30A53D31A312B17DCB0EE3A
:101DF000460B86ED004B96ED006B002F30EE460B48
:101E000030EE470B86ED020B88DAB1EE466BB1EE91
:101E1000400B86ED006B86ED020B40427EE79FEDA6
:101E20003A7B25EE077B36EE470B36EE406B36EEFF
:101E3000477B9FED376B15EE067B30EE476BBCE7BB
:101E40003B4B994206D930EE400B80ED020B80ED02
:101E5000000B45E70A1510EE103A08A8A2F2164248
:101E60001C46A1EB0255032145EC174BBDEEC76B99
:101E70009FED295BB8EEC66B37EE467B8DED026BAE
:101E800027EE057BBDEEC76BB8EEC66B37EE467B23
:101E90008DED046B27EE057B8DED067B30ED027B2F
:101EA0000B460139B5EE407BF1EE10FAF6D0214930
:101EB00002A8019102210091314600F041F9002F62
:101EC000BFF62CAF96ED007BB1EE477B86ED007B35
:101ED00096ED027BB1EE477B86ED027B9DE700BF6E
:101EE00000004054FB21F93F3163621A61B4D03DD8
:101EF0000000601A61B4D03D7370032E8A19A33BB1
:101F000083C8C96D305FE43F0000002E8A19A33BEF
:101F1000C14920259A837B390000000000007041F0
:101F2000FB21E93F7BD90240FB213941CC3601023C
:101F3000FFFFEF7F4C3701027FB58DED000B019B5A
:101F4000234A23F00043934207D800209FED1E1B35
:101F500007B05DF804EB00F077BB1E4A934204D94A
:101F600007B05DF804EB00F06BB802A8FFF7A8FE1D
:101F700000F0030001280CD0022811D0D0B90120B4
:101F80009DED041B9DED020B00F05EFB07B05DF8BC
:101F900004FB9DED041B9DED020B00F069F8F5E7D5
:101FA0009DED041B9DED020B012000F04DFBB1EEF9
:101FB000400BEBE79DED041B9DED020B00F058F884
:101FC000F5E700BFAFF30080000000000000000054
:101FD000FB21E93FFFFFEF7F7FB58DED000B019BFC
:101FE000154A23F00043934207D801209FED101BB0
:101FF00007B05DF804EB00F07FBB104A934204D9B0
:1020000007B05DF804EB00F01BB802A8FFF758FE1C
:10201000400000F002009DED041BC0F101009DEDA9
:10202000020B00F069FB07B05DF804FBAFF3008022
:102030000000000000000000FB21E93FFFFFEF7FF0
:1020400008B52DED028BB0EE408B0BF0CFFE20B922
:1020500038EE080BBDEC028B08BD9FED037B87EECD
:10206000070BF7E7AFF3008000000000000000005E
:10207000B0EE407BB7EE000B17EE901A21F0004156
:10208000B1F1795F39D327EE075B2B4B994227EEED
:10209000017BB6EE006B9FED1C3B9FED1D4B25EECB
:1020A000066B05EE034B9FED1C3B14EE053B9FEDCD
:1020B0001C4B03EE054B9FED1C3B14EE053B9FEDC7
:1020C0001C4B03EE054B24EE054B14EE057B04D8A8
:1020D00036EE477B30EE470B7047184B99420DD8D0
:1020E0000022A1F5001343EC152B36EE456B30EEC4
:1020F000450B36EE476B30EE460B7047B5EE025B94
:10210000F3E700BFAFF30080D43888BEE9FAA8BD7A
:10211000C4B1B4BD9EEE213EAD529C804F7E923E36
:102120009015CB19A001FA3E7751C1166CC1563FEC
:102130004C5555555555A53F3233D33F0000E93F27
:102140002DE9F04F2DED068BADF5137D12F1140F37
:102150009A460F46BE4B6FF01705A2990AF1FF3B56
:10216000A39E0DF1680E53F82190A6BFD31E18212F
:102170000023019009EB0B04A8BF93FBF1F303FBD1
:102180000555A3EB0B009FEDAC6B154406EB800CE3
:102190000022A2420EDD1AAA0DF5D47E002402EB25
:1021A000CA024C4525DCDDF804C0104600219FED35
:1021B000A27B15E0D04209D45CF8221007EE901AF9
:1021C000B8EEE77B0132AEEC027BE2E7B0EE467B95
:1021D000F8E7BCEC025B90ED006B013105EE067B8D
:1021E0005945A0F10800F4DD01340832AEEC027B61
:1021F000D7E706AA06EB83034C4602EB890202935B
:102200009FED8F9B9FED90AB0392E3006AAA21465E
:10221000049392AB02EBC40203EBC40313ED280B4F
:1022200006AB18460029A2F1080249DC28460593AE
:1022300000F07AFBB4EE007BB0EE408B20EE077B23
:10224000BBFE477B002D059BB2EE006B07EE468B75
:10225000FDEEC87B17EE908AB8EEE77B38EE478B31
:1022600040DD611E06AAC5F1180052F8216046FA49
:1022700000F290448240B61A06AA42F82160C5F1E5
:1022800017021641002E3CDD002108F101086FF015
:102290007F4E08468C4267DC002D04DD012D7ED088
:1022A000022D00F08680022E2BD1B7EE000B30EE0F
:1022B000488B30B3284600F037FB38EE408B20E0E7
:1022C00020EE097B0139BDEEC77BB8EEC77B07EE78
:1022D0004A0BBDEEC00BA0EC010A92ED000B37EEED
:1022E000000B9FE705D1621E06A951F82260F61582
:1022F000C8E7B6EE007BB4EEC78BF1EE10FA31DA28
:102300000026B5EE408BF1EE10FA40F0A580621E7B
:1023100000214A4554DA00296DD0013C06AB183D36
:1023200053F82430002BF8D0B7EE000B284600F00D
:10233000FBFA621C6AA9D30001EBC20122469FEDA1
:10234000406B002A80F2B2802246002AC0F2D08080
:102350006AA9DFF800C1002001EBC205A11A9FEDB8
:10236000367BBAE002268FE79C465CF8042B58B90E
:102370007AB10131C2F180728C424CF8042C0CDD30
:10238000DCF8002003F1080CAEEB02024CF8042C40
:1023900001220131634610467CE701207CE7621E82
:1023A00006AB53F82230C3F3160306A941F82230D6
:1023B00079E7621E06AB53F82230C3F31503F4E746
:1023C00006AB53F82230013A1943A2E7013352F821
:1023D000041D0029FAD0049A04EB0A011AAE601C0D
:1023E00002F51272234406EBC1016A44983A834213
:1023F00004DA1C4609E7039A0123E8E7029C019EE0
:1024000054F8204007EE904A04940024B8EEE77B8D
:10241000A1EC027B9FED087B8C465C4503DD01301F
:10242000A2EC027BE3E7B6EC025B3CED026B01340D
:1024300005EE067BF1E700BF000000000000000091
:10244000000000000000703E00000000000070412D
:1024500054380102B82D0102B0EE480B684200F07A
:1024600063FA9FED736BB4EEC60BF1EE10FA17DB57
:1024700006AA18359FED707B20EE077BBDEEC77B6B
:10248000B8EEC75B05EE460BBDEEC00B10EE103A82
:1024900042F82430013417EE103A42F8243043E772
:1024A000BDEEC00B06AA10EE103AF6E706A850F8EB
:1024B0002200013A07EE900A0190B8EEE77B27EE82
:1024C000007B20EE060B21ED027B3AE7BCEC025BC1
:1024D000B5EC026B013005EE067B484501DC81421C
:1024E000F4DA42A8013A00EBC10181ED007B2CE750
:1024F000A29A022A0ADC002A2DDC46D008F0070046
:102500000DF5137DBDEC068BBDE8F08FA29A032A72
:10251000F4D142A9A3F1080220460A44114600283A
:10252000A1F1080152DC21460129A2F108025DDC7B
:1025300042AA9FED437B1344012C67DC9DED425B77
:102540009DED446B002E67D187ED005B87ED026B3C
:1025500087ED047BD2E742AA9FED396B13442246F4
:10256000002A24DA4EB3B1EE467B44AA012387ED5C
:10257000007B9DED427B37EE467B9C4220DA0EB11C
:10258000B1EE477B87ED027BB8E742AA9FED2C7B3B
:102590001344002C05DA0EB1B1EE477B87ED007BCA
:1025A000ACE733ED026B013C37EE067BF1E733ED30
:1025B000027B013A36EE076BD2E7B0EE467BD4E7FA
:1025C000B2EC026B013337EE067BD6E791ED007B70
:1025D00091ED025B013837EE056B37EE467B81EDFE
:1025E000006B37EE057B81ED027B98E792ED007B77
:1025F00092ED025B013937EE056B37EE467B82EDDB
:10260000006B37EE057B82ED027B8DE733ED026BCD
:10261000013C37EE067B8FE7B1EE455BB1EE466BD2
:10262000B1EE477B87ED005B87ED026B90E700BF63
:102630000000000000007041000000000000703E3B
:102640000000000000000000B0EE407B17EE903A62
:1026500023F00043B3F1795F01D200F0F5B920EE29
:10266000005B9FED176B9FED183B20EE054B15EEC1
:10267000063B9FED176B03EE056B9FED173B16EEC8
:10268000053B9FED176B03EE056B40B99FED163BC5
:1026900015EE063B03EE047BB0EE470B704724EECD
:1026A000066BB6EE003B11EE036B16EE051B9FEDBD
:1026B000106B04EE461B30EE410B7047AFF3008009
:1026C0007CD5CF5A3AD9E53DEB9C2B8AE6E55A3EBC
:1026D0007DFEB157E31DC73ED561C119A0012A3F58
:1026E000A6F810111111813F495555555555C53F53
:1026F000495555555555C5BF10EE903A884923F0B8
:1027000000428A4210B533D8FDEEC07B17EE901A16
:10271000002942D1431C10EE104A2343134306D133
:10272000B7EE006BB0EEC07B86EE070B10BD012844
:10273000FCD030EE017BBFEE006B53EC172B86EE26
:10274000074B0A46B7EE006B43EC152B35EE400BFA
:1027500031EE400B53EC142B0A4643EC172B05EEDD
:10276000076B00EE076B06EE047BB0EE470BDDE770
:102770006C498A4211D9002B9FED497BBCBFB1EE59
:10278000400BB1EE411B37EE407B9FED470B30EE27
:10279000410B9FED471B30EE070B20EE006B6149AC
:1027A0008A429FED455B9FED464B26EE067B20EE71
:1027B000063B07EE054B9FED445B9FED452B04EE7A
:1027C000075B9FED454B05EE074B9FED455B04EE28
:1027D000075B9FED454B05EE074B9FED455B07EE15
:1027E000025B9FED452B05EE072B9FED455B02EE4F
:1027F000075B9FED452B05EE072B9FED455B02EE3A
:10280000075BB0EE457BB0EE415B04EE067B07EE66
:10281000035B9FED417B05EE061B03EE071B30EECD
:10282000016B1DD907EE900A26EE064B9B17B8EEFA
:10283000E77B03F00203C3F1010336EE076B84EE7E
:10284000065B35EE416B30EE466B36EE066B37EECF
:10285000466B07EE903AB8EEE70B26EE000B65E705
:1028600001281AD0BFEE007B51EC160B87EE065BF9
:102870000020B7EE006B41EC140B34EE400B31EE50
:10288000401B53EC152B024643EC172B04EE076B51
:1028900001EE076B06EE057B67E7B0EE460B45E7FA
:1028A000182D4454FB21E93F075C143326A6813CD4
:1028B0000000000000000000D47ABF74702AFB3EC4
:1028C000E9A7F0320FB8123F68108D1AF726303F93
:1028D000735360DBCB75F3BE1583E0FEC8DB573F57
:1028E00093846EE9E326823FFE41B31BBAA1AB3F5E
:1028F000A69237A0887E143F0165F2F2D844433F88
:10290000280356C9226D6D3F37D60684F464963F7E
:102910007AFE10111111C13F635555555555D53FDC
:10292000FFFF2F3E2794E53F10EE902AC2F30A5393
:10293000114610B4C3B922F0004210EE103A1A4307
:1029400018D02B4C9FED267BA04220EE070B10EEFB
:10295000902AC2F30A531146A3F136030DDAD00FC1
:102960005DF8044B00F048B840F2FF72934204D186
:1029700030EE000B5DF8044B70474CF25032904241
:1029800004DDC80F5DF8044B00F04AB8184440F26B
:10299000FE739842F5DC00280ADD21F0FF4121F4A6
:1029A000E00153EC102B41EA005343EC102BE1E71C
:1029B00010F1350F01DAC80FD2E721F0FF413630B0
:1029C00021F4E00153EC102B9FED077B41EA00530B
:1029D00043EC102B20EE070BCCE700BFAFF30080D9
:1029E0000000000000005043000000000000903C88
:1029F000B03CFFFF000000009FED050B9FED067B44
:102A0000002800FE077B27EE000B7047AFF3008025
:102A10000000000000001000000000000000108016
:102A20009FED050B9FED067B002800FE077B27EE40
:102A3000000B7047AFF30080FFFFFFFFFFFFEF7F4A
:102A4000FFFFFFFFFFFFEFFF9FED076BB7EE007B80
:102A500082B037EE067B8DED007BDDE9002302B00E
:102A6000704700BFAFF300800000000000001000BE
:102A7000F0B5ADF50F7D012002A901F0F3F8044691
:102A800038B1014640480BF08EFD20460DF50F7D14
:102A9000F0BD05AE01461023324602980CF029F82D
:102AA000044610B101463948EDE73378013BDBB20B
:102AB000FD2B05D936480BF076FD6FF00104E4E7F5
:102AC0000A22304603A90AF013F8039B0546B342D5
:102AD00005D130480BF067FD6FF01504D5E75B7842
:102AE000C3B929464FF4805009F0B0FE074618B923
:102AF000294629480BF057FD2B463A4610210298EB
:102B00000BF0F7FF064688B1014624480BF04BFD59
:102B10003446BAE70FF03CF8214B18580EF095F9FF
:102B20002049FEF7F5FA0028DBD1AEE701464FF465
:102B3000057209A80EF047FF1B4B1C4909931C4B5B
:102B400004AA0A931B4B09A80B930123ADF8043088
:102B500001ABCDE98B7505F0DDFF054628B10146D7
:102B600015480BF020FD2C468FE704980D49843062
:102B700005F0A2FF014608B910489CE72A460498D0
:102B800006F078F881E700BF053B0102273B010210
:102B9000453B0102563B0102783B0102953B010295
:102BA00010000000733B01029D020102F83B01028C
:102BB000C7020102DB020102B83B0102D63B01025F
:102BC0007FB50BAB05930393054B022202930023C1
:102BD0001846CDE9003300F0C7FD07B05DF804FBEF
:102BE000033C01022DE9F04F91B0009302F0040381
:102BF0000293C2F3C2030E46013381070546DDF896
:102C000068900392059340F0BC81041D30B1072EFB
:102C100009D86FF01B0011B0BDE8F08F06F0070671
:102C2000341DC6F10806009B4FF000084FF0040A5F
:102C3000591E4FF0FF3347460193C3465346CDF824
:102C400010800DB1009820600598002800F3EB80FB
:102C50009948009A824203D398488242C0F0E380A8
:102C6000039AA4EB050E92074FEA9E0000F106813D
:102C70000F2F00F2B480002D00F0088107F1400210
:102C80000DEB020C019A0CF8200C0CF8102C049897
:102C900001300490EAE07A2860D84B2810D8472801
:102CA0005CD829282FD8252855D057D8A0F1230241
:102CB000D2F1000C4CEB020C202818BFE34675E063
:102CC0004C382E284AD8DFE800F071494949494973
:102CD0004949494949494C49494949494949495A50
:102CE000494C4C5A5A5A714C6E497149184C184902
:102CF0004983804C49494C49800000204FF0000B2B
:102D00004FF0040A39E00122A0F12A0C5FFA8CFC92
:102D100002FA0CFC1CEA0E0F48D11CF062502ED1B6
:102D20001CEA020B42D0013C5444B4FBFAF40AFB07
:102D300004F4002D61D0A3EB050CA444B4453FF688
:102D400068AF002868D1042B47D159F8043B2360B1
:102D5000042304342AE0019A013A01924FF0000B57
:102D600024E011F8010C6C2834D1002011F8023C49
:102D700083466C2BC4D14FF0080A5346D3E709F1C0
:102D8000070929F00709073424F00704F9E802AB22
:102D900035B106982044B0423FF63BAFC4E900ABE2
:102DA0004FF0000B08344FF0080A534611F8010F9A
:102DB000002878D0BBF1000F7FF46DAF2528F5D146
:102DC0004FF0010B019B013301934FF0040AECE734
:102DD000584693E700208346A5E7082B02D06FF002
:102DE000150018E709F1070929F00709B9EC027B7A
:102DF00084ED007B08230834D8E768B9042B02D19E
:102E000009F10409A4E7082BE9D109F1070929F020
:102E1000070909F10809EDE705980138059059F807
:102E2000040B00900DE7039A900720D54FF0010C9A
:102E3000A4EB050E4FEA9E00BEF5007FCFD20F2F08
:102E4000CDD8F5B107F140020DEB020E019AC0B2E8
:102E50000EF8200C0EF8102CBCF1000F3FF417AF49
:102E600060F07F000EF8200C08F101080137C5F171
:102E700008024FF6DA7E0434069297E74FF0000C12
:102E8000DAE7BCF1000F01D00136EFE7029A023613
:102E9000002AEBD10098CDE90631FEF74BF9DDE9C8
:102EA00006310644E2E7631BB3F5806F97D23DB964
:102EB000A6F10804E018AEE6D81B010288730102EF
:102EC000029A9B0828602B709DF81030C2B1EB70FD
:102ED00085F80280B8F1000F05D008A8C5F1010CF3
:102EE0007A1C013A0ED14FF0000AC5F101030DF131
:102EF000200901930DF1300B574511D1601B8AE673
:102F00006B70E5E710F8013B1906EAD504EB0C0EEF
:102F1000B64503F07F033FF67CAE04F8013BE0E7E3
:102F2000B8F1000F03D099F90020002A17DB029BAB
:102F3000D3B11AF80B2004F8012B0022019B98183A
:102F40002044B0423FF665AE99F80000009904F8BD
:102F5000010B204603920EF00FFD039A14440AF170
:102F6000010A09F10109C7E799F8002055F8223054
:102F70000093029B009845F82230FEF7DBF8421CD4
:102F8000DCE76FF00D0046E62DE9F04F9BB0DDF871
:102F900090B00993CBF3C00304461646884690F8D8
:102FA00002A00B9341B9457800780AEB80002044D9
:102FB000454516D8A0EB0408E3780A93BAF1000F50
:102FC00002D01BF0010F15D10A9B002B39D11EB185
:102FD00041462046099AB047454628461BB0BDE801
:102FE000F08F471C3846FEF7A5F80130384408F149
:102FF0000108DDE72278636806920893069B920039
:103000000C9204EB8301002E40F0E6800F46002670
:10301000454601EB0A08474522D017F8013B0691C7
:1030200054F82300FEF786F8259B0699013033B14A
:10303000269B9E423EBF259B23F816000136054481
:10304000E9E71BF0020FC2D023781F4606939B00CE
:103050000C93636804EB87010893002E56D1454614
:103060001BF0050F01EB0A070CBF4FF0020A4FF0EF
:10307000010A0A9B07EB43090BF0020306934F4535
:10308000ABD017F8021B17F8013C54F823808E4B85
:10309000984502D38D4B984519D30B9B23B30898C1
:1030A0000BF056FA00B38A48036813F0060F0CD0F1
:1030B000089B04910393874B01460293002302224D
:1030C0001846CDE90033FFF77BFD023DD7E70B9BA8
:1030D00023B108980BF03CFA0028E4D11BF0010F53
:1030E00005D1A5EB0A05CAE7069B002BC7D04046D1
:1030F000FEF720F8259B3BB1269B9E423FBF259AB9
:10310000431C22F8163001360544B8E7BAF1000F27
:1031100066D01BF0040766D057464FF0000916A88A
:10312000524607910EF028FC079901EB0A0307931A
:103130000A9B0A9A5B000E93079B03EB42030D93D5
:103140000BF002030F930D9B079A93424DD1002180
:1031500063781BF0020F03EB09004FEA570218BF18
:103160000A461BF0010FC0B203D11BF0040F18BFB9
:1031700039466070A170E2702046099A0C99089354
:10318000B047051EFFF629AF069B39462370089B02
:10319000099A63700A9B84F802A0E37016A8B047EE
:1031A000071EC0F28C800C9BA8EB0A01C91A0E9B6B
:1031B000099A0798C91AB0470028C0F282804FF0D8
:1031C00000082F443D180DF1480BC14555D800218A
:1031D000099A0846B04700E7D146002712A89FE7A2
:1031E0005746D146A1E7B9469FE7079B13F8021B54
:1031F00013F8015C079354F82520334B9A4202D30D
:10320000324B9A4217D30B9B23B108980BF0A0F9CD
:10321000002898D10F9BC3B907F168037A1C0DEB06
:1032200003001AAB023753FA82F200F8101CFFB207
:1032300002F8105C87E70B9B23B108980BF088F924
:10324000002880D11BF0010F0AD009F1680309F1B1
:1032500001020DEB030909F8205C5FFA82F972E7BD
:103260001BF0040F3FF46FAF07F168037A1C0DEBFE
:10327000030707F8105CD7B265E718F80B30259FF5
:1032800054F823A08DF847300FB137F8187001219A
:10329000099A0DF14700B047002812DB054427B911
:1032A0005046FDF747FF471CBFB239465046099AC2
:1032B000B047002805DB054408F1010885E73D46D5
:1032C0008BE6054689E600BFD81B01028873010220
:1032D0009C030022033C0102014B1860704700BFB1
:1032E0000000002270B50446044E4518AC4200D1DF
:1032F00070BD336814F8010B9847F7E7000000220F
:1033000080B505460E461746984608F0D1FE03469E
:103310000EF03EFC0446DFF81890424649F80030B3
:1033200039463046A84754F8090004F0E9FF00BFC9
:10333000100000000020074B074A1A60074B084A9C
:103340001860536943F460235361BFF34F8FBFF399
:103350006F8F7047240C002200127A00200C00228C
:1033600000ED00E02DE9F84F81462E480F460BF0A6
:1033700080FA064670B92C4C0546A0464FF0010B6A
:10338000DFF8A8A0544507D3B9F1000F02D04FF0E1
:10339000010AE5B9BDE8F88F237B6BB12368DB68D0
:1033A0000BB12046984723681B6943B96368042220
:1033B0002046196800F096F901361034E2E72046FD
:1033C00098470028F2D00BFA06F31D43F4E7A9460C
:1033D00095FAA5F4B4FA84F40AFA04F3260108EB8A
:1033E00004146FEA030B25EA0305237B63B158F845
:1033F00006301B698BB9464473680422204619685D
:1034000009EA0B0900F06EF9002DE1D11FB164202B
:10341000002108F003FE4D46BBE7204698470028F0
:10342000F2D1E8E7300C0022B0210102C0210102F4
:1034300008B5034608462BB1044A136000F0FAFBB6
:10344000002008BD6FF01500FBE700BF040000225C
:1034500008B50023074A4FF47A711370064A0748EB
:103460001360074A1360FFF7E3FFBDE8084000F070
:1034700085B800BF1C200022280C002263E800024F
:103480002C0C002270B50B4D297841B90120FFF7B3
:1034900069FF094C094EB44202D301232B7070BD61
:1034A00063685B791BB1236820469B68984710349A
:1034B000F1E700BF1C200022B0210102C02101025F
:1034C000014B1868704700BF2C0C002210B5044651
:1034D00006480BF0CEF93CB1054BD3E8EF1F01399C
:1034E000C3E8E21F002AF8D110BD00BF280C00225B
:1034F0002C0C00222DE9F041164B05461B6898471D
:10350000154CDFF85880A860444501D3BDE8F08130
:1035100063685B793BB129784B0706D52368294658
:1035200020461B6898471034EEE728462E88C1F3E2
:10353000C20700F0E9F9C6F382160246002EEDD06C
:103540000028EBDB01233946204600F0E5F8B042C5
:10355000E9D3E3E704000022B0210102C021010207
:10356000044A054B9B1AB1EBD30F34BF52F831001C
:103570000020704720210102B021010200200B49E8
:103580000B4B30B55B1ADB080A4C04310133013BAD
:1035900000D130BD11F83020256802F0070225F077
:1035A00007052A4344F8042B0130F0E720210102EB
:1035B000B021010298030022F8B5064600240A4F04
:1035C0000A4DED1BED08AC4203D14FF0FF3420460D
:1035D000F8BD57F8340020B13146FDF799FD0028B9
:1035E000F5D00134EFE700BF20210102B021010234
:1035F00000282DE9F047884615461F461DDA4FF092
:10360000000A5446DFF8A890254EA6EB09063609B5
:10361000B24509F1100902D12046BDE8F08759F8FA
:103620000C0C3B462A4641460079FFF7E1FF8442F5
:1036300038BF04460AF1010AEAE71A4B1A4AD21ABD
:10364000B5EBD20F29D203EBC5031C79BC4228BFCE
:103650003C4607224FF0090E144EC0B200EB40006A
:1036600056F82530824023EA020304F00702824024
:103670001343032100224EF001E023FA01F000F091
:103680000700824238BF024603310FF00BC023F01F
:103690000703134346F82530BEE70024D9E700BFEF
:1036A000C021010220210102B02101029803002261
:1036B000B0210102F8B506460F460024074D084B1D
:1036C000ED1AED08AC4200D3F8BD002122B23B4612
:1036D000304601340BF0F2F8A4B2F3E7B021010256
:1036E0002021010238B50D4611460A4B4268C31A23
:1036F0001B1104460133137143689971FFF7DAFF18
:10370000012263681D6063685A71BDE838400BF0A0
:10371000CEB800BFB021010210B570B1416809797F
:1037200073B1002A17DBCBB20C4903EB430351F80A
:103730002200D84000F0070010BD4FF0FF31EFE746
:103740000749084C1846641AB2EBD40FF4D201EBC7
:10375000C2010879F0E70420EEE700BF98030022D9
:1037600020210102B02101022DE9F04F87B004AF02
:103770000446D7E90EA90E46934698463D6BBAF12A
:10378000000F22D0C7F80490CDF8009010215346C6
:1037900000207A6BFFF726FAB0F5006F014615D3CB
:1037A0001C490B6813F0060F0BD040F2FF73039314
:1037B000194B0222029300231846CDE900330BF087
:1037C0001CF90C37BD46BDE8F08F514604F00704E4
:1037D0000BF0070BE40044EA8B1444EA412444EA6A
:1037E000055417350D4425F00705ADEB050D04AD67
:1037F000BAF1000F07D0CDF8009053467A6B05F16F
:103800001000FFF7EFF943462246314628460BF0F9
:1038100085F8D6E7BC030022F03C01022DE9F04F09
:10382000C1F34A2691B00D469046079008930C0DBF
:10383000002E5AD000274FF0040B4FF00A0A0BABB2
:1038400001933A460DAB31464046CDF808B0CDF86D
:1038500000A0CDE90D770F97FFF796FBB0F5006F4D
:10386000B146034616D325490B6813F0060F0ED058
:1038700040F2FF730493D8F8043002220393204BE4
:103880003846CDE9017300973B460BF0B6F811B00E
:10389000BDE8F08FC0F30A0604F11700184420F0C9
:1038A0000700800809930BF005F866F353250446DA
:1038B00080B1099B00F11001CDE90E370BABCDE9CA
:1038C00000A30D91404649460E4ACDF808B00DAB15
:1038D000FFF75AFB66F353252A462046089B0799B3
:1038E00011B0BDE8F04F0BF019B804F1170020F04B
:1038F000070080080AF0DEFF0446EBE7BC03002265
:10390000283D0102F1E8000243680548002BA3EBC3
:10391000000040F38F0008BF4FF0FF30704700BF3A
:10392000980300220EB403B503AB53F8042B0146F1
:103930000448019304F0C8FE02B05DF804EB03B044
:10394000704700BF1BEA0002CA0605D48B064CBFB5
:1039500002490349FFF7E6BF704700BF4B3F010232
:10396000673D01022DE9F04F8BB09B46169B9DF8F9
:1039700054A00693179B04460593189B0D4690464A
:10398000199E0493BAF1000F00F09B8006F001032A
:10399000089306F00803079306F4807309930AF06E
:1039A0008BFF06F002090246074620B120468D49EA
:1039B000FFF7B8FF0746B9F1000F09D016F0440F22
:1039C00032D12A4620468849FFF7ACFF03461F4400
:1039D000089B53B1854B864A53F82A302046002B6A
:1039E00018BF1A468349FFF79DFF099B002B48D05B
:1039F000079B002B62D14546B8F1000F05D0424627
:103A000020467D49FFF78EFF0546069B3D44002B6F
:103A100066D1049B002B6CD1F30700F1DD803146A9
:103A20002046FFF791FFD1E0744B18680346002849
:103A3000CDD0734B4FF47A791B684FF46161B5FBBD
:103A4000F3F5B5FBF0F300FB135509FB05F5B3FBEC
:103A5000F1F2B5FBF0FE4FF03C0C01FB123100FB24
:103A60001E55B1FBFCF309FB05F5B5FBF0F50CFBAE
:103A7000131120460091CDE901E56249FFF752FF9D
:103A8000A4E7079D3DB1604B204653F82A205F49CB
:103A9000FFF748FF0546B8F1000F05D04246204623
:103AA0005549FFF73FFF0544BBF1000FADD05A4623
:103AB00020465749FFF736FF0544A6E74FF0000BB5
:103AC000E1E7BBF1010F069B06D1002B64D1049BFB
:103AD000002B7BD000250CE0002BF8D04D485CE09B
:103AE0004D48069B22464D490AF001FD049B002BE0
:103AF00068D0DFF83881DFF83891049F3146102F05
:103B0000204628BF10274FF0000BFFF71DFF5D4533
:103B100045DC059B494620461A78FFF703FF4FF026
:103B2000010B1BF0070F03D141462046FFF7FAFEB9
:103B30005F453BD9059B4946204613F80B20FFF70C
:103B4000F1FE0BF1010BBBF1100FEAD14FF0000BAE
:103B500020463349FFF7E6FE5A46059B20469A5C0D
:103B6000A2F120015F2928BF2E222E49FFF7DAFE9D
:103B70000BF1010BBBF1100F1DD01BF0070F03D190
:103B800041462046FFF7CEFE5F455A46E5D84146FE
:103B90002046FFF7C7FEEBE71F485546A1E7414621
:103BA0002046FFF7BFFE0BF1010BB0E720461E4990
:103BB000FFF7B8FEC5E7059B3B440593049BDB1B61
:103BC00004939AD1BAF1000F7FF426AF20460BB0D0
:103BD000BDE8F04F0AF04BBF2046054A0549FFF704
:103BE000A1FE1CE76F3D0102733D01020C2E010294
:103BF0006A3D01027F410102983D0102380C00221A
:103C0000340C00227C3D0102202E01029C3D010269
:103C1000A23D010237EA00021BEA0002C986000247
:103C2000B13D010289470102AD3D0102AF3D0102F4
:103C3000A73D0102002201230749884207D8002A34
:103C400008BF0123054A1360054B18607047012225
:103C500040085B00F1E700BF40420F00340C002237
:103C6000380C002238B5134B0D461C68F4B1124BCA
:103C70001A68002A02F10103B8BF0123013B02D1F7
:103C80006FF0010038BD224612F8101B814201D0AE
:103C90001446F3E7E06810B96FF01200F2E70CF099
:103CA00015FE0028F8D000202C60EBE76FF00C0028
:103CB000E8E700BF08000022342E010208B5082101
:103CC000024B034A0BF07CF8002008BDD33D0102F3
:103CD000D93D010210B5044606F080FF08210346D5
:103CE000074A20460BF06CF82046064A08210BF0E4
:103CF00067F82146044808F0D7FA002010BD00BF3D
:103D00006E3E01028D3E01020D3D000270B58EB087
:103D100004460D46D0F89C600DF097F802460DF071
:103D200037FF254B25491B589C42254B18BF0B4696
:103D3000101E244A4FF0080108BF1046224ACDE960
:103D4000004028460BF03CF8D4E90A23CDE90223D1
:103D500094F90E3028460093237B08211B4A0BF070
:103D60002FF806A92022204607F0B0FD626E034618
:103D7000009208212846164A0BF022F8204605A991
:103D80000DF087F8034630B108212846114A0BF0A0
:103D900017F80EB070BD6423059A2846B11A4B433C
:103DA000B3FBF6F3CDE90021CDE9026308213346E8
:103DB000094A0BF005F8ECE710000000AF3D0102E6
:103DC000A8520102973E01029A3E0102A63E01025C
:103DD000D23E0102E93E0102163F0102F0B5002584
:103DE000044693B029460AAF1C220BA80DF0EBFD48
:103DF000134E1A22202138460DF0E5FD21461148C8
:103E000008F052FA09AA4FF4006130460DF034F878
:103E100064224FF400630999CDE90057C1F50060B1
:103E20004243D20ACDE90403CDE90231204606928D
:103E300033460821044A0AF0C3FF284613B0F0BDF8
:103E400078C80022293F00024D3F010210B5044608
:103E500006F0E2FE08210346024A20460AF0B0FFBF
:103E6000002010BD963F01022DE9F34117460023C3
:103E700004460A21B86801AA019301F0B1FB019D33
:103E8000C6B255B12B4601212046144A0AF098FFCC
:103E9000019D284602B0BDE8F081042E0AD93346C0
:103EA000012120460E4A0AF08BFF20460AF0C5FF8A
:103EB0000125EEE77868FFF77FFBB0F1000805DA2F
:103EC000012120467B68074A0AF07AFF0021334629
:103ED00008460FFA88F20AF0F1FCDAE7AC3F01027B
:103EE000D33F0102EA3F010237B5134600220546DF
:103EF00001920A21586801AA01F072FB019C4CB999
:103F00000A2120EAE07080FB010108F087F82046D2
:103F100003B030BD234601212846024A0AF050FF73
:103F2000019CF4E709400102F0B504460D46D0F8C3
:103F30009C6089B007A90CF0ACFF034630B10821A2
:103F40002846104A0AF03CFF09B0F0BD20460CF0AC
:103F50007CFF64230799021EA6EB010707FB03F30E
:103F60000948B3FBF6F308BF0246CDE90463CDE987
:103F70000217CDE90026234608212846034A0AF005
:103F80001FFFE1E7E93E0102973E010229400102DD
:103F90002DE9F04387B00546684606F057FE142326
:103FA000009E082103FB0066174A28460AF008FF16
:103FB000164F009CDFF86080DFF86090B44203D3B6
:103FC000002007B0BDE8F08323680BB11A7832B93E
:103FD00023463A46142101A808F0C0FC01AB424632
:103FE000082128460AF0ECFE20460CF06FFC002861
:103FF000074B4FF0080108BF4B462846054A0AF018
:10400000DFFE1434DAE700BF6E410102784101029D
:104010005F410102E84701027D4101026541010261
:104020008B1E022B2DE9F04107468846144637D8EF
:1040300010220021606808F05BFDB8F1020F06460F
:1040400007D1202308213846244A0AF0B9FE3368F4
:1040500016E00A220021A06808F04AFDC5B22B46EE
:10406000082138461D4A0AF0ABFEB8F1040F1AD0F9
:10407000102D0DD0202DEAD0082D0CD13378DBB2D5
:1040800008213846164A0AF09BFE0020BDE8F08160
:1040900033889BB2F4E708213846124A0AF090FEB2
:1040A0006FF01500F2E710220021E06808F020FD13
:1040B0000821034604460C4A38460AF081FE102DBA
:1040C00006D0202D07D0082DE5D1E4B23470DCE70E
:1040D000A4B23480D9E73460D7E700BFB64101020B
:1040E000E1410102CB410102F24101022DE9F04F11
:1040F00091464FF0FF350122574B85B00746884661
:104100001A60202604F08AFB2C46DFF86CA1494691
:104110005246404604F0A6FB411C07D16A1C52D10E
:104120004E4A012138460AF04BFE1DE0732820D08C
:10413000772833D0612817D1DFF840B11022002151
:10414000DBF8000008F0D4FC05460028DFD10DF0B4
:104150001FFD434B1B58162BD9D1DBF80030414AC9
:10416000012138460AF02CFE6FF0150005B0BDE8BD
:10417000F08F0022DFF804B11146DBF8000008F0F0
:10418000B7FC04460028C2D10DF002FD344B1B5889
:10419000162BBCD1DBF80030334AE1E70022DFF810
:1041A000DCB01146DBF8000008F0A2FC064600284F
:1041B000ADD10DF0EDFC2A4B1B58162BA7D1DBF827
:1041C00000302A4ACCE7631C01D1294AA9E75FFAEB
:1041D00086F8C6F3C406002C3CD06B4629461A4626
:1041E000A6EB050C0CE0B8F1100F1DD0B8F1200FB4
:1041F00020D0B8F1080F2AD1087818703144334420
:10420000A64203D80CEB01001028ECD9102CA146D3
:1042100028BF4FF0100929464B46384601F0A4F854
:104220001035A4EB0904D6E7088880B21870000A9C
:104230005870E3E708684FEA102E187083F801E021
:104240004FEA104E000E83F802E0D870D6E708213E
:10425000084A67E7204689E78800002247420102B2
:104260001400000006420102194201022C42010220
:1042700064420102CB41010240420102681F002258
:1042800070B5104E04460D46337881B12BB1012133
:10429000BDE870400C4A0AF093BD01233370082139
:1042A00020460A4A0AF08CFD0123337004E083F0B3
:1042B00001033370002BF2D129462046BDE870403F
:1042C0000AF0DABD1D2000227E420102B94201023D
:1042D00070B504463F480378182B02D10B78112B98
:1042E00030D00B46551E013A25D14B5D0A7803703C
:1042F000A2F13003092B384C04D922F02003413BB2
:10430000052B04D823683549CA5401332360236838
:10431000022B3CD110220021304808F0E9FB304A42
:10432000136803F8010B13602E4A136801331360FE
:10433000002323602BE013F8016B182ED3D11E78D5
:10434000112ED0D1274D08212B682046264A0AF08D
:1043500037FD00212046FFF793FF244B1E78B6B9A6
:104360002B6823495A1E9208002B02F10102CCBF90
:10437000144601240868013C0AD10EB108602B6084
:1043800013F003020BD10A6813681BBA136070BDE7
:104390000268012612BA40F8042B043BEBE75B42AB
:1043A00003F0030352EA43B3022B04D10A681388D3
:1043B0005BBA9BB2EAE7032BE9D1086802681104F3
:1043C000C2F3074301F47F010B4302F47F4213431E
:1043D0000360DCE71E2000223C0C0022202000228B
:1043E000480C0022400C0022E34201021F20002260
:1043F000440C00222DE9F84F0023064615460C46D2
:104400002949DFF8BC800B602849DFF8B890DFF855
:10441000B8B088F800300B60012C2F4655F804AF77
:104420001ED90222494650460DF0FEF880B99AF88E
:104430000220003A18BF01229244504602221C4931
:104440000DF0F2F830B9012388F80030013CE3E7C1
:104450000022F1E749465046FCF75AFEA8B9043756
:1044600000227868114608F0CDFA0022114B11465F
:104470001860786808F0C6FA0F4B1049186030468B
:10448000FFF7FEFE0020BDE8F88F9AF800202D2AE5
:10449000E6D19AF80120002AE2D053465A46082174
:1044A00030460AF08DFCD1E73C0C0022400C002283
:1044B00000430102480C0022440C0022D1420002B9
:1044C0001F200022FD420102034301027FB50BAB16
:1044D00005930393054B0222029300231846CDE96E
:1044E0000033FFF741F907B05DF804FB5F440102B8
:1044F00007B50A480CF0EAF960B10423084A0093B2
:10450000126801230549074800F0A0FF002003B00E
:104510005DF804FB6FF01200F9E700BFD01D010247
:10452000B42F0102182A010210B54468A360402389
:10453000C4E9001242680821D36402F158031363EE
:104540000023C2E90E33C2E91133C2E90633C2E9DE
:104550000933D162146802F150015363136411618D
:1045600053611362C2F8D030A36823B19B6C13B1BE
:10457000204604499847A3689B6A0BB12046984798
:10458000002010BD894500022DE9F04304460D4688
:1045900087B083685B6C03B19847A3685B6B0BBB08
:1045A0004FF0000905F130084046EA6C05A90AF011
:1045B0008EF80646002836D0A36805999B693BB360
:1045C000024620469847074628B3394640460AF037
:1045D0009BF8BE424FF00109E6D00020D5E9013139
:1045E000984703E0204698470028D9D1A3685B6A22
:1045F00083BB05F110073846EA6A05A90AF0B8F846
:10460000064670BB20460AF099FAC5F8D06033E040
:104610006FF05707D9E7014640460AF075F8B9F13F
:10462000000FE3D0D9E718490B6813F0060F07D045
:10463000164B0222CDE9010300900346FFF746FF27
:10464000A3689B69002BEAD0012220460DF11301DB
:104650009847E4E7204698470028CAD107B0BDE84C
:10466000F083A36805995B695BB1024620469847D1
:10467000014638460AF098F8D5E9013101209847FB
:10468000ECE76FF05701F4E7D80300225F44010222
:1046900010B504468168183101F0E0F9A1682046A0
:1046A000BDE81040014A183101F07EB9A144010271
:1046B00038B58368044603F580539B6FDB071FD42E
:1046C000C0690BF0AEF8606803685B689847054600
:1046D00020B9E0680BF0FDF9A3681D75A3685B6C59
:1046E00013B129462046984700220DF051FAA368DD
:1046F00003F58053C3F82021034B185803F000FE44
:104700006FF00F05EAE700BF1000000001490AF052
:1047100099BA00BF4B3F0102F7B5044680680D46C9
:1047200000F580539B6F5A0705D500210AF0CCFA9B
:10473000E0680BF0A0F9E368DB6873B9002D3CD0AA
:10474000A66806F1560738460AF074FA002836D0F3
:10475000394606F65600FCF7E5FCA2682946E068F3
:104760000DF1060356320BF089F958B9A06800F62E
:1047700056015630FCF7D6FCA06856300AF05AFABB
:10478000ADF8060020460AF06BFEA36803F58053DF
:104790005B6F9B0603D50B4960690AF053FA20460C
:1047A00000F088FFA268BDF806302046A2F852301B
:1047B000A268A2F850300AF0B8FD03B0F0BD86F848
:1047C0005608CAE7A82A01022DE9F04FA7B004460F
:1047D0005422002111A80DF0F6F80023CDE905338D
:1047E000A3682046563302930AF041FE20460AF0A1
:1047F00084FD10B96069FFF789FF00264FF0FF378D
:10480000B246B3463546B146A0681422002118309E
:104810000DF0D9F820460AF017FDA168E068B1F85C
:10482000502056310BF061F920460BF0E7F90DF1FD
:1048300044080396DDE90532012A6DD0132B6ED8AA
:104840005FBBBBF1000F0AD020460BF0F8F9142330
:10485000A26811A956320DEB03000AF075FBB9F1FD
:10486000000F0CD099F81130FE2B08D1059B26AA19
:1048700002EB830252F8542C0AB101330593A0686D
:10488000059D436A002B40F0B780CEB1C3699E42BC
:104890002DD00D9600F1180524E002234146029A1E
:1048A00006A80AF051FBD8F80420069903460292A4
:1048B00031B101290AD148B16D4A20460AF086FE7D
:1048C0006FF00705284627B0BDE8F08F059B002B49
:1048D00034D0D8F8000001F0E1F898B166B1A568CD
:1048E0000D9618350CAE0FCE0FC533682B602046E1
:1048F000FFF7CEFE0125E5E75E4A012120460AF0DA
:1049000065FEDDE7059BCBB129462046D8F800209F
:1049100001F07EFA022809D1059B132B91D9069B41
:10492000022B8ED10121544B544AC6E7032805D0EF
:10493000059B4FF0010B013305937BE7039B33B9D4
:104940004846D8F8001007AA0AF0F5FB054608F11A
:104950000408013F002D3BD0EB68BBF1000F08D0ED
:10496000F3B120460AF083FD20460AF0DEFC444AFB
:10497000C3E7ABB1AE46A368DDF814A003F1180C91
:10498000BEE80F00ACE80F00DEF80030CCF80030D5
:10499000AB682BB96B7CFE2B04BF2F7C07F1FF3774
:1049A000D5F804C0A946BCF1000F08D0AE460CAE45
:1049B000BEE80F000FC6DEF8003033606646069B87
:1049C00017B9022B7FF436AF059B0133059331E70E
:1049D000059B13B101230393F1E7A368DB6A13B1CD
:1049E000DB68002BF6D1274B012100932046119B59
:1049F000254A0AF0EBFDEDE790F82830A5EB0A0513
:104A0000BBB14FF6FF7190F82920FF2A08BF0A4674
:104A10009D4202D313449D420BD983690121204654
:104A20001A4A0AF0D3FD2046FFF732FE6FF0150553
:104A300048E741F20C1601210AF03AF9A068304427
:104A40000AF05DF9A36811AA294602EB8A02204602
:104A50005B6A98470546A0684FF0FF324FF0FF337E
:104A600030440AF0E5F80021A0680AF021F929E7AE
:104A7000AF440102C3440102244501020540010282
:104A8000E1440102104501020048010248450102CB
:104A9000022210B5836804461A7583689B6CCBB9F3
:104AA0000AF0A5F8836803F580539B6FDB040CD5EF
:104AB0000321094B094A0AF089FDA0686FF480516F
:104AC00000F5835018300AF0A8F82046BDE81040E1
:104AD00000F04CBF10BD00BF634501027F410102E1
:104AE0002DE9F04F04468068012100F58350B1B0F4
:104AF00018300AF087F8A3681B7D022B20D1002311
:104B00000993A36860689E6C03681D6909AB16B3BE
:104B100010221BA9A847099B93B10121A0680AF0A4
:104B2000C7F82046099A1BA9B0470021A0680AF0DF
:104B3000BFF8A3689B6C002BE3D12046FFF7A8FFCA
:104B40006FF00101A06800F58350183031B0BDE866
:104B5000F04F0AF062B801220DF12301A847099B2A
:104B6000002BEDD09DF923109DF823300029A26879
:104B7000C7DB517D032900F21883DFE811F0040040
:104B80009402AD0216030D2B02F580517CD00A2B46
:104B90005AD0B1F87820092B6FF3CA02A1F8782017
:104BA000A06800F086803FD8002BAAD0082B00F028
:104BB0000582024602F58052516F8907A1D5013B5B
:104BC000162B9ED801A151F823F000BF79510002A5
:104BD000FD4F000205500002F54F00026D5100022A
:104BE00023500002034B0002034B0002034B000260
:104BF000034B00022B50000233500002034B000213
:104C00005D500002034B000267500002034B00029C
:104C1000034B0002034B0002034B00026B500002E7
:104C2000034B0002975000021B2B3FD07F2B00F05C
:104C3000D281A3F120015E290246BBD801210AF0EE
:104C400043F89DF82310BBE0886FC0F3C70020B184
:104C5000886FC0F3C7000A28ACD1B1F8782063F39D
:104C6000CA02A1F87820A568B5F85010B1B9284655
:104C70000AF02AF8E0680AF0FEFE6069FFF746FDD8
:104C80002046FFF705FF3CE7886FC0F3C700002808
:104C9000E3D0886FC0F3C7000D28DDE72046FFF79B
:104CA00093FD05F58055C5F82401E9E70123437517
:104CB00027E700F580535B6F9B077FF522AF01214B
:104CC0000AF002F840F2FF73A068B0F850209A4250
:104CD0003FF417AF0025B0F8522000F1560100F65E
:104CE00056000CF049FEA3681BA9B3F852200BA88C
:104CF000134483F85658A268142302F656020AF0A9
:104D000023F90B9914293FF6FCAE30AB03EB81037A
:104D100043F8545CA368B3F85220002A54D01344DB
:104D200093F85530202B02D0093B042B4CD8002996
:104D30004DD100250A950A9B30AA02EB830353F854
:104D400054AC0026504609F075FFB3468146B04684
:104D500037463946284616AA00F008FC03460028C4
:104D600041D1012EA76866D10A9B30AA02EB8303CA
:104D700053F8540C09F05EFF4146064607F118024D
:104D8000284600F0F3FB0568284609F053FF8642E9
:104D900005D0821B92B22046A9190AF060FCA068D7
:104DA000B0F85230034493F85630202B32D0093BF0
:104DB000042B2FD900F580535B6FDF072FD4202100
:104DC000204600F099FD9CE60129B2D90139002066
:104DD0000CAB009301900AAB1BAA0AF0D7F9054669
:104DE0000028A8D18DE61B684A4651461846039311
:104DF0000CF01AFC60B9039B1846FCF79BF9584568
:104E000038BF5846002E08BFB8461FFA80FB01364F
:104E100001379EE7012120460AF0BBFA71E6002126
:104E200009F05DFF2021204600F066FD0121A06809
:104E300009F055FF65E604907FF663AE0A9A30AB41
:104E400003EB820252F8543CC1461846039309F022
:104E5000F1FE049B0590A7F840300496A2684946ED
:104E60002846183200F082FB039BD0F800A009F11D
:104E700001094BB1BAF1000F06D019465046059A08
:104E80000CF0D2FB0028E9D1A168BAF1000F52D191
:104E9000A1F840A0049B013B0493DFD16069FFF7B8
:104EA00035FC204600F062FD0A9B30AA02EB83032A
:104EB00053F8540C09F0BEFE414611AA0746284695
:104EC00000F054FB08F1010B8046A068D8F80010F0
:104ED00040F2FF7200F656000CF0B8FBD8F80090D4
:104EE0004FF6FF785946284616AA0BF1010A00F042
:104EF0003DFB002855D000234FF6FF71A268D0F883
:104F000000C002F6550212F801EF1CF803007045CC
:104F100004D118B1013903F10103F4D10FB1BB423F
:104F200007DB4345A8BF4346013E012E1FFA83F825
:104F300037D0D346D6E79E48069109F07BFE069906
:104F400000EB0B074A8FBFB2121A92FBF7F25046E2
:104F500092B20791069209F06DFE07993F1AB1F8D7
:104F60004000069A00F1010CA1F840C0B0FBF2F13C
:104F700002FB110080B2BFB260B9062120468C4B03
:104F80008C4ACDF800A00AF021FB3946204600F0FB
:104F90007BFB7FE7534606212046874A0AF016FB33
:104FA000F3E7B8F1000F3FF4ACADA8EB07022046E1
:104FB00092B209EB07010AF052FBA2E500F580531B
:104FC0005B6F9E077FF59DAD012109F07DFE2046B8
:104FD0000AF066FB95E500F580535B6F9D077FF552
:104FE00090AD012109F070FEA36803F580535B6F5B
:104FF0001807ECD420460AF034FB82E520460AF07C
:105000003FFA7EE520460AF032FA20460AF075F9AA
:1050100010B96069FFF77AFB0121A06809F054FE1E
:105020002EE620460AF035FA6BE520460AF03CFAF7
:1050300067E5536F9F0603D56049606909F002FE7A
:10504000A36803F580535B6F9E0603D55C496069D6
:1050500009F0F8FD204600F089FC52E500212046C9
:10506000FFF75AFB4DE50121F9E720460AF0F8F970
:10507000204609F0BCFD0121A06809F025FEA368C7
:1050800003F580535B6F9D067FF53BAD4D4960692D
:1050900009F0D8FD35E5204600F08AFB0121A06823
:1050A00009F012FE2DE55B2B02D10223537528E592
:1050B00002F58052526F900706D5622B08D14FF04F
:1050C000FF3120460AF08EF90022A3685A7518E5D0
:1050D000662BF9D10121F4E700215175A26802F590
:1050E0008051496F89077FF50CAD313B1B2B3FF693
:1050F00008AD01A151F823F0755100028151000261
:105100009751000269510002034B0002034B000259
:10511000034B0002034B0002034B0002034B00024F
:10512000034B0002034B0002034B0002034B00023F
:10513000034B0002034B0002675000025D50000267
:1051400023500002FD4F0002034B00026D5100028C
:10515000034B000279510002034B0002034B000293
:10516000034B0002855100020323537520460AF0C9
:105170007EF9C6E40323537520460AF071F9C0E4B2
:1051800003235375A06800F58053596F01F00101A6
:1051900081F001014CE603235375A36803F58053A6
:1051A0005B6F9B077FF5ADAC24E700237EE700BF74
:1051B000AE3D0102A74501027F410102AD2A010275
:1051C000B22A0102A82A010210B5836804461A7D9A
:1051D000012A2DD103F58052916F490407D5526FF2
:1051E000520704D40146DA6CC0690AF0F1FAA068EB
:1051F0004FF0FF3200F588504FF0FF330C3009F0CC
:1052000017FD2046082100F091FA206809F012FDF0
:1052100018B10949606909F015FD2046FFF738FC0F
:10522000A06800F588500C3009F069FD002010BD21
:105230006FF08500FBE700BF4A3F01022DE9F8430C
:1052400004468068154600F583501830002938D090
:105250004FF4804109F0D6FCA3680021DD6460684A
:1052600003689B68984700284DD12046FFF7ACFFA4
:10527000002848D1254E264FDFF89C80A06800F515
:1052800085501C304FF0FF324FF0FF33032107F001
:105290005DFA41F20C190546A0684FF0FF324FF05D
:1052A000FF33484495B109F0C3FC20462B46012149
:1052B000184A0AF08BF9A0684844BDE8F84309F0A1
:1052C0001EBD6FF4804109F0A8FCC5E709F0B0FCF1
:1052D00032460221204609F014FD3A46294620466E
:1052E00009F00FFD20464246012109F00AFD6068E1
:1052F00003685B6903B19847A06800F588500C30DB
:1053000009F0FDFCBAE7BDE8F88300BFB146000232
:10531000E14A0002AD4501025FEC000210B504460F
:1053200008210C4A09F04CFD204608210A4A09F0E0
:1053300047FD20460821094A09F042FD2046082180
:10534000074A09F03DFD20460021064A00F02CFBEB
:10535000002010BDC445010202460102614601025F
:10536000B54601024F470102F8B51E4617460B46E7
:105370002F4A0821044609F023FD6EB30821204678
:105380003B782C4A09F01CFD01256A0704D108214D
:105390002046294A09F014FDAE4223D908212046AF
:1053A0007B5D244A09F00CFD0135102DEDD108215B
:1053B0002046224A09F004FDD6B9082120461E4A9B
:1053C00009F0FEFC0125AE422B4613D808212046E9
:1053D000194A09F0F5FC18E008212046184A09F09E
:1053E000EFFC012508212046154A09F0E9FCDBE71E
:1053F00000252B46FB5C0821A3F120025F2A28BF71
:105400002E2320460F4A09F0DBFC0135102D07D072
:105410006B07D8D108212046074A09F0D1FCD2E712
:105420002046BDE8F8400821074A09F0C9BC00BF82
:1054300065470102A73D0102AF3D0102B13D0102F6
:10544000AD3D010289470102D95901022DE9F0471A
:1054500004468068984600F580538946D3F82011A9
:10546000154688B0002965D141F228120CF0ABFA3C
:10547000E0680AF0A2FBA06800F588500C3041F209
:10548000BC070BF097FB41F27C06BA46A06830449B
:105490000CF03BF8A0680022831901213844103633
:1054A0000CF00AF8564507F11407EFD10026A3695E
:1054B00002211E60A06866F3820500F58350183053
:1054C00009F0A0FB5022A36820465A871822A3683F
:1054D0001A87216809F081FCA368494603F58053C7
:1054E0005D676068154A03681D682346A84705463E
:1054F000E0B90122A3681A75D4E90A010022002349
:10550000CDE906230E230393109B4FF40062CDE9EF
:10551000018304950A4B009406F08AFAA36803F508
:105520008053C3F82001616A06F0C0F9284608B02C
:10553000BDE8F0876FF07705F8E700BF91EC000257
:105540003D52000210B5044613460A46014606487D
:1055500003F0BAF823691B7923B12046BDE8104057
:1055600009F090BC10BD00BF9DEE000238B50B469F
:10557000154648B91449154A521AB3EB920F05D291
:1055800051F82350284638BD84680CB90025F9E746
:105590000F4A94420AD30F4A944207D2184629462A
:1055A000226890472B68002BECD1EFE70A4A94421F
:1055B00002D30A4A944205D3246814225343E518BF
:1055C000E358F0E70133F8E7482A0102782A01029C
:1055D0008C2A0102942A0102782A01028C2A0102F3
:1055E0000023F7B51646027804462D2A019305D10B
:1055F0006FF015030020336003B0F0BD0CF0C8FA63
:1056000005460B4F0A46C35101A9204607F070FA20
:10561000EB59222B02D16FF02103EBE7002BE7D1EE
:10562000019BA342E4D01B78002BE5D0E0E700BF4C
:1056300014000000836803F580535B6F9B0603D55D
:105640000249406909F03BBE704700BFB82A010219
:10565000014909F034BE00BF4B3F01020A1E0EDCB7
:105660000FD04223816801F58051496F890608D522
:10567000002A04494069B8BF524209F020BE4123C4
:10568000F0E77047854701020A1E0EDC0FD0442365
:10569000816801F58051496F890608D5002A0449BF
:1056A0004069B8BF524209F00ABE4323F0E7704791
:1056B000854701022DE9F0478568044605F156004B
:1056C000FBF738FD0023984695F83C70DFF85890BA
:1056D00086B2A268558FED1BB54209DB002E1FDD97
:1056E000563360690F491A44BDE8F04709F0E7BD39
:1056F0001D442A4492F856A082F85680A268563378
:105700001A444946606909F0DAFDA3682B4483F81E
:1057100056A0A3685B8FDB1BF61A00272B46D8E741
:10572000BDE8F0877F4101020540010208290A46D1
:1057300018D8836893F83E10914213D083F83E2026
:105740008368082A03F580535B6F05D0990609D555
:105750000549406909F0B3BD9B0603D5034940697B
:1057600009F0ADBD704700BF8C470102BD2A0102A0
:1057700038B50D4609780446FFF7D8FF6A78072A3E
:1057800012D8A36893F83F1091420DD083F83F20C0
:10579000A36803F580535B6F9B0605D560690349D9
:1057A000BDE8384009F08BBD38BD00BF9547010208
:1057B000F8B583680446B3F85020002A57D0B3F8F0
:1057C0005210002953D0553103F156050B441846A9
:1057D000A84206D3014611F80169202E3ED0A84206
:1057E0003ED286B29DB2AB1B9BB2591C471CD21A4B
:1057F000014438460CF0CDF8A268711BB2F8503065
:10580000204613FA81F3A2F85030A36809B2B3F826
:1058100050201344002283F8562009F0BAFDA368F3
:1058200003F580535B6F9A0603D51149606909F04F
:1058300046FD3B46082120460E4A09F0C7FE204699
:10584000FFF7F8FEA36803F580535B6F9B060ED548
:1058500060690949BDE8F84009F031BD0846B7E77D
:10586000014611F80169202EBBD00846B7E7F8BD04
:10587000C22A01027F410102C62A01022DE9F0413C
:1058800004460D4617460AB1FFF7D4FEA36803F598
:105890008052516FB3F85220563213444A0721D533
:1058A0001846FBF747FC0646DFF84880A6B9A36810
:1058B000B3F85020A3F85220A06809F00DFD20B1E4
:1058C00007B115B16069FFF7C3FE69422046BDE824
:1058D000F04109B209F05DBD4146606909F0EFFC95
:1058E000013EE3E708212046014A09F06FFEDEE7AA
:1058F0007F410102A852010213B583688DF8071099
:1059000003F58052526F0446D00725D5B3F85210E4
:10591000B3F850208A421FD0481C9DF80720A3F8F6
:1059200052000B4483F85620A36803F58053596F47
:1059300089070FD55B6F606913F0040F18BF2A2227
:10594000094909F0BCFC204609F0D7FC10B1606998
:10595000FFF77EFE02B010BD012220460DF10701C7
:1059600009F041FEF6E700BF8947010210B5044681
:1059700083680221084A09F029FEA36803F58053D1
:105980005B6F9B0707D52046FFF794FE2046BDE8D6
:10599000104009F0D9BC10BD7F410102014909F056
:1059A00049BF00BF4B3F01022DE9F04F0E460021D9
:1059B000044617460D4689B0304603AA01F1010896
:1059C000FFF7D4FDB0B995B127B13A46082120467A
:1059D00009F0FCFD00211E4FDFF87890DFF878A079
:1059E000304603AA01F10108FFF7C0FD68B909B00C
:1059F000BDE8F08F0068034610B1FBF79BFB83B254
:105A00009D4238BF1D464146D6E703688BB11A78E0
:105A10007AB1D0F804B04A46CDE9005308213B469C
:105A2000204609F0D3FDBBF1000F04D16069FFF7F8
:105A3000B5FF4146D4E7524620463B46082109F0CF
:105A4000C5FD6A1D5946204692B209F000FFF0E7F5
:105A5000B34701029E470102A23D0102F7B50F685C
:105A600005460E463C461FB13846FBF763FB84B241
:105A7000084B2846009308213B46074A09F0A6FD3B
:105A80002846E21C716892B203B0BDE8F04009F00C
:105A9000DEBE00BFAF470102A845010210B50749AD
:105AA0000446FBF735FB38B120460549FBF730FBD0
:105AB000B0FA80F0400910BD0120FCE7A5470102C3
:105AC000A847010210B58368044603F580535B6F55
:105AD0009B0603D50549406909F038FF5022A368A9
