:10000000E0D70020B9BF0000130A0300A5BF00001D
:10001000A5BF0000A5BF0000A5BF000000000000B4
:1000200000000000000000000000000085C000008B
:10003000A5BF0000000000002DC00000A5BF00000B
:1000400019C200003101020019C2000019C20000EB
:1000500019C2000019C2000019C2000019C2000034
:1000600019C2000019C2000019C2000019C2000024
:1000700019C2000019C2000019C2000019C2000014
:1000800019C2000019C2000019C2000019C2000004
:1000900019C2000019C2000019C2000019C20000F4
:1000A00019C2000019C2000019C2000019C20000E4
:1000B00019C2000019C2000019C2000019C20000D4
:1000C00019C2000019C2000019C2000019C20000C4
:0C00D00019C2000019C2000019C2000093
:1000E000002902D0B0FBF1F0704708B14FF0FF30AB
:1000F00000F01EB80029F8D00246B0FBF1F000FB7A
:1001000011217047002902D090FBF1F070470028C0
:10011000C8BF6FF00040B8BF4FF0004000F008B813
:100120000029F4D0024690FBF1F000FB112170474A
:10013000704700BF81F0004102E000BF83F0004340
:1001400030B54FEA41044FEA430594EA050F08BF72
:1001500090EA020F1FBF54EA000C55EA020C7FEA36
:10016000645C7FEA655C00F0E2804FEA5454D4EBB3
:100170005555B8BF6D420CDD2C4480EA020281EA7D
:10018000030382EA000083EA010180EA020281EAB5
:100190000303362D88BF30BD11F0004F4FEA013107
:1001A0004FF4801C4CEA113102D0404261EB410116
:1001B00013F0004F4FEA03334CEA133302D052429C
:1001C00063EB430394EA050F00F0A780A4F1010458
:1001D000D5F1200E0DDB02FA0EFC22FA05F2801892
:1001E00041F1000103FA0EF2801843FA05F3594178
:1001F0000EE0A5F120050EF1200E012A03FA0EFCF7
:1002000028BF4CF0020C43FA05F3C01851EBE37120
:1002100001F0004507D54FF0000EDCF1000C7EEB3D
:1002200000006EEB0101B1F5801F1BD3B1F5001F7B
:100230000CD349085FEA30004FEA3C0C04F101049A
:100240004FEA445212F5800F80F09A80BCF1004FC3
:1002500008BF5FEA500C50F1000041EB045141EA45
:10026000050130BD5FEA4C0C404141EB0101013C0E
:1002700028BFB1F5801FE9D291F0000F04BF0146FD
:100280000020B1FA81F308BF2033A3F10B03B3F1CF
:1002900020020CDA0C3208DD02F1140CC2F10C025F
:1002A00001FA0CF021FA02F10CE002F11402D8BFBD
:1002B000C2F1200C01FA02F120FA0CFCDCBF41EA89
:1002C0000C019040E41AA2BF01EB0451294330BD58
:1002D0006FEA04041F3C1CDA0C340EDC04F1140435
:1002E000C4F1200220FA04F001FA02F340EA03000C
:1002F00021FA04F345EA030130BDC4F10C04C4F152
:10030000200220FA02F001FA04F340EA0300294631
:1003100030BD21FA04F0294630BD94F0000F83F47B
:10032000801306BF81F480110134013D4EE77FEA5E
:10033000645C18BF7FEA655C29D094EA050F08BFAA
:1003400090EA020F05D054EA000C04BF194610468B
:1003500030BD91EA030F1EBF0021002030BD5FEACF
:10036000545C05D14000494128BF41F0004130BDF7
:1003700014F580043CBF01F5801130BD01F000454B
:1003800045F0FE4141F470014FF0000030BD7FEABE
:10039000645C1ABF194610467FEA655C1CBF0B46B9
:1003A000024650EA013406BF52EA033591EA030FD0
:1003B00041F4002130BD00BF90F0000F04BF0021C8
:1003C000704730B54FF4806404F132044FF00005FB
:1003D0004FF0000150E700BF90F0000F04BF002174
:1003E000704730B54FF4806404F1320410F00045DA
:1003F00048BF40424FF000013EE700BF42004FEAD5
:10040000E2014FEA31014FEA02701FBF12F07F4351
:1004100093F07F4F81F06051704732F07F4208BF08
:10042000704793F07F4F04BF41F40021704730B50F
:100430004FF4607401F0004521F000411CE700BF5B
:1004400050EA010208BF704730B54FF000050AE0DE
:1004500050EA010208BF704730B511F0004502D5DF
:10046000404261EB41014FF4806404F132045FEAE1
:10047000915C3FF4D8AE4FF003025FEADC0C18BF8A
:1004800003325FEADC0C18BF033202EBDC02C2F17C
:10049000200300FA03FC20FA02F001FA03FE40EA0E
:1004A0000E0021FA02F11444BDE600BF70B54FF012
:1004B000FF0C4CF4E06C1CEA11541DBF1CEA1355F0
:1004C00094EA0C0F95EA0C0F00F0DEF82C4481EA58
:1004D000030621EA4C5123EA4C5350EA013518BF78
:1004E00052EA033541F4801143F4801338D0A0FB65
:1004F00002CE4FF00005E1FB02E506F00042E0FB12
:1005000003E54FF00006E1FB03569CF0000F18BF17
:100510004EF0010EA4F1FF04B6F5007F64F54074BF
:1005200004D25FEA4E0E6D4146EB060642EAC62152
:1005300041EA55514FEAC52040EA5E504FEACE2EBF
:10054000B4F1FD0C88BFBCF5E06F1ED8BEF1004FC2
:1005500008BF5FEA500E50F1000041EB045170BD3E
:1005600006F0004646EA010140EA020081EA030182
:10057000B4EB5C04C2BFD4EB0C0541EA045170BD7E
:1005800041F480114FF0000E013C00F3AB8014F1F8
:10059000360FDEBF002001F0004170BDC4F1000441
:1005A000203C35DA0C341BDC04F11404C4F12005C2
:1005B00000FA05F320FA04F001FA05F240EA02001D
:1005C00001F0004221F0004110EBD37021FA04F653
:1005D00042EB06015EEA430E08BF20EAD37070BD0D
:1005E000C4F10C04C4F1200500FA04F320FA05F06C
:1005F00001FA04F240EA020001F0004110EBD3706E
:1006000041F100015EEA430E08BF20EAD37070BDDD
:10061000C4F1200500FA05F24EEA020E20FA04F3B6
:1006200001FA05F243EA020321FA04F001F0004165
:1006300021FA04F220EA020000EBD3705EEA430ED6
:1006400008BF20EAD37070BD94F0000F0FD101F005
:100650000046400041EB010111F4801F08BF013C3E
:10066000F7D041EA060195F0000F18BF704703F07C
:100670000046520043EB030313F4801F08BF013D03
:10068000F7D043EA0603704794EA0C0F0CEA1355BF
:1006900018BF95EA0C0F0CD050EA410618BF52EA79
:1006A0004306D1D181EA030101F000414FF000007F
:1006B00070BD50EA410606BF1046194652EA43068D
:1006C00019D094EA0C0F02D150EA013613D195EA01
:1006D0000C0F05D152EA03361CBF104619460AD149
:1006E00081EA030101F0004141F0FE4141F4700153
:1006F0004FF0000070BD41F0FE4141F4780170BD43
:1007000070B54FF0FF0C4CF4E06C1CEA11541DBFA7
:100710001CEA135594EA0C0F95EA0C0F00F0A7F8A9
:10072000A4EB050481EA030E52EA03354FEA0131D6
:1007300000F088804FEA03334FF0805545EA1313E9
:1007400043EA12634FEA022245EA111545EA1065B1
:100750004FEA00260EF000419D4208BF964244F148
:10076000FD0404F5407402D25B084FEA3202B61A67
:1007700065EB03055B084FEA32024FF480104FF43B
:10078000002CB6EB020E75EB030E22BFB61A7546AF
:1007900040EA0C005B084FEA3202B6EB020E75EB42
:1007A000030E22BFB61A754640EA5C005B084FEAAA
:1007B0003202B6EB020E75EB030E22BFB61A754677
:1007C00040EA9C005B084FEA3202B6EB020E75EB82
:1007D000030E22BFB61A754640EADC0055EA060E43
:1007E00018D04FEA051545EA16754FEA06164FEA86
:1007F000C30343EA52734FEAC2025FEA1C1CC0D132
:1008000011F4801F0BD141EA00014FF000004FF0BE
:10081000004CB6E711F4801F04BF01430020B4F17F
:10082000FD0C88BFBCF5E06F3FF6AFAEB5EB030C37
:1008300004BFB6EB020C5FEA500C50F1000041EB34
:10084000045170BD0EF0004E4EEA113114EB5C0401
:10085000C2BFD4EB0C0541EA045170BD41F48011D4
:100860004FF0000E013C90E645EA060E8DE60CEADC
:10087000135594EA0C0F08BF95EA0C0F3FF43BAFF9
:1008800094EA0C0F0AD150EA01347FF434AF95EAB0
:100890000C0F7FF425AF104619462CE795EA0C0F94
:1008A00006D152EA03353FF4FDAE1046194622E761
:1008B00050EA410618BF52EA43067FF4C5AE50EA3B
:1008C00041047FF40DAF52EA43057FF4EBAE12E72B
:1008D0004FF0FF3C06E000BF4FF0010C02E000BF0C
:1008E0004FF0010C4DF804CD4FEA410C7FEA6C5CEF
:1008F0004FEA430C18BF7FEA6C5C1BD001B050EA92
:10090000410C0CBF52EA430C91EA030F02BF90EA7C
:10091000020F0020704710F1000F91EA030F58BF3B
:10092000994208BF90422CBFD8176FEAE37040F09D
:10093000010070474FEA410C7FEA6C5C02D150EA3B
:10094000013C07D14FEA430C7FEA6C5CD6D152EAF6
:10095000033CD3D05DF8040B704700BF84461046BB
:1009600062468C461946634600E000BF01B5FFF7BA
:10097000B7FF002848BF10F1000F01BD4DF808ED8A
:10098000FFF7F4FF0CBF012000205DF808FB00BF5B
:100990004DF808EDFFF7EAFF34BF012000205DF8B5
:1009A00008FB00BF4DF808EDFFF7E0FF94BF012002
:1009B00000205DF808FB00BF4DF808EDFFF7CEFF03
:1009C00094BF012000205DF808FB00BF4DF808ED42
:1009D000FFF7C4FF34BF012000205DF808FB00BF13
:1009E0004FEA410C7FEA6C5C02D150EA013C0AD12B
:1009F0004FEA430C7FEA6C5C02D152EA033C02D11D
:100A00004FF0000070474FF0010070474FEA41027D
:100A100012F5001215D211D56FF47873B3EB625250
:100A200012D94FEAC12343F0004343EA505311F077
:100A3000004F23FA02F018BF404270474FF0000009
:100A4000704750EA013005D111F0004008BF6FF047
:100A5000004070474FF00000704700BF4A0011D2BD
:100A600012F5001211D20DD56FF47873B3EB625208
:100A70000ED44FEAC12343F0004343EA505323FA14
:100A800002F070474FF00000704750EA013002D189
:100A90004FF0FF3070474FF0000070474FEA4102BF
:100AA000B2F1E04324BFB3F5001CDCF1FE5C0DD9CC
:100AB00001F0004C4FEAC0024CEA5070B2F1004F16
:100AC00040EB830008BF20F00100704711F0804F19
:100AD00021D113F13872BCBF01F00040704741F4DE
:100AE00080114FEA5252C2F11802C2F1200C10FAE2
:100AF0000CF320FA02F018BF40F001004FEAC123C6
:100B00004FEAD32303FA0CFC40EA0C0023FA02F369
:100B10004FEA4303CCE77FEA625307D150EA01333F
:100B20001EBF4FF0FE4040F44000704701F000400F
:100B300040F0FE4040F40000704700BF80F00040ED
:100B400002E000BF81F0004142001FBF5FEA4103A5
:100B500092EA030F7FEA226C7FEA236C6AD04FEAA5
:100B60001262D2EB1363C1BFD218414048404140EA
:100B7000B8BF5B42192B88BF704710F0004F40F49C
:100B8000000020F07F4018BF404211F0004F41F4B8
:100B9000000121F07F4118BF494292EA030F3FD084
:100BA000A2F1010241FA03FC10EB0C00C3F1200397
:100BB00001FA03F100F0004302D5494260EB400026
:100BC000B0F5000F13D3B0F1807F06D340084FEA91
:100BD000310102F10102FE2A51D2B1F1004F40EB86
:100BE000C25008BF20F0010040EA030070474900EE
:100BF00040EB0000013A28BFB0F5000FEDD2B0FA8B
:100C000080FCACF1080CB2EB0C0200FA0CF0AABFAD
:100C100000EBC25052421843BCBFD040184370474B
:100C200092F0000F81F4000106BF80F40000013251
:100C3000013BB5E74FEA41037FEA226C18BF7FEA28
:100C4000236C21D092EA030F04D092F0000F08BF6A
:100C50000846704790EA010F1CBF0020704712F051
:100C60007F4F04D1400028BF40F00040704712F190
:100C700000723CBF00F50000704700F0004343F0F5
:100C8000FE4040F4000070477FEA226216BF08462B
:100C90007FEA23630146420206BF5FEA412390EAEE
:100CA000010F40F4800070474FF0000304E000BFE4
:100CB00010F0004348BF40425FEA000C08BF704795
:100CC00043F0964301464FF000001CE050EA010259
:100CD00008BF70474FF000030AE000BF50EA01026E
:100CE00008BF704711F0004302D5404261EB41015B
:100CF0005FEA010C02BF84460146002043F0B64380
:100D000008BFA3F18053A3F50003BCFA8CF2083AA4
:100D1000A3EBC25310DB01FA02FC634400FA02FCAD
:100D2000C2F12002BCF1004F20FA02F243EB0200B4
:100D300008BF20F00100704702F1200201FA02FC16
:100D4000C2F1200250EA4C0021FA02F243EB020009
:100D500008BF20EADC7070474FF0FF3C06E000BFA0
:100D60004FF0010C02E000BF4FF0010C4DF804CD34
:100D70004FEA40024FEA41037FEA226C18BF7FEA44
:100D8000236C11D001B052EA530C18BF90EA010F46
:100D900058BFB2EB030088BFC81738BF6FEAE170D5
:100DA00018BF40F0010070477FEA226C02D15FEA71
:100DB000402C05D17FEA236CE4D15FEA412CE1D0DD
:100DC0005DF8040B704700BF844608466146FFE7A4
:100DD0000FB5FFF7C9FF002848BF10F1000F0FBD86
:100DE0004DF808EDFFF7F4FF0CBF012000205DF87F
:100DF00008FB00BF4DF808EDFFF7EAFF34BF012004
:100E000000205DF808FB00BF4DF808EDFFF7E0FF9C
:100E100094BF012000205DF808FB00BF4DF808EDED
:100E2000FFF7D2FF94BF012000205DF808FB00BF50
:100E30004DF808EDFFF7C8FF34BF012000205DF832
:100E400008FB00BF4FEA40024FEA41037FEA226CF1
:100E500002D15FEA402C08D17FEA236C02D15FEA1D
:100E6000412C02D14FF0000070474FF00100704755
:100E70007BB972B90029BEBF00204FF0004106E0E7
:100E800008BF00281CBF6FF000414FF0FF30FFF794
:100E90004FB9ADF1080C6DE904CE002909DB002B38
:100EA0001ADB00F09CF8DDF804E0DDE9022304B071
:100EB0007047404261EB4101002B1BDB00F08FF8D3
:100EC000DDF804E0DDE9022304B0404261EB4101BA
:100ED000524263EB43037047524263EB430300F01B
:100EE0007EF8DDF804E0DDE9022304B0404261EB66
:100EF00041017047524263EB430300F070F8DDF8A4
:100F000004E0DDE9022304B0524263EB430370477F
:100F100053B94AB9002908BF00281CBF4FF0FF3160
:100F20004FF0FF30FFF704B9ADF1080C6DE904CEC6
:100F300000F055F8DDF804E0DDE9022304B0704765
:100F4000D0B50C4B002206460F46FFF7AFFAFFF76D
:100F500085FD0446FFF730FA074B0022FFF7A6FA9B
:100F600002460B4630463946FFF7E8F8FFF776FDB4
:100F70002146D0BD0000F03D0000F04110F8012BEB
:100F800011F8013B012A28BF9A42F7D0D01A7047C6
:100F9000034611F8012B03F8012B002AF9D1704701
:100FA000034613F8012B002AFBD1181A01387047A9
:100FB00038B50022002304460D46FFF7E9FC28B9A6
:100FC00020462946BDE83840FFF7BABF204605F164
:100FD0000041FFF7B5FF404261EB410138BD2DE90B
:100FE000F04786468C460846089E154674461946C4
:100FF000002B40F0C2808542B2FA82F245D94AB154
:10100000C2F1200300FA02FC2EFA03F3954043EAF2
:101010000C0C94404FEA154EA8B2BCFBFEF8230C12
:101020000EFB18CC08FB00F943EA0C43994528D97C
:10103000EB1808F1FF3704D2994502D9A8F102074D
:101040002B44A3EB0903A4B2B3FBFEFC0EFB1C3341
:101050000CFB00F044EA0344A04214D92C190CF113
:10106000FF3304D2A04202D9ACF102032C44241A6B
:1010700043EA07401EB1D440002334607360BDE8EA
:10108000F0874746DDE76346F1E792BB431B01214A
:101090004FEA154EAFB2B3FBFEFC200C0EFB1C3327
:1010A0000CFB07F840EA0343984562D9EB180CF1B2
:1010B000FF3004D2984502D9ACF102002B44A3EBD7
:1010C0000803A4B2B3FBFEFC0EFB1C330CFB07F7BA
:1010D00044EA0344A7424ED92C190CF1FF3304D241
:1010E000A74202D9ACF102032C44E41B43EA0040BE
:1010F000C0E7C2F1200320FA03F1954090402EFA98
:1011000003F303434FEA154EAFB2B1FBFEFC0EFBF7
:101110001C10190C0CFB07F841EA0041884504FA41
:1011200002F422D969180CF1FF3004D2884502D9A3
:10113000ACF102002944A1EB08019BB2B1FBFEFC1B
:101140000EFB1C110CFB07F743EA01439F420ED92B
:10115000EB180CF1FF3104D29F4202D9ACF102012D
:101160002B44DB1B41EA004192E76046E3E761461E
:10117000F7E76046A3E76346B7E7834206D916B9A7
:10118000002108467BE7C6E900E0F9E7B3FA83F7F8
:101190008FB9834201D3724508D8BEEB020460EBDD
:1011A000030301209C461EB9002168E73846FAE790
:1011B000C6E9004CF8E7C7F1200CBB4022FA0CF45A
:1011C0001C432EFA0CF120FA0CF3B84001434FEA0D
:1011D00014490EFA07F5B3FBF9F81FFA84FE09FB70
:1011E00018300B0C08FB0EFA43EA00439A4502FA4A
:1011F00007F240D9E31808F1FF3004D29A4502D92A
:10120000A8F102002344A3EB0A0389B2B3FBF9F867
:1012100009FB183308FB0EFE41EA03418E452CD929
:10122000611808F1FF3304D28E4502D9A8F10203F8
:10123000214443EA0040A0FB0298A1EB0E01414586
:10124000CE46434602D306D14D4504D2B9EB020E39
:1012500068EB04030138002EA6D0B5EB0E0261EB5B
:10126000030101FA0CFC22FA07F34CEA0303F940EC
:10127000C6E9003198E74046C5E74346D9E7000094
:101280002DE9F047064688B00F46904631F06BFCDA
:101290004FF47A73A0FB034503FB0155E40B012FC8
:1012A00044EA45444FEAD53507D1294922462B4621
:1012B00030462EF050FB002012E0D8F8047025488C
:1012C0003946FFF75BFE70B123483946FFF756FEFB
:1012D00048B1304621493A462EF059FB6FF00400E0
:1012E00008B0BDE8F0872046294617A3D3E90023BC
:1012F000FFF7BEFD05460C4610461946184A002366
:10130000FFF7B6FD80460F46104619464EF660229E
:101310000023FFF7ADFD82468946104619464FF47B
:101320007A720023FFF7A4FDCDE902A9CDE90623D7
:10133000CDE90401CDE900870A492A462346304613
:101340002EF009FBB7E700BF005C26050000000097
:10135000A5770300B6770300B9770300C2770300CF
:1013600080EE3600DA7703002DE9F843D0E907383C
:10137000856903EB08042F34A5420F46164619D899
:10138000DFF86C80A3FB080117A3D3E90023FFF764
:10139000BFFD0346601BA0FB080123F07F4412A39E
:1013A000D3E90023FFF7B4FD20F07F403C603060BC
:1013B000BDE8F883DFF838900BA3D3E90023A5FB41
:1013C0000901FFF7A5FD20F07F440A480A2106A382
:1013D000D3E90023E8FB0901FFF79AFD20F07F40E5
:1013E0003C603060BDE8F8838D49FD1A07000000BD
:1013F00000CA9A3B00166BF12DE9F04F8DB09A466A
:10140000179C9DF85890636C05460E46904653B164
:10141000B4F884301BB1B4F882209A4278D2D4F860
:101420008820002A77D14FF6FF739A4520D027787D
:101430000137FFB22770002F78D06F496F4BC1F88A
:10144000048004F11C000022C86081F80A900D603D
:10145000A1F808A09960012011460BF0FDFB0028BF
:1014600073D1636CC4F89C5013B1204614F0C2FCD5
:1014700094F8245015F001054AD1614A614B117866
:101480001B788B4277D04FF6FF739A45D4F888804B
:10149000B4F8829015BF0AF101074FF0000ABFB2FD
:1014A0005746B8F1000F30D0B9F1000F2DD0626F60
:1014B0000AF1010A40F271211FFA8AF301FB02FAD4
:1014C000514A4FF0070BA6FB02010AFB03F30993F5
:1014D0000BFB061146A3D3E90023FFF719FD099B77
:1014E000494A1E18A5FB02010BFB051140A3D3E9D5
:1014F0000023FFF70DFD50443044804586BFA8EB24
:101500000606C4F88860C4F888A04F44A4F8827026
:101510000DB0BDE8F08F616F40F27123A1FB0313A2
:10152000914273F10003FFF47EAFF1E7374A384987
:10153000384840F64A132DF098FC87F31188BFF322
:101540006F8F0323184602DF77E7304A324931486C
:1015500040F66E132DF089FC002383F31188BFF34E
:101560006F8F0323184602DF636CC4F89C50002B76
:101570007FF47BAF7CE7013304210BA813701FF0CD
:1015800009F90B9B25490694A1FB0321581A244A0B
:10159000009501EB50012348A21AA0FB0202090AA0
:1015A00040F24710D20900FB113302321E49059167
:1015B0000133CDE90355CDE90155D2B201212846C9
:1015C0000B930CF03FFF10F0FD0F0DD00F4A1749A1
:1015D000104840F2BB732DF048FC85F31188BFF32F
:1015E0006F8F0323184602DF0B9D4CE7AFF300809B
:1015F00000CA9A3B00000000C06D0020400100209E
:10160000FB840020FA8400208D49FD1A78550300E0
:10161000845603005C4E03005050030021F1D49027
:10162000C00A0020CDCCCCCC993D010088560300E7
:10163000002900F073812DE9F04F91B0002840F0AF
:10164000B382B74C174694F88C2012F001051E4661
:1016500040F0B48294F82500FF2300F0030084F8E2
:1016600027301EF001F894F88C00410700F1078143
:1016700094F8352094F8293004EB820204EB8303BC
:10168000D2F83880D3F82CA0B8F1000F00F0DD803C
:101690004146504613F01EFC0546002840F03A81B2
:1016A0009AF8003013F00E0F40F04881236A002BA7
:1016B00040F02F810EF066F80546002800F0AE825B
:1016C0000EF06CF80A90002800F0A58216F0CAFB14
:1016D0008346002800F09C82D0F894004FF6FF72F9
:1016E0000BF11C03ABF830200B93002800F0CC82E8
:1016F0000BF188020BF184010BF02AFA9BF89A2077
:1017000022F007028BF89A200022CBF89420ABF845
:1017100098209AF8002002F00F02072A00F08F822A
:101720009BF8822022F0770242F011028BF882208F
:10173000012211467B48D0F801C0CBF8AFC1D200DE
:10174000CBF8B5C110F801CB42EA01219BF8AE21DC
:101750000CF0010C6CF300026CF341028BF8AE212B
:101760008288ABF8B321ABF8B921BBF8822022F410
:10177000E16211439BF84320ABF8821002F03F0274
:1017800062F07F028BF843209BF848207F214FF0C6
:10179000000922F00F028BF8DE104FF4C0218BF805
:1017A0004820CBF89C115846CBE915998BF8459009
:1017B000ABF83690CBF83A90CBF85C90ABF8A291AE
:1017C000ABF8989119F068FA8BF86091CBF86451F6
:1017D00016F032FF9BF8A81160F302018BF8A811F4
:1017E00016F030FF9BF8A81160F3C5018BF8A81123
:1017F0009BF8941169F341018BF894119AF8002039
:1018000002F00F02072A0ABF94F8251001214909A6
:10181000584617F089FB0BF1E00018F0E5FF0A9B32
:10182000236700220BF11C03E5662362CBE9052246
:10183000CBF81CB08BF800201FF00CFB002800F048
:10184000828012F031FC032564E09AF8003003F046
:101850000F03072B5DD034481FF0B6FCC0B2002840
:1018600040F0DC8194F8353004EB8303D3F8388002
:10187000042388F80030062388F8013008E7C0F315
:10188000C0002A4604F18D011EF0BEF8FF2884F83E
:1018900027003FF4EDAE28461DF02CFFE8E6234B71
:1018A000099300200EAA186002250892204E214AB2
:1018B00005920321CDE902000694CDF81080CDF801
:1018C00004803B46009007962A460E950CF05AFD80
:1018D0000EA90EF01FF8C0B90EAA174908924AF2D5
:1018E000D83200920591CDE903000321CDE9010032
:1018F00007963B46069401220E950CF00FFD0EA9AB
:101900000EF008F8002800F03981236A0BB112F0BC
:10191000CBFB0C25284611B0BDE8F08F12F008BCB7
:10192000C00A0020AE8D0300F40A0020E06D002004
:1019300079E80000F9130000F93B010003F00F0300
:10194000072B00F0A681C84B1B78022B00F0A78163
:10195000002323640026374694F82420A4F88460EA
:10196000C2F34202012100250DF1350094F82560F3
:101970008DF83520C4F88870A4F882500BF084FAF2
:10198000C6F3820602460028BFD033464146504681
:1019900012F09CFCB549B64B2570A0FB0101C018A4
:1019A0004FF0310341F10701A360C4E90555ACA331
:1019B000D3E900236560E560FFF7AAFAB4F87490F4
:1019C00020610CF087FE00F10E07B9F1000F08D17D
:1019D0009AF8005005F00F05A5F10105B5FA85F557
:1019E0006D0994F82430D4F8108065F3000313F0E7
:1019F000010584F824307FF452AFA36C002B00F073
:101A0000CB80D3F800A09AF8523003F0030BBBF15F
:101A1000010F40F0C1800DF137030EA901930DF1C4
:101A200036032A460A91009392480B46202100F083
:101A300063FA054600287FF46DAFDDF83910504693
:101A400015F022F8666C002E00F0578136680A996E
:101A500008F102033B4430460E9300F0B5F95F22D3
:101A600011460B90304614F0BBF980497CA3D3E9B2
:101A70000023A0FB0101FFF74BFA0E9B0B990233E9
:101A80000B4420F07F402A465146C518794801F0A2
:101A90006BF92A4603465146764801F0A1F9002821
:101AA0007FF433AF636C9DF837205A759DF836305C
:101AB00084F829305D46636F94F8802040F27121EC
:101AC000A3FB0131002A40F0FF8042F6DC32981877
:101AD00041F1000140F2E2420023FFF719FA80B21F
:101AE000B0870B9A0E99304600F0B6F900287FF4C3
:101AF0000CAF4FF0010B0A9B08935F485F4BCDF88A
:101B0000108008F24712069491211A600993A9FBEC
:101B1000000301FB09315A4B07935A4B05934FF6CB
:101B2000FF734FF000084FF0020903934CA3D3E971
:101B30000023CDF80880CDF83890FFF7E9F90321AC
:101B400001903B464A46CDF8008040460CF01AFC16
:101B50000A990DF0DFFE00287FF4D7AEBBF1000F2D
:101B60000CD096F84E3043F0010386F84E302DB17C
:101B70009AF8523043EA09038AF8523094F88C30CC
:101B8000002043F0010384F88C3015F0B5FC80B9D7
:101B900001201DF04BFD0CE0666C002E40D10EAB19
:101BA000B246B3460A93A6E72F4B1B78022B3FF4AD
:101BB000B0AE0025284611B0BDE8F08F2A4B1B7847
:101BC000022BF6D194F8352094F8293004EB8202E8
:101BD00004EB8303916BD86A13F07CF90546002867
:101BE0007FF498AE236C002B3FF493AE1A7902F089
:101BF000FF014AB942F2107207FB02F2A4F8821008
:101C0000A4F88460C4F888201B79002BD1D080E62A
:101C10000A980DF0C9FD28460DF0BAFD072579E6B2
:101C200008F1020336683B440E930EAB194630466A
:101C30000A9300F0C9F84FF0000A0B903BE794F8C4
:101C400025109BF88220490961F3020261F3061214
:101C50008BF8822094F8262002F001026AE500BF8A
:101C60008D49FD1A07000000F984002000CA9A3B44
:101C70008C49FD1AC00A0020002AE784E06D00208C
:101C800079E80000F91300000BF18C00CBF8940008
:101C90002EE59AF802305A067FF555AE06E50DF0AE
:101CA00071FD0546E8B10DF079FD00B30023056034
:101CB000037194F824302064DB073FF54BAE42F209
:101CC000107303FB07F747E602FB01110132A2FB89
:101CD0000303194440F2E2420023FFF719F980B2EE
:101CE000FEE6236A002B99D012F0DEF996E7236A0C
:101CF000002B90D012F0D8F98DE7B346FBE600BF79
:101D0000F0B590F8243090F825708BB0C3F34203FF
:101D10000D46044601210DF1230016468DF82330AF
:101D20000BF0B2F8C7F3820702463B46314628461D
:101D300012F0CCFA1E491F4AA0FB0131981841F15C
:101D4000070119A3D3E90023FFF7E2F823699842BA
:101D5000054621D21B1A00220192174A0293174B03
:101D6000A21AA3FB02320221D20900230A4409AEBF
:101D7000099113490591CDE903330321D2B20696A7
:101D8000009318460CF05EFB31460DF0C3FD38B9E8
:101D9000256100200BB0F0BDFBD9C21A0023DBE7A0
:101DA0000C200BB0F0BD00BF8D49FD1A07000000EC
:101DB00000CA9A3B8C49FD1AC00A0020CDCCCCCC7D
:101DC00079E80000000000002DE9F04182B00446EF
:101DD0001F4E204F884613F0EDF90725002363605E
:101DE000E36029463346E0FB07313122A260184602
:101DF00015A3D3E90023FFF78BF894F8313020F0D6
:101E00007F4004EB83032061596B5F231A46204611
:101E100013F090F92946E0FB07610BA3D3E90023F7
:101E20003046FFF775F801A920F07F401CF0FEFD59
:101E300018B9019B0233C8F80030002002B0BDE899
:101E4000F08100BFAFF300808D49FD1A070000004C
:101E50008C49FD1A00CA9A3B2DE9F04700268CB048
:101E60008846C0E905662049067017465022044698
:101E70000AF04EFE0546A08F1C4940F2E24202FBEA
:101E800000F002230B93A0FB010115A3D3E900236B
:101E9000FFF73EF80DF12C0ACDF820A00694194664
:101EA00023691F44124B0793124B0593814600236D
:101EB00010464FF47A72CDE90367FFF729F803352E
:101EC000EDB2CDE9019043462A4600963046032103
:101ED0000CF024FA51460DF01DFD0CB0BDE8F08762
:101EE0008D49FD1A07000000306E002000CA9A3BA1
:101EF00079E80000F15101002DE9F04FA3B00C4644
:101F00001E4640F201232C990D92A3432D9A0E9167
:101F100005460F9200F0A28195F8293005EB830366
:101F2000D3F82CA09AF8007007F00F0704F40073A0
:101F3000072F0B930ED023B90C27384623B0BDE8EA
:101F4000F08FD6F801203178284623B0BDE8F04F55
:101F500013F014B80AF104019AF802300A910B99AF
:101F600013F03F0218BF9AF8032011B17F2B00F243
:101F700097810E99089205F128001FF0DBF99AF875
:101F800000100378024601F00F0123F03F030B43DA
:101F900002F8023B81469AF8023099F80210139237
:101FA0009B0963F3871189F80210696C089A05F19F
:101FB0001C004FF00008002900F000834B7D01EB6E
:101FC000830398690B681493C3780C9002301290C5
:101FD00003F00100119001F114000F991093089281
:101FE0001FF0A8F9804699F8000098F800100C9BA3
:101FF000089A00F00F0021F03F01014388F800101B
:10200000197898F80000C1F3801161F3861088F800
:1020100000001978C0B2C90961F3C71088F8000040
:1020200099F8021098F80200890961F3871014F0FA
:10203000010388F8020009934FF0010B109B02F096
:10204000010040F01B81002800F067819AF8000031
:1020500098F800C00999C0F3801060F3861C88F8D6
:1020600000C099F8000061F3861089F800000AF1B9
:102070000A010A911198002840F064810C980430FC
:10208000089003F0020190071F9140F127810A99FF
:1020900098F800C006310A919AF800104046C90924
:1020A00061F3C71C00F810CB4FF0030B99F8001038
:1020B0006FF3C71189F8001003F0020111B10899FC
:1020C0000631089112F00801179102D00A990231E5
:1020D0000A91811C099114F0080100F0FD80022191
:1020E0003170D6F801101691C6F8010005364BF094
:1020F000080C13F00801E346189102D00899023148
:10210000089112F01001199102D00A9903310A9135
:102110004FF018018DF8541009F10901109103F0E6
:1021200010011A91E10640F1CA80811CC6F8011025
:10213000032131704CF0100B053603F0100100291B
:1021400000F0C68000211C910899033108911BF012
:10215000100F1CBF0530099003F020001B90A00653
:102160005FFA8BF140F19E800998C6F801004BF0B0
:102170002001122030708B460536C9B203F02000D2
:10218000002800F0988000201D90089812300890D8
:10219000890602D5099912310991520610D50A9A79
:1021A00001320A9295F8252002F01C02102A00F054
:1021B00026824FF058028DF8542009F10A0210923D
:1021C0005B0604D5089B013308934BF0400B1BF0D2
:1021D00040031E9302D0099B01330993109B139A6D
:1021E0009B1ADBB2022B03D809F1030310930123DE
:1021F000089A1299501AC0B2022803D80C9A0332D6
:10220000089201200C9A92F801C08445C0F09C818C
:10221000099908F102028A1AD2B2022A03D808F1F7
:102220000302099201220B99002900F09580089C75
:10223000D6F80110C6F80140ACEB00003478C0B20B
:1022400030708C460536002C40F08D81002900F05E
:10225000F8810B940D94A446204693E03B4A3C49F8
:102260003C4840F2FB532CF000FE002383F311881E
:10227000BFF36F8F0323184602DF4DE616F801EB1C
:1022800098F800C06EF3861C88F800C099F800C06A
:102290006FF3861C89F800C000283FF4EBAEE6E639
:1022A00012274AE60D9880063FF568AF03F020003C
:1022B000002840F06C8103F020001D9068E70D9924
:1022C000C9063FF53AAF03F01001002940F05A81EA
:1022D00003F010011C913AE7169108E7099908F1FB
:1022E0000A0000297FF4E2AE03F00201002900F0A9
:1022F00041810C9998F800C008780999C00960F3E9
:10230000C71C40464FF0030B00F810CB99F800C0F3
:1023100061F3C71C89F800C0D1E61198002800F0CD
:1023200013810C9998F800C008780999C0F38010BF
:1023300060F3861C88F800C099F8000061F38610ED
:1023400089F800000C990A3108919AE66457030055
:10235000D85703005C4E0300640500F1F7800D9927
:10236000890500F17481ACEB00040899DDF82CC0FC
:10237000CDF834C0E4B204EB0C0EBEF11F0F2046C2
:102380003FF7DBAD104460445F2800F3078199F804
:10239000020089F80130013B63F3050089F802006F
:1023A00098F802300B9E099F501E60F3050388F8D1
:1023B000023033191A4488F801203846224630F09A
:1023C000ACFD0D9B23B132461946381930F097FD0C
:1023D00098F802309A0600F0B580159B5B0640F134
:1023E00021810A9A109912F8013C01F8013C531E10
:1023F0000A934B1E10931B9B13B1089B123B08932F
:102400005FFA8BF39F0602D5099B123B09931D9B34
:1024100023B109981946122230F07FFD199B13B1A0
:102420000A9B033B0A93109E95F8253016F8032C5F
:102430006FF3050206F8032C5C091EF05DFD3228DF
:102440008CBF0020012094FAA4F3002CB3FA83F38C
:1024500008BF4FF0FF335B0106F8013C16F8033C60
:1024600060F386136FF3C71306F8033C002306F8E6
:10247000023C1A9B13B1089B033B08935FFA8BF352
:10248000DE0602D5099B033B09931C9B23B10998E7
:102490001946032230F041FD179B13B10A9B023B02
:1024A0000A93189B13B1089B023B0893169B002BC1
:1024B00000F00981169A537812781B0203F47063B6
:1024C0001A431098D1B200F8051C95F87E30C3F37A
:1024D00003031B0103EB122300F8043C099800F8E6
:1024E000021C95F87E30C3F303031B0103EB122398
:1024F00000F8013C5FFA8BF39D0700F183800238FE
:102500005FFA8BF3DC0709D5119B002B00F0F280FA
:10251000089B991F0638062230F0FFFC99F802301C
:1025200099061CBF9DF8543089F8033098F80230A2
:102530009A06149B18BF88F803B093F84E30DB0757
:1025400000F18B800027F8E41F27F6E4D6F801108D
:102550000D91ACEB000096F800C00899CDF82CC0A6
:10256000C4B2053607E74FF0000CCDF82CC0CDF80B
:1025700034C000E799F800C0099961F3C71C89F8D5
:1025800000C09FE508991C914CF0100BDCE54BF066
:10259000200108981D908B46C9B2F6E5A2F15F03B1
:1025A0000B9A1A4413462344CA45337000F09D80A9
:1025B0000C9B984500F094804527BEE413F0F8F991
:1025C000089A1490002800F0A180DDF850E0CDF8C2
:1025D00044809EF831300EEB83030121586B0C9040
:1025E00084461CF8023BCDF848C003F03F0341701D
:1025F000037080F803800EF11C014346EBE44BF0BE
:10260000400BDDE51F9B002B77D0089B063B089312
:1026100009991A6841F8082C9B8821F8043CA1F11B
:1026200008006DE71E9B002B3FF4E5AE089A099960
:1026300012F8013C01F8013C531E08934B1E09930C
:10264000D9E60B9104460899CDF834C093E60B9C6B
:102650000D942146A446204694E6149C204612F090
:10266000A9FD374A374B0721E0FB0231184632A358
:10267000D3E90023FEF74CFC256920F07F44AC42EF
:102680003FD22E1B0025149F2F490223502238468B
:1026900021930AF03DFA00232C490195C21C21AD7B
:1026A0000591CDE9033303210296D2B20093184677
:1026B00006950BF0C7FE29460DF02CF900287FF493
:1026C0003BAC3C613EE795F87E30214903F00F03B7
:1026D00031F81320501C21F81300C2F30B02F0E66E
:1026E0000F9A6B6C12785A7566E70E9B1B7885F80B
:1026F00029305DE70A9B991F0CE70A9B063B0A936A
:1027000086E77FF61FAF651B0026BCE7CA457FF44E
:1027100014AC104A1049114840F22E632CF0A5FB6E
:10272000149B83F31188BFF36F8F0323184602DFD6
:1027300003E400BFAFF300808D49FD1A07000000DD
:1027400000CA9A3B8C49FD1A306E002079E80000DF
:102750000C6E002064570300285803005C4E0300F1
:1027600070B590F803C01CF0010F14BF00F10A040B
:10277000041D1B481CF0020F15461E464FF00702B1
:10278000A1FB000318BF063402FB01311CF0080F47
:1027900011A3D3E9002318BF0234FEF7B9FBAD1B28
:1027A00010492844A1FB00310D09490C04D00E4BFF
:1027B000A3FB003001214509A2782078657022F042
:1027C0001F02C5F3042361F3C71013432070A370E5
:1027D000204670BDAFF3008000CA9A3B00000000A5
:1027E0008D49FD1A89888888B5814E1B000000003C
:1027F0002DE9F04F91B0D0F844B0089000240E9429
:10280000DBF80030A64909930546502218460AF025
:102810007FF9D5F89C500C94C61CFF23DFF884A2E6
:102820000D95F6B28DF82F3001240DF13C090DF114
:1028300038080CAF0CE00D9BAB4202D06CB3013CEE
:10284000E4B29DF82F30FF2B3BD09E424CD00D9D23
:1028500000200221CDE905A9CDE90078CDE90300EA
:1028600002900DAB0DF12F020F910BF0CDFE02285F
:1028700000F0EF800F9B002BDDD08B4A8B498C48FA
:1028800040F6AF432CF0F1FA002383F31188BFF335
:102890006F8F0323184602DFCDE78649824A8448BA
:1028A00040F6B8432CF0E1FA84F31188BFF36F8F40
:1028B0000323184602DF9DF82F30FF2B4FF0FF0453
:1028C000C3D17D49784A7A4840F6BA432CF0CDFA14
:1028D000002383F31188BFF36F8F0323184602DFB1
:1028E0009DF82F309E42B2D10E9C744A0C9EA4F5E6
:1028F0007423A3F51073934207D904F1E874013EE1
:1029000004F5D4340C9604F5A5746D4BCBF80C602B
:10291000A3FB0434A40C089BCBF8104093F82820A8
:1029200093F829100E948A42D3B204D00133DBB25B
:10293000022B08BF0023089A624D92F82570BBF85D
:10294000089002EB8303A6FB0501D3F82CA04FF0FF
:1029500007084FA3D3E9002308FB0611FEF7D8FAB6
:10296000C7F382079AF8011007F003030B44564996
:1029700022180933A1FB0201DB00C7F34007FB402B
:1029800021F00F0003F59673A0EB1111B3EB410F8B
:1029900021D9099B4D489B8F40F2E24101FB032462
:1029A000A4FB00013CA3D3E90023FEF7B1FA20F019
:1029B0007F46A6FB050136A3D3E90023CBF80C60C4
:1029C00008FB0611FEF7A4FA09F10109241ACBF855
:1029D00010401FFA89F92246314600235046FFF77E
:1029E000BFFEDBF80C300999099D0133CBF80C30A0
:1029F00091F84D2091F84C30934202EB420305EBE5
:102A0000430318BF81F84C2093F84530062101FBA1
:102A100002524032E98F044603F03F0348461CF05F
:102A2000C9F8237860F3050323700BF053FE0D996A
:102A30000BF052FE089BD3E90121DB6891422CBFC9
:102A4000C3EB0103C3EB020398420ED211B0BDE801
:102A5000F08F0F9B022B7FF40DAF022100200BF0B3
:102A600021FE0F9B022BF8D004E70F4A18491048AB
:102A700040F606532CF0F9F9002383F31188BFF3D5
:102A80006F8F0323184602DF11B0BDE8F08F00BF3F
:102A900000CA9A3B000000008D49FD1A07000000A3
:102AA000306E0020ED510100645703004C580300C4
:102AB0005C4E03005458030084580300BFBDF07FF0
:102AC00083DE1B438D49FD1A8988888800CA9A3B9A
:102AD000A8580300000000002DE9F04F91B0D0F895
:102AE00048B0099000250E95DBF800309249089314
:102AF000184658220AF00CF8FF23061DCDE90C55A4
:102B0000F6B28DF82D3004240DF13C0A0DF12E099A
:102B10000DF138080CAF0DE00D9BAB4203D0002C3B
:102B20002FD0013CE4B29DF82D30FF2B3DD09E42CA
:102B30004ED00D9D814B059300200221CDE90189E6
:102B4000CDE90300CDF818A000970DAB0DF12D02D3
:102B50000F910BF059FD022800F0D7800F9B002B3E
:102B6000DAD0774A7749784840F6AB232CF07DF9E4
:102B7000002383F31188BFF36F8F0323184602DF0E
:102B8000CAE772496E4A704840F6AD232CF06DF9E1
:102B900084F31188BFF36F8F0323184602DF9DF87B
:102BA0002D30FF2B4FF0FF04C1D16949644A6648BC
:102BB00040F6AF232CF059F9002383F31188BFF3BB
:102BC0006F8F0323184602DF9DF82D309E42B0D14F
:102BD0000E9B60490C9FA3F57422A2F510728A42E5
:102BE00007D903F1E873013F03F5D4330C9703F5DC
:102BF000A573089A5849526DA1FB03139E0C5549C1
:102C0000A2F57423A3F510738B4207D902F1E87281
:102C1000013702F5D4320C9702F5A572099B596C65
:102C20004D4B487DA3FB0232950C0A7D0E958242E6
:102C3000D3B204D00133DBB2022B08BF002301EB77
:102C400083018C69E378D80748BF0A34434858BFEA
:102C50000434990748BF06341A0748BF02340721D5
:102C6000DB06A7FB000301FB073131A3D3E90023F7
:102C700048BF0334FEF74CF9731B1844B0F5161F18
:102C8000374A28BFA0F51610A2FB00122CBF402324
:102C90000023550C4FEA121143D0324AA2FB002008
:102CA000C0F34712C0F344300343203363702270F3
:102CB000BBF81010BBF81430BDF82E200B441344A1
:102CC00023829BF824209BF825108A429BB206D0D1
:102CD000BBF826001B1A13F4004F08BF0A46182140
:102CE000062313FB02130BEB03025BF80330636054
:102CF000137903F01F0323721EF0FCF8237A43EAD2
:102D00004013237211B0BDE8F08F0F9B022B7FF4AC
:102D100025AF022100200BF0C5FC0F9B022BF8D041
:102D20001CE743EA1233DBB2CAB2BFE7AFF300805D
:102D300000CA9A3B00000000A46E0020C15E0100A2
:102D4000C85803004C5803005C4E0300545803005D
:102D500084580300BFBDF07F83DE1B438D49FD1AFD
:102D600089888888B5814E1B38B50023C1E90533B1
:102D70000C460B7032B3216A53789278497A164820
:102D8000C2F305023E339B1AC1F34112063252FAD6
:102D900083F30333C1F38011DB00CB400F4A03F50B
:102DA000EA730721E3FB002100253123A3601046CD
:102DB000656007A3D3E90023E560FEF7A9F8206169
:102DC000284638BD91F8453001EB83039A6CD2E771
:102DD0008D49FD1A0700000000CA9A3B8C49FD1A74
:102DE0002DE9F047B1F850500E4640F2E2418CB068
:102DF000904601FB05F558221D4930461F4609F053
:102E000087FE04461B4802230B93A5FB000116A373
:102E1000D3E90023FEF77CF80DF12C0ACDF820A0B1
:102E20000696194633691F44134B0793134B0593BA
:102E300000258146002310464FF47A72CDE90357EE
:102E4000FEF766F80434E4B2CDE901904346224629
:102E50000095284603210BF061FA51460CF05AFD0B
:102E60000CB0BDE8F08700BF8D49FD1A07000000D7
:102E7000A46E002000CA9A3B79E80000315F01008F
:102E8000F0B5026A4B78527A0446887803F13E0125
:102E9000C0F30503C91AC2F34113063353FA81F193
:102EA0000331C2F38012C900D1401D4801F5EA7117
:102EB00019A3D3E900238BB0A1FB0001FEF728F88A
:102EC0002669B042054620D2361A0027022315494A
:102ED00009935822204609F01BFE0023124902964E
:102EE000021D09AE0591CDE903330321D2B201974A
:102EF0000093184606960BF0A5FA31460CF00AFD31
:102F000038B9256100200BB0F0BDFBD9871B002626
:102F1000DCE70C200BB0F0BD8D49FD1A0700000066
:102F200000CA9A3BA46E002079E80000000000006F
:102F300070B5234C9DF810E094F856C01CF0020FB9
:102F400037D1460816F0040533D151B363F3830C2F
:102F5000400194F83230A4F844104FEACE0E0EF03F
:102F6000180E00F0200040EA0E0023F0380318434A
:102F700094F83C3084F83200124884F856C066F366
:102F8000020384F83C309121A2FB000301FB0231D3
:102F900009A3D3E90023FDF7BBFFC4E912002846CB
:102FA00070BD94F83C3065F3020384F83C30284649
:102FB00070BD0C25284670BD8D49FD1A0700000024
:102FC000600B0020002AE78410B504469DF8080035
:102FD00022854FEA411CC000A17D00F018000CF0D2
:102FE000200C4CEA000C0C4821F038014CEA010C92
:102FF000A3FB0002912184F816C001FB032104A366
:10300000D3E90023FDF784FFE06210BDAFF3008039
:103010008D49FD1A07000000002AE7840000000027
:103020002DE9F04790F8563090F832205E4DDFF8E9
:103030007C816FF30003044600F13E01C3F380007E
:1030400060F386128CB084F8563084F832200BF08E
:1030500097FB94F83220B4F844305548E46102F00C
:103060007902002784F832209121A3FB0002C4E9F1
:103070000577277001FB032149A3D3E90023FDF75E
:1030800047FFE26C4B4B6760651BA3FB053502F104
:103090000E03984298BF3A46C5F38715A2644FF0D5
:1030A00031028CBF19460146A26005EB4502E7607C
:1030B000216148F8221006460BF00CFB236A00F150
:1030C0000E074FEA450A002B4BD00DF12C09AA44FC
:1030D00008EB8A030993CDF820900694B4F84430A5
:1030E00033484FF00008A3FB0002CDF80C8091217B
:1030F00001FB0321236904932F4B07932F4B059367
:103100004FF0020A26A3D3E90023CDF82CA0FDF747
:10311000FFFE104619464FF47A720023FDF7F8FEC1
:103120000635EDB2CDE9016003213B462A46CDF8D4
:10313000008040460BF026F949460CF0EBFB60B9E5
:1031400094F8563043EA0A0384F8563011F064FDCF
:1031500008B300200CB0BDE8F0870C200CB0BDE82F
:10316000F0870DF12C09CDE90A3321694B460AAAF3
:10317000032001F0D9FD0028A9D10B99104808A31C
:10318000D3E90023A1FB0001FDF7C2FE0A9B20F05A
:103190007F471F449BE750461CF048FAD9E700BF21
:1031A0008D49FD1A07000000600B0020246F0020ED
:1031B000002AE784A38B2EBA79E80000D96D0100BC
:1031C00000CA9A3B000000002DE9F04F0B79062B56
:1031D00093B00C46064614D0092B00F0A280B14AE9
:1031E000B149B2484FF4CC732BF03FFE002383F378
:1031F0001188BFF36F8F0323184602DF13B0BDE8B9
:10320000F08FD1F80890D9F818306BB1A54AA849C9
:10321000A648D9232BF029FE002383F31188BFF39E
:103220006F8F0323184602DFD9F80080404614F060
:1032300037F9A37E2660002767F38613A37694F8F8
:103240002130E760002B62D00630C2B20B9204F14D
:10325000220A3D46BE46012294F82210880652D02A
:1032600094F823C01CF0010F14BF04F12A0004F1EC
:1032700024001CF0020F18BF06301CF0040F18BF0A
:1032800001301CF0080F18BF02301CF0100B1CBFDF
:10329000834603301CF0200F18BF12301CF0400F83
:1032A00018BF0130C1F30501A0EB0A000131C9B21A
:1032B000C0B2814238BF014699423ABF591A5FFAFB
:1032C00081FA4FF0000ABBF1000F7BD09BF802C0DF
:1032D0009BF801004FEA0C2101F4F851014371D031
:1032E000BEF1000F00F0FC80002D00F025822B8F36
:1032F00053449BB22B87A3836B6B002B00F0C180E0
:10330000DC606C637AE7013BDBB2002D3BD1A38329
:10331000214630460CF04EFA13B0BDE8F04F0CF0E9
:1033200055BA8F68634B3D689D4258D1D5F82C90B3
:10333000B9F1000F00F090805E493C22084609F088
:10334000E7FB0730C3B20B93D9F8000014F0C2F8C2
:103350007A7902F00702012A80463ED0022A2BD158
:10336000072394F81AE023710021734661F3861352
:10337000A37694F821302660E16023B1CEF3C00E2D
:1033800004F1220A68E72A8F13449BB22B87A38398
:10339000B8F1000F42D098F856306A6BDB0700F1A5
:1033A0009A80D460EE6A6C63002E46D0284613B033
:1033B000BDE8F04F14F070B93A4A3B493B484FF42E
:1033C000AB7311E7002D56D02B8F53449BB22B8744
:1033D000A383BEF1000FDBD08EE70623C1E7D1F84F
:1033E0000C80B8F1000F00F08980D8F80050EB6A2B
:1033F0009F426BD02B4A30492C4840F21D132BF0D2
:1034000034FD002383F31188BFF36F8F0323184625
:1034100002DFFF23B9460B93474695E7214A274928
:10342000224840F2C1332BF020FD88F31188BFF30E
:103430006F8F0323184602DFADE71A4A20491B4865
:1034400040F2E9332BF011FD86F31188BFF36F8F43
:103450000323184602DFA9E7124A1A49134840F22B
:1034600005132BF002FD89F31188BFF36F8F03233F
:10347000184602DF60E7A4F81CA0BEF1000F3FF47D
:1034800047AF084A1049094840F25A232BF0EDFC97
:10349000002383F31188BFF36F8F0323184602DFE5
:1034A0006B6B2DE7A4590300344F03005C4E0300FF
:1034B000005A03005C6F00201C5A03009C59030053
:1034C000E8590300105A0300305A0300FF23B9469D
:1034D0000B93474638E76B6BA3427FF411AF8DE641
:1034E000BCF13F0F4FEA5C1017D9002D00F0278187
:1034F0002B8F53449BB22B87A38349E7BE4ABF4916
:10350000BF484FF48D732BF0B0FC88F31188BFF3E4
:103510006F8F0323184602DF67E79BF900C09BF813
:1035200000E0BCF1000F02F0030C634403F1090357
:10353000B4BF4FF4967C4FF01E0CC2F34002DB0088
:10354000D3400CFB01F2CDF840C003F596719444D2
:103550008C45C0F0ED801EF0400F14BF32214FF4B7
:10356000FA71DFF8A0C202FB01F1ACFB01C1890CCA
:103570000C910121CDE90D2301FA00F3D8B20F938C
:103580001DF070FA61690E9B0D9A11902F39CB1ABC
:1035900013440C9A1B1A9C489B1AA3FB000194A38A
:1035A000D3E90023FDF7B4FC20F07F430D9394F999
:1035B0001A30002B80F2B180002D00F0C3802B8FD9
:1035C00053449BB21E2B2B8704D994F91A30002B3D
:1035D000BFF6DEAE6B6B002B00F0CD80DC602B8F76
:1035E0006C63A3839BF800100F9BBA8801F03F0126
:1035F00041EA032122F4E76240F23F7322F007021E
:103600000B401343BB8094F91A30002BC0F2B580F5
:10361000B8F1000F00F0D08098F8566016F001065F
:103620007FF459AF119B6E6003F5EA713123AB60F3
:10363000EE607879744A00F003030933C0F3400068
:10364000DB00C34071480B440721E3FB020168A380
:10365000D3E90023FDF75CFC0C9B109A2F3302EB9F
:10366000430320F07F4028613246BB6002210120E5
:1036700009F0BEFA0B9BFF2B1BD0CDE900661A4662
:1036800023690D993F3B0B44304601210AF0F2FEBD
:1036900010F0FD0F0DD0584A5D49594840F296335D
:1036A0002BF0E3FB86F31188BFF36F8F03231846DB
:1036B00002DF58493C22284609F02AFA564A236973
:1036C000CDE90725554ACDE9052529690024CDE92D
:1036D0000341C21D0D990091CDE901443F3BD2B297
:1036E000012120460AF01AFE10F0FD0F0DD0424ACB
:1036F0004B49434840F2A6332BF0B7FB84F31188C3
:10370000BFF36F8F0323184602DF01220221104608
:1037100013B0BDE8F04F09F06BBA0AF0DBFF236984
:103720000D9A243B99180AF0D7FF02023FF544AFE7
:10373000002D7FF42DAEEBE5A4F81CA0A1E6A4F8C3
:103740001CA0E5E5374809F0B5F90546002842D048
:10375000002390F820200370C0E9053363F3C712FB
:10376000A0F838A0C06180F8202003634363C0F84C
:103770002C9000F11C072C6331E7D9F8183083B185
:10378000BB420ED01C4A28491D4840F233332BF06F
:103790006CFB002383F31188BFF36F8F032318465C
:1037A00002DFC9F81870A37E43F04003A3763B798B
:1037B0006FF386133B7121E50F4A1C49104840F214
:1037C0004A332BF052FB88F31188BFF36F8F03232A
:1037D000184602DF20E794F91A30002BBFF698ADA7
:1037E000A37E43F04003A37692E500BFAFF30080D1
:1037F0008D49FD1A07000000A4590300145A030064
:103800005C4E030083DE1B4300CA9A3B8C49FD1AC1
:10381000705A03005C6F00208577010081750100FC
:10382000A05A0300586F0020445A03009C5903001B
:103830002DE9F04F05468BB08B46012002219946B9
:10384000144621F075FB002202218246012009F076
:10385000CFF93F494FF4E072284609F059F900F1D9
:1038600008063C4B0093F6B201954B4632460121C7
:1038700000200AF085FE10F0FD0F0ED0364A3749C1
:10388000374840F68F032BF0F0FA002383F31188BA
:10389000BFF36F8F0323184602DF324BA4FB0348AC
:1038A000204629A3D3E900234146FDF731FB2E4BE7
:1038B00020F07F47A7FB03310722E01A02FB071124
:1038C00068EB01014FF47A720023FDF721FBCDE98B
:1038D0000170CDF800B008950695296995F9434027
:1038E00022480491224931EA240128BF014605916A
:1038F000204C07944FF6FE7103914B46324601214E
:1039000000200AF00BFD10F0FD0F0ED0124A1349F3
:10391000134840F6A4032BF0A8FA002383F3118880
:10392000BFF36F8F0323184602DFBAF1000F02D1F5
:103930000BB0BDE8F08F0122022110460BB0BDE8AC
:10394000F04F09F055B900BF8D49FD1A070000007E
:10395000B80B0020E57D0100105B0300705A0300E6
:103960005C4E030000CA9A3B8D49FD1A5DE30100DD
:1039700011E50100857D01002DE9F0418468228E6A
:103980004FF6FF739A428CB045D00546204617F09B
:103990009DFC2B7D012B00F02281022B00F0158174
:1039A000002B00F0F48094F86061002E40F010814C
:1039B0002B8A678F94F94320CDE90A6673B3002AF6
:1039C000C0F25A810023A4F89E31AA7C238FFD18EF
:1039D00002F003030135012BADB23BD0B4F8A231A4
:1039E000002B00F005819D4280F059815B1B9BB24A
:1039F0000022062BA4F8A231628740F2F68094F9E7
:103A000043309342C0F25081002326E09DF82710F6
:103A1000204614F059FF0CB0BDE8F081002AB8BF71
:103A200084F88961238FAA7CFD1802F00303013515
:103A3000012BADB20ED0B4F89E31002BCED0AB42EC
:103A400040F23C815B1BA4F89E31B4F8A231002BFC
:103A5000C9D102E00023A4F8A23194F8482063F30E
:103A6000820284F8482029460DF12702204617F0EB
:103A70004FF97430CAD0B4F89C312BB1AB4240F24C
:103A8000EC805B1BA4F89C31B4F898312BB1AB42AD
:103A900040F2DA805B1BA4F89831658F16B9AF420B
:103AA00000F0C9800135ADB294F8DD3013F00107A4
:103AB00031D1DDE90A130A46002B40F0CC80002901
:103AC00000F0BB801F461846228EE4690694CDE9BB
:103AD000035608329A4D0290CDE90017D2B2012167
:103AE000002005950AF0AEFC10F0FD0F93D00BF00E
:103AF0003BFF84428FD0934A934994484FF4AE637E
:103B00002BF0B3F9002383F31188BFF36F8F0323E6
:103B1000184602DF7FE794F943206FF30003002A81
:103B200084F8DD307FDB94F88200C0F3C00100F040
:103B300007001CF095FFB4F87A20B4F878301344ED
:103B4000628D03F5EC7313440344814A81480721D5
:103B5000E3FB0021104678A3D3E90023FDF7D8F951
:103B6000DDE90A1320F07F4220692261904235BFCF
:103B7000171A801A002000270A46002BA4D157EA02
:103B8000010CA1D1002858D019461F469CE794F893
:103B90009A3003F01803182B7FF405AFA18EB4F808
:103BA0009A218B1D9A42C4BF931F5B1AB4F89611D9
:103BB000CCBF9BB21346994200F09C80A4F896318A
:103BC000A4F89831A4F89C21EDE63D2684F86061C4
:103BD000314620460CB0BDE8F04114F075BE00231C
:103BE000A4F89C31A4F89831DDE60126334634E789
:103BF000628E052A97BF013240F2E2434FF4FA7316
:103C000092B203FB02F2B4F8A03142F2107101FB50
:103C10000323013BB3FBF2F39BB2A4F8A231002BC8
:103C20007FF4E1AE19E794F88300012100F007006A
:103C30001CF018FF7FE7354636E7002D43D00027FC
:103C4000114638463B463FE70023A4F8983120460A
:103C500017F000F921E7384636E70BF0EDFD014695
:103C6000A0B30023A4F89C31238EC3801B230371CF
:103C700000680BF0B1FD07E794F889316BB3013BA5
:103C800084F8893104F1E008404616F0EFFDB8B33E
:103C9000404616F0EBFDB8B30023638792E6082197
:103CA000204614F011FEB6E6A7B9D4F88C315A08B4
:103CB00013F0010336D1C4F88C21A5E63E2120463D
:103CC00014F002FEA7E6002EB9D1A4E60123A4F861
:103CD0009C31D9E613460126BFE60AAA0BA928465D
:103CE000FDF742FBDDE90A231343CBD0237884F8A8
:103CF0008931C7E7B4F89C1100297FF454AE5FE71F
:103D0000FF2014F079FDC3E70246D4E9210108F051
:103D100037FF0028C0D194F848301B0744BFA38E5A
:103D200063874FE642F000421E46C4F88C213B46B2
:103D300093E600BFAFF300808D49FD1A0700000035
:103D4000417D0100105B0300345C03005C4E030006
:103D50008C49FD1A00CA9A3B2DE9F04F87B0CDE996
:103D60000432BDF8442003780292BDF84820BDF823
:103D700040A0BDF84C90878F019104460392002B20
:103D800000F0FC80013FBFB2A368D4F81CB1A7EBE0
:103D9000090292B2002B00920ADAE168626823F00D
:103DA000004391422CBF8B449344A360ABEB030BC5
:103DB00094F88200C0F3C00100F007001CF050FE30
:103DC000658E052D40F2E180009BBAF1050F15FBD1
:103DD00003F5ADB240F2E24840F2E280B4F87A2056
:103DE000B4F87830134403F26E2303447C4A7D48D0
:103DF0000721E3FB00214FF09613A36296231046A0
:103E0000A38575A3D3E90023FDF782F8564620F079
:103E10007F4040F2E24308FB05F103FB06F6B1FBED
:103E2000F6F81FFA88F5206106FB05F08142A846E6
:103E300080F09680401A6B4967A3D3E90023A0FB6A
:103E40000101FDF765F820F07F408344E38EB4F86C
:103E500024211344994494F84330A9EB0709C8443A
:103E6000DB09A4F8368000F0A780E26C0099636D4E
:103E700002FB113363651DF03FF8074694F8880193
:103E8000C0F342001DF03AF8074406FB07F7564B13
:103E900007F5742707F23F27A3FB0737BF0C636DB5
:103EA000E76405FB07F072080344963A934228BF83
:103EB0001346C4E91423059B4A4D40F2E24808FB2F
:103EC00003F3E3650023A0FB0501C4F8903142A38E
:103ED000D3E90023FDF71CF8049BABEB000B434830
:103EE000A0FB0330800A08FB00F0A0FB05013AA309
:103EF000D3E90023FDF70CF8F71B20F07F45029B68
:103F0000A386039BA4F8A03131462046A4F832A032
:103F100016F03AFF364BA18E3344881DB3FBF6F3FF
:103F20009AB29042A4F89A2104D2C1F57F41FA31A5
:103F30000A4492B2019BA4F8962113B10023A4F87D
:103F4000A2315B463A4629462046FFF771FC94F8B9
:103F5000943143F0010384F8943107B0BDE8F08F49
:103F6000091A20481CA3D3E90023A1FB0001FCF798
:103F7000CFFF20F07F40ABEB000B67E7C38E1F4401
:103F8000B0F824311F44BFB2FEE6009B013515FB9B
:103F900003F5BAF1050FADB24FF4FA783FF61EAF54
:103FA0004FF096130AF10106A3629623A385B6B2D9
:103FB0000F204FF4FA732EE7049B0A48A3FB00017D
:103FC00005A3D3E90023FCF7A3FF20F07F45374684
:103FD000013594E7AFF300808D49FD1A070000001A
:103FE0008C49FD1A00CA9A3B83DE1B435917B7D18F
:103FF0007FC3C901000000002DE9F04F04460B68A3
:1040000090F820701668D3F800A0E38CD0F8220056
:1040100095B015464A7CADF84C30FF2AC7F38013A3
:1040200088460C9212908DF83F3040F00F829946EE
:104030001A4612AB93E803000DF1400B1090ADF857
:104040004410FF090AF19301D4F800C00A915B46BD
:104050003846CDF82CC014F0FBFA0A99002840F03D
:10406000DD8196F8AE310A9069F3410367F30003EE
:1040700086F8AE311098BBF80430C6F8B501A6F842
:10408000B931DAF89330C6F8AF318B88A6F8B3317E
:10409000638E94F83410A9722B81D4F82E306B60A3
:1040A000D4F83E30C5F8223005F1220094F84230B1
:1040B0000371052108F0E8FE95F8273000F03F0075
:1040C00060F3050385F8273094F84330C3F3040107
:1040D00085F82810218FE982012803F01F0389B297
:1040E00040F29C811B3303F01F030B2B00F29681DF
:1040F0000A9A002900F09281D8F800305A60638F44
:104100002B83E98ADAF8442040F2E24303FB01F70B
:10411000E18E0A91002A00F01E829AF8251040F6DE
:10412000C41240F6A6637F2988BF1A460D9200216B
:10413000304616F03DFE94F8433096F888215B092E
:1041400063F3430286F888211CF0D6FE814696F878
:104150008801C0F342001CF0D1FE09EB000307FB0D
:1041600003F3CD4A03F5742303F23F23A2FB032399
:104170009B0C2B637B08963B6B6394F8353040F2C5
:10418000E24202FB03F36B64A38FA6F8A031394629
:10419000304616F0F9FDC14BC14AC6F8A4213B4494
:1041A000B3FBF7F39AB2A6F89A21298B881D8242B5
:1041B00004DDC1F57F41FA310A4492B2A6F8962196
:1041C0006B68C6F88C31DAF84430002B00F0BE8101
:1041D0004FF00109E20700F177814FF480732384E7
:1041E0009AF827001BF028FD04F12F03002800F0A7
:1041F0004281A26AC4F82F20A28D9A800C9BFF2BCB
:1042000000F0C081BDF84C301298A4F82D30C4F8ED
:104210002900BBF80430A4F8273010989DF83F30EF
:10422000C4F8230084F82230EB8AE3862B8B2387A3
:10423000B6F8A031638796F88831C3F3420384F857
:104240003C30304613F01AFEA882E08021460B98DD
:10425000D8F804400BF0AEFAAB8AE3801C23D4F804
:1042600000B02371B9F1000F40F0558184F820901F
:1042700010F0E6F8002840F03681214658460BF051
:10428000ABFA95F86700B5F85C40B5F85E9001218F
:1042900000F007001CF0E6FBA14409F26E298144FE
:1042A0000446804A80484FF096130721C5E903333E
:1042B000E9FB002131234FF000091046B360C6F836
:1042C000049073A3D3E90023C6F80C90FCF720FEFA
:1042D00020F07F4030610A99D8F80C302D6B40F205
:1042E000E24202FB01330D992F3B19440C1B4A4655
:1042F0000221012008F07CFCDAF844307D1BA3B1D8
:104300001F68384611F004FBC21C684B0097D2B2FC
:10431000012148460AF0F2F8012800F0398197F8A7
:104320004E306FF3000387F84E30504610F05AFCC1
:1043300007465D4856A3D3E90023A4FB0001FCF720
:10434000E7FDCDF804A0D8F808305849009120F0D6
:104350007F4BBA1C3F3BD2B25B44012100200AF0E4
:104360000FF9012800F0F9809AF82430DB0700F1FA
:104370008680304613F082FD4B4BA5FB0359044663
:1043800043A3D3E9002328464946FCF7C1FDD8F8EA
:104390000830474A0792A3F13F08464B069620F0A3
:1043A0007F47A7FB0331E81A434B05934FF4F5739E
:1043B000089333694FF0000ACDE903A34FF00703D8
:1043C00003FB071169EB01014FF47A720023FCF73C
:1043D0009FFD0834E4B2CDE90170CDF800B043464A
:1043E00022460121504609F099FF10F0FD0F0DD033
:1043F000324A3349334840F2EB132AF036FD8AF350
:104400001188BFF36F8F0323184602DF01220221B8
:10441000104608F0EDFB15B0BDE8F08F0022CAF899
:10442000142095F82C300B9862F3000385F82C309B
:10443000E5680126214626710BF0BCF928682E712B
:1044400029460BF0C9F915B0BDE8F08F0DF1400B0E
:1044500010460DF13F015A461AF0B0FD9DF83F900D
:1044600094F8207009F102095FFA89F98DF83F90FC
:1044700009F00102E5E5C4F82F009880BEE60023AC
:1044800001220093184611460AF038F871E700BF80
:104490008D49FD1A0700000083DE1B437FC3C9015D
:1044A000404B4C008C49FD1A00CA9A3B1DE30100A9
:1044B000E9E201008D49FD1A5DE30100406103005E
:1044C000705A03005C4E03003B4A3C493C48FD23C4
:1044D0002AF0CBFC002383F31188BFF36F8F0323F3
:1044E000184602DF79E6214658460BF063F9DAF800
:1044F00040405046D4F800B010F074FB10F0FF09B3
:1045000014D100231222A4F8069023722271AA8AE1
:1045100062816372B1E695F8273043F0400385F875
:104520002730281D1AF042FB28859FE6224A25499C
:10453000234840F251132AF098FC002383F311889A
:10454000BFF36F8F0323184602DFDAE794F82030B9
:10455000C3F340193EE60D93E9E50BF005FA8245F9
:104560003FF402AF144A1849154840F292232AF04A
:104570007CFC002383F31188BFF36F8F032318465D
:1045800002DFF1E60022C4F82920A4F82D2040E63D
:104590000BF0EAF987423FF4C2AE074A0A490848DD
:1045A00040F292232AF061FC89F31188BFF36F8FE8
:1045B0000323184602DFB2E640610300845403007F
:1045C0005C4E0300B85503009C610300000000002E
:1045D0002DE9F04F8DB0CDE906019B460020BDF8D6
:1045E00068309DF85C80BDF86090BDF864A09DF8CF
:1045F0006C500392059312F08DFF002800F0A0800C
:1046000008F00106044630460AF0AAF80490002E8D
:1046100040F08E80169B04995A46304614F018F8E4
:10462000002840F09180012D00F28A8094F83C30FF
:1046300065F3020384F83C30236A089304F11C02FA
:104640000992002B00F09080276A3D680BF0010969
:1046500097F86600C0F3C00100F007001CF000FAF4
:1046600094F83C10B7F85C2001F003032833C1F341
:104670004001DB00CB40934238BF1346A7F85C30C3
:1046800094F83CC0B7F85E100CF003022832CCF36B
:10469000400CD20022FA0CF28A4238BF0A4699181E
:1046A000FB89A7F85E2000F5EC7018444318BA4A5D
:1046B000BA480721E3FB00211046B5A3D3E9002344
:1046C000FCF726FC20F07F402861039D28461AF065
:1046D000EDFFA38F03F0BF0363F0FF03A387002D5B
:1046E00036D0A8F10203012B40F22B8194F856102A
:1046F00068F3830184F8561094F83C1069F345116F
:1047000084F83C1016990968616216998988218598
:104710000599218603990091DDE9062304F11C0027
:104720000021FEF751FCE06400200DB0BDE8F08FE1
:10473000062108F001FA00287FF46CAF1220F4E79C
:104740000C200DB0BDE8F08F0B200DB0BDE8F08F50
:104750001BF030FC0028C4D0039A169958461BF071
:1047600053F984F83D00BCE70BF00CF809900028E1
:1047700000F0098113F076FB0546002800F0008167
:10478000203008F095FB05F11C07002840F0E4807C
:10479000032105F124001BF0D7FFD5F89400A5F8FC
:1047A00034A04FF6FF73A5F832902B86002800F056
:1047B000E28005F1880205F1840108F0C9F9B5F835
:1047C000823023F4EF6323F0070343F48C7343F048
:1047D0000103A5F8823095F89A304FF0000A23F0D3
:1047E0000703012185F89A302846C5F894A0A5F85A
:1047F00098A014F099FB7F2385F8DE30A5F836A049
:10480000C5F83AA005F13E001AF07AF995F8433060
:1048100060F30503012185F843300DF12F001BF0F3
:1048200093FF059B9DF82F20A5F8A0315C4B85F8E0
:1048300045A0A3FB0213DB0803EB4303A2EB8302B7
:1048400095F84330A98EA5F8A2A103F03F0385F89F
:10485000433095F84830A5F898A1053223F00703B6
:1048600085F8442085F8483040F2E2424D4B02FB87
:1048700009F94FF4C0224B44C5F89C21881DB3FBB5
:10488000F9F39AB28242A5F89A2102DD063A521A49
:1048900092B2A5F89621284616F0FEF94946284618
:1048A00016F072FA4FF0000A099BC5F8643185F8DA
:1048B00060A113F0C1FE95F8A83160F3020385F8FA
:1048C000A83113F0BFFE95F8A83160F3C50385F851
:1048D000A83195F894316AF3410385F8943105F1D4
:1048E000E00015F081FF95F8AE31C5F804A00BF09B
:1048F000010969F3410385F8AE314FF09613C5E91C
:104900000A333123AB60169BC5F80CA01B68169ABE
:10491000C5F8B53195F8AE319288A5F8B92168F39C
:104920000003049A85F8AE311368C5F8AF31938857
:10493000A5F8B3312762C5E905AA85F800A0ED61A5
:1049400086E600201AF0D6FE94F83C3043F040038F
:10495000B04684F83C30C9E6134A14491448C123D0
:104960002AF083FA089B83F31188BFF36F8F032328
:10497000184602DF0CE705F18C00C5F8940018E733
:1049800009980AF005FF0720CFE600BFAFF30080CB
:104990008D49FD1A070000008C49FD1A00CA9A3B98
:1049A000ABAAAAAA7FC3C901CC610300104F0300C0
:1049B0005C4E0300000000002DE9F04F04468DB06E
:1049C00090F82080A38D806AADF82C30E307C8F3FF
:1049D000C0170E461546C8F340180A9000F113811F
:1049E00000232384B37C707C13F001031CBFD4F834
:1049F0002230C4F82F3004F12F0214BFE38CC4F826
:104A00002F30FF28938004F1290904F1230200F0DC
:104A1000EC8004F122011AF0D1FA94F82230BDF8AA
:104A20002C200A98C4F82900023384F82230A9F80F
:104A300004203368D3F80090EB8AE3862B8B23871E
:104A4000B9F8303063871CF055FA84F83C002F68C1
:104A5000384613F013FA0021A882E080384616F099
:104A6000A7F9D6F804A0206821460AF0A3FEAB8A75
:104A7000AAF806301C23DAF800408AF80430B8F1AE
:104A8000000F40F0D0808AF82080514620460AF07E
:104A9000A3FEBB687A6895F86600B5F81680F568DD
:104AA000694C934238BF1346C0F3C00103F10E0AAC
:104AB00000F0070040F2E24303FB08F81BF0D0FFD0
:104AC000002202212D1A012008F092F8484612F027
:104AD000E7FCA5FB04455AA3D3E9002383462946F6
:104AE0002046FCF715FACDF80490B36857490091B9
:104AF00020F07F490BF10602A3EB0A03D2B24B442C
:104B00000121002009F03CFD10F0FD0F0ED0504AAD
:104B10005049514840F249332AF0A7F9002383F362
:104B20001188BFF36F8F0323184602DF4FF0000B8D
:104B30005B4605220121CDF800B0584609F0DEFCA5
:104B4000384613F09BF9B36806463F48A3EB0A0AC0
:104B5000A8FB00013AA3D3E90023FCF7D9F91946D1
:104B60003E4B08933E4B069340F2793307970993E7
:104B70003B698046CDE904B3104600234FF47A72B6
:104B8000FCF7C6F9374B0722A9FB0331CDE90280B8
:104B900002FB0911E01A65EB01014FF47A72002360
:104BA000FCF7B6F90836F6B2CDE900905346324626
:104BB0000121584609F0CEFB10F0FD0F0DD0244A1C
:104BC0002449254840F27A332AF04FF98BF31188B3
:104BD000BFF36F8F0323184602DF01220221104624
:104BE0000DB0BDE8F04F08F003B80023BDF82C105D
:104BF0000A98C4F82930A9F8043084F82270C4F85F
:104C00002300918015E7124A174913484FF4317376
:104C10002AF02BF9002383F31188BFF36F8F03234E
:104C2000184602DFDCE695F8273043F0400385F8AC
:104C30002730281D19F0BAFF4FF00108288522E718
:104C40008D49FD1A0700000000CA9A3BD9E4010013
:104C5000CC610300705A03005C4E0300DDE40100E8
:104C600011E501008D49FD1A845403000000000085
:104C7000032870B50D4610D0042843D00838C3B2BD
:104C8000032B07D880B213F001F918B190F9433023
:104C9000002B1CDA0024204670BD002011F098F88B
:104CA00004460028F6D05F22114611F099F81C4AFC
:104CB0001C4B0721E0FB0231184617A3D3E9002360
:104CC000FCF726F920F07F402860204670BD90F860
:104CD0008230134E0446C3F3C00103F007001BF0FB
:104CE000BFFE104A00F2FE400721E0FB06211046FD
:104CF00009A3D3E90023FCF70BF920F07F402860DB
:104D0000204670BD002011F07DFA04460028C1D075
:104D10005F2111F095FACAE78D49FD1A07000000DE
:104D200000CA9A3B8C49FD1A70B588B01E461346DE
:104D300006AA029207AA019205AA00920024224A1A
:104D4000079419F0D1FDFF2834D0069B1F48072196
:104D5000A3FB000201FB032119A3D3E90023FCF705
:104D6000D7F8044600B13E34079D1949059BA5F5C7
:104D70007422A2F510728A4214D814480721A3FBAA
:104D8000000201FB03210EA3D3E90023FCF7C0F8C6
:104D9000104BA3FB053504EB95440444346000201C
:104DA00008B070BD05F1E87505F5D435013B05F592
:104DB000A575E2E76FF00900F2E700BFAFF30080EE
:104DC00000CA9A3B00000000DDE801008D49FD1A91
:104DD000BFBDF07F83DE1B432DE9F043C668476803
:104DE00073683D491A68D0F80090A7F57423A3F5BD
:104DF00010738B4283B0804607D907F1E87707F537
:104E0000D43709F1FF3907F5A57773681169DD8A91
:104E1000CDF8049006F1100301AA0220FFF784FFE9
:104E200000284ED10199A1EB09031B0237D4084693
:104E3000494609F051FC034628480721A3FB00021C
:104E400001FB032122A3D3E90023FCF761F83469B5
:104E50000444002C346109DB40F2E24305FB03F318
:104E6000A3422FD2E41AA342FCD33461D8F8003015
:104E70001A48A3EB0903A3FB0002072101FB03214E
:104E800013A3D3E90023FCF743F8154BA3FB073723
:104E9000A0EB97402044306103B0BDE8F083484662
:104EA00009F01AFC03460D480721A3FB000201FB91
:104EB000032107A3D3E90023FCF72AF83469241A55
:104EC000C7E73469002CD1D103B0BDE8F08300BF3F
:104ED00000CA9A3B00000000BFBDF07F8D49FD1A5B
:104EE00083DE1B43000000002DE9F04F8FB00DF171
:104EF00037010446DFF8D0A0DFF8D0800DF136008E
:104F00000AF0E0FC9DF836309DF837B00B9309F0BD
:104F1000E1FBDAF80060A6FB085629A3D3E90023D9
:104F20000027814631462846FBF7F2FFCDE9077797
:104F3000069420F07F44DAF80400254B0593A0FB8B
:104F400008011FA3D3E90023FBF7E2FF214B20F068
:104F50007F40A4FB0331072202FB0411CDE903705B
:104F6000E81A66EB01014FF47A720023FBF7D0FFD9
:104F70000097CDE901404B460B985A46032109F0B2
:104F8000CDF910F0FD0404D06FF08B000FB0BDE838
:104F9000F08F1148114A002325F04CFE20B9DAF8B1
:104FA0000C000FB0BDE8F08F9DF837209DF836005B
:104FB00000942346032109F0A1FA6FF07300E5E79E
:104FC0008D49FD1A07000000C87A002000CA9A3BEC
:104FD000B90002008D49FD1AB07A0020447B0B0015
:104FE00038B50F4D044609F075FBA96809F074FB4C
:104FF000696803460B48B3FBF4F4A1FB00011C44B1
:1050000005A3D3E90023FBF783FF20F07F40844210
:1050100094BF0020012038BD8D49FD1A0700000013
:10502000C87A002000CA9A3BF0B5C468636883B0B0
:105030000546002B6AD11FF0DFF900201FF032FA7D
:10504000A17A607A01F00101C0F382001FF01CFA1E
:10505000627A252102F01C0208201FF057FA484B03
:10506000019301A81FF03EFA464940F25B601FF031
:10507000EDFA237AC3F3420262F306132372204649
:105080001CF0B0F91AF096FF58BB637A9B071FD14A
:1050900027682E6838461BF07FFC06446A6806F1D4
:1050A0000E0101201FF030FC1FF084FD20460FF0A0
:1050B000A5FD811C3246C9B238461BF07BFC054673
:1050C00078BB20461BF0CEFB88B9002003B0F0BDB2
:1050D00001201AF06BFA4178821C00781FF0B4FBB3
:1050E000D6E7607A10F0030018BF0120F1E7264AE6
:1050F0002649274840F2294329F0B7FE85F3118855
:10510000BFF36F8F0323184602DFDEE793F82C30DE
:105110009A0790D01F4821461FF02CF91FF042FA41
:10512000D3E7194A1C491A4840F2114329F09DFE61
:105130001A4B0721A5FB030301FB05310EA3D3E99D
:105140000023FBF7E5FE16490246164829F08DFEBE
:10515000002585F31188BFF36F8F0323184602DF04
:10516000114821461FF006F91FF01CFA6FF08B0062
:10517000ACE700BFAFF3008000CA9A3B000000001C
:10518000D6BE898E555555004C660300505003001D
:105190005C4E0300690B0200344F03008D49FD1A79
:1051A00000670300CC660300090F02000000000046
:1051B0002DE9F047C46882B0002306460DF10301D3
:1051C00004F1140067688DF803301CF0D5F88046B0
:1051D000002800F0D5803B7B07EB83031D692B780B
:1051E00003F00F03072B0DD0914A92499248A62352
:1051F00029F03BFE002383F31188BFF36F8F032355
:10520000184602DFAB7813F03F0900F09680EB7888
:10521000D8074CBF05F10A022A1D990748BF06327C
:10522000180748BF0232D90640F19480937851782C
:105230001B0203F4F8530B4300F08C80238992F88F
:1052400000A0013323811FF0D7F800201FF02AF9B6
:1052500097F80990B97A4FEA591901F001014846C7
:105260001FF012F94FEA89025F2108201FF04EF962
:10527000724B019301A81FF035F90AF03F0A7049FB
:1052800040F25B601FF0E2F950461BF0A5FBAB78E3
:105290003F2B2BD86B4821461FF06CF81FF0A0FA6B
:1052A00040461FF063F92768356838461BF074FBE9
:1052B000054405F10E01726801201FF025FB1FF067
:1052C00079FC204610F02EFBC11C2A46C9B2384694
:1052D0001BF070FB054600287BD120461BF0C2FA6C
:1052E00000283ED1002002B0BDE8F0870DF1030197
:1052F00007F118001CF040F8054600285BD0214655
:1053000051481FF037F896201FF0F2FA48461FF078
:10531000BFF99DF80330002B46D11AF04BFE002850
:105320003CD17B7A9B07BBD001201AF03FF9417832
:10533000821C00781FF088FAB2E73D4A43493E4894
:10534000AD2329F092FD89F31188BFF36F8F0323FA
:10535000184602DF3E4821461FF00CF81FF022F9E4
:10536000C0E7334A3B49344840F2571329F07DFDEA
:1053700085F31188BFF36F8F0323184602DFB1E76F
:105380002B4A35492C48922329F06FFD88F3118868
:10539000BFF36F8F0323184602DF1CE7787A10F003
:1053A000030018BF0120C0E7D8F804306B60B8F8DC
:1053B00008302B81B1E71E4A28491F48DD2329F018
:1053C00054FD85F31188BFF36F8F0323184602DF66
:1053D00095E7174A224918484FF4A47329F045FD70
:1053E000204B0721A5FB030301FB05310EA3D3E9E5
:1053F0000023FBF78DFD1C4902461C4829F035FDB2
:10540000002585F31188BFF36F8F0323184602DF51
:105410000C4821461EF0AEFF1FF0C4F86FF08B0061
:1054200061E700BFAFF3008000CA9A3B00000000B4
:105430000C670300646703005C4E0300D6BE898ED0
:1054400055555500491A0200991A0200104F0300E1
:10545000FD1B0200505003005C670300C0660300A0
:10546000344F03008D49FD1A94670300CC66030096
:10547000F0B5C4680189228AA38A0A4492B213440F
:105480000546628298B294F8242094F82530411C95
:10549000A1829A424FF0000183B0218205D0E18CB5
:1054A000411A090402D484F824301A4602EB42035C
:1054B00004EB430306215B7F01FB02421832E18AC1
:1054C00003F03F0319F076FB07461EF095FF00201E
:1054D0001EF0E8FF63685E7A997A7609304601F03B
:1054E00001011EF0D1FFB2005F2108201FF00EF86D
:1054F00004F108001EF0F6FFA389A17B40F25B6077
:1055000043EA01411FF0A2F838461BF065FA002378
:105510000DF1070104F128008DF807301BF02CFF76
:105520000646002835D0214637481EF023FF1FF0DD
:1055300057F930461FF01AF827682E6838461BF0D6
:105540002BFA06446A6806F10E0101201FF0DCF90F
:10555000204610F05FFE011D3246C9B238461BF0EE
:1055600029FA054618BB20461BF07CF910B900202B
:1055700003B0F0BD254A2649264840F2191329F008
:1055800074FC85F31188BFF36F8F0323184602DF85
:10559000EDE71E4A20491F48B32329F066FC86F335
:1055A0001188BFF36F8F0323184602DFBBE7174A4A
:1055B0001A4918484FF4857329F057FC184B0721F6
:1055C000A5FB030301FB05310DA3D3E90023FBF782
:1055D0009FFC14490246144829F047FC002585F336
:1055E0001188BFF36F8F0323184602DF0F4821464F
:1055F0001EF0C0FE1EF0D6FF6FF08B00B8E700BFB4
:1056000000CA9A3B0000000001200200A0670300CE
:10561000505003005C4E030060670300344F0300EA
:105620008D49FD1AF0670300CC660300210B0200D0
:105630002DE9F041C46894F91630002B8CB0C0F20B
:105640001681636805460E46002B40F00581A37D58
:105650006FF30003A3751EF0CFFE00201EF022FFA3
:1056600094F82000012100F007001EF00DFF94F8CF
:1056700020209200252102F01C0208201EF046FF87
:1056800094F8203023F01803012084F820300AF029
:105690001FFA0746002800F0D08007F120001EF016
:1056A0005FFF8D4B0B930BA81EF01CFF8B4940F244
:1056B0005B601EF0CBFFA07DC0F3410025301BF0E6
:1056C0008BF9874821461EF055FEA37D9B0603D427
:1056D0006368002B00F0AE8096201FF009F90023CC
:1056E0001A46194618461FF01BF81AF063FC0028EA
:1056F00038D1A37D13F0180F5FD1D4F800802F6844
:1057000040461BF049F907446A6807F10E01002082
:105710001FF0FAF81FF04EFA1FF072F8204611F051
:10572000CBFE811DC9B240463A461BF043F9804684
:10573000002840F0A38016B9E36A002B56D16368B5
:1057400043B1684B0122022100209D6007F084FADA
:1057500000283BD120461BF085F8F0B900200CB0A2
:10576000BDE8F081A07DC0F3C00019F01FFF07461F
:105770000DF12B001AF088FA79788046BA1C387837
:105780001FF062F894F820209DF82B00920041460B
:1057900002F01C021FF0CAFAAFE7534A53495448BB
:1057A00040F20B2329F061FB002383F31188BFF340
:1057B0006F8F0323184602DFD0E7012019F0F6FEB1
:1057C0004178821C00781FF03FF896E7464A494925
:1057D000474840F2062329F048FB002383F3118851
:1057E000BFF36F8F0323184602DFB3E7424A0792E5
:1057F000424A059240F2F31200930892CDE9036603
:10580000CDE9016606943B460522314608F086FD47
:1058100010F0FD0F93D0344A394935484FF4FA73EC
:1058200029F023FB86F31188BFF36F8F03231846FB
:1058300002DF84E71EF0D4FF57E72B4A31492C489A
:105840004FF4C57329F011FB87F31188BFF36F8FF5
:105850000323184602DF20E7636893F82C30D9074A
:1058600005D4636893F82C309A077FF5F0AE26488C
:1058700021461EF07FFD1EF095FE6FE71A4A234970
:105880001B4840F2E51329F0F0FA214B0721A8FB51
:10589000030301FB08310EA3D3E90023FBF738FB18
:1058A0001C4902461C4829F0E0FA002585F31188BE
:1058B000BFF36F8F0323184602DF184821461EF0FE
:1058C00059FD1EF06FFE6FF08B0048E7AFF30080CC
:1058D00000CA9A3B00000000D6BE898E555555007F
:1058E000C1590000B8020020FC67030050500300BB
:1058F0005C4E0300484F0300192502004D250200AD
:10590000C455030098660300690B0200344F03007E
:105910008D49FD1A54680300CC660300BD220200C5
:1059200038B504461CF06EFCA37DA27DC3F3410391
:10593000013303F00303032B08BF002363F3420288
:1059400014BF03F125002520A2751BF045F86368FC
:105950000BB123694BB908F0BDFEC11C00201FF03C
:1059600047F8BDE838401FF025B91FF0C7F80546D5
:1059700008F0B0FEC11C00201FF03AF81FF01AF921
:105980001FF0BCF8294608F0A7FE0B4A0346072182
:10599000A0FB020201FB032105A3D3E90023FBF7CF
:1059A000B7FA23691B1A236138BD00BFAFF300802B
:1059B00000CA9A3B000000008D49FD1A000000005B
:1059C0002DE9F04F8DB004461EF02AFE10F0FF00C6
:1059D00013D1FF238DF829008DF827008DF82A3088
:1059E0008DF828301BF052F8A94821461EF0C2FC61
:1059F0001EF0D8FD0DB0BDE8F08F1EF033FE054659
:105A00001EF056FF8DF827001EF05CFF8DF8280071
:105A10001FF0F2F98DF829001FF0D0F98DF82A0057
:105A20001EF008FF06461EF0E9FEEDB207461BF029
:105A30002DF8002DD8D001200AF04AF8054600289C
:105A400000F0168195F8203003F00F03072B05F1C5
:105A5000200900F0E1809DF82730002B3ED19DF811
:105A60002980B8F1000F40F0F98042464FF0FF0A5C
:105A70004146534620461CF007FF0028B4D09DF84D
:105A8000298095F82020616800238DF82B30F6B22C
:105A900002F00F03002948D0616891F82C108807A4
:105AA00043D4072B40F0FC8094F820305A079BD059
:105AB000A27D12F0010297D10DF12B010191CDF8D9
:105AC00000A04B46012120461CF024FF002840F096
:105AD0009E8095F8203003F00F0377E0A07D9DF8BD
