:020000040200F8
:10000000B85B01224D840002A90D0102398400026F
:1000100039840002398400023984000239840002E4
:100020000000000000000000000000004985000200
:100030003984000200000000B18400028DB2000289
:100040004D8700024D8700024D8700024D87000258
:100050004D8700024D8700024D8700024D87000248
:100060004D8700024D8700024D8700024D87000238
:100070004D8700024D8700024D8700024D87000228
:100080004D8700024D8700024D8700024D87000218
:100090004D8700024D8700024D8700024D87000208
:1000A0004D8700024D8700024D8700024D870002F8
:1000B0004D8700024D8700024D8700024D870002E8
:1000C0004D8700024D8700024D8700024D870002D8
:1000D0004D8700024D8700024D8700024D870002C8
:1000E0004D8700024D8700024D8700024D870002B8
:1000F0004D8700024D8700024D8700024D870002A8
:100100004D8700024D8700024D8700024D87000297
:100110004D8700024D8700024D8700024D87000287
:100120004D8700024D8700024D8700024D87000277
:100130004D8700024D8700024D8700024D87000267
:100140004D8700024D8700024D8700024D87000257
:100150004D8700024D8700024D8700024D87000247
:100160004D8700024D8700024D8700024D87000237
:100170004D8700024D8700024D8700024D87000227
:100180004D8700024D8700024D8700024D87000217
:100190004D8700024D8700024D8700024D87000207
:1001A0004D8700024D8700024D8700024D870002F7
:1001B0004D8700024D8700024D8700024D870002E7
:1001C0009FED0B7B41EC160B9FED0B5B26EE077B47
:1001D000BCEEC77BB8EE474B17EE101AA4EE456B8A
:1001E000FCEEC67B17EE900A704700BFAFF30080AD
:1001F000000000000000F03D000000000000F041A1
:10020000002902D0B0FBF1F0704708B14FF0FF3089
:1002100000F01EB80029F8D00246B0FBF1F000FB58
:1002200011217047002902D090FBF1F0704700289F
:10023000C8BF6FF00040B8BF4FF0004000F008B8F2
:100240000029F4D0024690FBF1F000FB1121704729
:10025000704700BF81F0004102E000BF83F000431F
:1002600030B54FEA41044FEA430594EA050F08BF51
:1002700090EA020F1FBF54EA000C55EA020C7FEA15
:10028000645C7FEA655C00F0E2804FEA5454D4EB92
:100290005555B8BF6D420CDD2C4480EA020281EA5C
:1002A000030382EA000083EA010180EA020281EA94
:1002B0000303362D88BF30BD11F0004F4FEA0131E6
:1002C0004FF4801C4CEA113102D0404261EB4101F5
:1002D00013F0004F4FEA03334CEA133302D052427B
:1002E00063EB430394EA050F00F0A780A4F1010437
:1002F000D5F1200E0DDB02FA0EFC22FA05F2801871
:1003000041F1000103FA0EF2801843FA05F3594156
:100310000EE0A5F120050EF1200E012A03FA0EFCD5
:1003200028BF4CF0020C43FA05F3C01851EBE371FF
:1003300001F0004507D54FF0000EDCF1000C7EEB1C
:1003400000006EEB0101B1F5801F1BD3B1F5001F5A
:100350000CD349085FEA30004FEA3C0C04F1010479
:100360004FEA445212F5800F80F09A80BCF1004FA2
:1003700008BF5FEA500C50F1000041EB045141EA24
:10038000050130BD5FEA4C0C404141EB0101013CED
:1003900028BFB1F5801FE9D291F0000F04BF0146DC
:1003A0000020B1FA81F308BF2033A3F10B03B3F1AE
:1003B00020020CDA0C3208DD02F1140CC2F10C023E
:1003C00001FA0CF021FA02F10CE002F11402D8BF9C
:1003D000C2F1200C01FA02F120FA0CFCDCBF41EA68
:1003E0000C019040E41AA2BF01EB0451294330BD37
:1003F0006FEA04041F3C1CDA0C340EDC04F1140414
:10040000C4F1200220FA04F001FA02F340EA0300EA
:1004100021FA04F345EA030130BDC4F10C04C4F130
:10042000200220FA02F001FA04F340EA0300294610
:1004300030BD21FA04F0294630BD94F0000F83F45A
:10044000801306BF81F480110134013D4EE77FEA3D
:10045000645C18BF7FEA655C29D094EA050F08BF89
:1004600090EA020F05D054EA000C04BF194610466A
:1004700030BD91EA030F1EBF0021002030BD5FEAAE
:10048000545C05D14000494128BF41F0004130BDD6
:1004900014F580043CBF01F5801130BD01F000452A
:1004A00045F0FE4141F470014FF0000030BD7FEA9D
:1004B000645C1ABF194610467FEA655C1CBF0B4698
:1004C000024650EA013406BF52EA033591EA030FAF
:1004D00041F4002130BD00BF90F0000F04BF0021A7
:1004E000704730B54FF4806404F132044FF00005DA
:1004F0004FF0000150E700BF90F0000F04BF002153
:10050000704730B54FF4806404F1320410F00045B8
:1005100048BF40424FF000013EE700BF42004FEAB3
:10052000E2014FEA31014FEA02701FBF12F07F4330
:1005300093F07F4F81F06051704732F07F4208BFE7
:10054000704793F07F4F04BF41F40021704730B5EE
:100550004FF4607401F0004521F000411CE700BF3A
:1005600050EA010208BF704730B54FF000050AE0BD
:1005700050EA010208BF704730B511F0004502D5BE
:10058000404261EB41014FF4806404F132045FEAC0
:10059000915C3FF4D8AE4FF003025FEADC0C18BF69
:1005A00003325FEADC0C18BF033202EBDC02C2F15B
:1005B000200300FA03FC20FA02F001FA03FE40EAED
:1005C0000E0021FA02F11444BDE600BF70B54FF0F1
:1005D000FF0C4CF4E06C1CEA11541DBF1CEA1355CF
:1005E00094EA0C0F95EA0C0F00F0DEF82C4481EA37
:1005F000030621EA4C5123EA4C5350EA013518BF57
:1006000052EA033541F4801143F4801338D0A0FB43
:1006100002CE4FF00005E1FB02E506F00042E0FBF0
:1006200003E54FF00006E1FB03569CF0000F18BFF6
:100630004EF0010EA4F1FF04B6F5007F64F540749E
:1006400004D25FEA4E0E6D4146EB060642EAC62131
:1006500041EA55514FEAC52040EA5E504FEACE2E9E
:10066000B4F1FD0C88BFBCF5E06F1ED8BEF1004FA1
:1006700008BF5FEA500E50F1000041EB045170BD1D
:1006800006F0004646EA010140EA020081EA030161
:10069000B4EB5C04C2BFD4EB0C0541EA045170BD5D
:1006A00041F480114FF0000E013C00F3AB8014F1D7
:1006B000360FDEBF002001F0004170BDC4F1000420
:1006C000203C35DA0C341BDC04F11404C4F12005A1
:1006D00000FA05F320FA04F001FA05F240EA0200FC
:1006E00001F0004221F0004110EBD37021FA04F632
:1006F00042EB06015EEA430E08BF20EAD37070BDEC
:10070000C4F10C04C4F1200500FA04F320FA05F04A
:1007100001FA04F240EA020001F0004110EBD3704C
:1007200041F100015EEA430E08BF20EAD37070BDBC
:10073000C4F1200500FA05F24EEA020E20FA04F395
:1007400001FA05F243EA020321FA04F001F0004144
:1007500021FA04F220EA020000EBD3705EEA430EB5
:1007600008BF20EAD37070BD94F0000F0FD101F0E4
:100770000046400041EB010111F4801F08BF013C1D
:10078000F7D041EA060195F0000F18BF704703F05B
:100790000046520043EB030313F4801F08BF013DE2
:1007A000F7D043EA0603704794EA0C0F0CEA13559E
:1007B00018BF95EA0C0F0CD050EA410618BF52EA58
:1007C0004306D1D181EA030101F000414FF000005E
:1007D00070BD50EA410606BF1046194652EA43066C
:1007E00019D094EA0C0F02D150EA013613D195EAE0
:1007F0000C0F05D152EA03361CBF104619460AD128
:1008000081EA030101F0004141F0FE4141F4700131
:100810004FF0000070BD41F0FE4141F4780170BD21
:1008200070B54FF0FF0C4CF4E06C1CEA11541DBF86
:100830001CEA135594EA0C0F95EA0C0F00F0A7F888
:10084000A4EB050481EA030E52EA03354FEA0131B5
:1008500000F088804FEA03334FF0805545EA1313C8
:1008600043EA12634FEA022245EA111545EA106590
:100870004FEA00260EF000419D4208BF964244F127
:10088000FD0404F5407402D25B084FEA3202B61A46
:1008900065EB03055B084FEA32024FF480104FF41A
:1008A000002CB6EB020E75EB030E22BFB61A75468E
:1008B00040EA0C005B084FEA3202B6EB020E75EB21
:1008C000030E22BFB61A754640EA5C005B084FEA89
:1008D0003202B6EB020E75EB030E22BFB61A754656
:1008E00040EA9C005B084FEA3202B6EB020E75EB61
:1008F000030E22BFB61A754640EADC0055EA060E22
:1009000018D04FEA051545EA16754FEA06164FEA64
:10091000C30343EA52734FEAC2025FEA1C1CC0D110
:1009200011F4801F0BD141EA00014FF000004FF09D
:10093000004CB6E711F4801F04BF01430020B4F15E
:10094000FD0C88BFBCF5E06F3FF6AFAEB5EB030C16
:1009500004BFB6EB020C5FEA500C50F1000041EB13
:10096000045170BD0EF0004E4EEA113114EB5C04E0
:10097000C2BFD4EB0C0541EA045170BD41F48011B3
:100980004FF0000E013C90E645EA060E8DE60CEABB
:10099000135594EA0C0F08BF95EA0C0F3FF43BAFD8
:1009A00094EA0C0F0AD150EA01347FF434AF95EA8F
:1009B0000C0F7FF425AF104619462CE795EA0C0F73
:1009C00006D152EA03353FF4FDAE1046194622E740
:1009D00050EA410618BF52EA43067FF4C5AE50EA1A
:1009E00041047FF40DAF52EA43057FF4EBAE12E70A
:1009F0004FF0FF3C06E000BF4FF0010C02E000BFEB
:100A00004FF0010C4DF804CD4FEA410C7FEA6C5CCD
:100A10004FEA430C18BF7FEA6C5C1BD001B050EA70
:100A2000410C0CBF52EA430C91EA030F02BF90EA5B
:100A3000020F0020704710F1000F91EA030F58BF1A
:100A4000994208BF90422CBFD8176FEAE37040F07C
:100A5000010070474FEA410C7FEA6C5C02D150EA1A
:100A6000013C07D14FEA430C7FEA6C5CD6D152EAD5
:100A7000033CD3D05DF8040B704700BF844610469A
:100A800062468C461946634600E000BF01B5FFF799
:100A9000B7FF002848BF10F1000F01BD4DF808ED69
:100AA000FFF7F4FF0CBF012000205DF808FB00BF3A
:100AB0004DF808EDFFF7EAFF34BF012000205DF894
:100AC00008FB00BF4DF808EDFFF7E0FF94BF0120E1
:100AD00000205DF808FB00BF4DF808EDFFF7CEFFE2
:100AE00094BF012000205DF808FB00BF4DF808ED21
:100AF000FFF7C4FF34BF012000205DF808FB00BFF2
:100B00004FEA410C7FEA6C5C02D150EA013C0AD109
:100B10004FEA430C7FEA6C5C02D152EA033C02D1FB
:100B20004FF0000070474FF0010070474FEA41025C
:100B300012F5001215D211D56FF47873B3EB62522F
:100B400012D94FEAC12343F0004343EA505311F056
:100B5000004F23FA02F018BF404270474FF00000E8
:100B6000704750EA013005D111F0004008BF6FF026
:100B7000004070474FF00000704700BF4A0011D29C
:100B800012F5001211D20DD56FF47873B3EB6252E7
:100B90000ED44FEAC12343F0004343EA505323FAF3
:100BA00002F070474FF00000704750EA013002D168
:100BB0004FF0FF3070474FF0000070474FEA41029E
:100BC000B2F1E04324BFB3F5001CDCF1FE5C0DD9AB
:100BD00001F0004C4FEAC0024CEA5070B2F1004FF5
:100BE00040EB830008BF20F00100704711F0804FF8
:100BF00021D113F13872BCBF01F00040704741F4BD
:100C000080114FEA5252C2F11802C2F1200C10FAC0
:100C10000CF320FA02F018BF40F001004FEAC123A4
:100C20004FEAD32303FA0CFC40EA0C0023FA02F348
:100C30004FEA4303CCE77FEA625307D150EA01331E
:100C40001EBF4FF0FE4040F44000704701F00040EE
:100C500040F0FE4040F40000704700BF80F00040CC
:100C600002E000BF81F0004142001FBF5FEA410384
:100C700092EA030F7FEA226C7FEA236C6AD04FEA84
:100C80001262D2EB1363C1BFD218414048404140C9
:100C9000B8BF5B42192B88BF704710F0004F40F47B
:100CA000000020F07F4018BF404211F0004F41F497
:100CB000000121F07F4118BF494292EA030F3FD063
:100CC000A2F1010241FA03FC10EB0C00C3F1200376
:100CD00001FA03F100F0004302D5494260EB400005
:100CE000B0F5000F13D3B0F1807F06D340084FEA70
:100CF000310102F10102FE2A51D2B1F1004F40EB65
:100D0000C25008BF20F0010040EA030070474900CC
:100D100040EB0000013A28BFB0F5000FEDD2B0FA69
:100D200080FCACF1080CB2EB0C0200FA0CF0AABF8C
:100D300000EBC25052421843BCBFD040184370472A
:100D400092F0000F81F4000106BF80F40000013230
:100D5000013BB5E74FEA41037FEA226C18BF7FEA07
:100D6000236C21D092EA030F04D092F0000F08BF49
:100D70000846704790EA010F1CBF0020704712F030
:100D80007F4F04D1400028BF40F00040704712F16F
:100D900000723CBF00F50000704700F0004343F0D4
:100DA000FE4040F4000070477FEA226216BF08460A
:100DB0007FEA23630146420206BF5FEA412390EACD
:100DC000010F40F4800070474FF0000304E000BFC3
:100DD00010F0004348BF40425FEA000C08BF704774
:100DE00043F0964301464FF000001CE050EA010238
:100DF00008BF70474FF000030AE000BF50EA01024D
:100E000008BF704711F0004302D5404261EB410139
:100E10005FEA010C02BF84460146002043F0B6435E
:100E200008BFA3F18053A3F50003BCFA8CF2083A83
:100E3000A3EBC25310DB01FA02FC634400FA02FC8C
:100E4000C2F12002BCF1004F20FA02F243EB020093
:100E500008BF20F00100704702F1200201FA02FCF5
:100E6000C2F1200250EA4C0021FA02F243EB0200E8
:100E700008BF20EADC7070474FF0FF3C06E000BF7F
:100E80004FF0010C02E000BF4FF0010C4DF804CD13
:100E90004FEA40024FEA41037FEA226C18BF7FEA23
:100EA000236C11D001B052EA530C18BF90EA010F25
:100EB00058BFB2EB030088BFC81738BF6FEAE170B4
:100EC00018BF40F0010070477FEA226C02D15FEA50
:100ED000402C05D17FEA236CE4D15FEA412CE1D0BC
:100EE0005DF8040B704700BF844608466146FFE783
:100EF0000FB5FFF7C9FF002848BF10F1000F0FBD65
:100F00004DF808EDFFF7F4FF0CBF012000205DF85D
:100F100008FB00BF4DF808EDFFF7EAFF34BF0120E2
:100F200000205DF808FB00BF4DF808EDFFF7E0FF7B
:100F300094BF012000205DF808FB00BF4DF808EDCC
:100F4000FFF7D2FF94BF012000205DF808FB00BF2F
:100F50004DF808EDFFF7C8FF34BF012000205DF811
:100F600008FB00BF4FEA40024FEA41037FEA226CD0
:100F700002D15FEA402C08D17FEA236C02D15FEAFC
:100F8000412C02D14FF0000070474FF00100704734
:100F90007BB972B90029BEBF00204FF0004106E0C6
:100FA00008BF00281CBF6FF000414FF0FF30FFF773
:100FB0004FB9ADF1080C6DE904CE002909DB002B17
:100FC0001ADB00F07FF8DDF804E0DDE9022304B06D
:100FD0007047404261EB4101002B1BDB00F072F8CF
:100FE000DDF804E0DDE9022304B0404261EB410199
:100FF000524263EB43037047524263EB430300F0FA
:1010000061F8DDF804E0DDE9022304B0404261EB61
:1010100041017047524263EB430300F053F8DDF89F
:1010200004E0DDE9022304B0524263EB430370475E
:1010300053B94AB9002908BF00281CBF4FF0FF313F
:101040004FF0FF30FFF704B9ADF1080C6DE904CEA5
:1010500000F038F8DDF804E0DDE9022304B0704761
:1010600010F8012B11F8013B012A28BF9A42F7D052
:10107000D01A7047034611F8012B03F8012B002A00
:10108000F9D17047034613F8012B002AFBD1181A37
:1010900001387047024608B50B4643EC172BB5EEF6
:1010A000C07BF1EE10FA03D4BDE80840FFF788B822
:1010B000B1EE477B51EC170BFFF782F8404261EB32
:1010C000410108BD2DE9F04786468C460846089E3A
:1010D000154674461946002B40F0C1808542B2FA8D
:1010E00082F245D94AB1C2F1200300FA02FC9540D0
:1010F00094402EFA03F343EA0C0C4FEA154EA8B2C3
:10110000230CBCFBFEF80EFB18CC08FB00F943EAED
:101110000C43994528D9EB1808F1FF3704D29945BB
:1011200002D9A8F102072B44A3EB0903A4B2B3FB35
:10113000FEFC0EFB1C330CFB00F044EA0344A0420F
:1011400014D92C190CF1FF3304D2A04202D9ACF10E
:1011500002032C44241A43EA07401EB1D440002362
:1011600034607360BDE8F0874746DDE76346F1E72A
:1011700092BB431B01214FEA154EAFB2200CB3FBCB
:10118000FEFC0EFB1C330CFB07F840EA03439845BA
:1011900061D9EB180CF1FF3004D2984502D9ACF1BB
:1011A00002002B44A3EB0803A4B2B3FBFEFC0EFB2E
:1011B0001C330CFB07F744EA0344A7424DD92C1912
:1011C0000CF1FF3304D2A74202D9ACF102032C4444
:1011D000E41B43EA0040C0E7C2F12003954094407D
:1011E00020FA03F12EFA03F34FEA154E9040AFB206
:1011F0000343B1FBFEFC0EFB1C10190C0CFB07F8A3
:1012000041EA0041884522D969180CF1FF3004D227
:10121000884502D9ACF102002944A1EB08019BB238
:10122000B1FBFEFC0EFB1C110CFB07F743EA01436C
:101230009F420ED9EB180CF1FF3104D29F4202D924
:10124000ACF102012B44DB1B41EA004193E760460D
:10125000E3E76146F7E76046A4E76346B8E7834201
:1012600006D916B9002108467CE7C6E900E0F9E78F
:10127000B3FA83F78FB9834201D3724508D8BEEB26
:10128000020460EB030301209C461EB9002169E7BC
:101290003846FAE7C6E9004CF8E7C7F1200CBB4036
:1012A0000EFA07F522FA0CF42EFA0CF1BA401C43A0
:1012B00020FA0CF3B8404FEA144901431FFA84FEA8
:1012C000B3FBF9F809FB18300B0C08FB0EFA43EAE4
:1012D00000439A4540D9E31808F1FF3004D29A45FB
:1012E00002D9A8F102002344A3EB0A0389B2B3FB9D
:1012F000F9F809FB183308FB0EFE41EA03418E455D
:101300002CD9611808F1FF3304D28E4502D9A8F117
:101310000203214443EA0040A1EB0E01A0FB029826
:101320004145CE46434602D306D14D4504D201384D
:10133000B9EB020E68EB0403002EA7D0B5EB0E024A
:1013400061EB030101FA0CFC22FA07F3F9404CEAC5
:101350000303C6E9003199E74046C5E74346D9E7AC
:101360002DE9F04704468846174688B011F013F976
:101370000A220023FFF75CFEB8F1010F06460D4676
:1013800007D102460B46204627490EF097FB002066
:1013900011E07F6825483946FFF762FE70B1394693
:1013A0002348FFF75DFE48B120463A4621490EF03A
:1013B000A1FB6FF0040008B0BDE8F087304618A329
:1013C000D3E900232946FFF7E3FD06460D46104604
:1013D0001946194A0023FFF7DBFD80460F461046E9
:1013E00019464EF660220023FFF7D2FD8246894659
:1013F000104619464FF47A720023FFF7C9FDCDE974
:1014000002A9CDE90623CDE9040132462B46204648
:10141000CDE9008709490EF051FBB8E7AFF3008032
:10142000005C260500000000495801025A580102DC
:101430005D5801026658010280EE36007E580102B6
:10144000A0F101000028FBD1704700BF00000000A0
:101450002DE9F84398468468089D1746D0F82090F7
:1014600090ED044B0E4690ED066B09F043F8E31C3B
:10147000B8F1000F04F1020408BF1C4620FA08F07E
:1014800006EB4403B3FBF0F307EE903AB8EE675B6C
:1014900035EE043BB7EE002B33EE063B3C4482EEC8
:1014A000037BB4FBF0F4BCEEC77B07EE904A36EE4C
:1014B000046B85ED007AB8EE677B36EE055B37EEA0
:1014C000047B87EE056B9FED0C7B26EE077BFCEE25
:1014D000C77B17EE900AA0EB09024845A9EB000371
:1014E00088BF1346B3FBF9F3C5E90108F61B2F616A
:1014F000EE606B61BDE8F883000000000000594019
:101500002DE9F84F8146884600232DED028B19F80E
:1015100003605A1C202E00F06881A6F109010429FD
:1015200040F263812B2E154632D02D2E35D0042467
:1015300046F02003692B4BD06E2B55D000224FF084
:101540000A0A944613461046114614F4006E51D010
:1015500046F02007A7F1610BBBF1050F4AD8573FB2
:10156000FFB2BA454BDC46F0200604F08007782E27
:1015700040F0CD80002F00F0CA8050EA010A40F010
:10158000C68044F4006E4FF0100A1FFA8EFE45E04C
:10159000042419F802609D1CCAE74424F9E719F8ED
:1015A0000520681C42F020028A4221D0984A9342CA
:1015B00015D000259FED908BB8F1000F02D04D445F
:1015C000C8F80050B0EE480BBDEC028BBDE8F88FB8
:1015D0009FED8B8B8F4B13F8011B0029DFD1630626
:1015E000EAD5B1EE488BE7E79FED878B8A4BF2E7B0
:1015F0000546F0E7A6F13007FFB257452DDA44F073
:10160000800E14F4807F04F400761FFA8EFE0AD058
:10161000002F18BF43F0010306B9013219F8056025
:101620007446013591E706B1013AAAFB00060AFBB0
:101630000161381841F1000150EA0106EED0BAF11B
:101640000A0F0CF1010C0CBF10260F26B445E5DD86
:1016500044F4C07E1FFA8EFEE0E7FE2F83D1A7057B
:1016600052D514F08006A4D050EA010605F1FF35EA
:1016700000F0B880260540F1A2803632B1F5800F27
:10168000C0F08280654FB1F5000F80F08280BA42D1
:101690007FDB0343084603F00306032E03D003F069
:1016A0000606062E7ED1043341F10000B0F5000F8E
:1016B00078D30132B2F5806F80F2918000234FF42D
:1016C000801102F2FF3221F480111E4641EA0257D6
:1016D00047EC186BB0EE480B0DF0D0F9013802283A
:1016E00004D84F4B222211F089FC1A50B0EE480B5F
:1016F0000DF0C4F9013802283FF671AF484B2222A1
:1017000011F07CFC1A506AE744F4007EA2E71FFA4D
:1017100087FA002F6BD0BEF1000F0CBF6527702732
:10172000BE42A1D119F805606F1C2B2E04D02D2EBE
:1017300024D144F48064A4B219F80760A6F13007FC
:10174000092F91D8AF1C3D4640F2D34A00274FF0F5
:101750000A0B5745DCBF303E0BFB076719F80560E5
:101760000135A6F1300EBEF1090FF2D9660548BF6A
:101770007F42260548BF92003A4475E7A6F1300E35
:10178000BEF1090FDFD96FE7001802F1FF324941BE
:1017900074E7460800F00100013246EAC1764908C4
:1017A000304370E7B2F5806F19DA9B08B0F5800F0F
:1017B0004FEA900143EA807383D2002285E70CEB65
:1017C000020313F5A27F07DDB3F59B7F07DA00F074
:1017D0002BF8B0EE408B89E79FED078B86E79FEDF6
:1017E000088B83E79FED048BF9E613468FE69FEDA8
:1017F000028B5546E0E600BF00000000000000003C
:10180000000000000000F07F000000000000F87FF2
:10181000119201020E9201020B92010202FCFFFFE3
:1018200014000000000000002DE9FF478046164626
:101830000F46002900F0A280B1FA81F4341B002E7B
:1018400004F10A04C0F2A28030460CF0FBFF04440D
:1018500030460CF0FDFFA4EB06090546694630460C
:101860000DF01EF8A9EB05036A4640467D33394664
:1018700011F091F9A64282460D4600F38380B9F13A
:101880003F0F00F381804FF0FF33A9F12000C9F131
:10189000200103FA00F003FA09F223FA01F103FA36
:1018A00009F3024328EA03030A4327EA0202134327
:1018B0000CBF01200020002D00F08A80B5FA85F3CE
:1018C000E31A40F2FE7203F23E43934200F3898032
:1018D000002B23EAE376D4BF01223246121BA2F288
:1018E0003341A2F23447A2F25344C1F1200C2AFA48
:1018F00001F325FA04F4C7F1200E05FA0CFC25FAD1
:1019000001F105FA0EFE43EA0C03A2F2544CA2F2D6
:10191000544223432AFA07F425FA0CFC44EA0E0445
:1019200044EA0C04C7F1200C14F0010F54D0A8B104
:101930004FF0FF3000FA02F200FA07F4144320FAE5
:101940000CF2B840144303F001022AEA000A25EA27
:1019500004054AEA020A5AEA050A3DD0013341F178
:101960000002C2F3130253EA020138D0184642EAD9
:10197000065141EC100B04B0BDE8F087B0FA80F4DA
:1019800020345BE7012096E7002094E7C6F10009C8
:1019900048460CF05DFF241A48460CF059FFA61B80
:1019A0000546694648462E440CF0ECFF6A46404620
:1019B00006F17C03394611F0EEF882460D464046AA
:1019C00039460CF055FF81458CBF0020012072E79D
:1019D000BAFA8AF3203373E7C1F31302C6E701367C
:1019E000C4E79FED010BC6E7000000000000F07F98
:1019F00010EE902A764922F000438B4217D97549A0
:101A00008B4203D805D110EE103A13B130EE000B23
:101A10007047002A9FED500B04DD9FED517B37EEA0
:101A2000000B70479FED507B37EE400B70476A49C3
:101A30008B4212D8A1F1DE718B420BD8B7EE006B4E
:101A40009FED4B7B30EE077BB4EEC67BF1EE10FAD8
:101A500000F381804FF0FF3315E06049B0EEC07BAA
:101A60008B424FD8A1F55021B7EE006B8B4241D885
:101A700037EE075B002335EE465BB0EE006B37EECA
:101A8000067B85EE070B591C20EE005B9FED3A7B31
:101A90009FED3B4B25EE056B9FED3B3B06EE074B69
:101AA0009FED3B7B04EE067B9FED3B4B07EE064B29
:101AB0009FED3B7B04EE067B9FED3B4B07EE064B19
:101AC0009FED3B7B16EE073B9FED3B7B13EE067BCA
:101AD0009FED3B3B17EE063B9FED3B7B13EE067BFA
:101AE00027EE067B04EE057B27EE007B1FD130EE50
:101AF000470B704737EE465B012337EE066B85EEEA
:101B0000060BC0E736498B420BD2B7EE085B0223C7
:101B1000B7EE006B37EE454B07EE056B84EE060B18
:101B2000B1E7BFEE006B032386EE070BABE72D4951
:101B3000002A2D4801EBC30100EBC30393ED006BBA
:101B400037EE467B37EE407B91ED000B30EE470BD6
:101B5000B8BFB1EE400B7047075C143326A6913C2A
:101B6000182D4454FB21F93F182D4454FB21F9BF93
:101B70009C7500883CE4377E11DA22E33AAD903F51
:101B8000EB0D76244B7BA93F9AFDDE522DDEAD3F57
:101B9000513DD0A0660DB13F6E204CC5CD45B73F3D
:101BA000FF8300922449C23F0D5555555555D53FE9
:101BB0002F6C6A2C44B4A2BF6D9A74AFF2B0B33FDD
:101BC000711623FEC671BC3FC4EB98999999C93F21
:101BD000FFFF0F440000F07FFFFFDB3FFFFFF23FFE
:101BE00000800340884601026846010200000000B0
:101BF0007FB58DED000B019B214A23F000439342FA
:101C000006D89FED1D1B07B05DF804EB00F014BA79
:101C10001C4A934204D907B05DF804EB00F0F4B914
:101C200002A800F031F800F0030001280BD00228D0
:101C300012D0C0B99DED041B9DED020B00F0FCF924
:101C400007B05DF804FB9DED041B9DED020B00F059
:101C5000DFFCB1EE400BF3E79DED041B9DED020BA5
:101C600000F0EAF9F5E79DED041B9DED020B012064
:101C700000F0CEFCE4E700BF000000000000000020
:101C8000FB21E93FFFFFEF7FF0B510EE907A964B16
:101C900089B0064627F00041994207D80022002368
:101CA00080ED000BC0E9022300201BE08F4B99421E
:101CB0003BD8A3F51B23002F9FED7B7BA3F5F0639F
:101CC00019DD994230EE470B0ED09FED796B30EE67
:101CD000467B012030EE470B86ED007B30EE460B55
:101CE00086ED020B09B0F0BD9FED737B9FED746B29
:101CF00030EE470BEBE7994230EE070B0ED09FED2D
:101D00006C6B30EE067B4FF0FF3030EE470B86ED0C
:101D1000007B30EE060B86ED020BE3E79FED667B62
:101D20009FED676B30EE070BEBE7714B99426BD879
:101D3000B6EE007BB0EEC00B9FED636B00EE067B52
:101D4000FDEEC77BB8EEE75B17EE900A9FED567B82
:101D50001F2805EE470B9FED567B25EE077B30EEE7
:101D6000476B05DC421E634B53F822308B4208D18F
:101D700016EE903A0A15C3F30A53C3EB1153102B16
:101D800002DC86ED006B1AE09FED4B4B25EE044B19
:101D900030EE446B30EE467B37EE447B9FED484B94
:101DA00015EE047B36EE474B14EE903AC3F30A531C
:101DB000D31A312B17DCB0EE460B86ED004B96EDB7
:101DC000006B002F30EE460B30EE470B86ED020B1A
:101DD00088DAB1EE466BB1EE400B86ED006B86ED16
:101DE000020B40427EE79FED3A7B25EE077B36EE05
:101DF000470B36EE406B36EE477B9FED376B15EEAB
:101E0000067B30EE476BBCE73B4B994206D930EE80
:101E1000400B80ED020B80ED000B45E70A1510EE3C
:101E2000103A08A8A2F216421C46A1EB0255032163
:101E300045EC174BBDEEC76B9FED295BB8EEC66B4B
:101E400037EE467B8DED026B27EE057BBDEEC76B53
:101E5000B8EEC66B37EE467B8DED046B27EE057B47
:101E60008DED067B30ED027B0B460139B5EE407BF4
:101E7000F1EE10FAF6D0214902A801910221009159
:101E8000314600F041F9002FBFF62CAF96ED007BF4
:101E9000B1EE477B86ED007B96ED027BB1EE477B92
:101EA00086ED027B9DE700BF00004054FB21F93F17
:101EB0003163621A61B4D03D0000601A61B4D03D54
:101EC0007370032E8A19A33B83C8C96D305FE43F4A
:101ED0000000002E8A19A33BC14920259A837B3933
:101EE0000000000000007041FB21E93F7BD9024067
:101EF000FB21394124500102FFFFEF7FA450010272
:101F00007FB58DED000B019B234A23F000439342E4
:101F100007D800209FED1E1B07B05DF804EB00F012
:101F200077BB1E4A934204D907B05DF804EB00F07A
:101F30006BB802A8FFF7A8FE00F0030001280CD040
:101F4000022811D0D0B901209DED041B9DED020B9C
:101F500000F05EFB07B05DF804FB9DED041B9DEDFA
:101F6000020B00F069F8F5E79DED041B9DED020BF7
:101F7000012000F04DFBB1EE400BEBE79DED041BA3
:101F80009DED020B00F058F8F5E700BFAFF30080BD
:101F90000000000000000000FB21E93FFFFFEF7F91
:101FA0007FB58DED000B019B154A23F00043934252
:101FB00007D801209FED101B07B05DF804EB00F07F
:101FC0007FBB104A934204D907B05DF804EB00F0E0
:101FD0001BB802A8FFF758FE400000F002009DED7C
:101FE000041BC0F101009DED020B00F069FB07B07E
:101FF0005DF804FBAFF3008000000000000000006B
:10200000FB21E93FFFFFEF7F08B52DED028BB0EE1E
:10201000408B0CF033FD20B938EE080BBDEC028B81
:1020200008BD9FED037B87EE070BF7E7AFF300805A
:102030000000000000000000B0EE407BB7EE000B97
:1020400017EE901A21F00041B1F1795F39D327EEF4
:10205000075B2B4B994227EE017BB6EE006B9FEDA1
:102060001C3B9FED1D4B25EE066B05EE034B9FEDD4
:102070001C3B14EE053B9FED1C4B03EE054B9FED07
:102080001C3B14EE053B9FED1C4B03EE054B24EE71
:10209000054B14EE057B04D836EE477B30EE470B3C
:1020A0007047184B99420DD80022A1F5001343EC5C
:1020B000152B36EE456B30EE450B36EE476B30EEAA
:1020C000460B7047B5EE025BF3E700BFAFF300804D
:1020D000D43888BEE9FAA8BDC4B1B4BD9EEE213E95
:1020E000AD529C804F7E923E9015CB19A001FA3ED6
:1020F0007751C1166CC1563F4C5555555555A53FA6
:102100003233D33F0000E93F2DE9F04F2DED068B30
:10211000ADF5137D12F1140F9A460F46BE4B6FF0CA
:102120001705A2990AF1FF3BA39E0DF1680E53F823
:102130002190A6BFD31E18210023019009EB0B04A8
:10214000A8BF93FBF1F303FB0555A3EB0B009FED39
:10215000AC6B154406EB800C0022A2420EDD1AAADD
:102160000DF5D47E002402EBCA024C4525DCDDF8D7
:1021700004C0104600219FEDA27B15E0D04209D497
:102180005CF8221007EE901AB8EEE77B0132AEEC55
:10219000027BE2E7B0EE467BF8E7BCEC025B90ED39
:1021A000006B013105EE067B5945A0F10800F4DD16
:1021B00001340832AEEC027BD7E706AA06EB8303B4
:1021C0004C4602EB890202939FED8F9B9FED90ABF3
:1021D0000392E3006AAA2146049392AB02EBC40285
:1021E00003EBC40313ED280B06AB18460029A2F13C
:1021F000080249DC2846059300F07AFBB4EE007B28
:10220000B0EE408B20EE077BBBFE477B002D059B8D
:10221000B2EE006B07EE468BFDEEC87B17EE908AA0
:10222000B8EEE77B38EE478B40DD611E06AAC5F1AC
:10223000180052F8216046FA00F290448240B61A23
:1022400006AA42F82160C5F117021641002E3CDDB6
:10225000002108F101086FF07F4E08468C4267DCD0
:10226000002D04DD012D7ED0022D00F08680022E8F
:102270002BD1B7EE000B30EE488B30B3284600F080
:1022800037FB38EE408B20E020EE097B0139BDEEB4
:10229000C77BB8EEC77B07EE4A0BBDEEC00BA0ECC8
:1022A000010A92ED000B37EE000B9FE705D1621E8D
:1022B00006A951F82260F615C8E7B6EE007BB4EE29
:1022C000C78BF1EE10FA31DA0026B5EE408BF1EE55
:1022D00010FA40F0A580621E00214A4554DA002918
:1022E0006DD0013C06AB183D53F82430002BF8D0DC
:1022F000B7EE000B284600F0FBFA621C6AA9D30077
:1023000001EBC20122469FED406B002A80F2B280B1
:102310002246002AC0F2D0806AA9DFF800C100205E
:1023200001EBC205A11A9FED367BBAE002268FE7CA
:102330009C465CF8042B58B97AB10131C2F1807225
:102340008C424CF8042C0CDDDCF8002003F1080C66
:10235000AEEB02024CF8042C012201316346104618
:102360007CE701207CE7621E06AB53F82230C3F302
:10237000160306A941F8223079E7621E06AB53F82E
:102380002230C3F31503F4E706AB53F82230013AC9
:102390001943A2E7013352F8041D0029FAD0049A28
:1023A00004EB0A011AAE601C02F51272234406EB1C
:1023B000C1016A44983A834204DA1C4609E7039A49
:1023C0000123E8E7029C019E54F8204007EE904A62
:1023D00004940024B8EEE77BA1EC027B9FED087B20
:1023E0008C465C4503DD0130A2EC027BE3E7B6ECF2
:1023F000025B3CED026B013405EE067BF1E700BFAA
:102400000000000000000000000000000000703E1E
:102410000000000000007041AC510102A84601021A
:10242000B0EE480B684200F063FA9FED736BB4EEB8
:10243000C60BF1EE10FA17DB06AA18359FED707B7C
:1024400020EE077BBDEEC77BB8EEC75B05EE460B03
:10245000BDEEC00B10EE103A42F82430013417EEF6
:10246000103A42F8243043E7BDEEC00B06AA10EE46
:10247000103AF6E706A850F82200013A07EE900A53
:102480000190B8EEE77B27EE007B20EE060B21EDF6
:10249000027B3AE7BCEC025BB5EC026B013005EE67
:1024A000067B484501DC8142F4DA42A8013A00EBA0
:1024B000C10181ED007B2CE7A29A022A0ADC002AE6
:1024C0002DDC46D008F007000DF5137DBDEC068B22
:1024D000BDE8F08FA29A032AF4D142A9A3F1080221
:1024E00020460A4411460028A1F1080152DC214689
:1024F0000129A2F108025DDC42AA9FED437B13444F
:10250000012C67DC9DED425B9DED446B002E67D195
:1025100087ED005B87ED026B87ED047BD2E742AA73
:102520009FED396B13442246002A24DA4EB3B1EEF4
:10253000467B44AA012387ED007B9DED427B37EE6D
:10254000467B9C4220DA0EB1B1EE477B87ED027BE1
:10255000B8E742AA9FED2C7B1344002C05DA0EB19C
:10256000B1EE477B87ED007BACE733ED026B013CBE
:1025700037EE067BF1E733ED027B013A36EE076B6F
:10258000D2E7B0EE467BD4E7B2EC026B013337EE14
:10259000067BD6E791ED007B91ED025B013837EECB
:1025A000056B37EE467B81ED006B37EE057B81EDE9
:1025B000027B98E792ED007B92ED025B013937EEEA
:1025C000056B37EE467B82ED006B37EE057B82EDC7
:1025D000027B8DE733ED026B013C37EE067B8FE724
:1025E000B1EE455BB1EE466BB1EE477B87ED005B2C
:1025F00087ED026B90E700BF000000000000704113
:10260000000000000000703E00000000000000001C
:10261000B0EE407B17EE903A23F00043B3F1795FC0
:1026200001D200F0F5B920EE005B9FED176B9FED36
:10263000183B20EE054B15EE063B9FED176B03EEA6
:10264000056B9FED173B16EE053B9FED176B03EEF9
:10265000056B40B99FED163B15EE063B03EE047B80
:10266000B0EE470B704724EE066BB6EE003B11EE62
:10267000036B16EE051B9FED106B04EE461B30EE50
:10268000410B7047AFF300807CD5CF5A3AD9E53D76
:10269000EB9C2B8AE6E55A3E7DFEB157E31DC73E13
:1026A000D561C119A0012A3FA6F810111111813F6F
:1026B000495555555555C53F495555555555C5BFAE
:1026C00010EE903A884923F000428A4210B533D880
:1026D000FDEEC07B17EE901A002942D1431C10EE8C
:1026E000104A2343134306D1B7EE006BB0EEC07B14
:1026F00086EE070B10BD0128FCD030EE017BBFEE4B
:10270000006B53EC172B86EE074B0A46B7EE006BB7
:1027100043EC152B35EE400B31EE400B53EC142BF4
:102720000A4643EC172B05EE076B00EE076B06EE2F
:10273000047BB0EE470BDDE76C498A4211D9002BD0
:102740009FED497BBCBFB1EE400BB1EE411B37EEB4
:10275000407B9FED470B30EE410B9FED471B30EE6A
:10276000070B20EE006B61498A429FED455B9FEDB0
:10277000464B26EE067B20EE063B07EE054B9FED13
:10278000445B9FED452B04EE075B9FED454B05EE4B
:10279000074B9FED455B04EE075B9FED454B05EE58
:1027A000074B9FED455B07EE025B9FED452B05EE6A
:1027B000072B9FED455B02EE075B9FED452B05EE7A
:1027C000072B9FED455B02EE075BB0EE457BB0EE5D
:1027D000415B04EE067B07EE035B9FED417B05EE5C
:1027E000061B03EE071B30EE016B1DD907EE900AA6
:1027F00026EE064B9B17B8EEE77B03F00203C3F10E
:10280000010336EE076B84EE065B35EE416B30EE6E
:10281000466B36EE066B37EE466B07EE903AB8EE37
:10282000E70B26EE000B65E701281AD0BFEE007B10
:1028300051EC160B87EE065B0020B7EE006B41EC07
:10284000140B34EE400B31EE401B53EC152B0246BB
:1028500043EC172B04EE076B01EE076B06EE057BCE
:1028600067E7B0EE460B45E7182D4454FB21E93FDE
:10287000075C143326A6813C000000000000000025
:10288000D47ABF74702AFB3EE9A7F0320FB8123F2A
:1028900068108D1AF726303F735360DBCB75F3BE9B
:1028A0001583E0FEC8DB573F93846EE9E326823F41
:1028B000FE41B31BBAA1AB3FA69237A0887E143F5E
:1028C0000165F2F2D844433F280356C9226D6D3F9B
:1028D00037D60684F464963F7AFE10111111C13F79
:1028E000635555555555D53FFFFF2F3E2794E53F7E
:1028F00010EE902AC2F30A53114610B4C3B922F065
:10290000004210EE103A1A4318D02B4C9FED267B54
:10291000A04220EE070B10EE902AC2F30A53114694
:10292000A3F136030DDAD00F5DF8044B00F048B880
:1029300040F2FF72934204D130EE000B5DF8044B7D
:1029400070474CF25032904204DDC80F5DF8044BE2
:1029500000F04AB8184440F2FE739842F5DC0028B3
:102960000ADD21F0FF4121F4E00153EC102B41EA94
:10297000005343EC102BE1E710F1350F01DAC80FDB
:10298000D2E721F0FF41363021F4E00153EC102B67
:102990009FED077B41EA005343EC102B20EE070B21
:1029A000CCE700BFAFF30080000000000000504300
:1029B000000000000000903CB03CFFFF0000000061
:1029C0009FED050B9FED067B002800FE077B27EEA1
:1029D000000B7047AFF30080000000000000100003
:1029E00000000000000010809FED050B9FED067BAE
:1029F000002800FE077B27EE000B7047AFF3008036
:102A0000FFFFFFFFFFFFEF7FFFFFFFFFFFFFEFFF76
:102A10009FED076BB7EE007B82B037EE067B8DED46
:102A2000007BDDE9002302B0704700BFAFF30080F8
:102A3000000000000000100070B5ADF50E7D002014
:102A400001A901F0D5F8044620B1014637480CF041
:102A5000F3FB24E006AE01461023324601980CF049
:102A60007BFE044610B101463148F0E73378013B64
:102A7000DBB2FD2B05D92F480CF0DEFB6FF0010413
:102A80000DE00A22304602A90AF07AFE029B0546B2
:102A9000B34208D128480CF0CFFB6FF01504204654
:102AA0000DF50E7D70BD01464FF480500AF016FD05
:102AB000064618B9294621480CF0BEFB2B46324683
:102AC000102101980CF048FE044610B101461C4844
:102AD000BDE701464FF404720AA810F0AAF9194B99
:102AE000CDE904440B93184B18490C93184B03AAD7
:102AF0000D9301230AA88DF8103004ABCDE98B6546
:102B000006F0B8F8044610B1014612489FE7039852
:102B10001149843006F080F8014608B90F48ABE748
:102B20002246039806F062F9B9E700BF1555010285
:102B300037550102555501026655010283550102C0
:102B4000A0550102D711010201120102085601022B
:102B500015120102C3550102E1550102E6550102B9
:102B60007FB50BAB05930393054B02220293002321
:102B70001846CDE9003300F0B7FD07B05DF804FB5F
:102B8000135601022DE9F04F91B0009302F00403B7
:102B90000293C2F3C2030E46013381070546DDF8F6
:102BA00068800392059340F0BC81041D30B1072E6C
:102BB00009D86FF01B0011B0BDE8F08F06F00706D2
:102BC0003444C6F10806009B4FF000094FF0040A98
:102BD000591E4FF0FF334F460193CB465346CDF875
:102BE00010900DB1009820600598002800F3EB804C
:102BF0009948009A824203D398488242C0F0E38009
:102C0000039AA4EB050E92074FEA9E0000F106819D
:102C10000F2F00F2B480002D00F0088107F1400270
:102C20000DEB020C019A0CF8200C0CF8102C0498F7
:102C300001300490EAE07A2860D84B2810D8472861
:102C40005CD829282FD8252855D057D8A0F12302A1
:102C5000D2F1000C4CEB020C202818BFE34675E0C3
:102C60004C382E284AD8DFE800F0714949494949D3
:102C70004949494949494C49494949494949495AB0
:102C8000494C4C5A5A5A714C6E497149184C184962
:102C90004983804C49494C49800000204FF0000B8B
:102CA0004FF0040A39E00122A0F12A0C5FFA8CFCF3
:102CB00002FA0CFC1CEA0E0F48D11CF062502ED117
:102CC0001CEA020B42D0013C5444B4FBFAF40AFB68
:102CD00004F4002D61D0A3EB050CA444B4453FF6E9
:102CE00068AF002868D1042B47D158F8043B236013
:102CF000042304342AE0019A013A01924FF0000BB8
:102D000024E011F8010C6C2834D1002011F8023CA9
:102D100083466C2BC4D14FF0080A5346D3E708F121
:102D2000070828F00708073424F00704F8E802AB86
:102D300035B106982044B0423FF63BAFC4E900AB42
:102D40004FF0000B08344FF0080A534611F8010FFA
:102D5000002878D0BBF1000F7FF46DAF2528F5D1A6
:102D60004FF0010B019B013301934FF0040AECE794
:102D7000584693E700208346A5E7082B02D06FF062
:102D8000150018E708F1070828F00708B8EC027BDF
:102D900084ED007B08230834D8E768B9042B02D1FE
:102DA00008F10408A4E7082BE9D108F1070828F086
:102DB000070808F10808EDE705980138059058F86C
:102DC000040B00900DE7039A900720D54FF0010CFB
:102DD000A4EB050E4FEA9E00BEF5007FCFD20F2F69
:102DE000CDD8F5B107F140020DEB020E019AC0B249
:102DF0000EF8200C0EF8102CBCF1000F3FF417AFAA
:102E000060F07F000EF8200C09F101090137C5F1CF
:102E100008024FF6DA7E0434069297E74FF0000C72
:102E2000DAE7BCF1000F01D00136EFE7029A023673
:102E3000002AEBD10098CDE90631FEF723F9DDE950
:102E400006310644E2E7631BB3F5806F97D23DB9C4
:102E5000A6F10804E018AEE648300102249201020F
:102E6000029A9B0828602B709DF81030C2B1EB705D
:102E700085F80290B9F1000F05D008A8C5F1010C42
:102E80007A1C013A0ED14FF0000AC5F101030DF191
:102E9000200801930DF1300B574511D1601B8AE6D4
:102EA0006B70E5E710F8013B1906EAD50CEB040E50
:102EB000B64503F07F033FF67CAE04F8013BE0E744
:102EC000B9F1000F03D098F90020002A17DB029B0C
:102ED000D3B11AF80B2004F8012B0022019B18191A
:102EE0001044B0423FF665AE98F80000009904F82F
:102EF000010B204603920FF075FF039A14440AF168
:102F0000010A08F10108C7E798F8002055F82230B7
:102F10000093029B009845F82230FEF7B3F8421C5C
:102F2000DCE76FF00D0046E62DE9F04F9BB009930A
:102F3000249B0446C3F3C0031746894690F802B0A9
:102F40000B9341B9457800780BEB800020444D4548
:102F500016D8A0EB0409E3780A93BBF1000F02D066
:102F6000249BDD0715D40A9B002B37D11FB149469E
:102F70002046099AB8474E4630461BB0BDE8F08F50
:102F8000461C3046FEF77EF80130304409F1010955
:102F9000DDE72278636807920893079B92000C9202
:102FA00004EB8305002F40F0E880A84600274E463A
:102FB00005EB0B09C84520D018F8013B54F8230055
:102FC000FEF760F8259B013033B1269B9F423EBF40
:102FD000259B23F8170001370644EBE7249B98074D
:102FE000C4D523781D4607939B000C93636804EBBC
:102FF00085050893002F58D14E46249B5D4413F05D
:10300000050F0CBF4FF0020A4FF0010A0A9BDFF8D0
:1030100078B205EB4309249B03F0020307934D4567
:10302000AAD015F8021B15F8013C54F82380D845A6
:1030300002D3924B984519D30B9B23B308980CF0FD
:10304000D0F800B38E48036813F0060F0CD0089B2D
:10305000049103938B4B01460293002302221846EE
:10306000CDE90033FFF77CFD023ED8E70B9B23B18F
:1030700008980CF0B6F80028E4D1249BD90705D4B1
:10308000A6EB0A06CBE7079B002BC8D04046FDF70E
:10309000F9FF259B3BB1269B9F423FBF259A431CCE
:1030A00022F8173001370644B9E7BBF1000F69D0A9
:1030B000249B13F0040868D0D8464FF0000A16A8E5
:1030C0005A4629460FF08EFE0A9B5D445B000E9324
:1030D0000A9B05EB43030D93249B03F002030F931C
:1030E0000D9BAB4253D10021249E637816F0020F52
:1030F00003EB0A004FEA580218BF0A4616F0010F08
:10310000C0B205D116F0040F314614BF414600216C
:103110006070A170E2702046099A0C990893B84734
:10312000061EFFF629AF079B41462370089B099AAC
:1031300063700A9B84F802B0E37016A8B847B0F138
:103140000008C0F297800C9BA9EB0B01C91A0E9BDB
:103150002846099AC91AB8470028C0F28D80B044A1
:1031600008EB00064FF000080DF1480BC2455AD895
:103170000021099A0846B847FEE6DA464FF00008F3
:1031800012A89DE7D846DA469EE7C2469CE715F8A6
:10319000021B3D4B15F8016C54F826209A4202D3CD
:1031A000364B9A421AD30B9B23B108980CF019F8AE
:1031B000002895D10F9BE3B908F1680308F10102DB
:1031C0000DEB03001AAB08F1020853FA82F200F883
:1031D000101C5FFA88F802F8106C81E70B9B2BB18A
:1031E00008980BF0FEFF00287FF47AAF249BDA07E3
:1031F0000AD50AF168030AF101020DEB030A0AF885
:10320000206C5FFA82FA6BE7249B5B077FF568AF5F
:1032100008F1680308F101020DEB030808F8106CCF
:103220005FFA82F85CE718F80B30259D54F823907C
:103230008DF8473035B1269B984536BF2B46002583
:1032400033F818500121099A0DF14700B8470028BA
:1032500012DB064425B94846FDF714FF451CADB204
:1032600029464846099AB847002805DB064408F174
:1032700001087BE746467FE606467DE6249201028A
:10328000AC0A00221356010248300102014B1860BB
:10329000704700BF5005002270B50446044E451823
:1032A000AC4200D170BD336814F8010B9847F7E7C2
:1032B0005005002280B505460E461746984609F08F
:1032C00023FC03460FF09AFE0446DFF818904246AE
:1032D00049F8003039463046A84754F8090005F04F
:1032E000D1F800BF10000000034B044A1A6000220E
:1032F000034B1A60704700BF8435002200127A0029
:10330000803500222DE9F84F8146334888460CF07D
:10331000DFF8064670B9314C054627464FF0010AE2
:10332000DFF8BCB05C4507D3B9F1000F02D04FF015
:10333000010A25BBBDE8F88FE31B62681B1101334E
:103340001371237B83B12368DB680BB12046984758
:10335000636883F806A023681B6943B96368042285
:10336000204619680CF0E7F801361034DAE72046F9
:1033700098470028F2D00AFA06F31D43F4E7A9465D
:1033800095FAA5F4B4FA84F40AFA04F3260107EBDB
:1033900004146FEA030B25EA0305237B5BB1BB59D9
:1033A0001B699BB93E44736804222046196809EAE8
:1033B0000B090CF0C0F8002DE2D1B8F1000F03D0DA
:1033C000642000210EF006FF4D46B2E720469847E4
:1033D0000028F0D1E6E700BF9035002258380102FE
:1033E0006838010208B5034608462BB1044A136049
:1033F00000F0E6FB002008BD6FF01500FBE700BF02
:103400005405002208B50023074A4FF47A7113705F
:10341000064A07481360074A1360FFF7E3FFBDE859
:10342000084000F085B800BF144A00228835002209
:10343000C1F400028C35002270B50B4D297841B9DA
:103440000120FFF75FFF094C094EB44202D301236C
:103450002B7070BD63685B791BB1236820469B6845
:1034600098471034F1E700BF144A0022583801028F
:1034700068380102014B1868704700BF8C35002284
:1034800010B5044606480CF023F83CB1054BD3E8D0
:10349000EF1F0139C3E8E21F002AF8D110BD00BFB9
:1034A000883500228C3500222DE9F041164B054667
:1034B0001B689847154CDFF85880A860444501D335
:1034C000BDE8F08163685B793BB129784B0706D58D
:1034D0002368294620461B6898471034EEE72846A3
:1034E0002E88C1F3C20700F0CFF9C6F38216024658
:1034F000002EEDD00028EBDB01233946204600F0FA
:10350000CBF8B042E9D3E3E7540500225838010272
:1035100068380102044A054B9B1AB1EBD30F34BF44
:1035200052F8310000207047C037010258380102BC
:1035300000200B490B4B30B55B1ADB080A4C0431F9
:103540000133013B00D130BD11F83020256802F075
:10355000070225F007052A4344F8042B0130F0E761
:10356000C037010258380102A80A0022F8B5064601
:1035700000240A4F0A4DED1BED08AC4203D14FF079
:10358000FF342046F8BD57F8340020B13146FDF72E
:1035900067FD0028F5D00134EFE700BFC037010216
:1035A0005838010200282DE9F047884615461F4685
:1035B0001DDA4FF0000A5446DFF8A890254EA6EB1E
:1035C00009063609B24509F1100902D12046BDE8C5
:1035D000F08759F80C0C3B462A4641460079FFF724
:1035E000E1FF844238BF04460AF1010AEAE71A4BB8
:1035F0001A4AD21AB5EBD20F29D203EBC5031C79B4
:10360000BC4228BF3C4607224FF0090E144EC0B200
:1036100000EB400056F82530824023EA020304F014
:10362000070282401343032100224EF001E023FAF7
:1036300001F000F00700824238BF024603310FF06C
:103640000BC023F00703134346F82530BEE70024E0
:10365000D9E700BF68380102C037010258380102BB
:10366000A80A002258380102F8B506460F46002481
:10367000074D084BED1AED08AC4200D3F8BD002110
:1036800022B23B46304601340BF047FFA4B2F3E7C9
:1036900058380102C037010210B570B1416809798C
:1036A00073B1002A17DBCBB20C4903EB430351F88B
:1036B0002200D84000F0070010BD4FF0FF31EFE7C7
:1036C0000749084C1846641AB2EBD40FF4D201EB48
:1036D000C2010879F0E70420EEE700BFA80A002243
:1036E000C0370102583801022DE9F04F87B004AF0E
:1036F0000446D7E90EA90E46934698463D6BBAF1AB
:10370000000F22D0C7F80490CDF800901021534646
:1037100000207A6BFFF736FAB0F5006F014615D33B
:103720001C490B6813F0060F0BD040F2FF73039394
:10373000194B0222029300231846CDE900330BF007
:103740007DFF0C37BD46BDE8F08F514604F00704FD
:103750000BF0070BE40044EA8B1444EA412444EAEA
:10376000055417350D4425F00705ADEB050D04ADE7
:10377000BAF1000F07D0CDF8009053467A6B05F1EF
:103780001000FFF7FFF943462246314628460BF06A
:1037900005FFD6E7D00A0022005701022DE9F04FBD
:1037A000C1F34A2691B00D469046079008930C0D40
:1037B000002E5AD000274FF0040B4FF00A0A0BAB33
:1037C00001933A460DAB31464046CDF808B0CDF8EE
:1037D00000A0CDE90D770F97FFF7A6FBB0F5006FBE
:1037E000B146034616D325490B6813F0060F0ED0D9
:1037F00040F2FF730493D8F8043002220393204B65
:103800003846CDE9017300973B460BF017FF11B026
:10381000BDE8F08FC0F30A0604F11700184420F049
:103820000700800809930BF074FE66F353250446E5
:1038300080B1099B00F11001CDE90E370BABCDE94A
:1038400000A30D91404649460E4ACDF808B00DAB95
:10385000FFF76AFB66F353252A462046089B079923
:1038600011B0BDE8F04F0BF099BE04F1170020F045
:10387000070080080BF04DFE0446EBE7D00A00225B
:103880003857010271F5000243680548002BA3EB8D
:10389000000040F38F0008BF4FF0FF30704700BFBB
:1038A000A80A00220EB403B503AB53F8042B01465B
:1038B0000448019304F0A4FF02B05DF804EB03B0E8
:1038C000704700BFB7F60002CA0605D48B064CBF8E
:1038D00002490349FFF7E6BF704700BF1B5B0102C7
:1038E000775701022DE9F04F87B09DF844600446F8
:1038F0000D4690469946002E00F0A080159B03F0DF
:10390000020A03F001030493159B03F0080B03F470
:10391000807305930BF0FFFD0246074620B1204659
:103920009349FFF7BFFF0746BAF1000F0AD0159B76
:1039300013F0440F33D12A4620468E49FFF7B2FFD9
:1039400003461F44049B53B18B4B8C4A53F82630DB
:103950002046002B18BF1A468949FFF7A3FF059B95
:10396000002B49D0BBF1000F65D14546B8F1000FDF
:1039700005D0424620468349FFF794FF0546129B37
:103980003D44002B69D1149B002B6FD1159BDB07A5
:1039900000F1E78020461599FFF796FFD4E07A4BB7
:1039A000186803460028CCD0784B4FF47A7A1B680D
:1039B0004FF03C0CB5FBF3F5B5FBF0F14FF4616350
:1039C00000FB11550AFB05F5B1FBF3F2B5FBF0FE68
:1039D00003FB121100FB1E55B1FBFCF30AFB05F5BE
:1039E000B5FBF0F50CFB131120460091CDE901E584
:1039F0006749FFF757FFA3E75D46BBF1000F07D00C
:103A0000644B204653F826206349FFF74BFF0546D9
:103A1000B8F1000F05D0424620465A49FFF742FF51
:103A20000544B9F1000FAAD04A4620465B49FFF78A
:103A300039FF0544A3E74FF00009E1E7B9F1010FB1
:103A4000129B06D1002B66D1149B002B7CD0002545
:103A50000CE0002BF8D052485EE05248129B224600
:103A600051490BF08DFB149B002B6AD0DFF8448189
:103A7000DFF84491149F2046102F159928BF102776
:103A80004FF0000BFFF720FF5D4547DC139B4946D5
:103A900020461A78FFF706FF4FF0010B1BF0070FC7
:103AA00003D141462046FFF7FDFE5F453DD9139BFC
:103AB0004946204613F80B20FFF7F4FE0BF1010BEB
:103AC000BBF1100FEAD14FF0000A20463749FFF74B
:103AD000E9FE5246DFF8E4B0139B20469A5CA2F15F
:103AE00020015F2928BF2E225946FFF7DBFE0AF18D
:103AF000010ABAF1100F1DD01AF0070F03D1414689
:103B00002046FFF7CFFE57455246E5D841462046AE
:103B1000FFF7C8FEEBE7234835469FE741462046BE
:103B2000FFF7C0FE0BF1010BAEE720462049FFF77F
:103B3000B9FEC3E7139B3B441393149BDB1B149305
:103B400098D1002E7FF422AF6268A168D2E90023E9
:103B500020680BF0A2FD002263681A6007B0BDE880
:103B6000F08F2046054A0649FFF79CFE12E700BF8A
:103B70007F57010283570102FC4601027A57010276
:103B8000355D0102A85701029835002294350022C4
:103B90008C57010210470102AC570102B2570102D3
:103BA000D3F60002B7F6000201880002C1570102F5
:103BB000BD570102BF570102B7570102526301020C
:103BC000002201230749884207D8002A08BF0123A1
:103BD000054A1360054B18607047012240085B00DE
:103BE000F1E700BF40420F009435002298350022D3
:103BF00038B5124B0D461C68CCB1114B1A68002A1F
:103C000002F10103B8BF0123013B02D16FF00100B3
:103C100038BD224612F8101B814201D01446F3E74A
:103C2000E0680DF09DFE28B100202C60F0E76FF0F9
:103C30000C00EDE76FF01200EAE700BF5805002224
:103C40002447010210B5044607F0ECFB0349024685
:103C500020460BF033FF002010BD00BFFA570102D1
:103C600037B513460022054601920A21586801AA79
:103C700001F0F8FC019C4CB90A2120EAE07080FBBD
:103C800001010EF0A7FA204603B030BD22462846B7
:103C900002490BF02FFF019CF5E700BF26580102F7
:103CA00008B5034A03490BF009FF002008BD00BF17
:103CB0001059010217590102F7B5174600230546AE
:103CC0000A2101AAB868019301F0CCFC1749C6B2D9
:103CD00028460BF001FF019C44B1224628461449B6
:103CE0000BF008FF019C204603B0F0BD042E09D95B
:103CF000324628460F490BF0FDFE28460BF039FFEF
:103D00000124F0E77868FFF731FC021E07DA284645
:103D10007A6809490BF0EEFE6FF01504E3E73346CD
:103D20002146204612B20BF0F8FBDCE742590102B3
:103D3000A8590102CF590102E6590102002307B533
:103D40000090694604488DF8043009F0D5F89DF8D4
:103D5000040003B05DF804FB83F7000210B50446CD
:103D600007F042FB0749024620460BF0A7FE20461B
:103D700005490BF0A3FE2146044809F0D7F80020BE
:103D800010BD00BF3E5A01025D5A0102913D000282
:103D900070B58EB004460D46D0F89C600EF047F921
:103DA00003460FF02BF9214A214912589442214A27
:103DB00018BF0A46181E204B204908BF1846234644
:103DC000009028460BF07AFED4E90A23CDE90023BF
:103DD000284694F90E30227B19490BF06FFE06A994
:103DE0002022204608F080FA636E024615492846D4
:103DF0000BF064FE204605A90EF03BF9024628B1FF
:103E0000284611490BF05AFE0EB070BD6422059B86
:103E10002846F11A4A43B2FBF6F20091CDE901625D
:103E20000A4932460BF04AFEEEE700BF10000000E0
:103E3000BF570102716E0102675A01026A5A0102FC
:103E4000765A0102A25A0102B95A0102E65A010247
:103E5000F0B50025044691B0294608AF1C2209A8F8
:103E60000EF0E7FF134E1A22202138460EF0E1FF34
:103E70002146114809F05AF807AA4FF4006130466C
:103E80000EF0EAF86423079A2046C2F500614B431E
:103E9000DB0A05934FF400630097CDE90313CDE9E6
:103EA000013206492B4632460BF008FE284611B077
:103EB000F0BD00BF78D20022C13E0002375B010294
:103EC00070B504460D46D0F89C6088B007A90EF086
:103ED000D0F8024628B128460F490BF0EFFD08B094
:103EE00070BD20460EF0A3F86422079B0028A6EBC5
:103EF000030101FB02F2B2FBF6F2CDE90131CDE99B
:103F00000362064B224618BF034605492846009621
:103F10000BF0D4FDE3E700BFB95A0102675A010272
:103F2000805B010238B5134605461022002158680F
:103F300009F026FC0446FFF701FF38B9224628465F
:103F40000D490BF0D7FD6FF0150038BD0FF056F896
:103F50000A4B1B589C4204D1284609490BF0CAFD64
:103F6000F1E7204608F076FB2846224605490BF08B
:103F7000A5FD0020E9E700BFE45B0102100000009E
:103F8000FF5B0102275C010238B51346054610228B
:103F90000021586809F0F4FB0446FFF7CFFE38B95A
:103FA000224628460D490BF0A5FD6FF0150038BDDF
:103FB0000FF024F80A4B1B589C4204D128460949AB
:103FC0000BF098FDF1E7204608F034FC2846224625
:103FD00005490BF073FD0020E9E700BFE45B010237
:103FE000100000005E5C0102845C010238B51346DB
:103FF000054610220021586809F0C2FB0446FFF76D
:104000009DFE38B9224628460D490BF073FD6FF02E
:10401000150038BD0EF0F2FF0A4B1B589C4204D12C
:10402000284609490BF066FDF1E7204604F02AFA1C
:104030002846224605490BF041FD0020E9E700BF74
:10404000E45B010210000000B85C0102DD5C0102CB
:104050002DE9F04F87B00446684607F015FA18239B
:10406000009F082103FB0077264A20460BF019FD2C
:10407000DFF8ACA0009DDFF8ACB0BD4203D3002058
:1040800007B0BDE8F08F2B680BB11A7832B92B4618
:1040900014211D4A01A809F0A9FA01AB52460821D2
:1040A00020460BF0FEFC28460DF05AFC0028174B6A
:1040B0004FF0080108BF5B462046154A0BF0F1FCA3
:1040C0006B69A3B11E6896B1336883B1082120469D
:1040D000104A0BF0E6FCB1464FF0000833680E4A78
:1040E000434506D8082120460C4A0BF0DAFC183567
:1040F000C3E70821204659F8043F0BF0D2FC08F131
:104100000108EBE7245D01022E5D0102155D01024D
:10411000B1630102385D0102345D01021B5B0102E3
:10412000335D01021B5D01022DE9F0411446884612
:10413000074610220021606809F022FBB8F1020F47
:10414000064607D8202308213846244A0BF0A9FC4C
:10415000336816E00A220021A06809F011FBC5B2FD
:104160002B46082138461D4A0BF09BFCB8F1030F83
:104170001AD1102D0CD0202DEAD0082D0BD1337878
:10418000DBB208213846164A0BF08BFC002009E010
:1041900033889BB2F5E738460821124A0BF081FCC0
:1041A0006FF01500BDE8F08110220021E06809F0F1
:1041B000E7FA0821034604460B4A38460BF071FC27
:1041C000102D06D0202D07D0082DE4D1E4B2347094
:1041D000DCE7A4B23480D9E73460D7E7795D010227
:1041E000A45D01028E5D0102B55D010200232DE98F
:1041F000F04F91464FF0FF35012287B00193504BAD
:10420000074688461A60202604F0B8FB2C46DFF8E3
:104210004CA149465246404604F0D4FB411C06D10D
:104220006A1C41D1474938460BF064FC17E07328FB
:104230001AD0772828D0612811D1DFF824B11021B5
:10424000DBF8000001AA01F00DFA019B0546002BE6
:10425000DFD0DBF800203C4938460BF04BFC6FF018
:10426000150007B0BDE8F08FDFF8F4B00021DBF8EF
:10427000000001AA01F0F6F9019B0446002BC8D00A
:10428000DBF800203149E7E7DFF8D4B00021DBF8A4
:10429000000001AA01F0E6F9019B0646002BB8D008
:1042A000DBF800202A49D7E7631C01D12949BAE786
:1042B0005FFA86F8C6F3C406002C3FD002AB29464D
:1042C0001A46A6EB050C0CE0B8F1100F1DD0B8F1A2
:1042D000200F20D0B8F1080F2AD108781870314487
:1042E0003344A64203D80CEB01001028ECD9102C63
:1042F000A14628BF4FF0100929464B46384601F029
:1043000081F81035A4EB0904D6E7088880B218704C
:10431000000A5870E3E708684FEA102E187083F817
:1043200001E04FEA104E000E83F802E0D870D6E7A5
:1043300008213846084A0BF0B4FB90E7204690E786
:10434000D80500220A5E0102C95D0102DC5D01029E
:10435000EF5D0102275E01028E5D0102035E010234
:10436000CC48002270B50F4E04460D46337871B12B
:1043700023B10D49BDE870400BF0BCBB0123337085
:1043800020460A490BF09AFB0123337004E083F0C6
:1043900001033370002BF3D129462046BDE870405D
:1043A0000BF007BC154A0022415E01027C5E01024F
:1043B00070B504463F480378182B02D10B78112BB7
:1043C00030D00B46551E013A25D14B5D0A7803705B
:1043D000A2F13003092B384C04D922F02003413BD1
:1043E000052B04D823683549CA5401332360236858
:1043F000022B3BD110220021304809F0C1F9304A8C
:10440000136803F8010B13602E4A1368013313601D
:10441000002323602AE013F8016B182ED3D11E78F5
:10442000112ED0D1274D20462A6827490BF046FB94
:1044300000212046FFF796FF244B1E78B6B92B6863
:1044400023495A1E9208002B02F10102CCBF1446E8
:1044500001240868013C0AD10EB108602B6013F0FA
:1044600003020BD10A6813681BBA136070BD02689F
:10447000012612BA40F8042B043BEBE75B4203F041
:10448000030352EA43B3022B04D10A6813885BBAD0
:104490009BB2EAE7032BE9D1086802681104C2F372
:1044A000074301F47F010B4302F47F42134303608F
:1044B000DCE700BF164A00229C350022184A002281
:1044C000A8350022A0350022A65E0102174A00226C
:1044D000A43500222DE9F84F0023064615460C4668
:1044E0002949DFF8BC800B602849DFF8B890DFF875
:1044F000B8B088F800300B60012C2F4655F804AF97
:104500001ED90222494650460EF0C4FA80B99AF8E4
:104510000220003A18BF01229244504602221C4950
:104520000EF0B8FA30B9012388F80030013CE3E717
:104530000022F1E749465046FCF792FDA8B904373E
:1045400000227868114609F01BF90022114B114630
:104550001860786809F014F90F4B1049186030465C
:10456000FFF700FF0020BDE8F88F9AF800202D2A01
:10457000E6D19AF80120002AE2D052465946304648
:104580000BF09CFAD2E700BF9C350022A035002238
:10459000C35E0102A8350022A4350022B143000207
:1045A000174A0022C05E0102C65E01027FB50BAB56
:1045B00005930393054B0222029300231846CDE98D
:1045C0000033FFF791F807B05DF804FB28600102A3
:1045D00007B50A480DF0C4F960B10423084A0093F6
:1045E000126801230549074800F072FF002003B05C
:1045F0005DF804FB6FF01200F9E700BF78330102A9
:10460000F0470102E041010210B54468A360402375
:10461000C4E9001242680821D36402F1580313630D
:104620000023C2E90E33C2E91133C2E90633C2E9FD
:104630000933D162146802F15001536313641161AC
:1046400053611362C2F8D030A36823B19B6C13B1DD
:10465000204604499847A3689B6A0BB120469847B7
:10466000002010BD694600022DE9F04705460C46C2
:1046700086B083685B6C03B19847AB685B6B63BBC8
:104680004FF0000A04F1300804F13409616C636BE7
:10469000E26C5B1AD31A934228BF13464946404640
:1046A00005AA0AF05DFE0646002842D0AB680599CF
:1046B0009B6993B3024628469847074680B33A461B
:1046C000494640460AF080FEB7424FF0010ADDD06D
:1046D0000020D4E90131984703E028469847002894
:1046E000CED1AB685B6A002B3AD1226AA36904F190
:1046F00010079B1AE26A04F12008934228BF134670
:104700004146384605AA0AF02BFE064678BB2846E5
:104710000BF04DF8C4F8D06035E06FF05707CEE7E6
:104720000246494640460AF04FFEBAF1000FD8D083
:10473000CEE719490B6813F0060F07D0174B02227A
:10474000CDE9010300900346FFF730FFAB689B699A
:10475000002BEAD0012228460DF113019847E4E727
:10476000284698470028C0D106B0BDE8F087AB685E
:1047700005995B6963B1024628469847024641465F
:1047800038460AF021FED4E9013101209847EBE7D1
:104790006FF05702F3E700BFEC0A00222860010225
:1047A00010B504468168183101F0CAF9A1682046A5
:1047B000BDE81040014A183101F068B96A60010291
:1047C00038B58368044603F580539B6FDB071FD41D
:1047D000C0690BF0DAFE606803685B6898470546BD
:1047E00020B9E0680CF029F8A3681D75A3685B6C1C
:1047F00013B129462046984700220EF0FFFBA3681C
:1048000003F58053C3F82021034B185803F03AFEF8
:104810006FF00F05EAE700BF1000000001490BF040
:1048200042B800BF1B5B0102F7B5044680680D4625
:1048300000F580539B6F5A0705D500210BF07DF8DA
:10484000E0680BF0CCFFE368DB6873B9002D3CD067
:10485000A66806F1560738460BF032F8002836D025
:10486000394606F65600FCF705FCA2682946E068C2
:104870000DF1060356320BF0B5FF58B9A06800F6EB
:1048800056015630FCF7F6FBA06856300BF018F8CE
:10489000ADF8060020460BF082FCA36803F58053B8
:1048A0005B6F9B0603D50B4960690AF0FCFF20464D
:1048B00000F040FFA268BDF806302046A2F8523052
:1048C000A268A2F850300BF0CFFB03B0F0BD86F821
:1048D0005608CAE7704301022DE9F04FA7B004461D
:1048E0005422002111A80EF0A4FA0023CDE90533CB
:1048F000A3682046563302930BF058FC20460BF079
:104900009BFB10B96069FFF789FF00264FF0FF3766
:10491000B246B3463546B146A0681422002118308D
:104920000EF087FA20460BF02CFBA168E068B1F886
:10493000502056310BF08DFF20460CF025F80DF17C
:1049400044080396DDE90532012A6DD0132B6ED899
:104950005FBBBBF1000F0AD020460CF036F81423E1
:10496000A26811A956320DEB03000BF08AF9B9F1D8
:10497000000F0CD099F81130FE2B08D1059B26AA08
:1049800002EB830252F8542C0AB101330593A0685C
:10499000059D436A002B40F0B780CEB1C3699E42AB
:1049A0002DD00D9600F1180524E002234146029A0D
:1049B00006A80BF066F9D8F804200699034602927F
:1049C00031B101290AD148B16D4A20460BF09DFC56
:1049D0006FF00705284627B0BDE8F08F059B002B38
:1049E00034D0D8F8000001F0CBF898B166B1A568D2
:1049F0000D9618350CAE0FCE0FC533682B602046D0
:104A0000FFF7CEFE0125E5E75E4A012120460BF0C7
:104A10007CFCDDE7059BCBB129462046D8F8002079
:104A200001F058FA022809D1059B132B91D9069B56
:104A3000022B8ED10121544B544AC6E7032805D0DE
:104A4000059B4FF0010B013305937BE7039B33B9C3
:104A50004846D8F8001007AA0BF00AFA054608F1F4
:104A60000408013F002D3BD0EB68BBF1000F08D0DC
:104A7000F3B120460BF09AFB20460BF0F5FA444ABE
:104A8000C3E7ABB1AE46A368DDF814A003F1180C80
:104A9000BEE80F00ACE80F00DEF80030CCF80030C4
:104AA000AB682BB96B7CFE2B04BF2F7C07F1FF3763
:104AB000D5F804C0A946BCF1000F08D0AE460CAE34
:104AC000BEE80F000FC6DEF8003033606646069B76
:104AD00017B9022B7FF436AF059B0133059331E7FD
:104AE000059B13B101230393F1E7A368DB6A13B1BC
:104AF000DB68002BF6D1274B012100932046119B48
:104B0000254A0BF002FCEDE790F82830A5EB0A05EA
:104B1000BBB14FF6FF7190F82920FF2A08BF0A4663
:104B20009D4202D313449D420BD983690121204643
:104B30001A4A0BF0EAFB2046FFF732FE6FF015052C
:104B400048E741F20C1601210AF0EBFEA068304460
:104B50000AF00EFFA36811AA294602EB8A0220463A
:104B60005B6A98470546A0684FF0FF324FF0FF336D
:104B700030440AF096FE0021A0680AF0D2FE29E730
:104B8000786001028C600102ED600102015A0102AD
:104B9000AA600102D9600102DE6301021161010213
:104BA000022210B5836804461A7583689B6CCBB9E2
:104BB0000AF056FE836803F580539B6FDB040CD527
:104BC0000321094B094A0BF0A0FBA0686FF4805148
:104BD00000F5835018300AF059FE2046BDE8104019
:104BE00000F036BF10BD00BF2C610102355D01022F
:104BF0002DE9F04F04468068012100F58350B1B0E3
:104C000018300AF038FEA3681B7D022B20D1002348
:104C10000993A36860689E6C03681D6909AB16B3AD
:104C200010221BA9A847099B93B10121A0680AF093
:104C300078FE2046099A1BA9B0470021A0680AF017
:104C400070FEA3689B6C002BE3D12046FFF7A8FF02
:104C50006FF00101A06800F58350183031B0BDE855
:104C6000F04F0AF013BE01220DF12301A847099B62
:104C7000002BEDD09DF923109DF823300029A26868
:104C8000C7DB517D032900F21883DFE811F004002F
:104C90009402AD0216030D2B02F580517CD00A2B35
:104CA0005AD0B1F87820092B6FF3CA02A1F8782006
:104CB000A06800F086803FD8002BAAD0082B00F017
:104CC0000582024602F58052516F8907A1D5013B4A
:104CD000162B9ED801A151F823F000BF8952000283
:104CE0000D51000215510002055100027D520002D3
:104CF00033510002134C0002134C0002134C00020B
:104D0000134C00023B51000243510002134C0002BD
:104D10006D510002134C000277510002134C000247
:104D2000134C0002134C0002134C00027B51000292
:104D3000134C0002A75100021B2B3FD07F2B00F029
:104D4000D281A3F120015E290246BBD801210AF0DD
:104D5000F4FD9DF82310BBE0886FC0F3C70020B1BD
:104D6000886FC0F3C7000A28ACD1B1F8782063F38C
:104D7000CA02A1F87820A568B5F85010B1B9284644
:104D80000AF0DBFDE0680BF02AFD6069FFF746FDE5
:104D90002046FFF705FF3CE7886FC0F3C7000028F7
:104DA000E3D0886FC0F3C7000D28DDE72046FFF78A
:104DB00093FD05F58055C5F82401E9E70123437506
:104DC00027E700F580535B6F9B077FF522AF01213A
:104DD0000AF0B3FD40F2FF73A068B0F850209A4289
:104DE0003FF417AF0025B0F8522000F1560100F64D
:104DF00056000DF0F7FFA3681BA9B3F852200BA8CB
:104E0000134483F85658A268142302F656020AF097
:104E100038FF0B9914293FF6FCAE30AB03EB81034E
:104E200043F8545CA368B3F85220002A54D01344CA
:104E300093F85530202B02D0093B042B4CD8002985
:104E40004DD100250A950A9B30AA02EB830353F843
:104E500054AC002650460AF033FDB3468146B046B6
:104E600037463946284616AA00F0C2FB03460028FA
:104E700041D1012EA76866D10A9B30AA02EB8303B9
:104E800053F8540C0AF01CFD4146064607F118027F
:104E9000284600F0ADFB056828460AF011FD864261
:104EA00005D0821B92B22046A9190BF077FAA068B0
:104EB000B0F85230034493F85630202B32D0093BDF
:104EC000042B2FD900F580535B6FDF072FD42021EF
:104ED000204600F083FD9CE60129B2D9013900206B
:104EE0000CAB009301900AAB1BAA0AF0ECFF05463D
:104EF0000028A8D18DE61B684A4651461846039300
:104F00000DF0C8FD60B9039B1846FCF7BBF8584587
:104F100038BF5846002E08BFB8461FFA80FB01363E
:104F200001379EE7012120460BF0D2F871E60021FF
:104F30000AF00EFD2021204600F050FD0121A0685E
:104F40000AF006FD65E604907FF663AE0A9A30AB80
:104F500003EB820252F8543CC146184603930AF010
:104F6000AFFC049B0590A7F840300496A268494620
:104F70002846183200F03CFB039BD0F800A009F152
:104F800001094BB1BAF1000F06D019465046059AF7
:104F90000DF080FD0028E9D1A168BAF1000F52D1CF
:104FA000A1F840A0049B013B0493DFD16069FFF7A7
:104FB00035FC204600F04CFD0A9B30AA02EB83032F
:104FC00053F8540C0AF07CFC414611AA07462846C7
:104FD00000F00EFB08F1010B8046A068D8F8001025
:104FE00040F2FF7200F656000DF066FDD8F8009012
:104FF0004FF6FF785946284616AA0BF1010A00F031
:10500000F7FA002855D000234FF6FF71A268D0F8B8
:1050100000C002F6550212F801EF1CF803007045BB
:1050200004D118B1013903F10103F4D10FB1BB422E
:1050300007DB4345A8BF4346013E012E1FFA83F814
:1050400037D0D346D6E79E4806910AF039FC069938
:1050500000EB0B074A8FBFB2121A92FBF7F25046D1
:1050600092B2079106920AF02BFC07993F1AB1F809
:105070004000069A00F1010CA1F840C0B0FBF2F12B
:1050800002FB110080B2BFB260B9062120468C4BF2
:105090008C4ACDF800A00BF038F93946204600F0D4
:1050A00033FB7FE7534606212046874A0BF02DF954
:1050B000F3E7B8F1000F3FF4ACADA8EB07022046D0
:1050C00092B209EB07010BF069F9A2E500F58053F4
:1050D0005B6F9E077FF59DAD01210AF02EFC2046F7
:1050E0000BF07DF995E500F580535B6F9D077FF52B
:1050F00090AD01210AF021FCA36803F580535B6F9A
:105100001807ECD420460BF04BF982E520460BF053
:1051100056F87EE520460BF049F820460AF08CFF51
:1051200010B96069FFF77AFB0121A0680AF005FC5D
:105130002EE620460BF04CF86BE520460BF053F8BA
:1051400067E5536F9F0603D5604960690AF0ABFBC2
:10515000A36803F580535B6F9E0603D55C496069C5
:105160000AF0A1FB204600F073FC52E50021204626
:10517000FFF75AFB4DE50121F9E720460BF00FF848
:1051800020460AF06DFB0121A0680AF0D6FBA36857
:1051900003F580535B6F9D067FF53BAD4D4960691C
:1051A0000AF081FB35E5204600F042FB0121A068B2
:1051B0000AF0C3FB2DE55B2B02D10223537528E5D2
:1051C00002F58052526F900706D5622B08D14FF03E
:1051D000FF3120460AF0A5FF0022A3685A7518E5A2
:1051E000662BF9D10121F4E700215175A26802F57F
:1051F0008051496F89077FF50CAD313B1B2B3FF682
:1052000008AD01A151F823F085520002915200022D
:10521000A752000279520002134C0002134C000204
:10522000134C0002134C0002134C0002134C0002FA
:10523000134C0002134C0002134C0002134C0002EA
:10524000134C0002134C0002775100026D51000212
:10525000335100020D510002134C00027D52000236
:10526000134C000289520002134C0002134C00023E
:10527000134C0002955200020323537520460AF096
:1052800095FFC6E40323537520460AF088FFC0E467
:1052900003235375A06800F58053596F01F0010195
:1052A00081F001014CE603235375A36803F5805395
:1052B0005B6F9B077FF5ADAC24E700237EE700BF63
:1052C000BE57010270610102355D010275430102A2
:1052D0007A430102704301022DE9F84304468068D5
:1052E000154600F583501830002938D04FF480411E
:1052F0000AF0C1FAA3680021DD64606803689B6856
:105300009847002852D120460AF04BFB00284DD187
:10531000274E284FDFF8A480A06800F585501C3088
:105320004FF0FF324FF0FF33032108F057F80546E6
:1053300041F20C19A068BDB14FF4FA720023484441
:105340000AF0AFFA90BB20462B4601211A4A0AF018
:10535000DCFFA0684844BDE8F8430AF009BB6FF4DD
:1053600080410AF093FAC5E74FF0FF334FF0FF3268
:1053700048440AF096FA3246022120460AF0FAFA28
:105380003A46294620460AF0F5FA204642460121CF
:105390000AF0F0FA606803685B6903B19847A06897
:1053A00000F588500C300AF0E3FAB5E7BDE8F88361
:1053B000C1470002F14B000276610102D1F8000200
:1053C00010B504460A490AF079FB204609490AF05B
:1053D00075FB204608490AF071FB204607490AF090
:1053E0006DFB20460021064A00F050FB002010BD56
:1053F0008D610102CB6101022A6201027E6201021B
:1054000018630102F8B51E4617460A4629490446A4
:105410000AF054FB3EB320463A7827490AF04EFB87
:1054200001256A0703D1204624490AF047FBAE4212
:105430001ED920467A5D20490AF040FB0135102D27
:10544000EFD120461E490AF039FBB6B920461B4968
:105450000AF034FB0125AE422B4610D820461749EE
:105460000AF02CFB15E0204616490AF027FB01251F
:10547000204614490AF022FBE0E700252B46FA5C9F
:105480002046A2F120035F2B28BF2E220E490AF0EE
:1054900015FB0135102D06D06B07DCD120460749DE
:1054A0000AF00CFBD7E72046BDE8F84007490AF0B0
:1054B00005BB00BF2E630102B7570102BF570102AF
:1054C000C1570102BD570102526301025287010216
:1054D0002DE9F04704468068984600F580538946D8
:1054E000D3F82011154688B0002965D141F2281261
:1054F0000DF09FFCE0680BF026FAA06800F58850DC
:105500000C3041F2BC070CF0DAFB41F27C06BA46E3
:10551000A06830440DF0DBF9A06800228319012156
:10552000384410360DF0A5F9564507F11407EFD1B0
:105530000026A36902211E60A06866F3820500F5BB
:10554000835018300AF097F95022A36820465A87F2
:105550001822A3681A8721680AF0DAFAA368494674
:1055600003F580535D676068154A03681D6823462C
:10557000A8470546E0B90122A3681A75D4E90A01D3
:1055800000220023CDE906230E230393109B4FF442
:105590000062CDE9018304950A4B009406F050FFA8
:1055A000A36803F58053C3F82001616A06F08CFEFE
:1055B000284608B0BDE8F0876FF07705F8E700BF30
:1055C00003F90002D952000210B5044613460A46F8
:1055D0000146064803F014F923691B7923B12046DC
:1055E000BDE810400AF0EBBA10BD00BFD7FB0002C7
:1055F00038B50B46154648B91449154A521AB3EB4B
:10560000920F05D251F82350284638BD84680CB952
:105610000025F9E70F4A94420AD30F4A944207D271
:1056200018462946226890472B68002BECD1EFE7FB
:105630000A4A944202D30A4A944205D324681422A7
:105640005343E518E358F0E70133F8E7104201024D
:1056500040420102584301026043010240420102FC
:1056600058430102F7B5037804462D2B164605D1A1
:105670006FF015030020336003B0F0BD0DF0BEFCE9
:10568000002305460A4F0A46C35101A9204608F0E7
:1056900077F8EB59222B02D16FF02103EAE7002BB8
:1056A000E6D1019BA342E3D01B78002BE4D0DFE7D7
:1056B00014000000836803F580535B6F9B0603D5DD
:1056C000024940690AF098BC704700BF804301025C
:1056D00001490AF091BC00BF1B5B01020A1E0EDCEF
:1056E0000FD04223816801F58051496F890608D5A2
:1056F000002A04494069B8BF52420AF07DBC4123E8
:10570000F0E770474E6301020A1E0EDC0FD04423FF
:10571000816801F58051496F890608D5002A04493E
:105720004069B8BF52420AF067BC4323F0E77047B4
:105730004E6301022DE9F0478568044605F15600E5
:10574000FBF7A0FC0023984695F83C70DFF85890D2
:1057500086B2A268558FED1BB54209DB002E1FDD16
:10576000563360690F491A44BDE8F0470AF044BC5B
:105770001D442A4492F856A082F85680A2685633F7
:105780001A44494660690AF037FCA3682B4483F841
:1057900056A0A3685B8FDB1BF61A00272B46D8E7C1
:1057A000BDE8F087355D0102015A010208290A4669
:1057B00018D8836893F83E10914213D083F83E20A6
:1057C0008368082A03F580535B6F05D0990609D5D5
:1057D000054940690AF010BC9B0603D5034940699E
:1057E0000AF00ABC704700BF5563010285430102FD
:1057F00038B50D4609780446FFF7D8FF6A78072ABE
:1058000012D8A36893F83F1091420DD083F83F203F
:10581000A36803F580535B6F9B0605D56069034958
:10582000BDE838400AF0E8BB38BD00BF5E63010246
:10583000F8B583680446B3F85020002A57D0B3F86F
:105840005210002953D0553103F156050B44184628
:10585000A84206D3014611F80169202E3ED0A84285
:105860003ED286B29DB2AB1B9BB2591C471CD21ACA
:10587000014438460DF0C3FAA268711BB2F85030EB
:10588000204613FA81F3A2F85030A36809B2B3F8A6
:1058900050201344002283F856200AF019FCA36814
:1058A00003F580535B6F9A0603D5114960690AF0CE
:1058B000A3FB3B46082120460E4A0AF026FD20465F
:1058C000FFF7F8FEA36803F580535B6F9B060ED5C8
:1058D00060690949BDE8F8400AF08EBB0846B7E7A1
:1058E000014611F80169202EBBD00846B7E7F8BD84
:1058F0008A430102355D01028E4301022DE9F84F12
:1059000004460F4690460AB1FFF7D4FEA66806F596
:1059100080535B6FB6F852505B0724D505F15600F3
:105920003044FBF7AFFB0546294EB5B9A368B3F881
:105930005020A3F85220A0680AF06BFB30B1B8F1F8
:10594000000F00D017B16069FFF7C2FE7942204610
:10595000BDE8F84F09B20AF0BBBB314660690AF0F6
:105960004BFB013DE1E73046FBF78CFBB6F850906E
:10597000738F19FA80F915FA80F0B0FBF3F2B9FBD6
:10598000F3F39A42AA461BD0124D4845A368CDDADC
:105990005A8F461CB0FBF2F302FB130313B9606984
:1059A000FFF796FEA368204653442A46082193F841
:1059B00056300AF1010B0AF0A8FCDA463046E4E75B
:1059C000563508212046044A73190AF09EFCADE7BB
:1059D000716E010252630102355D010213B58368E5
:1059E0008DF8071003F58052526F0446D00725D575
:1059F000B3F85210B3F850208A421FD0481C9DF8CB
:105A00000720A3F852000B4483F85620A36803F53F
:105A10008053596F89070FD55B6F606913F0040FCE
:105A200018BF2A2209490AF0E7FA20460AF004FBC7
:105A300010B16069FFF74CFE02B010BD0122204694
:105A40000DF107010AF06EFCF6E700BF5263010298
:105A500010B5044683680221084A0AF056FCA36880
:105A600003F580535B6F9B0707D52046FFF762FE67
:105A70002046BDE810400AF006BB10BD355D0102AE
:105A800001490AF08BBD00BF1B5B01022DE9F04FFD
:105A90000E460021044617460D4689B0304603AA3B
:105AA00001F10108FFF7A4FDB0B995B127B13A465D
:105AB000082120460AF029FC00211E4FDFF87890CB
:105AC000DFF878A0304603AA01F10108FFF790FD46
:105AD00068B909B0BDE8F08F0068034610B1FBF764
