:020000040804EE
:10000000000603248D8B0408A1800408798B040862
:10001000798B0408798B0408798B040800000000B0
:10002000000000000000000000000000C18C040877
:10003000798B040800000000218C0408EDA7050856
:10004000518F0408518F0408518F0408518F040800
:10005000518F0408518F0408518F0408518F0408F0
:10006000518F0408518F0408518F0408518F0408E0
:10007000518F0408518F0408518F0408518F0408D0
:1002A00001F0FF01102A2BDB10F0070F08D010F827
:1002B000013B013A8B422DD010F0070F42B3F6D12B
:1002C000F0B441EA012141EA014122F007047FF044
:1002D00000070023F0E80256083C85EA010586EA9B
:1002E000010685FA47F5A3FA87F586FA47F6A5FAD7
:1002F00087F68EB9EED1F0BC01F0FF0102F00702E3
:1003000032B110F8013B013A83EA010313B1F8D18D
:100310000020704701387047002D06BF354603386E
:10032000073815F0010F07D1013015F4807F02BFA7
:10033000013015F4C03F0130F0BC0138704700BFF8
:100340009FED0B7B41EC160B9FED0B5B26EE077BC5
:10035000BCEEC77BB8EE474BA4EE456BFCEEC67B0C
:1003600017EE101A17EE900A704700BFAFF3008027
:10037000000000000000F03D000000000000F0411F
:10038000002902D0B0FBF1F0704708B14FF0FF3008
:1003900000F01EB80029F8D00246B0FBF1F000FBD7
:1003A00011217047002902D090FBF1F0704700281E
:1003B000C8BF6FF00040B8BF4FF0004000F008B871
:1003C0000029F4D0024690FBF1F000FB11217047A8
:1003D000704700BF81F0004102E000BF83F000439E
:1003E00030B54FEA41044FEA430594EA050F08BFD0
:1003F00090EA020F1FBF54EA000C55EA020C7FEA94
:10040000645C7FEA655C00F0E2804FEA5454D4EB10
:100410005555B8BF6D420CDD2C4480EA020281EADA
:10042000030382EA000083EA010180EA020281EA12
:100430000303362D88BF30BD11F0004F4FEA013164
:100440004FF4801C4CEA113102D0404261EB410173
:1004500013F0004F4FEA03334CEA133302D05242F9
:1004600063EB430394EA050F00F0A780A4F10104B5
:10047000D5F1200E0DDB02FA0EFC22FA05F28018EF
:1004800041F1000103FA0EF2801843FA05F35941D5
:100490000EE0A5F120050EF1200E012A03FA0EFC54
:1004A00028BF4CF0020C43FA05F3C01851EBE3717E
:1004B00001F0004507D54FF0000EDCF1000C7EEB9B
:1004C00000006EEB0101B1F5801F1BD3B1F5001FD9
:1004D0000CD349085FEA30004FEA3C0C04F10104F8
:1004E0004FEA445212F5800F80F09A80BCF1004F21
:1004F00008BF5FEA500C50F1000041EB045141EAA3
:10050000050130BD5FEA4C0C404141EB0101013C6B
:1005100028BFB1F5801FE9D291F0000F04BF01465A
:100520000020B1FA81F308BF2033A3F10B03B3F12C
:1005300020020CDA0C3208DD02F1140CC2F10C02BC
:1005400001FA0CF021FA02F10CE002F11402D8BF1A
:10055000C2F1200C01FA02F120FA0CFCDCBF41EAE6
:100560000C019040E41AA2BF01EB0451294330BDB5
:100570006FEA04041F3C1CDA0C340EDC04F1140492
:10058000C4F1200220FA04F001FA02F340EA030069
:1005900021FA04F345EA030130BDC4F10C04C4F1AF
:1005A000200220FA02F001FA04F340EA030029468F
:1005B00030BD21FA04F0294630BD94F0000F83F4D9
:1005C000801306BF81F480110134013D4EE77FEABC
:1005D000645C18BF7FEA655C29D094EA050F08BF08
:1005E00090EA020F05D054EA000C04BF19461046E9
:1005F00030BD91EA030F1EBF0021002030BD5FEA2D
:10060000545C05D14000494128BF41F0004130BD54
:1006100014F580043CBF01F5801130BD01F00045A8
:1006200045F0FE4141F470014FF0000030BD7FEA1B
:10063000645C1ABF194610467FEA655C1CBF0B4616
:10064000024650EA013406BF52EA033591EA030F2D
:1006500041F4002130BD00BF90F0000F04BF002125
:10066000704730B54FF4806404F132044FF0000558
:100670004FF0000150E700BF90F0000F04BF0021D1
:10068000704730B54FF4806404F1320410F0004537
:1006900048BF40424FF000013EE700BF42004FEA32
:1006A000E2014FEA31014FEA02701FBF12F07F43AF
:1006B00093F07F4F81F06051704732F07F4208BF66
:1006C000704793F07F4F04BF41F40021704730B56D
:1006D0004FF4607401F0004521F000411CE700BFB9
:1006E00050EA010208BF704730B54FF000050AE03C
:1006F00050EA010208BF704730B511F0004502D53D
:10070000404261EB41014FF4806404F132045FEA3E
:10071000915C3FF4D8AE4FF003025FEADC0C18BFE7
:1007200003325FEADC0C18BF033202EBDC02C2F1D9
:10073000200300FA03FC20FA02F001FA03FE40EA6B
:100740000E0021FA02F11444BDE600BF70B54FF06F
:10075000FF0C4CF4E06C1CEA11541DBF1CEA13554D
:1007600094EA0C0F95EA0C0F00F0DEF82C4481EAB5
:10077000030621EA4C5123EA4C5350EA013518BFD5
:1007800052EA033541F4801143F4801338D0A0FBC2
:1007900002CE4FF00005E1FB02E506F00042E0FB6F
:1007A00003E54FF00006E1FB03569CF0000F18BF75
:1007B0004EF0010EA4F1FF04B6F5007F64F540741D
:1007C00004D25FEA4E0E6D4146EB060642EAC621B0
:1007D00041EA55514FEAC52040EA5E504FEACE2E1D
:1007E000B4F1FD0C88BFBCF5E06F1ED8BEF1004F20
:1007F00008BF5FEA500E50F1000041EB045170BD9C
:1008000006F0004646EA010140EA020081EA0301DF
:10081000B4EB5C04C2BFD4EB0C0541EA045170BDDB
:1008200041F480114FF0000E013C00F3AB8014F155
:10083000360FDEBF002001F0004170BDC4F100049E
:10084000203C35DA0C341BDC04F11404C4F120051F
:1008500000FA05F320FA04F001FA05F240EA02007A
:1008600001F0004221F0004110EBD37021FA04F6B0
:1008700042EB06015EEA430E08BF20EAD37070BD6A
:10088000C4F10C04C4F1200500FA04F320FA05F0C9
:1008900001FA04F240EA020001F0004110EBD370CB
:1008A00041F100015EEA430E08BF20EAD37070BD3B
:1008B000C4F1200500FA05F24EEA020E20FA04F314
:1008C00001FA05F243EA020321FA04F001F00041C3
:1008D00021FA04F220EA020000EBD3705EEA430E34
:1008E00008BF20EAD37070BD94F0000F0FD101F063
:1008F0000046400041EB010111F4801F08BF013C9C
:10090000F7D041EA060195F0000F18BF704703F0D9
:100910000046520043EB030313F4801F08BF013D60
:10092000F7D043EA0603704794EA0C0F0CEA13551C
:1009300018BF95EA0C0F0CD050EA410618BF52EAD6
:100940004306D1D181EA030101F000414FF00000DC
:1009500070BD50EA410606BF1046194652EA4306EA
:1009600019D094EA0C0F02D150EA013613D195EA5E
:100970000C0F05D152EA03361CBF104619460AD1A6
:1009800081EA030101F0004141F0FE4141F47001B0
:100990004FF0000070BD41F0FE4141F4780170BDA0
:1009A00070B54FF0FF0C4CF4E06C1CEA11541DBF05
:1009B0001CEA135594EA0C0F95EA0C0F00F0A7F807
:1009C000A4EB050481EA030E52EA03354FEA013134
:1009D00000F088804FEA03334FF0805545EA131347
:1009E00043EA12634FEA022245EA111545EA10650F
:1009F0004FEA00260EF000419D4208BF964244F1A6
:100A0000FD0404F5407402D25B084FEA3202B61AC4
:100A100065EB03055B084FEA32024FF480104FF498
:100A2000002CB6EB020E75EB030E22BFB61A75460C
:100A300040EA0C005B084FEA3202B6EB020E75EB9F
:100A4000030E22BFB61A754640EA5C005B084FEA07
:100A50003202B6EB020E75EB030E22BFB61A7546D4
:100A600040EA9C005B084FEA3202B6EB020E75EBDF
:100A7000030E22BFB61A754640EADC0055EA060EA0
:100A800018D04FEA051545EA16754FEA06164FEAE3
:100A9000C30343EA52734FEAC2025FEA1C1CC0D18F
:100AA00011F4801F0BD141EA00014FF000004FF01C
:100AB000004CB6E711F4801F04BF01430020B4F1DD
:100AC000FD0C88BFBCF5E06F3FF6AFAEB5EB030C95
:100AD00004BFB6EB020C5FEA500C50F1000041EB92
:100AE000045170BD0EF0004E4EEA113114EB5C045F
:100AF000C2BFD4EB0C0541EA045170BD41F4801132
:100B00004FF0000E013C90E645EA060E8DE60CEA39
:100B1000135594EA0C0F08BF95EA0C0F3FF43BAF56
:100B200094EA0C0F0AD150EA01347FF434AF95EA0D
:100B30000C0F7FF425AF104619462CE795EA0C0FF1
:100B400006D152EA03353FF4FDAE1046194622E7BE
:100B500050EA410618BF52EA43067FF4C5AE50EA98
:100B600041047FF40DAF52EA43057FF4EBAE12E788
:100B70004FF0FF3C06E000BF4FF0010C02E000BF69
:100B80004FF0010C4DF804CD4FEA410C7FEA6C5C4C
:100B90004FEA430C18BF7FEA6C5C1BD001B050EAEF
:100BA000410C0CBF52EA430C91EA030F02BF90EADA
:100BB000020F0020704710F1000F91EA030F58BF99
:100BC000994208BF90422CBFD8176FEAE37040F0FB
:100BD000010070474FEA410C7FEA6C5C02D150EA99
:100BE000013C07D14FEA430C7FEA6C5CD6D152EA54
:100BF000033CD3D05DF8040B704700BF8446104619
:100C000062468C461946634600E000BF01B5FFF717
:100C1000B7FF002848BF10F1000F01BD4DF808EDE7
:100C2000FFF7F4FF0CBF012000205DF808FB00BFB8
:100C30004DF808EDFFF7EAFF34BF012000205DF812
:100C400008FB00BF4DF808EDFFF7E0FF94BF01205F
:100C500000205DF808FB00BF4DF808EDFFF7CEFF60
:100C600094BF012000205DF808FB00BF4DF808ED9F
:100C7000FFF7C4FF34BF012000205DF808FB00BF70
:100C80004FEA410C7FEA6C5C02D150EA013C0AD188
:100C90004FEA430C7FEA6C5C02D152EA033C02D17A
:100CA0004FF0000070474FF0010070474FEA4102DB
:100CB00012F5001215D211D56FF47873B3EB6252AE
:100CC00012D94FEAC12343F0004343EA505311F0D5
:100CD000004F23FA02F018BF404270474FF0000067
:100CE000704750EA013005D111F0004008BF6FF0A5
:100CF000004070474FF00000704700BF4A0011D21B
:100D000012F5001211D20DD56FF47873B3EB625265
:100D10000ED44FEAC12343F0004343EA505323FA71
:100D200002F070474FF00000704750EA013002D1E6
:100D30004FF0FF3070474FF0000070474FEA41021C
:100D4000B2F1E04324BFB3F5001CDCF1FE5C0DD929
:100D500001F0004C4FEAC0024CEA5070B2F1004F73
:100D600040EB830008BF20F00100704711F0804F76
:100D700021D113F13872BCBF01F00040704741F43B
:100D800080114FEA5252C2F11802C2F1200C10FA3F
:100D90000CF320FA02F018BF40F001004FEAC12323
:100DA0004FEAD32303FA0CFC40EA0C0023FA02F3C7
:100DB0004FEA4303CCE77FEA625307D150EA01339D
:100DC0001EBF4FF0FE4040F44000704701F000406D
:100DD00040F0FE4040F40000704700BF80F000404B
:100DE00002E000BF81F0004142001FBF5FEA410303
:100DF00092EA030F7FEA226C7FEA236C6AD04FEA03
:100E00001262D2EB1363C1BFD21841404840414047
:100E1000B8BF5B42192B88BF704710F0004F40F4F9
:100E2000000020F07F4018BF404211F0004F41F415
:100E3000000121F07F4118BF494292EA030F3FD0E1
:100E4000A2F1010241FA03FC10EB0C00C3F12003F4
:100E500001FA03F100F0004302D5494260EB400083
:100E6000B0F5000F13D3B0F1807F06D340084FEAEE
:100E7000310102F10102FE2A51D2B1F1004F40EBE3
:100E8000C25008BF20F0010040EA0300704749004B
:100E900040EB0000013A28BFB0F5000FEDD2B0FAE8
:100EA00080FCACF1080CB2EB0C0200FA0CF0AABF0B
:100EB00000EBC25052421843BCBFD04018437047A9
:100EC00092F0000F81F4000106BF80F400000132AF
:100ED000013BB5E74FEA41037FEA226C18BF7FEA86
:100EE000236C21D092EA030F04D092F0000F08BFC8
:100EF0000846704790EA010F1CBF0020704712F0AF
:100F00007F4F04D1400028BF40F00040704712F1ED
:100F100000723CBF00F50000704700F0004343F052
:100F2000FE4040F4000070477FEA226216BF084688
:100F30007FEA23630146420206BF5FEA412390EA4B
:100F4000010F40F4800070474FF0000304E000BF41
:100F500010F0004348BF40425FEA000C08BF7047F2
:100F600043F0964301464FF000001CE050EA0102B6
:100F700008BF70474FF000030AE000BF50EA0102CB
:100F800008BF704711F0004302D5404261EB4101B8
:100F90005FEA010C02BF84460146002043F0B643DD
:100FA00008BFA3F18053A3F50003BCFA8CF2083A02
:100FB000A3EBC25310DB01FA02FC634400FA02FC0B
:100FC000C2F12002BCF1004F20FA02F243EB020012
:100FD00008BF20F00100704702F1200201FA02FC74
:100FE000C2F1200250EA4C0021FA02F243EB020067
:100FF00008BF20EADC7070474FF0FF3C06E000BFFE
:101000004FF0010C02E000BF4FF0010C4DF804CD91
:101010004FEA40024FEA41037FEA226C18BF7FEAA1
:10102000236C11D001B052EA530C18BF90EA010FA3
:1010300058BFB2EB030088BFC81738BF6FEAE17032
:1010400018BF40F0010070477FEA226C02D15FEACE
:10105000402C05D17FEA236CE4D15FEA412CE1D03A
:101060005DF8040B704700BF844608466146FFE701
:101070000FB5FFF7C9FF002848BF10F1000F0FBDE3
:101080004DF808EDFFF7F4FF0CBF012000205DF8DC
:1010900008FB00BF4DF808EDFFF7EAFF34BF012061
:1010A00000205DF808FB00BF4DF808EDFFF7E0FFFA
:1010B00094BF012000205DF808FB00BF4DF808ED4B
:1010C000FFF7D2FF94BF012000205DF808FB00BFAE
:1010D0004DF808EDFFF7C8FF34BF012000205DF890
:1010E00008FB00BF4FEA40024FEA41037FEA226C4F
:1010F00002D15FEA402C08D17FEA236C02D15FEA7B
:10110000412C02D14FF0000070474FF001007047B2
:101110007BB972B90029BEBF00204FF0004106E044
:1011200008BF00281CBF6FF000414FF0FF30FFF7F1
:101130004FB9ADF1080C6DE904CE002909DB002B95
:101140001ADB00F07FF8DDF804E0DDE9022304B0EB
:101150007047404261EB4101002B1BDB00F072F84D
:10116000DDF804E0DDE9022304B0404261EB410117
:10117000524263EB43037047524263EB430300F078
:1011800061F8DDF804E0DDE9022304B0404261EBE0
:1011900041017047524263EB430300F053F8DDF81E
:1011A00004E0DDE9022304B0524263EB43037047DD
:1011B00053B94AB9002908BF00281CBF4FF0FF31BE
:1011C0004FF0FF30FFF704B9ADF1080C6DE904CE24
:1011D00000F038F8DDF804E0DDE9022304B07047E0
:1011E00010F8012B11F8013B012A28BF9A42F7D0D1
:1011F000D01A7047034611F8012B03F8012B002A7F
:10120000F9D17047034613F8012B002AFBD1181AB5
:101210000138704708B502460B4643EC172BB5EE74
:10122000C07BF1EE10FA03D4BDE80840FFF788B8A0
:10123000B1EE477B51EC170BFFF782F8404261EBB0
:10124000410108BD2DE9F04786468C460846089EB8
:10125000154674461946002B40F0C2808542B2FA0A
:1012600082F245D94AB1C2F1200300FA02FC2EFAFB
:1012700003F3954043EA0C0C94404FEA154EA8B294
:10128000BCFBFEF8230C0EFB18CC08FB00F943EA6C
:101290000C43994528D9EB1808F1FF3704D299453A
:1012A00002D9A8F102072B44A3EB0903A4B2B3FBB4
:1012B000FEFC0EFB1C330CFB00F044EA0344A0428E
:1012C00014D92C190CF1FF3304D2A04202D9ACF18D
:1012D00002032C44241A43EA07401EB1D4400023E1
:1012E00034607360BDE8F0874746DDE76346F1E7A9
:1012F00092BB431B01214FEA154EAFB2B3FBFEFC7C
:10130000200C0EFB1C330CFB07F840EA0343984506
:1013100062D9EB180CF1FF3004D2984502D9ACF138
:1013200002002B44A3EB0803A4B2B3FBFEFC0EFBAC
:101330001C330CFB07F744EA0344A7424ED92C198F
:101340000CF1FF3304D2A74202D9ACF102032C44C2
:10135000E41B43EA0040C0E7C2F1200320FA03F196
:10136000954090402EFA03F303434FEA154EAFB277
:10137000B1FBFEFC0EFB1C10190C0CFB07F841EA3C
:101380000041884504FA02F422D969180CF1FF30B3
:1013900004D2884502D9ACF102002944A1EB08012E
:1013A0009BB2B1FBFEFC0EFB1C110CFB07F743EAE2
:1013B00001439F420ED9EB180CF1FF3104D29F423A
:1013C00002D9ACF102012B44DB1B41EA004192E758
:1013D0006046E3E76146F7E76046A3E76346B7E7A1
:1013E000834206D916B9002108467BE7C6E900E02A
:1013F000F9E7B3FA83F78FB9834201D3724508D86E
:10140000BEEB020460EB030301209C461EB90021E1
:1014100068E73846FAE7C6E9004CF8E7C7F1200C60
:10142000BB4022FA0CF41C432EFA0CF120FA0CF308
:10143000B84001434FEA14490EFA07F5B3FBF9F837
:101440001FFA84FE09FB18300B0C08FB0EFA43EA66
:1014500000439A4502FA07F240D9E31808F1FF3039
:1014600004D29A4502D9A8F102002344A3EB0A034F
:1014700089B2B3FBF9F809FB183308FB0EFE41EA09
:1014800003418E452CD9611808F1FF3304D28E45F3
:1014900002D9A8F10203214443EA0040A0FB0298CC
:1014A000A1EB0E014145CE46434602D306D14D4540
:1014B00004D2B9EB020E68EB04030138002EA6D06B
:1014C000B5EB0E0261EB030101FA0CFC22FA07F303
:1014D0004CEA0303F940C6E9003198E74046C5E706
:1014E0004346D9E7000000002DE9F047044688B0E4
:1014F0008846174637F0C7FB0A220023FFF758FE3D
:10150000B8F1010F06460D4607D102460B462046AC
:1015100027492AF0E8FC002011E07F682548394679
:10152000FFF75EFE70B139462348FFF759FE48B118
:1015300020463A4621492AF0F2FC6FF0040008B038
:10154000BDE8F0873046294617A3D3E90023FFF70B
:10155000DFFD06460D4610461946194A0023FFF7DF
:10156000D7FD80460F46104619464EF660220023EE
:10157000FFF7CEFD82468946104619464FF47A722F
:101580000023FFF7C5FDCDE902A9CDE90623CDE98A
:10159000040132462B460B492046CDE900872AF04C
:1015A000A2FCB8E7AFF30080005C26050000000055
:1015B0003DDE07084EDE070851DE07085ADE070841
:1015C00080EE360072DE0708012870B50C4607D0A1
:1015D0001D4B162238F064F81A504FF0FF3070BDE2
:1015E0008A681A4B9A42F3D837F04DFB184D23689E
:1015F0006668A3FB0532A46805FB06221B19154D7E
:1016000042EBE474A0FB0502181A05FB01210CA3B0
:10161000D3E9002364EB0101FFF77AFDEFF31184B6
:10162000102383F31288BFF36F8F0B4BC3E90001C4
:101630009A6084F31188BFF36F8F0020CFE700BF5B
:1016400000CA9A3B0000000014000000FFC99A3B4A
:1016500000CA9A3BA0860100D03C00240000000094
:101660002DE9F0472DED028B9FED578B86B0074695
:10167000056941F28832002305F1D40026F0C2F852
:10168000002878D195F8F8382BB90123286885F817
:10169000F8382CF0B4FDDFF84C813C69002305A933
:1016A00004F10C00059332F054FA01460028E0D111
:1016B000059E002E34D12068334632468DED008BD6
:1016C00010F066FE044600282ED141490B685A07E7
:1016D00007D0404B01220096CDE90163334630F03C
:1016E00062FD0024059E0023002E41D1002CC0D0B5
:1016F0002146A0692DF088F80028CEDA34490B681D
:101700005B0709D0344B0122039030460096CDE9A7
:101710000163334630F047FD20462EF0C5FCBCE7A0
:10172000B38836681944C4E7059E4FF4BF69DFF8F3
:10173000B8A0002ED6D0A6EB0801B2882046C9106A
:1017400009FB01A12EF008FF80B121490B685B075E
:1017500008D0224B0122029300231846CDE9003322
:1017600030F021FD20462EF09FFCBAE73668E0E716
:10177000B3713668B8E70B307FF47BAF18488368E5
:10178000DB68002B3FF475AF04AA01219847C0B273
:1017900000287FF46EAF049B95F8F82813F004033B
:1017A00009D0002A7FF465AF0123286885F8F8384E
:1017B0002CF025FD5DE7002A3FF45BAF286885F833
:1017C000F8382CF033FD54E7E80300000000000077
:1017D000F01200241E1E0808F41D0808391E08080F
:1017E000A49D0708EC7E0024E018043000000000EF
:1017F00001292DE9F04F4AD889B39FED275B9FED72
:10180000286B9FED297B0FF2C80BDBE900AB0FF2D1
:10181000C809D9E9008932A7D7E9006732A5D5E917
:10182000004533A3D3E900239FED214B80ED045BFA
:1018300080ED066B80ED004B80ED024B80ED087B68
:10184000C0E90AABC0E90C89C0E90E67C0E91045E0
:10185000C0E91223C0F8D0100020BDE8F08F9FED42
:10186000165B9FED176B9FED187B0FF28C0BDBE97E
:1018700000AB0FF28C09D9E9008923A7D7E90067EB
:1018800023A5D5E9004524A3D3E90023CCE76FF0D5
:101890007400E2E7AFF30080D89E05C15D9DBBCB2D
:1018A00007D57C362A299A6217DD70305A01599182
:1018B000000000000000000008C9BCF367E6096AE8
:1018C0003BA7CA8485AE67BB2BF894FE72F36E3CCF
:1018D00039590EF7D8EC2F15310BC0FF6726336747
:1018E00011155868874AB48EA78FF9640D2E0CDB4A
:1018F000A44FFABE1D48B547F1361D5F3AF54FA516
:10190000D182E6AD7F520E511F6C3E2B8C68059B39
:101910006BBD41FBABD9831F79217E1319CDE05BF1
:101920002DE9F84F2DED028B81468846002219F8EB
:101930000230202B02F1010100F0A381A3F1090084
:10194000042840F29E812B2B0D4633D02D2B36D010
:101950001846042440F02003692B32D06E2B61D04E
:1019600000224FF00A0A964694461346114614F494
:1019700000666CD040F02007A7F1610BBBF1050FAA
:1019800065D8573FFFB2BA4540F3F58044F0800672
:10199000E005B6B269D5F40506F400707AD5002FDB
:1019A00018BF4CF0010C00B9013219F8050034469B
:1019B0000135DCE7042419F80100951CCAE744242A
:1019C000F9E79FEDB18BB64B13F8011B51B119F834
:1019D000052042F020028A4205F1010026D0B14ADA
:1019E000934230D1B4EE488BF1EE10FA0AD019F8D8
:1019F0000530282B06D1013519F80530292B05F1C2
:101A0000010515D1630601D5B1EE488BB8F1000F81
:101A100002D04D44C8F80050B0EE480BBDEC028B2C
:101A2000BDE8F88F9FED9A8B9F4BCDE70546CBE73E
:101A300023F02002413A192ADED9A3F13002092A03
:101A4000DAD95F2BD8D09FED948B0025DEE7A0F18B
:101A50003007FFB257452DDA44F0800614F4807049
:101A6000B6B298D1BAF10A0F06D0BEF10F0F92DDCF
:101A700044F4C076B6B28EE7BEF1100F8BDD44F4AD
:101A8000C076042FB6B286D9052F08BF07464FF09F
:101A9000020C80E700B1013AAAFB0334FB180AFBF1
:101AA000014444F1000153EA01003FF47EAF0EF11E
:101AB000010E7AE7FE2F5ED1A70558D52006C2D5C4
:101AC000002E40F09B8053EA010005F1FF3500F045
:101AD000D580200540F1B6803632B1F5800FC0F0D8
:101AE0009680724FB1F5000F80F09580BA42C0F237
:101AF00092804CEA030303F00306032E084604D049
:101B000003F00606062E40F08F80043341F10000FA
:101B1000B0F5000FC0F088800132B2F5806F80F21E
:101B2000AA8000234FF4801102F2FF3221F48011C9
:101B30001E4641EA025747EC186BB0EE480B28F0FE
:101B40002FFE0138022804D837F0AAFD584B222274
:101B50001A50B0EE480B28F023FE013802283FF659
:101B600051AF37F09DFD524B22221A504AE744F400
:101B70000076B6B219E740F02000782804F080071C
:101B800009D147B153EA010A05D144F40066B6B25F
:101B90004FF0100A09E7002F3FF455AF86B39200CB
:101BA000702686428FD119F805002B2805F1010611
:101BB00004D02D2826D144F48064A4B219F806007C
:101BC000A0F13006092E3FF67EAFAE1C354640F23E
:101BD000D34A00264FF00A0B5645DCBF30380BFBCA
:101BE000060619F80500A0F13007092F05F10105D7
:101BF000F2D9670548BF7642324464E72E20CEE72B
:101C00006526CEE7A0F13007092FDFD95BE7DB18A7
:101C10004941013A61E75E0846EAC17603F00103F3
:101C20003343490801325DE7B2F5806F23DA9B0840
:101C3000B0F5800F43EA80734FEA9001BFF474AFB0
:101C4000002275E70EEB020010F5A27F10DDB0F563
:101C50009B7F10DA03F0010040EA0C00013080089D
:101C6000181841F1000100F027F8B0EE408B70E742
:101C70009FED098B6DE79FED048B6AE79FED068B67
:101C8000C0E60A4653E600BF000000000000F07FF7
:101C9000000000000000F87F0000000000000000CD
:101CA00023390808263908082039080802FCFFFFF4
:101CB00014000000000000002DE9FF478046164692
:101CC0000F46002900F0A280B1FA81F4341B002EE7
:101CD00004F10A04C0F2A280304628F043FC044418
:101CE000304628F045FCA4EB060905466946304617
:101CF00028F066FCA9EB05037D336A464046394669
:101D000037F0F2FAA64282460D4600F38380B9F11D
:101D10003F0F00F381804FF0FF33A9F1200003FA59
:101D200000F003FA09F2C9F12001024323FA01F19C
:101D30000A4303FA09F328EA030327EA02021343DA
:101D40000CBF01200020002D00F08A80B5FA85F339
:101D5000E31A03F23E4340F2FE72934200F389809D
:101D6000002B23EAE376CCBF32460122121BA2F2FB
:101D70003341C1F1200CA2F23447A2F253442AFAB3
:101D800001F305FA0CFC43EA0C0325FA04F4C7F14D
:101D9000200EA2F2544C234305FA0EFE2AFA07F451
:101DA00025FA0CFC44EA0E0444EA0C0414F0010F7A
:101DB00025FA01F1C7F1200CA2F2544254D0A8B187
:101DC0004FF0FF3000FA02F200FA07F4144320FA51
:101DD0000CF2B84014432AEA000A03F0010225EA93
:101DE00004054AEA020A5AEA050A3DD0013341F1E4
:101DF0000002C2F3130253EA020138D0184642EA45
:101E0000065141EC100B04B0BDE8F087B0FA80F445
:101E100020345BE7012096E7002094E7C6F1000933
:101E2000484628F0A5FB241A484628F0A1FBA61B2B
:101E30000546694648462E4428F036FC06F17C03E8
:101E40006A464046394637F04FFA82460D464046CC
:101E5000394628F09DFB81458CBF0020012072E7A8
:101E6000BAFA8AF3203373E7C1F31302C6E70136E7
:101E7000C4E79FED010BC6E7000000000000F07F03
:101E800010EE902A764922F000438B4217D975490B
:101E90008B4203D805D110EE103A13B130EE000B8F
:101EA0007047002A9FED500B04DD9FED517B37EE0C
:101EB000000B70479FED507B37EE400B70476A492F
:101EC0008B4212D8A1F1DE718B420BD8B7EE006BBA
:101ED0009FED4B7B30EE077BB4EEC67BF1EE10FA44
:101EE00000F381804FF0FF3315E06049B0EEC07B16
:101EF0008B424FD8B7EE006BA1F550218B4241D8F1
:101F000037EE075B35EE465B0023B0EE006B37EE35
:101F1000067B85EE070B9FED3C7B20EE005B25EEFC
:101F2000056B9FED3B4B06EE074B9FED3B7B04EEB5
:101F3000067B9FED3B4B07EE064B9FED3B7B04EE94
:101F4000067B9FED3B4B9FED3C3B07EE064B9FED29
:101F50003C7B16EE073B9FED3C7B13EE067B9FED33
:101F60003C3B17EE063B9FED3C7B591C13EE067B7A
:101F700027EE067B04EE057B27EE007B1FD130EEBB
:101F8000470B704737EE465B012337EE066B85EE55
:101F9000060BC0E736498B420BD2B7EE085BB7EEB3
:101FA000006B37EE454B07EE056B022384EE060B04
:101FB000B1E7BFEE006B032386EE070BABE72D49BD
:101FC0002D4801EBC30100EBC30393ED006B37EE2B
:101FD000467B37EE407B91ED000B002A30EE470B3D
:101FE000B8BFB1EE400B7047075C143326A6913C96
:101FF000182D4454FB21F93F182D4454FB21F9BFFF
:102000009C7500883CE4377E11DA22E33AAD903FBC
:10201000EB0D76244B7BA93F513DD0A0660DB13F1F
:102020006E204CC5CD45B73FFF8300922449C23F87
:102030000D5555555555D53F9AFDDE522DDEAD3F18
:102040002F6C6A2C44B4A2BF6D9A74AFF2B0B33F48
:10205000711623FEC671BC3FC4EB98999999C93F8C
:10206000FFFF0F440000F07FFFFFDB3FFFFFF23F69
:1020700000800340A0B9070880B9070800000000ED
:102080007FB58DED000B019B214A23F00043934265
:1020900006D89FED1D1B07B05DF804EB00F018BAE1
:1020A0001C4A934204D907B05DF804EB00F0F8B97C
:1020B00002A800F031F800F0030001280BD002283C
:1020C00012D0C0B99DED041B9DED020B00F000FA8B
:1020D00007B05DF804FB9DED041B9DED020B00F0C5
:1020E000E3FCB1EE400BF3E79DED041B9DED020B0D
:1020F00000F0EEF9F5E79DED041B9DED020B0120CC
:1021000000F0D2FCE4E700BF000000000000000087
:10211000FB21E93FFFFFEF7FF0B510EE907A984B7F
:1021200027F00041994289B0064607D800220023D3
:1021300080ED000BC0E9022300201BE0914B994287
:102140003BD8A3F51B23002F9FED7D7BA3F5F06308
:1021500019DD30EE470B99420ED09FED7B6B30EED0
:10216000467B30EE470B86ED007B30EE460B86ED6E
:10217000020B012009B0F0BD9FED757B9FED766BE2
:1021800030EE470BEBE7994230EE070B0ED09FED98
:102190006E6B30EE067B30EE470B86ED007B30EE4B
:1021A000060B4FF0FF3086ED020BE3E79FED687BF7
:1021B0009FED696B30EE070BEBE7734B99426CD8E0
:1021C000B0EEC00BB6EE007B9FED656B00EE067BBC
:1021D000FDEEC77BB8EEE75B17EE900A9FED587BEC
:1021E00005EE470B9FED587B1F2825EE077B30EE51
:1021F000476B05DC654B421E53F822308B4209D1F8
:1022000016EE903AC3F30A53C3EB1153102B4FEA67
:10221000215202DC86ED006B1AE09FED4D4B25EE5E
:10222000044B30EE446B30EE467B37EE447B9FED43
:102230004A4B15EE047B36EE474B14EE903AC3F34F
:102240000A53D31A312B17DCB0EE460B86ED004B48
:1022500096ED006B002F30EE460B30EE470B86ED0F
:10226000020B87DAB1EE466BB1EE400B86ED006BE8
:1022700086ED020B40427DE79FED3B7B25EE077B21
:1022800036EE470B36EE406B36EE477B9FED386BF4
:1022900015EE067B30EE476BBCE73D4B994206D905
:1022A00030EE400B80ED020B80ED000B44E70A1589
:1022B00010EE103AA2F21642A1EB02551C4645EC74
:1022C000174BBDEEC76B9FED2C5BB8EEC66B37EEC0
:1022D000467B8DED026B27EE057BBDEEC76B08A834
:1022E000B8EEC66B37EE467B8DED046B27EE057BB3
:1022F0008DED067B032130ED027BB5EE407BF1EEE8
:1023000010FA0B4601F1FF31F5D02249019102216B
:10231000009102A8314600F043F9002FBFF62AAF22
:1023200096ED007BB1EE477B86ED007B96ED027B60
:10233000B1EE477B86ED027B9CE700BFAFF30080E8
:1023400000004054FB21F93F3163621A61B4D03D73
:102350000000601A61B4D03D7370032E8A19A33B4C
:1023600083C8C96D305FE43F0000002E8A19A33B8B
:10237000C14920259A837B3900000000000070418C
:10238000FB21E93F7BD90240FB21394198D4070862
:10239000FFFFEF7F18D507087FB58DED000B019B80
:1023A000234A23F00043934207D89FED1F1B0020D0
:1023B00007B05DF804EB00F077BB1E4A934204D9E6
:1023C00007B05DF804EB00F06BB802A8FFF7A4FEBD
:1023D00000F0030001280CD0022811D0D0B99DEDE7
:1023E000041B9DED020B012000F05EFB07B05DF8C1
:1023F00004FB9DED041B9DED020B00F069F8F5E771
:102400009DED041B9DED020B012000F04DFBB1EE94
:10241000400BEBE79DED041B9DED020B00F058F81F
:10242000F5E700BFAFF300800000000000000000EF
:10243000FB21E93FFFFFEF7F7FB58DED000B019B97
:10244000154A23F00043934207D89FED111B01204A
:1024500007B05DF804EB00F07FBB104A934204D94B
:1024600007B05DF804EB00F01BB802A8FFF754FEBC
:10247000400000F002009DED041B9DED020BC0F139
:10248000010000F069FB07B05DF804FBAFF30080CA
:102490000000000000000000FB21E93FFFFFEF7F8C
:1024A00008B52DED028BB0EE408B28F079F920B9FC
:1024B00038EE080BBDEC028B08BD9FED037B87EE69
:1024C000070BF7E7AFF300800000000000000000FA
:1024D000B0EE407B17EE901AB7EE000B21F00041F2
:1024E000B1F1795F39D327EE075BB6EE006B9FED54
:1024F0001E3B27EE017B25EE066B9FED1D4B05EE87
:10250000034B9FED1D3B14EE053B9FED1D4B03EE72
:10251000054B9FED1D3B204B14EE053B9FED1C4BE7
:10252000994203EE054B24EE054B14EE057B04D8CF
:1025300036EE477B30EE470B7047184B99420DD86B
:102540000022A1F5001343EC152B30EE450B36EEBF
:10255000456B36EE476B30EE460B7047B5EE025BCF
:10256000F3E700BFAFF30080D43888BEE9FAA8BD16
:10257000C4B1B4BD9EEE213EAD529C804F7E923ED2
:102580009015CB19A001FA3E7751C1166CC1563F88
:102590004C5555555555A53F3233D33F0000E93FC3
:1025A0002DE9F04F2DED068BADF5137D9A460F46C4
:1025B000BF4BA299A39E53F82190019012F1140FE2
:1025C000A8BFD31E0AF1FF3BB8BF00236FF0170569
:1025D0009FEDB16BA4BF182193FBF1F303FB0555ED
:1025E000A3EB0B00154409EB0B040DF1680E06EB91
:1025F000800C0022A2420EDD1AAA02EBCA020DF5DF
:10260000D47E00244C4525DC9FEDA37BDDF804C07F
:102610001046002115E0D04209D45CF8221007EEE4
:10262000901AB8EEE77BAEEC027B0132E2E7B0EE47
:10263000467BF8E7BCEC025B90ED006B013105EEE8
:10264000067B5945A0F10800F4DDAEEC027B0134B5
:102650000832D7E706AA9FED929B9FED93AB02EB62
:10266000890206EB8303039202934C46E300049332
:1026700092AB03EBC40313ED280B6AAA06AB02EB83
:10268000C402184621460029A2F1080249DC284666
:10269000059300F07DFBB4EE007BB2EE006BB0EE74
:1026A000408B20EE077BBBFE477B07EE468BFDEEA3
:1026B000C87B002D17EE908A059BB8EEE77B38EEBD
:1026C000478B40DD611E06AAC5F1180052F8216053
:1026D00046FA00F290448240B61A06AA42F82160F7
:1026E000C5F117021641002E3CDD002108F101085A
:1026F00008466FF07F4E8C4267DC002D04DD012D13
:102700007ED0022D00F08680022E2BD1B7EE000B7A
:1027100030EE488B30B3284600F03AFB38EE408B61
:1027200020E020EE097BBDEEC77B0139B8EEC77B08
:1027300007EE4A0BBDEEC00BA0EC010A92ED000BB8
:1027400037EE000B9FE705D1621E06A951F8226003
:10275000F615C8E7B6EE007BB4EEC78BF1EE10FAC3
:1027600031DA0026B5EE408BF1EE10FA40F0A4808D
:10277000621E00214A4554DA00296DD0013C06ABA7
:10278000183D53F82430002BF8D0B7EE000B284644
:1027900000F0FEFA9FED426B621C6AA9D30001EBC8
:1027A000C2012246002A80F2B1802246002AC0F2ED
:1027B000CF806AA901EBC2059FED377BDFF8F4C03B
:1027C0000020A11AB9E002268FE79C465CF8042B92
:1027D00058B97AB10131C2F180728C424CF8042CA4
:1027E0000CDDDCF8002003F1080CAEEB02024CF823
:1027F000042C01220131634610467CE701207CE76E
:10280000621E06AB53F82230C3F3160306A941F843
:10281000223079E7621E06AB53F82230C3F315036A
:10282000F4E706AB53F82230013A1943A2E701332B
:1028300052F8041D0029FAD0049A02F512726A4473
:1028400004EB0A011AAE601C983A06EBC10123445E
:10285000834204DA1C4609E7039A0123E8E7029C55
:10286000019E54F82040049407EE904AB8EEE77BAE
:102870000024A1EC027B9FED087B8C465C4503DDC8
:10288000A2EC027B0130E3E7B6EC025B3CED026BAD
:10289000013405EE067BF1E70000000000000000B7
:1028A000000000000000703E0000000000007041C9
:1028B00020D60708C0B907086842B0EE480B00F000
:1028C00067FA9FED736BB4EEC60BF1EE10FA17DBEF
:1028D0009FED717B20EE077BBDEEC77B06AAB8EEAD
:1028E000C75B05EE460BBDEEC00B183510EE103A77
:1028F00042F8243017EE103A013442F8243044E70D
:10290000BDEEC00B06AA10EE103AF6E706A850F886
:102910002200019007EE900A013AB8EEE77B27EE1D
:10292000007B20EE060B21ED027B3BE7BCEC025B5B
:10293000B5EC026B013005EE067B484501DC8142B7
:10294000F4DA42A800EBC10181ED007B013A2DE7EA
:10295000A29A022A0ADC002A2DDC46D008F00700E1
:102960000DF5137DBDEC068BBDE8F08FA29A032A0E
:10297000F4D142A9A3F108020A44114620460028D6
:10298000A1F1080152DC21460129A2F108025DDC17
:102990009FED437B42AA1344012C67DC9DED425B13
:1029A0009DED446B002E67D187ED005B87ED026BD8
:1029B00087ED047BD2E79FED3A6B42AA134422468F
:1029C000002A24DA4EB3B1EE467B87ED007B9DED05
:1029D000427B44AA012337EE467B9C4220DA0EB1AB
:1029E000B1EE477B87ED027BB8E79FED2D7B42AAD6
:1029F0001344002C05DA0EB1B1EE477B87ED007B66
:102A0000ACE733ED026B013C37EE067BF1E733EDCB
:102A1000027B013A36EE076BD2E7B0EE467BD4E795
:102A2000B2EC026B013337EE067BD6E791ED007B0B
:102A300091ED025B013837EE056B37EE467B81ED99
:102A4000006B37EE057B81ED027B98E792ED007B12
:102A500092ED025B013937EE056B37EE467B82ED76
:102A6000006B37EE057B82ED027B8DE733ED026B69
:102A7000013C37EE067B8FE7B1EE455BB1EE466B6E
:102A800087ED005BB1EE477B87ED026B90E700BFFF
:102A90000000000000007041000000000000703ED7
:102AA0000000000000000000B0EE407B17EE903AFE
:102AB00023F00043B3F1795F01D200F0F9B99FED43
:102AC000186B20EE005B20EE054B9FED173B15EEDB
:102AD000063B9FED176B03EE056B9FED173B16EE64
:102AE000053B9FED176B03EE056B40B99FED163B61
:102AF00015EE063B03EE047BB0EE470B704724EE69
:102B0000066BB6EE003B11EE036B16EE051B9FED58
:102B1000106B04EE461B30EE410B7047AFF30080A4
:102B20007CD5CF5A3AD9E53DEB9C2B8AE6E55A3E57
:102B30007DFEB157E31DC73ED561C119A0012A3FF3
:102B4000A6F810111111813F495555555555C53FEE
:102B5000495555555555C5BF10EE903A8A4923F051
:102B600000428A4210B533D8FDEEC07B17EE901AB2
:102B7000002943D110EE104A431C2343134306D1CE
:102B8000B0EEC07BB7EE006B86EE070B10BD0128E0
:102B9000FCD030EE017BBFEE006B53EC172B86EEC2
:102BA000074B0A4643EC152BB7EE006B53EC142B86
:102BB00035EE400B0A4643EC172B31EE400B05EE89
:102BC000076B00EE076B06EE047BB0EE470BDDE70C
:102BD0006E498A4212D99FED4C7B002BB8BFB1EEF3
:102BE000400B37EE407B9FED4A0BB8BFB1EE411B67
:102BF00030EE410B9FED481B30EE070B20EE006BD3
:102C00009FED475B26EE067B20EE063B9FED464B95
:102C100007EE054B9FED465B04EE075B9FED464BD1
:102C200005EE074B9FED465B04EE075B9FED464BC1
:102C30009FED472B05EE074B9FED475B07EE025BD1
:102C40009FED472B05EE072B9FED475B02EE075BE1
:102C50009FED472B05EE072B9FED475B4B4902EE9F
:102C6000075BB0EE457BB0EE415B04EE067B07EE02
:102C7000035B9FED437B05EE061B8A4203EE071BB9
:102C800030EE016B1DD926EE064B9B1707EE900A1E
:102C900003F00203C3F10103B8EEE77B36EE076BE6
:102CA00084EE065B35EE416B30EE466B36EE066B1E
:102CB00037EE466B07EE903AB8EEE70B26EE000BC8
:102CC00064E701281AD0BFEE007B87EE065B51EC6B
:102CD000160BB7EE006B53EC152B0020024643ECAD
:102CE000172B41EC140B04EE076B34EE400B31EE66
:102CF000401B01EE076B06EE057B66E7B0EE460B68
:102D000044E700BFAFF30080182D4454FB21E93F96
:102D1000075C143326A6813C000000000000000080
:102D2000D47ABF74702AFB3EE9A7F0320FB8123F85
:102D300068108D1AF726303F1583E0FEC8DB573F39
:102D400093846EE9E326823FFE41B31BBAA1AB3FF9
:102D5000735360DBCB75F3BEA69237A0887E143F19
:102D60000165F2F2D844433F280356C9226D6D3FF6
:102D700037D60684F464963F7AFE10111111C13FD4
:102D8000635555555555D53FFFFF2F3E2794E53FD9
:102D900010EE902AC2F30A5310B41146C3B910EED4
:102DA000103A22F000421A4318D09FED277B2A4C9C
:102DB00020EE070B10EE902AA042C2F30A531146F0
:102DC000A3F136030DDAD00F5DF8044B00F048B8DC
:102DD00040F2FF72934204D130EE000B5DF8044BD9
:102DE00070474CF25032904204DD5DF8044BC80F3E
:102DF00000F04AB8184440F2FE739842F5DC00280F
:102E00000ADD21F0FF4153EC102B21F4E00141EAEF
:102E1000005343EC102BE1E710F1350F01DAC80F36
:102E2000D2E721F0FF4153EC102B363021F4E001C2
:102E30009FED077B41EA005343EC102B20EE070B7C
:102E4000CCE700BFAFF3008000000000000050435B
:102E5000000000000000903CB03CFFFF00000000BC
:102E60009FED050B9FED067B002800FE077B27EEFC
:102E7000000B7047AFF3008000000000000010005E
:102E800000000000000010809FED050B9FED067B09
:102E9000002800FE077B27EE000B7047AFF3008091
:102EA000FFFFFFFFFFFFEF7FFFFFFFFFFFFFEFFFD2
:102EB0009FED076BB7EE007B82B037EE067B8DEDA2
:102EC000007BDDE9002302B0704700BFAFF3008054
:102ED00000000000000010000023094AC2F89830EA
:102EE000D2F8A010C90005D5D2F8A01081F0805109
:102EF000C2F8A0100133082BF0D10020704700BFAA
:102F000000ED00E070B5ADF5107D042003A901F0DF
:102F100089FB044638B101464C4828F04CF820465D
:102F20000DF5107D70BD0146102308AA039828F006
:102F30003CFC044610B101464548EEE79DF82730B9
:102F4000012B05D1BDF82C2042F241339A4205D025
:102F500040486FF0150428F02EF8E0E79DF82E3079
:102F60000A9EDB072CD53C4B36F09AFB185835F0FF
:102F7000B2FB3A49FEF734F910BB03F089FB384D38
:102F8000214628F01BFF204601F04AFFAE68336D52
:102F90001BB10CAA0421284698474FF47A700021EF
:102FA00035F06BFC0C9B002BF1D003F071FB04237C
:102FB0002C4A009301231268294904F0EFF9AEE787
:102FC0009DF82E5015F002050AD02748274B81683E
:102FD00098474FF0FF314FF0FF3035F04EFCF8E7E7
:102FE00029464FF404720CA836F041F8204B04AA8D
:102FF00020490D930CA8204B07950E931F4B0F9360
:103000001F4BCDE98D360123CDE905558DF81430E0
:1030100005AB07F053FD054628B1014619482C467B
:1030200027F0C9FF7BE704980C49843007F018FDAE
:10303000014628B914486FF0010427F0BCFF6EE781
:103040002A46049807F0F6FD69E700BFAEDA0708E4
:10305000D0DA0708EEDA07081000000005DB0708E1
:103060008C9A070800BA0708EC13002411000E0818
:1030700045D706084ADB07086FD7060883D7060836
:1030800000000E080ADB070828DB070830B5C0433C
:103090000A440C4D914201D1C04330BD11F8013BAF
:1030A00083EA000404F00F0455F8244084EA101069
:1030B00080EA131303F00F0355F8233083EA10104E
:1030C000E8E700BF18BA07087FB50BAB02220593EB
:1030D0000393054B029300231846CDE9003301F01A
:1030E00019F807B05DF804FB55DB07082DE9F04F30
:1030F00091B0840705460E46009302F00403DDF804
:1031000068800293C2F3C203039203F101030593A3
:1031100040F0BA81041D30B1072909D86FF01B00B7
:1031200011B0BDE8F08F01F007063444C6F108067F
:10313000009B4FF000094FF0040A591E4FF0FF3377
:103140004F46CB4601935346CDF810900DB10098F1
:1031500020600598002800F3E8809848009A824291
:1031600003D397488242C0F0E080039AA4EB050E97
:1031700092074FEA9E0000F103810F2F00F2B18009
:10318000002D00F0058107F140020DEB020C019AC1
:103190000CF8200C0CF8102C049801300490E7E097
:1031A0007A285DD84B280ED8472859D829282DD8F9
:1031B000252852D054D820287AD02338D0F1000BBB
:1031C0004BEB000B74E04C382E2849D8DFE800F0B8
:1031D0007048484848484848484848484B48484844
:1031E000484848484859484B4B595959704B6D48C5
:1031F0007048184B184848827F4B48484B487F001E
:1032000000204FF0000B4FF0040A38E02A3801226A
:10321000C0B202FA00F010EA0E0F49D110F0625C61
:103220002FD110EA020B43D06046013C5444B4FB5A
:10323000FAF40AFB04F4002D61D0A3EB050CA444BE
:10324000B4453FF66BAF002868D1042B47D158F83E
:10325000043B2360043404232AE0019A013A0192DA
:103260004FF0000B24E011F8010C6C2834D111F858
:10327000023C00206C2B8346C5D14FF0080A534610
:10328000D3E708F10708073428F0070824F00704FB
:10329000F8E802AB35B106982044B0423FF63EAFA5
:1032A000C4E900AB08344FF0000B4FF0080A534656
:1032B00011F8010F002878D0BBF1000F7FF470AF38
:1032C0002528F5D1019B4FF0010B013301934FF0FD
:1032D000040AECE7584694E700208346A5E7082B4C
:1032E00002D06FF015001BE708F1070828F0070867
:1032F000B8EC027B84ED007B08340823D8E768B97A
:10330000042B02D108F10408A4E7082BE9D108F145
:10331000070828F0070808F10808EDE705980138C4
:10332000059058F8040B009010E7039A900720D5F9
:10333000A4EB050E4FF0010C4FEA9E00BEF5007F96
:10334000CFD20F2FCDD8F5B107F14002C0B20DEBAF
:10335000020E019A0EF8200C0EF8102CBCF1000F92
:103360003FF41AAF60F07F0009F101090EF8200C5C
:103370000137C5F1080204344FF6DA7E069297E76A
:103380004FF0000CDAE7BCF1000F01D00136EFE797
:10339000029A0236002AEBD10098CDE90631FDF7FA
:1033A00031FF0644DDE90631E2E7631BB3F5806FC8
:1033B00097D23DB9A6F10804E018B1E6B496070823
:1033C000383908089B08029A28602B709DF8103045
:1033D000C2B1EB7085F80290B9F1000F05D008A8D2
:1033E0000022C5F1010C97420ED1C5F101030DF188
:1033F00020084FF0000A0DF1300B0193574512D110
:10340000601B8DE66B70E5E710F8013B190608D5E7
:103410000CEB040E03F07F03B6453FF67FAE04F8D5
:10342000013B0132DFE7B9F1000F03D098F900202A
:10343000002A17DB029BD3B11AF80B2004F8012BEA
:103440000022019B18191044B0423FF667AE98F86D
:103450000000009904F8010B2046039235F0DFFDCF
:10346000039A14440AF1010A08F10108C6E798F822
:10347000002055F822300093029B009845F8223036
:10348000FDF7C0FE421CDCE76FF00D0048E600BF10
:103490002DE9F04F9BB00446164690F802A0DDF8E7
:1034A00090B088460993CBF3C0030B9341B945789C
:1034B00000780AEB80002044454516D8A0EB0408AC
:1034C000E3780A93BAF1000F02D01BF0010F15D177
:1034D0000A9B002B39D11EB1099A41462046B047BC
:1034E000454628461BB0BDE8F08F471C08F101088F
:1034F0003846FDF787FE01303844DDE722786368FF
:10350000069292000893069B0C9204EB8301002E16
:1035100040F0E78045460F4601EB0A080026474584
:1035200022D017F8013B069154F82300FDF76AFEFC
:10353000259B0130069933B1269B9E423EBF259BB9
:1035400023F8160001360544E9E71BF0020FC2D04C
:1035500023781F4606939B0004EB87010C93636856
:103560000893002E56D1454601EB0A071BF0050FC4
:103570000A9B0CBF4FF0020A4FF0010A07EB430908
:103580000BF0020306934F45ABD017F8021B17F858
:10359000013C54F82380934B984502D3924B9845B5
:1035A00019D30B9B23B3089827F0DCFC00B38F489A
:1035B000036813F0060F0CD0089B02220491014609
:1035C00003938B4B029300231846CDE90033FFF79A
:1035D0007BFD023DD7E70B9B23B1089827F0C2FC87
:1035E0000028E4D11BF0010F05D1A5EB0A05CAE7BD
:1035F000069B002BC7D04046FDF704FE259B3BB140
:10360000269B9E423FBF431C259A22F81630013666
:103610000544B8E7BAF1000F67D01BF0040767D084
:10362000574616A84FF000095246079135F0F7FCAF
:10363000079901EB0A030A9A07930A9B5B000E9312
:10364000079B03EB42030D930BF002030F930D9BBB
:10365000079A93424ED11BF0020F637808BF790896
:1036600003EB090218BF00211BF0010FD2B240F09A
:103670008A801BF0040F14BF384600206270A070CF
:103680002046E170099A0C990893B047051EFFF691
:1036900028AF069B3946099A16A82370089B84F820
:1036A00002A063700A9BE370B047071EC0F29580CA
:1036B0000C9BA8EB0A01099AC91A0E9B0798C91A14
:1036C000B0470028C0F28B802F444FF000080DF166
:1036D000480B3D18C14558D80021099A0846B04703
:1036E000FFE6D14612A800279EE75746D146A0E73D
:1036F000B9469EE7079B13F8021B13F8015C07937A
:1037000054F82520374B9A4202D3374B9A4217D3AD
:103710000B9B23B1089827F025FC002897D10F9B1D
:10372000CBB907F168037A1C02370DEB03001AAB23
:10373000FFB253FA82F200F8101C02F8105C86E720
:103740000B9B2BB1089827F00DFC00287FF47FAF6E
:103750001BF0010F0AD009F1680309F101020DEB1A
:10376000030909F8205C5FFA82F970E71BF0040F87
:103770003FF46DAF07F168037A1C0DEB030707F800
:10378000105CD7B263E7002078E718F80B3054F8E4
:1037900023A08DF84730259BEBB1269B98451AD284
:1037A000259B33F81870099A01210DF14700B047A5
:1037B000002814DB054427B95046FDF723FD471CBC
:1037C000BFB2099A39465046B047002807DB054486
:1037D00008F101087EE70027E5E73D4681E605465A
:1037E0007FE600BFB496070838390808E8120024BD
:1037F00055DB0708014B1860704700BF780B0024A9
:1038000070B504464518044EAC4200D170BD336813
:1038100014F8010B9847F7E7780B002480B50546AC
:103820000E461746984624F023FFDFF82090034603
:1038300035F036FF0446424649F8003039463046F6
:10384000A84754F8090005F0D5F900BF10000000A2
:10385000044B162200B535F023FF1A504FF0FF300D
:103860005DF804FB140000000F2800B508D90A4BCE
:10387000092235F015FF1A504FF0FF305DF804FBB8
:103880003023BFF35B8F5843044B1B58BFF35B8F50
:10389000002BECD00020F1E714000000840B002482
:1038A00030231149434308330B4430B5BFF35B8FDA
:1038B0001A68BFF35B8FB2B1541EBFF35B8F53E83E
:1038C000005F954204D143E8004CBCF1000FF6D1F3
:1038D000BFF35B8FEAD1012A05D13023584300237F
:1038E0000A180B50536030BD7C0B002438B50446D9
:1038F0001546FFF7B9FF00280BDB094A59B1302301
:1039000003FB04235B688B4205D0064B35F0C8FEF1
:103910001D50002038BD30235C431059FAE700BF2A
:103920007C0B0024140000002DE9F041174E904656
:103930001F46002435463368984202D17368994285
:103940000AD001343036102CF5D1114B17224FF02C
:10395000FF3435F0A5FE1A502046FFF785FF0028FA
:1039600012DBB8F1000F05D0302101FB04510C31FE
:10397000C8F8001017B90120BDE8F081302303FB1F
:10398000045520353D60F6E70020F5E77C0B002468
:103990001400000038B504461546FFF765FF0028FF
:1039A0000DDB3023074A6343D0184068086015B127
:1039B0000C3313442B6030235C43105938BD002076
:1039C000FCE700BF7C0B00244FF0FF334FF0FF32C9
:1039D0001C4870B527F00FFB00251B4BBFF35B8F16
:1039E0001A68BFF35B8F7AB101353033102DF5D1F2
:1039F000164B17224FF0FF3535F052FE1A50114882
:103A000027F0FBFA284670BD3024BFF35B8F6C4370
:103A100053E8000F013043E800010029F8D10C4EB3
:103A2000BFF35B8F331932515A609A6204F10C0074
:103A3000304434F0E2FB04F12000304434F03EFE28
:103A4000DDE700BF18140024840B002414000000DC
:103A50007C0B00242DE9F041302416460F4A4443E4
:103A6000101911514660C362B6B1F368A3B10C4F8F
:103A70000C3435F015FE054650F807801319304612
:103A800040F2051227F0A6FAB8F15F0F04D0EB5907
:103A90005F2B08BF45F80780BDE8F0817C0B002450
:103AA00014000000F8B50546FFF7DEFE002824DB11
:103AB0003024134F4FF0FF324FF0FF336C4304F1CB
:103AC0000C063E44304627F096FA3A1953689B6834
:103AD0008BB1D26A385912F4404F0AD02946984720
:103AE0000446304627F089FA2846FFF7D9FE2046DB
:103AF000F8BD9847F4E71C46F3E74FF0FF34F6E7CC
:103B00007C0B0024044608B5EFF31183102383F3E4
:103B10001288BFF36F8F05F05BFA05F0B5FA2FF04E
:103B20008EFE204605F054F8024827F044FA29F0AA
:103B300069FAFCE731DC07082DE9F84340F26C73C1
:103B4000446905690646E117E41805F10105C768EF
:103B500041F10001022D07F1FF378CBF0023012343
:103B6000E41A61F1000100294EDA6FF4C7704FF4D6
:103B7000C8720023201861F10001FDF7C9FA254B36
:103B80004FF03C0E022D03FB004402468CBF6FF049
:103B900002000920D6E90083B66805444FEAE37CB9
:103BA00099469920634645430520C6FB0E93A9FB21
:103BB0000EC602350EFB0366A30840F26D1E1CEB19
:103BC000080C0EFB043346EBE8763B446427B4FB59
:103BD000F7F4B5FBF0F51B1B0F4C2B44A2FB0420A4
:103BE00004FB010198180D4A41F1000380180C4AAA
:103BF00063F10003A0FB020102FB031110EB0C00B8
:103C000041EB0601BDE8F8834FF4C872002320465B
:103C1000B3E700BF70FEFFFFB13A02009405F5FF65
:103C20008051010010B5FFF787FF002402460B46C4
:103C3000034935F035FD44501046194610BD00BF0C
:103C400014000000054B00205A6822F002025A605E
:103C50005A6822F001025A60704700BF0010005CF1
:103C6000164B82B0D3F8E02042F00072C3F8E02097
:103C7000D3F8E02002F000720192019AD3F8F42008
:103C800042F00202C3F8F420D3F8F42002F002025A
:103C90000092009A0A4AD2F80423D20706D503F507
:103CA0000053D3F89030002002B07047D3F8A02022
:103CB00042F00802C3F8A020F5E700BF0044025814
:103CC0000004005808B505F0C5F905F053F9104B8C
:103CD000104A1A60104BDA6822F03F0242F01602D6
:103CE000DA609A6942F440429A619A699204FCD57A
:103CF0000A4B1A6841F20303B3EB124F06D1084A8C
:103D0000D2F8083143F00103C2F8083108BD00BF02
:103D1000441200240090D003004802580010005CB8
:103D2000008000512DE9F84F814630480F4627F0BA
:103D3000F3FB064670B92E4C0546DFF8B8B04FF0DD
:103D4000010AA0465C4507D3B9F1000F02D04FF03D
:103D5000010AFDB9BDE8F88F237B83B12368DB68D6
:103D60000BB120469847636883F806A023681B6957
:103D700043B9636804222046196827F004FC013621
:103D80001034DFE7204698470028F2D00AFA06F3FD
:103D90001D43F4E7A94695FAA5F4B4FA84F40AFAA7
:103DA00004F3260108EB04146FEA030B25EA03056C
:103DB000237B63B158F806301B698BB94644042253
:103DC000204609EA0B097368196827F0DCFB002D0F
:103DD000E1D11FB16420002134F04FFD4D46B8E71A
:103DE000204698470028F2D1E8E700BF805200241F
:103DF00008A6070818A6070808B5034608462BB109
:103E0000044A136000F0F2FB002008BD6FF01500BB
:103E1000FBE700BF7C0E002400230D4A4FF47A71AB
:103E20000C4810B513700C4A13600C4A1360FFF76E
:103E3000E3FF00F099F80A4B0A4918468B4200D379
:103E400010BD1A1A5C681033121101322271F5E7A5
:103E500026A2002409B50608785200247C520024CA
:103E600008A6070818A6070870B50B4D297841B9B0
:103E70000A4C01200A4EFFF755FFB44202D301233A
:103E80002B7070BD63685B791BB1236820469B680B
:103E900098471034F1E700BF26A2002408A60708BF
:103EA00018A60708014B1868704700BF7C52002411
:103EB00010B50446084827F02FFB5CB1074BBFF351
:103EC0005B8F53E8001F013943E80012002AF8D144
:103ED000BFF35B8F10BD00BF785200247C520024DA
:103EE000174B2DE9F0410546164CDFF85C801B6846
:103EF0009847A860444501D3BDE8F08163685B79C9
:103F00003BB129784B0706D52368294620461B6814
:103F100098471034EEE72E882846C1F3C20700F018
:103F2000C9F9C6F382160246002EEDD00028EBDB5D
:103F300001233946204600F0C7F8B042E9D3E3E751
:103F40007C0E002408A6070818A60708044A054B9B
:103F50009B1AB1EBD30F34BF52F8310000207047E9
:103F6000E8A4070808A607080B4800210B4B1B1AFA
:103F7000043030B5DB080A4C994200D130BD10F84E
:103F800031200131256802F0070225F007052A4398
:103F900044F8042BF0E700BFE8A4070808A60708C8
:103FA000E4120024F8B50B4F06460B4D0024ED1B20
:103FB000ED08AC4203D14FF0FF342046F8BD57F86E
:103FC000340020B13146FDF70BF90028F5D001345B
:103FD000EFE700BFE8A4070808A6070800282DE9B6
:103FE000F047884615461F461DDADFF8A8904FF0C7
:103FF000000A244E5446A6EB09063609B24509F1DB
:10400000100902D12046BDE8F08759F80C0C3B4658
:104010002A46414600790AF1010AFFF7DFFF844290
:1040200038BF0446EAE7184B184AD21AB5EBD20F4C
:1040300025D203EBC5031C79BC4228BF3C46C0B265
:104040000722134E002100EB400056F82530824035
:1040500023EA020304F0070282401343032223FAF7
:1040600002F0033200F00700814238BF01461E2AE9
:10407000F5D123F007030B4346F82530C2E70024AF
:10408000DDE700BF18A60708E8A4070808A6070888
:10409000E412002408A60708F8B5094D0646094BA6
:1040A0000F460024ED1AED08AC4200D3F8BD22B251
:1040B00001343B4600213046A4B227F056FAF3E71C
:1040C00008A60708E8A4070870B14168097973B128
:1040D000002A17DBCBB20C4903EB430351F8220053
:1040E000D84000F0070070474FF0FF31EFE7074975
:1040F0000748401AB2EBD00F3ABF01EBC201087972
:104100001846704704207047E4120024E8A407080A
:1041100008A607082DE9F04F87B004460E469346DF
:1041200004AF98463D6BD7E90EA9BAF1000F22D033
:10413000C7F804901021CDF8009053467A6B002008
:10414000FEF7D4FFB0F5006F014615D31C490B688C
:1041500013F0060F0BD040F2FF7302220393194BAA
:10416000029300231846CDE9003327F08FFA0C376D
:10417000BD46BDE8F08F514604F007040BF0070B75
:10418000E40044EA8B1444EA412444EA0554173518
:104190000D4425F00705ADEB050D04ADBAF1000F98
:1041A00007D0CDF8009053467A6B05F11000FEF76A
:1041B0009DFF434622463146284627F017FAD6E7A8
:1041C0002013002494DC07082DE9F04FC1F34A26A0
:1041D00091B00D4690460C0D07900893002E5AD0D2
:1041E00000270BAB4FF0040B4FF00A0A01933A463D
:1041F0000DAB31464046CDF808B0CDF800A0B14631
:104200000F97CDE90D77FFF743F9B0F5006F03463F
:1042100016D325490B6813F0060F0ED040F2FF733A
:10422000022238460493D8F80430009703931F4BBA
:10423000CDE901733B4627F029FA11B0BDE8F08FB4
:10424000C0F30A0604F117000993184466F35325D6
:1042500020F00700800827F084F9044680B1099B0C
:1042600000F11001124A40460D914946CDF808B0C0
:10427000CDE90E370BABCDE900A30DABFFF708F985
:1042800066F35325089B079920462A4611B0BDE8DE
:10429000F04F27F0ABB904F1170020F007008008B9
:1042A00027F05FF90446EBE720130024CCDC070875
:1042B000C1B50608406820B1034BC01A40F38F0017
:1042C00070474FF0FF307047E41200240EB403B57E
:1042D00003AB0146054853F8042B019305F0AEF8F3
:1042E00002B05DF804EB03B0704700BF07B70608E3
:1042F000CA0605D48B064CBF02490349FFF7E6BF47
:10430000704700BFDD2F08080BDD07082DE9F04FCF
:1043100087B004460D4690469DF844609946002EAD
:1043200000F0A280159B03F0020A03F0010304933E
:10433000159B03F0080B03F48073059327F013F922
:10434000024600283DD095492046FFF7BFFF0746AB
:10435000BAF1000F09D0159B13F0440F33D12A4650
:104360008F492046FFF7B2FF0744049B53B18D4BA2
:1043700020468D4953F826208C4B002A08BF1A4648
:10438000FFF7A4FF059B002B49D0BBF1000F64D1C0
:10439000B8F1000F66D0424685492046FFF796FFE8
:1043A0000546129B3D44002B6DD1149B002B73D10D
:1043B000159BDB0700F1EB8015992046FFF798FF6E
:1043C000D8E00746C4E77B4B18680028CCD07A4B6E
:1043D0004FF47A7A4FF03C0C1B68B5FBF3F5B5FB54
:1043E000F0F100FB11554FF461630AFB05F5B1FBD9
:1043F000F3F2B5FBF0FE03FB121100FB1E55B1FBFF
:10440000FCF30AFB05F50CFB1311B5FBF0F500916D
:1044100020466A49CDE901E5FFF758FFA4E7BBF163
:10442000000F1DD0664B2046664953F82620FFF743
:104430004DFF0546B8F1000F05D042465C492046C5
:10444000FFF744FF0544B9F1000FAAD04A465E4980
:104450002046FFF73BFF0544A3E74FF00009E1E7E3
:104460005D46E7E745469CE7B9F1010F129B06D18F
:10447000002B66D1149B002B7CD000250CE0002B78
:10448000F8D052485EE05248129B2246514926F02D
:1044900038FD149B002B6AD0DFF84481DFF844918B
:1044A000149F4FF0000B15992046102F28BF10279E
:1044B000FFF71EFF5D4547DC139B4FF0010B49469C
:1044C00020461A78FFF702FF1BF0070F03D1414681
:1044D0002046FFF7FBFE5F453DD9139B494620462A
:1044E00013F80B20FFF7F2FE0BF1010BBBF1100FDD
:1044F000EAD14FF0000A38492046DFF8ECB0FFF768
:10450000E5FE5246139B20469A5CA2F120015F29EA
:10451000594628BF2E22FFF7D9FE0AF1010ABAF147
:10452000100F1DD01AF0070F03D141462046FFF7A8
:10453000CDFE57455246E5D841462046FFF7C6FE18
:10454000EBE7234835469FE7414620460BF1010B38
:10455000FFF7BCFEAEE721492046FFF7B7FEC3E7F1
:10456000139B3B441393149BDB1B149398D1002E95
:104570007FF41EAF6268A1682068D2E9002327F0AB
:10458000B4F8636800221A6007B0BDE8F08F074AEC
:1045900020460549FFF79AFE0EE700BF13DD070826
:1045A00017DD0708ACBA07085CE307080EDD07084B
:1045B0003CDD0708885200248452002420DD0708CF
:1045C000C0BA070840DD070846DD070823B706081C
:1045D00007B706083D94040855DD070851DD0708B4
:1045E000323208084BDD07083FEA070800210123A3
:1045F000064A904206D8064A01B901231360054BCA
:1046000018607047400801215B00F2E740420F004C
:104610008452002488520024014B0360022070471A
:10462000D4BA0708104B70B51C680D46B4B10F4BD7
:10463000196800238B4202DB6FF0010070BD224637
:1046400012F8106B864202D001331446F2E7E0689C
:1046500033F0CAFB28B100202C60EFE76FF00C00AC
:10466000ECE76FF01200E9E7800E0024F4BA0708C7
:104670000C4BF0B40C4E5F6A0C4BB34203D36FF09B
:104680008500F0BC70475D68BD4209D31C693CB130
:1046900095F802C00579AC4502D12346F0BC184715
:1046A0002433EAE78C520024E4170024C0170024C6
:1046B0002DE9F04705460E461746124CDFF84880B4
:1046C000DFF84890444503D36FF08500BDE8F087DC
:1046D0006268D9F824309A4212D3A36983B19078E2
:1046E0002979884205D13A4631462846BDE8F04747
:1046F00018475279012A03D13A463146284698474D
:104700002434DFE7C0170024E41700248C5200246F
:104710002DE9F04105460E4617460A4CDFF8288081
:10472000444502D36FF0850009E063690BB9243476
:10473000F6E73A463146284698470028F7D1BDE8C3
:10474000F08100BFC0170024E417002410B5044610
:1047500012F0B8FA10F1780F00D050B9054A20468F
:1047600027F038F8D2F8C43023EA00030020C2F85A
:10477000C43010BD8C520024024B00221A605A60D3
:10478000704700BF4753002470B50B4B0B4CA3423E
:1047900001D3002070BD196A00221E7F0439D5B2F2
:1047A000AE4201D82433F2E7013211F8325085428B
:1047B000F5D10120EEE700BFC0170024E417002464
:1047C000094808B50378C3F341130A3350F823307E
:1047D0003BB100F1080200F110019847C043C00F3F
:1047E00008BD1846FCE700BF8C52002404282DE9C0
:1047F000F14F04460F46DFF89C9016D001282DD1CA
:10480000DFF88C8098F8B93043B3204D00F030FECB
:104810004D4520D2D5F820B04FF0000A2B7F5FFA2B
:104820008AF6B34204D82435F2E7FFF7A5FFE7E79D
:104830000BEBC6060AF1010A307912F043FA024680
:10484000307926F0C7FFD8F8C430002A23EA0003E5
:10485000C8F8C430E2DA002388F8B9300B4D4D4572
:1048600008D30B4B1B6A6BB13946204601B0BDE83B
:10487000F04F1847EB681BB13A4621462846984747
:104880002435ECE701B0BDE8F08F00BFC01700246D
:104890008C520024E417002473B5C4B20D4663069D
:1048A0008DF8074007D02046FFF76EFF78B10D4B1B
:1048B00093F8BA0058B10B4E204655B112F070F97A
:1048C000F3691BB10DF1070108209847012002B0E0
:1048D00070BD12F091F9F369002BF7D00DF10701CB
:1048E0000920F2E78C52002473B586781E4C8DF8AF
:1048F00000600379427943EA0223ADF80230C378BD
:10490000304603F003038DF8043026F063FFD4F83B
:10491000C430054618420BD0304600F08BFD3046BF
:10492000FFF714FF33F0CEFE10B9962033F0CDFF21
:1049300068462DF092FB10F1780F03D010B10020E3
:1049400002B070BD9DF8000012F082F910F1780FEE
:1049500001D00028F3D1D4F8C43001202B4384F8CF
:10496000B900C4F8C430EBE78C5200242DE9F047BD
:10497000A34E04460F461546B369FBB9237803F0EE
:104980001F03012B00F09D80022B00F0048133BB3C
:1049900094F900002A680028617834DA062912D0D8
:1049A00008292BD0D9B901235170137096F8C33060
:1049B0005B0043F00103137002232AE198470028AB
:1049C000DCD100200DE06288100A011F8446012915
:1049D00005D9072803D8D2B2716A0C781CB96FF0D8
:1049E0001500BDE8F0874E78664503D19A4200F085
:1049F0000B8101332144F0E70B780AE196F8BA30D5
:104A00001370012305E101390829E8D801A353F8FF
:104A100021F000BFAD4A0408DF490408BB4A04087E
:104A2000DF490408394A0408DF490408DF4904085B
:104A3000DF490408454A0408A07811F0FDFF00286A
:104A4000BFD0CCE76388756A63BBFFF795FE6388C8
:104A500086F8BA30F369002BB3D06A49032098472F
:104A6000AFE76B78042B10D0052B11D0022B04D1AB
:104A70006F796388BB4208BF01202B781D442B78D7
:104A8000002BEED10028AAD0DFE795F80380F4E7E9
:104A90006388BB42F1D1B8F1000FEED12846FFF791
:104AA00023FFEAE7FF270020B846E8E76388012BE9
:104AB00095D1002386F8C33083E76388012B8ED11C
:104AC000F8E796F8BA30D5F800C0002B87D0756AA1
:104AD000A38894F804E02A46107800283FF47FAFBA
:104AE0005178022904D192F80480F04500F29380B5
:104AF0000244F1E78CF800208CF80120396060E76F
:104B0000154494E00B2A7FF46AAF00274FF0FF08AA
:104B1000BA46C14606E06B78042B0FD0052B21D096
:104B20002B781D442B78002BF5D1F36913B1514636
:104B300007209847002F7FF444AF50E795F8028094
:104B4000A38895F803909845EAD163889945E7D101
:104B5000B8F1070F1CD806EB0803AA46012783F813
:104B6000BB90DDE7A3884345DAD1A3784B450AD053
:104B7000AF78384600F05EFC3846FFF7E7FDB0FA44
:104B800080F77F09CCE72846FFF7AEFE0746C7E768
:104B9000AA460027C4E794F900206378002A18DAAF
:104BA000002B7FF41CAF24792D6863060AD02046C1
:104BB000FFF7EAFD00283FF412AF96F8BA30002B59
:104BC0003FF40DAF294620462DF05CFA00236B70B0
:104BD000F2E6012B08D0032B7FF401AF6388002B92
:104BE0007FF4FDAE012103E0618800297FF4F7AE78
:104BF000A088FFF751FE00287FF4E3AEEFE600BF88
:104C00008C52002446530024022829607FF4F4AE1D
:104C10004B883B60D5E694F9000062780028BFF627
:104C200071AF002A3FF466AF0A2A7FF4D8AE2A7823
:104C3000002A3FF4D4AE697804297FF461AFA978E3
:104C40008B427FF45DAF072B96BF9B19002393F82F
:104C5000BB308CF80030D4E670B5164D95F8B830FE
:104C6000FBB112F06FF9002822DB002400F000FCF9
:104C7000D5F8C430E6B2E340DA0714D404F11002E8
:104C8000D5F8C430D340DB0705D546F08000FFF7E8
:104C90005DFD00280CDB0134102CE9D1002385F8E0
:104CA000B830002004E03046FFF750FD0028E5DA78
:104CB00070BD00BF8C52002413B5164C237DF3B990
:104CC000E26801ABA1688020019226F092FD019A72
:104CD000A3681344A360E3689B1AE3606BB962B1F5
:104CE0002369E2889A4208DD94F8C82093FBF2F128
:104CF00002FB11330BB90123237502B010BD002351
:104D000080201A461946237502B0BDE8104012F003
:104D100001B800BF8C52002430B5002385B0024694
:104D20000D460193002858D1002935D108220B46A1
:104D30000DEB02012DF0B3F9002804DA802011F008
:104D40002FFF05B030BD2A4C029ABDF80E3022600C
:104D5000039A2575626004F13802A2609DF908206B
:104D6000002AC4E903550ADB802B04D9802011F006
:104D700017FF0020E3E713B1C4E90333E1E7FFF7CE
:104D80001FFD0028DAD0E28823699A42D4BFE2608E
:104D9000E360FFF791FFD4E7154C01ABD4E90215AE
:104DA000002D04DC2DF07BF90028CADAC6E72A467C
:104DB0002DF075F90028D9DB019AA3681344A3608C
:104DC000E3689B1AE360002BBBD104F13803A360B6
:104DD000FFF7F6FC0028DCD1B0E78028B1D1044B06
:104DE000DA68002AD5D11B7D002BD2D1A9E700BFFC
:104DF0008C520024054B064A586200209A62054AEC
:104E0000DA62054A1A63054A9A6170478C52002497
:104E10006D4904087146040811470408B1460408A6
:104E20002DE9F3410446474D4FF0FF334FF0FF3279
:104E3000454822F0B1FB95F8B830002B7BD16B6A66
:104E400083B142482C62E8616E6A11F0EFFD11F007
:104E500073FC041E10DA3C4822F016FC204602B017
:104E6000BDE8F08100F0C0F8FFF7C4FF6B6A002BCB
:104E7000E7D14FF0FF34EEE700F01CFB041EEADB45
:104E80007378012B5AD1F379002B57D0002668464E
:104E900085F8C830ADF802308DF804608DF80060F8
:104EA0002DF0DBF8041ED6DB802768468DF80070F5
:104EB0002DF0D3F8041ECEDB254930462DF0C2F884
:104EC000041EC8DB224938462DF0BCF8041EC2DBA4
:104ED000204CDFF8848044451AD3002011F0B8FE3E
:104EE000041EB8DBD5F8C430802043F00103C5F8B8
:104EF000C43011F0ADFE041EADDBD5F8C430002483
:104F000043F48033C5F8C430012385F8B830A2E7F4
:104F1000276A0026227FF3B29A4201D82434DAE7C6
:104F200007EBC30257F83310013610792DF08AF8D9
:104F30000028EFD09DE76FF077048CE76FF0150441
:104F400089E700BF8C520024E0140024ED470408D8
:104F5000194D0408C0170024E417002430B5204B75
:104F60008BB003F1100505AA1868083353F8041C28
:104F70001446AB4203C42246F6D11B78102200210E
:104F800001A8237034F073F812220021154834F080
:104F90006EF8102101A814F081FD00281DDD0828FD
:104FA00001AB1049B8BF082009381A18002012F8C0
:104FB000013F0AAC0130023104EB131403F00F037C
:104FC000082803F1280314F8144C6B4401F8024C30
:104FD00013F8143C01F8013CE9D102480BB030BD94
:104FE00096DD070828A20024734B2DE9F04F93F8B3
:104FF00000B087B0BBF1000F03D0704807B0BDE828
:10500000F08F6E4C00264FF0011AB0463546B1467F
:1050100023783BB902346A4B9C42F3D10123664AA0
:105020001370EAE76378052B1BD8DFE803F08C03E5
:10503000C28C1D39402304A88DF810B0ADF8123091
:105040008DF814B011F084FD40B1082304A8ADF828
:10505000123011F07DFD08B1ADF812B0BDF812307C
:10506000E37123781C44D3E7E378002BF9D1A378CC
:105070006BB108F101085FFA88F8F2E76B689C42AF
:1050800007D024354F4B9D42F8D30020B6E74E4D54
:10509000F8E7AB68002BECD0414620469847E8E79C
:1050A000002DF2D000222B7F9A42EED2296AA078FE
:1050B00001EBC2010B79984201D00132F3E70127DD
:1050C000E078FBB200F003008DF81400207994F82A
:1050D00005C040EA0C20ADF8120094F90200002847
:1050E00026DA07F110004FF0010C0CFA00F010EA7C
:1050F0000A0F24D143F080008DF8100004A801921B
:10510000CDE9021311F024FD039BDDE90121B0B9C3
:105110009DF8102012F0800FA2700A714FF001026A
:1051200017BF1033BA40DBB29A404AEA020A98E746
:105130000120B84010EA0A0F01D11846DCE7013718
:10514000102FBDD1B9E7032E1BD1FFF707FF07468C
:1051500058B1FCF757F8024638B11028394604F127
:105160000200A8BF102233F05AFF23786FF002012B
:10517000E218091B04EB5303D14213D50136F6B2F2
:105180006FE7002EF1D1B9F1000F3FF47EAFA4EB31
:10519000090389F8048089F80230C3F3072389F8EA
:1051A0000330EBE702F801BC13F8010902F8020D25
:1051B000E2E7A14655E700BF27A20024001700241C
:1051C000BD170024E4170024C0170024094B002158
:1051D0001A4610B51C78844205D15C681CB148237E
:1051E00003FB012010BD013148330429F2D1002016
:1051F000F8E700BF585300242DE9F34150F8303C44
:10520000044610F8346C10330AD1036950F8282C86
:10521000980736D5D2B9590715D5002344F8303C44
:1052200054F8303C10330BD054F81C8C54E90975F9
:1052300033F048FA00284FD021462E4833F0F9F9D0
:1052400002B0BDE8F08143F00403236101AB54F8E0
:105250002C1C304626F0CDFA10B16FF01503DDE7B7
:10526000019A54F82C3C134444F82C3C54F8283C44
:105270009B1A44F8283C54F8243C134444F8243C3A
:10528000CEE701AB54F82C1C304611F0C9FD0028C4
:10529000E3D1019D54F82C3C2B4444F82C3C54F8A9
:1052A000283C5B1B44F8283C54F8243C2B4444F82D
:1052B000243C002DB1D030462CF0FFFEB5FBF0F3BE
:1052C00003FB1055002DA8D154F8283C002BA4D086
:1052D000304611F00BFEA3E744F8200CA4F11800AF
:1052E00022F054FA002DABD0424639463046A8474A
:1052F000A6E700BF003800244B1E012B73B50646FD
:105300000D460FD8FFF762FF044668B9012D09D199
:1053100001AB01220DF10301304611F081FD019B2B
:10532000002BF5D102B070BD33F0CCF904F134019B
:1053300008B1012D05D1084602B0BDE87040FFF765
:105340005BBF034802B0BDE8704033F072B900BFE4
:10535000003800242DE9F74F804617469946009102
:1053600026F090FA044600285BD1EFF3118B10234E
:1053700083F31288BFF36F8F2B4900220846002366
:10538000019122F03FFA019968B94822DFF8A0A004
:1053900062430AEB02056E6816F1100F11D1084640
:1053A00022F0F4F905E001344831042CE5D16FF026
:1053B0000B068BF31188BFF36F8F304603B0BDE847
:1053C000F08F0AF802800C9A009B6A610D9A28619E
:1053D0004046AA616FF00F02C5F844906A60C5E9C3
:1053E00002372CF06AFE58B140462CF066FEB7FB3F
:1053F000F0F202FB10771FB16A6C42F004026A649B
:1054000019F0020F08D048220848002602FB04A128
:10541000343133F00EF9CCE7404611F067FD064613
:10542000C7E76FF00F06C8E7745300240038002464
:105430005853002410B5EFF31184102383F312881E
:10544000BFF36F8FFFF7C2FE50B14368103307D12F
:105450006FF08B0300F134014360044833F0E9F846
:1054600084F31188BFF36F8F10BD00BF0038002494
:10547000F8B50E4C04251027EFF3118687F3128838
:10548000BFF36F8F6368103307D16FF08B0304F1A4
:1054900034010748636033F0CCF886F31188BFF31A
:1054A0006F8F013D04F14804E6D1F8BD5853002444
:1054B0000038002470B5094C0025094E31462046BD
:1054C00033F08CF801220135A4F11800483411465C
:1054D00032F0A5FF042DF1D1002070BD8C530024C3
:1054E000F95104080169012381F853300B6833B185
:1054F00091F851301BB10831014833F09AB8704728
:10550000003800240169012381F852300B6833B15F
:1055100091F850301BB10831014833F08AB8704718
:105520000038002470B50569EFF31186102383F36A
:105530001288BFF36F8FD5F8580225F06CFF044630
:1055400086F31188BFF36F8F30B10022002305F17D
:105550002001024822F04CFB204670BD0038002498
:10556000012370B582F850300D46136814463BB1E4
:1055700092F8523023B102F108010D4833F059F886
:10558000D4F858325A89DB889A4205D17DB904F1A2
:1055900020014FF47A7204E004F12001002DF8D0CC
:1055A000002200230248BDE8704022F021BB70BDFC
:1055B0000038002470B504460E46017915461C4893
:1055C00026F03DF9034678B394F90010627800297B
:1055D00022DB202A04D0222A1AD06FF0850016E0A0
:1055E0002968A0F51B7250F8100C0C6843F8104C99
:1055F0008C8823F80C4C897903F80A1C53F8101C8A
:10560000884203D092690AB118689047002070BDA3
:10561000628800F8092CF9E7212ADED1A0F11003F5
:105620002B6007233360F1E76FF01200EFE700BF54
:10563000785400240146044808B526F00DF910B14D
:10564000012300F8073C08BD7854002400210D4ACE
:105650000346A0F85010106883F86412C3F85C0287
:1056600090889279A3F8600203F1540083F86222D3
:105670004FF4007283F86312A3F8661283F868127D
:1056800033F0F5BC08B4070810B500230469C4F86A
:10569000703204F51C720B4BC4F86C02596869B97E
:1056A000C3E9002204F10800074932F097FF04F132
:1056B0002000064932F0D4FF002010BD0A605A6075
:1056C000F0E700BF78540024AFB8060885570408F7
:1056D00030B54FF40033426885B0056942F2A1004D
:1056E0000B4CADF80C1001A9CDE90103002385F89E
:1056F0006532106A0A22007926F07BF895F8653247
:1057000023B9012032F060FB013CF7D105B030BD78
:10571000A186010073B50023046910258DF80710D8
:1057200084F85030EFF3118685F31288BFF36F8F42
:1057300001220DF10701D4F8580225F06CFE86F322
:105740001188BFF36F8F01280AD032F0BBFF10B968
:1057500094F869326BB9094B1A780AB901221A70A8
:105760000A22002304F12001054822F041FA02B088
:1057700070BD00210A2033F080F8D3E73AA200245C
:1057800000380024F0B5D0F84C3285B005465B688F
:105790001B6A1F7D384626F075F8064660BB95F8F3
:1057A00046324BB3D5F838020146C38831F80A2F88
:1057B0009B1A03AA9BB2B3F5007F28BF4FF4007376
:1057C00025F0DAFD0446B8B1C0F3080385F830606F
:1057D00003B9441EA5F120032246039938460193DC
:1057E000064B00930223FFF7B5FDD5F83802224699
:1057F00000F10A0125F0F6FD05B0F0BD6155040881
:1058000037B514460A1E054622DD04F15401D4F8CA
:10581000540225F000FE012384F8513023683BB187
:1058200094F8533023B104F10801114832F001FF1C
:10583000D4F854229388918912695B1A9BB2D31AC7
:10584000B3F5007F04D2012384F8683203B030BD81
:1058500094F86632002BF9D0064B4FF4007204F135
:1058600054012846009301230194FFF773FDEDE7EF
:10587000003800240158040873B50D4601461C4841
:1058800025F0D2FF10B30368691EA0F51B745E6893
:1058900005291BD8DFE801F01C1A031C222694F806
:1058A000661299B90123224684F86632336A187B5E
:1058B000FFF7A6FF94F8502042B9336A1146187DCD
:1058C0000C4B019400930223FFF744FD02B070BD1E
:1058D000204602B0BDE87040FFF7B8BE012384F84F
:1058E0006732F3E794F86732002BEFD00023F6E736
:1058F00078540024615504080369044A8068904282
:1059000006BF002099616FF015007047B0A307082B
:1059100037B5094D00244FF0FF334FF4806207493B
:105920002846009422F026F90549284622F058FA24
:10593000204603B030BD00BF00380024808F012412
:10594000CEDD070810B5044615F01CF803490246E1
:10595000204626F0C8FA002010BD00BFEEDD070883
:1059600037B51346002205460A21019201AA58685C
:1059700001F0DCFD019C4CB920EAE0700A2180FBBB
:10598000010132F07AFF204603B030BD22460349C0
:10599000284626F0C4FA019CF5E700BF1ADE070886
:1059A000034A044908B526F09EFA002008BD00BF4E
:1059B00004DF07080BDF0708F7B517460023054685
:1059C00001AA0A21B868019301F0B0FD1749C6B2D7
:1059D000284626F096FA019C44B1224614492846EE
:1059E00026F09DFA019C204603B0F0BD042E09D993
:1059F000324610492846012426F091FA284626F01E
:105A0000CDFAF0E77868FEF7CDFA021E07DA7A6879
:105A1000284609496FF0150426F081FAE3E733467A
:105A200012B22146204625F0A0FDDCE736DF07084C
:105A30009CDF0708C3DF0708DADF0708002307B584
:105A40000090694604488DF8043023F023F89DF84F
:105A5000040003B05DF804FB1FBB060810B5044644
:105A600014F072FF07490246204626F03CFA204611
:105A7000054926F038FA2146044823F025F800208D
:105A800010BD00BF65E0070884E00708915A0408CC
:105A900070B58EB004460D46D0F89C6032F01BFE07
:105AA000224A034633F0FCFD1058214A2149002BBD
:105AB00018BF1A46234600921F4A844218BF0A465E
:105AC00028461E4926F00FFA28461D49D4E90A2324
:105AD000CDE9002394F90E30227B26F004FA06A9C2
:105AE0002022204622F08CF9636E02461549284692
:105AF00026F0F9F905A9204632F00EFE024628B13B
:105B00001149284626F0EFF90EB070BD059B6422BE
:105B10002846F11A4A4300910C49B2FBF6F2CDE94E
:105B20000162324626F0DFF9EEE700BF1000000008
:105B30008EE0070832320808302E080891E0070886
:105B40009DE00708C9E00708E0E007080DE1070845
:105B5000F0B591B0002504461C2208AF294609A8DB
:105B6000144E33F084FA1A222021384633F07FFA9B
:105B70002146114822F0A8FF07AA4FF400613046E1
:105B800032F0BEFD079A64232046C2F500610097FB
:105B90004B43DB0A05934FF40063CDE90313CDE9D2
:105BA000013206492B46A6F1800226F09CF92846D0
:105BB00011B0F0BD007C0224C15B04085EE107085F
:105BC00070B5044688B00D46D0F89C6007A932F045
:105BD000A3FD024628B10F49284626F084F908B0F3
:105BE00070BD204632F077FD079B64220096F11AC3
:105BF0004A43B2FBF6F2CDE90131074B07490028D1
:105C000018BF03462846CDE90362224626F06BF909
:105C1000E5E700BFE0E007088EE00708A7E1070816
:105C200038B51346054610220021586823F042FC7F
:105C30000446FFF703FF38B922460E49284626F0EE
:105C40006EF96FF0150038BD0B4B33F029FD1B5872
:105C50009C4204D10949284626F061F9F1E7204623
:105C600022F096FA28462246054926F03CF9002003
:105C7000E9E700BF0BE207081000000026E2070872
:105C80004EE2070838B51346054610220021586831
:105C900023F010FC0446FFF7D1FE38B922460E4926
:105CA000284626F03CF96FF0150038BD0B4B33F059
:105CB000F7FC1B589C4204D10949284626F02FF9CD
:105CC000F1E7204622F06AFB28462246054926F0E5
:105CD0000AF90020E9E700BF0BE207081000000006
:105CE00085E20708ABE2070838B5134605461022DF
:105CF0000021586823F0DEFB0446FFF79FFE38B909
