:020000040804EE
:10000000586B0324F58F040841850408E18F040828
:10001000E18F0408E18F0408E18F0408000000006C
:100020000000000000000000000000001D91040816
:10003000E18F04080000000089900408E918050811
:1000400025930408259304082593040825930408A0
:100050002593040825930408259304082593040890
:100060002593040825930408259304082593040880
:100070002593040825930408259304082593040870
:100298009FED0B7B41EC160B9FED0B5B26EE077B6E
:1002A800BCEEC77BB8EE474BA4EE456BFCEEC67BB5
:1002B80017EE101A17EE900A704700BFAFF30080D0
:1002C800000000000000F03D000000000000F041C8
:1002D800002902D0B0FBF1F0704708B14FF0FF30B1
:1002E80000F01EB80029F8D00246B0FBF1F000FB80
:1002F80011217047002902D090FBF1F070470028C7
:10030800C8BF6FF00040B8BF4FF0004000F008B819
:100318000029F4D0024690FBF1F000FB1121704750
:10032800704700BF81F0004102E000BF83F0004346
:1003380030B54FEA41044FEA430594EA050F08BF78
:1003480090EA020F1FBF54EA000C55EA020C7FEA3C
:10035800645C7FEA655C00F0E2804FEA5454D4EBB9
:100368005555B8BF6D420CDD2C4480EA020281EA83
:10037800030382EA000083EA010180EA020281EABB
:100388000303362D88BF30BD11F0004F4FEA01310D
:100398004FF4801C4CEA113102D0404261EB41011C
:1003A80013F0004F4FEA03334CEA133302D05242A2
:1003B80063EB430394EA050F00F0A780A4F101045E
:1003C800D5F1200E0DDB02FA0EFC22FA05F2801898
:1003D80041F1000103FA0EF2801843FA05F359417E
:1003E8000EE0A5F120050EF1200E012A03FA0EFCFD
:1003F80028BF4CF0020C43FA05F3C01851EBE37127
:1004080001F0004507D54FF0000EDCF1000C7EEB43
:1004180000006EEB0101B1F5801F1BD3B1F5001F81
:100428000CD349085FEA30004FEA3C0C04F10104A0
:100438004FEA445212F5800F80F09A80BCF1004FC9
:1004480008BF5FEA500C50F1000041EB045141EA4B
:10045800050130BD5FEA4C0C404141EB0101013C14
:1004680028BFB1F5801FE9D291F0000F04BF014603
:100478000020B1FA81F308BF2033A3F10B03B3F1D5
:1004880020020CDA0C3208DD02F1140CC2F10C0265
:1004980001FA0CF021FA02F10CE002F11402D8BFC3
:1004A800C2F1200C01FA02F120FA0CFCDCBF41EA8F
:1004B8000C019040E41AA2BF01EB0451294330BD5E
:1004C8006FEA04041F3C1CDA0C340EDC04F114043B
:1004D800C4F1200220FA04F001FA02F340EA030012
:1004E80021FA04F345EA030130BDC4F10C04C4F158
:1004F800200220FA02F001FA04F340EA0300294638
:1005080030BD21FA04F0294630BD94F0000F83F481
:10051800801306BF81F480110134013D4EE77FEA64
:10052800645C18BF7FEA655C29D094EA050F08BFB0
:1005380090EA020F05D054EA000C04BF1946104691
:1005480030BD91EA030F1EBF0021002030BD5FEAD5
:10055800545C05D14000494128BF41F0004130BDFD
:1005680014F580043CBF01F5801130BD01F0004551
:1005780045F0FE4141F470014FF0000030BD7FEAC4
:10058800645C1ABF194610467FEA655C1CBF0B46BF
:10059800024650EA013406BF52EA033591EA030FD6
:1005A80041F4002130BD00BF90F0000F04BF0021CE
:1005B800704730B54FF4806404F132044FF0000501
:1005C8004FF0000150E700BF90F0000F04BF00217A
:1005D800704730B54FF4806404F1320410F00045E0
:1005E80048BF40424FF000013EE700BF42004FEADB
:1005F800E2014FEA31014FEA02701FBF12F07F4358
:1006080093F07F4F81F06051704732F07F4208BF0E
:10061800704793F07F4F04BF41F40021704730B515
:100628004FF4607401F0004521F000411CE700BF61
:1006380050EA010208BF704730B54FF000050AE0E4
:1006480050EA010208BF704730B511F0004502D5E5
:10065800404261EB41014FF4806404F132045FEAE7
:10066800915C3FF4D8AE4FF003025FEADC0C18BF90
:1006780003325FEADC0C18BF033202EBDC02C2F182
:10068800200300FA03FC20FA02F001FA03FE40EA14
:100698000E0021FA02F11444BDE600BF70B54FF018
:1006A800FF0C4CF4E06C1CEA11541DBF1CEA1355F6
:1006B80094EA0C0F95EA0C0F00F0DEF82C4481EA5E
:1006C800030621EA4C5123EA4C5350EA013518BF7E
:1006D80052EA033541F4801143F4801338D0A0FB6B
:1006E80002CE4FF00005E1FB02E506F00042E0FB18
:1006F80003E54FF00006E1FB03569CF0000F18BF1E
:100708004EF0010EA4F1FF04B6F5007F64F54074C5
:1007180004D25FEA4E0E6D4146EB060642EAC62158
:1007280041EA55514FEAC52040EA5E504FEACE2EC5
:10073800B4F1FD0C88BFBCF5E06F1ED8BEF1004FC8
:1007480008BF5FEA500E50F1000041EB045170BD44
:1007580006F0004646EA010140EA020081EA030188
:10076800B4EB5C04C2BFD4EB0C0541EA045170BD84
:1007780041F480114FF0000E013C00F3AB8014F1FE
:10078800360FDEBF002001F0004170BDC4F1000447
:10079800203C35DA0C341BDC04F11404C4F12005C8
:1007A80000FA05F320FA04F001FA05F240EA020023
:1007B80001F0004221F0004110EBD37021FA04F659
:1007C80042EB06015EEA430E08BF20EAD37070BD13
:1007D800C4F10C04C4F1200500FA04F320FA05F072
:1007E80001FA04F240EA020001F0004110EBD37074
:1007F80041F100015EEA430E08BF20EAD37070BDE4
:10080800C4F1200500FA05F24EEA020E20FA04F3BC
:1008180001FA05F243EA020321FA04F001F000416B
:1008280021FA04F220EA020000EBD3705EEA430EDC
:1008380008BF20EAD37070BD94F0000F0FD101F00B
:100848000046400041EB010111F4801F08BF013C44
:10085800F7D041EA060195F0000F18BF704703F082
:100868000046520043EB030313F4801F08BF013D09
:10087800F7D043EA0603704794EA0C0F0CEA1355C5
:1008880018BF95EA0C0F0CD050EA410618BF52EA7F
:100898004306D1D181EA030101F000414FF0000085
:1008A80070BD50EA410606BF1046194652EA430693
:1008B80019D094EA0C0F02D150EA013613D195EA07
:1008C8000C0F05D152EA03361CBF104619460AD14F
:1008D80081EA030101F0004141F0FE4141F4700159
:1008E8004FF0000070BD41F0FE4141F4780170BD49
:1008F80070B54FF0FF0C4CF4E06C1CEA11541DBFAE
:100908001CEA135594EA0C0F95EA0C0F00F0A7F8AF
:10091800A4EB050481EA030E52EA03354FEA0131DC
:1009280000F088804FEA03334FF0805545EA1313EF
:1009380043EA12634FEA022245EA111545EA1065B7
:100948004FEA00260EF000419D4208BF964244F14E
:10095800FD0404F5407402D25B084FEA3202B61A6D
:1009680065EB03055B084FEA32024FF480104FF441
:10097800002CB6EB020E75EB030E22BFB61A7546B5
:1009880040EA0C005B084FEA3202B6EB020E75EB48
:10099800030E22BFB61A754640EA5C005B084FEAB0
:1009A8003202B6EB020E75EB030E22BFB61A75467D
:1009B80040EA9C005B084FEA3202B6EB020E75EB88
:1009C800030E22BFB61A754640EADC0055EA060E49
:1009D80018D04FEA051545EA16754FEA06164FEA8C
:1009E800C30343EA52734FEAC2025FEA1C1CC0D138
:1009F80011F4801F0BD141EA00014FF000004FF0C5
:100A0800004CB6E711F4801F04BF01430020B4F185
:100A1800FD0C88BFBCF5E06F3FF6AFAEB5EB030C3D
:100A280004BFB6EB020C5FEA500C50F1000041EB3A
:100A3800045170BD0EF0004E4EEA113114EB5C0407
:100A4800C2BFD4EB0C0541EA045170BD41F48011DA
:100A58004FF0000E013C90E645EA060E8DE60CEAE2
:100A6800135594EA0C0F08BF95EA0C0F3FF43BAFFF
:100A780094EA0C0F0AD150EA01347FF434AF95EAB6
:100A88000C0F7FF425AF104619462CE795EA0C0F9A
:100A980006D152EA03353FF4FDAE1046194622E767
:100AA80050EA410618BF52EA43067FF4C5AE50EA41
:100AB80041047FF40DAF52EA43057FF4EBAE12E731
:100AC8004FF0FF3C06E000BF4FF0010C02E000BF12
:100AD8004FF0010C4DF804CD4FEA410C7FEA6C5CF5
:100AE8004FEA430C18BF7FEA6C5C1BD001B050EA98
:100AF800410C0CBF52EA430C91EA030F02BF90EA83
:100B0800020F0020704710F1000F91EA030F58BF41
:100B1800994208BF90422CBFD8176FEAE37040F0A3
:100B2800010070474FEA410C7FEA6C5C02D150EA41
:100B3800013C07D14FEA430C7FEA6C5CD6D152EAFC
:100B4800033CD3D05DF8040B704700BF84461046C1
:100B580062468C461946634600E000BF01B5FFF7C0
:100B6800B7FF002848BF10F1000F01BD4DF808ED90
:100B7800FFF7F4FF0CBF012000205DF808FB00BF61
:100B88004DF808EDFFF7EAFF34BF012000205DF8BB
:100B980008FB00BF4DF808EDFFF7E0FF94BF012008
:100BA80000205DF808FB00BF4DF808EDFFF7CEFF09
:100BB80094BF012000205DF808FB00BF4DF808ED48
:100BC800FFF7C4FF34BF012000205DF808FB00BF19
:100BD8004FEA410C7FEA6C5C02D150EA013C0AD131
:100BE8004FEA430C7FEA6C5C02D152EA033C02D123
:100BF8004FF0000070474FF0010070474FEA410284
:100C080012F5001215D211D56FF47873B3EB625256
:100C180012D94FEAC12343F0004343EA505311F07D
:100C2800004F23FA02F018BF404270474FF000000F
:100C3800704750EA013005D111F0004008BF6FF04D
:100C4800004070474FF00000704700BF4A0011D2C3
:100C580012F5001211D20DD56FF47873B3EB62520E
:100C68000ED44FEAC12343F0004343EA505323FA1A
:100C780002F070474FF00000704750EA013002D18F
:100C88004FF0FF3070474FF0000070474FEA4102C5
:100C9800B2F1E04324BFB3F5001CDCF1FE5C0DD9D2
:100CA80001F0004C4FEAC0024CEA5070B2F1004F1C
:100CB80040EB830008BF20F00100704711F0804F1F
:100CC80021D113F13872BCBF01F00040704741F4E4
:100CD80080114FEA5252C2F11802C2F1200C10FAE8
:100CE8000CF320FA02F018BF40F001004FEAC123CC
:100CF8004FEAD32303FA0CFC40EA0C0023FA02F370
:100D08004FEA4303CCE77FEA625307D150EA013345
:100D18001EBF4FF0FE4040F44000704701F0004015
:100D280040F0FE4040F40000704700BF80F00040F3
:100D380002E000BF81F0004142001FBF5FEA4103AB
:100D480092EA030F7FEA226C7FEA236C6AD04FEAAB
:100D58001262D2EB1363C1BFD218414048404140F0
:100D6800B8BF5B42192B88BF704710F0004F40F4A2
:100D7800000020F07F4018BF404211F0004F41F4BE
:100D8800000121F07F4118BF494292EA030F3FD08A
:100D9800A2F1010241FA03FC10EB0C00C3F120039D
:100DA80001FA03F100F0004302D5494260EB40002C
:100DB800B0F5000F13D3B0F1807F06D340084FEA97
:100DC800310102F10102FE2A51D2B1F1004F40EB8C
:100DD800C25008BF20F0010040EA030070474900F4
:100DE80040EB0000013A28BFB0F5000FEDD2B0FA91
:100DF80080FCACF1080CB2EB0C0200FA0CF0AABFB4
:100E080000EBC25052421843BCBFD0401843704751
:100E180092F0000F81F4000106BF80F40000013257
:100E2800013BB5E74FEA41037FEA226C18BF7FEA2E
:100E3800236C21D092EA030F04D092F0000F08BF70
:100E48000846704790EA010F1CBF0020704712F057
:100E58007F4F04D1400028BF40F00040704712F196
:100E680000723CBF00F50000704700F0004343F0FB
:100E7800FE4040F4000070477FEA226216BF084631
:100E88007FEA23630146420206BF5FEA412390EAF4
:100E9800010F40F4800070474FF0000304E000BFEA
:100EA80010F0004348BF40425FEA000C08BF70479B
:100EB80043F0964301464FF000001CE050EA01025F
:100EC80008BF70474FF000030AE000BF50EA010274
:100ED80008BF704711F0004302D5404261EB410161
:100EE8005FEA010C02BF84460146002043F0B64386
:100EF80008BFA3F18053A3F50003BCFA8CF2083AAB
:100F0800A3EBC25310DB01FA02FC634400FA02FCB3
:100F1800C2F12002BCF1004F20FA02F243EB0200BA
:100F280008BF20F00100704702F1200201FA02FC1C
:100F3800C2F1200250EA4C0021FA02F243EB02000F
:100F480008BF20EADC7070474FF0FF3C06E000BFA6
:100F58004FF0010C02E000BF4FF0010C4DF804CD3A
:100F68004FEA40024FEA41037FEA226C18BF7FEA4A
:100F7800236C11D001B052EA530C18BF90EA010F4C
:100F880058BFB2EB030088BFC81738BF6FEAE170DB
:100F980018BF40F0010070477FEA226C02D15FEA77
:100FA800402C05D17FEA236CE4D15FEA412CE1D0E3
:100FB8005DF8040B704700BF844608466146FFE7AA
:100FC8000FB5FFF7C9FF002848BF10F1000F0FBD8C
:100FD8004DF808EDFFF7F4FF0CBF012000205DF885
:100FE80008FB00BF4DF808EDFFF7EAFF34BF01200A
:100FF80000205DF808FB00BF4DF808EDFFF7E0FFA3
:1010080094BF012000205DF808FB00BF4DF808EDF3
:10101800FFF7D2FF94BF012000205DF808FB00BF56
:101028004DF808EDFFF7C8FF34BF012000205DF838
:1010380008FB00BF4FEA40024FEA41037FEA226CF7
:1010480002D15FEA402C08D17FEA236C02D15FEA23
:10105800412C02D14FF0000070474FF0010070475B
:101068007BB972B90029BEBF00204FF0004106E0ED
:1010780008BF00281CBF6FF000414FF0FF30FFF79A
:101088004FB9ADF1080C6DE904CE002909DB002B3E
:101098001ADB00F092F8DDF804E0DDE9022304B081
:1010A8007047404261EB4101002B1BDB00F085F8E3
:1010B800DDF804E0DDE9022304B0404261EB4101C0
:1010C800524263EB43037047524263EB430300F021
:1010D80074F8DDF804E0DDE9022304B0404261EB76
:1010E80041017047524263EB430300F066F8DDF8B4
:1010F80004E0DDE9022304B0524263EB4303704786
:1011080053B94AB9002908BF00281CBF4FF0FF3166
:101118004FF0FF30FFF704B9ADF1080C6DE904CECC
:1011280000F04BF8DDF804E0DDE9022304B0704775
:1011380010F8012B11F8013B012A28BF9A42F7D079
:10114800D01A7047034611F8012B03F8012B002A27
:10115800F9D17047034613F8012B002AFBD1181A5E
:1011680001387047430803F05533C01A00F0333391
:10117800800800F03330184400EB10104FF00133B2
:1011880000F00F305843000E704708B502460B4672
:1011980043EC172BB5EEC07BF1EE10FA03D4BDE893
:1011A8000840FFF775B8B1EE477B51EC170BFFF716
:1011B8006FF8404261EB410108BD2DE9F0478646D2
:1011C8008C460846089E154674461946002B40F082
:1011D800C2808542B2FA82F245D94AB1C2F12003EF
:1011E80000FA02FC2EFA03F3954043EA0C0C9440F3
:1011F8004FEA154EA8B2BCFBFEF8230C0EFB18CC28
:1012080008FB00F943EA0C43994528D9EB1808F183
:10121800FF3704D2994502D9A8F102072B44A3EB62
:101228000903A4B2B3FBFEFC0EFB1C330CFB00F05D
:1012380044EA0344A04214D92C190CF1FF3304D218
:10124800A04202D9ACF102032C44241A43EA074015
:101258001EB1D440002334607360BDE8F087474670
:10126800DDE76346F1E792BB431B01214FEA154EC8
:10127800AFB2B3FBFEFC200C0EFB1C330CFB07F8D3
:1012880040EA0343984562D9EB180CF1FF3004D2C9
:10129800984502D9ACF102002B44A3EB0803A4B291
:1012A800B3FBFEFC0EFB1C330CFB07F744EA0344BC
:1012B800A7424ED92C190CF1FF3304D2A74202D908
:1012C800ACF102032C44E41B43EA0040C0E7C2F13E
:1012D800200320FA03F1954090402EFA03F30343CC
:1012E8004FEA154EAFB2B1FBFEFC0EFB1C10190CF9
:1012F8000CFB07F841EA0041884504FA02F422D9B8
:1013080069180CF1FF3004D2884502D9ACF102000B
:101318002944A1EB08019BB2B1FBFEFC0EFB1C119A
:101328000CFB07F743EA01439F420ED9EB180CF177
:10133800FF3104D29F4202D9ACF102012B44DB1BDE
:1013480041EA004192E76046E3E76146F7E7604615
:10135800A3E76346B7E7834206D916B900210846D2
:101368007BE7C6E900E0F9E7B3FA83F78FB9834270
:1013780001D3724508D8BEEB020460EB03030120D9
:101388009C461EB9002168E73846FAE7C6E9004CD2
:10139800F8E7C7F1200CBB4022FA0CF41C432EFAE4
:1013A8000CF120FA0CF3B84001434FEA14490EFA45
:1013B80007F5B3FBF9F81FFA84FE09FB18300B0C8C
:1013C80008FB0EFA43EA00439A4502FA07F240D9AD
:1013D800E31808F1FF3004D29A4502D9A8F10200B7
:1013E8002344A3EB0A0389B2B3FBF9F809FB1833CA
:1013F80008FB0EFE41EA03418E452CD9611808F11D
:10140800FF3304D28E4502D9A8F10203214443EAEE
:101418000040A0FB0298A1EB0E014145CE46434691
:1014280002D306D14D4504D2B9EB020E68EB040392
:101438000138002EA6D0B5EB0E0261EB030101FACC
:101448000CFC22FA07F34CEA0303F940C6E9003121
:1014580098E74046C5E74346D9E70000000000008A
:101468002DE9F047044688B0884617461FF036FA3B
:101478000A220023FFF744FEB8F1010F06460D4685
:1014880007D102460B462046274919F040FB0020A9
:1014980011E07F6825483946FFF74AFE70B13946A2
:1014A8002348FFF745FE48B120463A46214919F03E
:1014B8004AFB6FF0040008B0BDE8F08730462946C3
:1014C80017A3D3E90023FFF7CBFD06460D461046C8
:1014D8001946194A0023FFF7C3FD80460F461046F8
:1014E80019464EF660220023FFF7BAFD8246894668
:1014F800104619464FF47A720023FFF7B1FDCDE983
:1015080002A9CDE90623CDE9040132462B460B4951
:101518002046CDE9008719F0FAFAB8E7AFF3008062
:10152800005C260500000000315B0608425B0608E7
:10153800455B06084E5B060880EE3600665B0608CB
:1015480000292DE9F04F8BB0D0F81080446805DDF4
:101558006FF0150738460BB0BDE8F08FD8F80030AB
:10156800D4E90069002B4BD1A389A5680793B36818
:1015780008AA494630465B689847071EEADB4FF0E1
:10158800FF3ADDE9087BA5FB072305FB0B33059232
:10159800049333A3D3E90023DDE90410FFF7B0FD7A
:1015A800059B049A9A45304B0690934102D26FF0FE
:1015B8008507CFE76B08A3FB075703FB0B77284684
:1015C80027A3D3E900233946FFF79AFDAA45264AFF
:1015D8000346BA41EBD30699B2689942B8D3079942
:1015E8003046009149461568069AA84707460028DC
:1015F800B0D1208A1EF0DEFA012388F80430A9E76A
:10160800B36808AA494630465B68984707460028E9
:10161800A0D10346D8F80020DDE90801FFF770FDE6
:101628001A430DD011490B6813F0060F08D0104B60
:10163800022238460097CDE901733B460AF040FF85
:10164800D8F800200023DDE90801FFF759FDA58936
:101658000246D4E90001836800951D685308C4E771
:1016680000CA9A3B00000000FFC99A3BF00800241A
:101678000E990608000000002DE9F04F44F681633A
:101688002DED028B89B050F8044CADF812300DF1F5
:10169800110201230DF1120120461BF028FF00283A
:1016A80078DB9DF911309DF81150002B72DA544BFC
:1016B80005A920461A889B78ADF8142003228DF8D6
:1016C80016301BF047FF002864DB06AF05F00F0556
:1016D8004FF00008B9463E465FFA88F39D4244D869
:1016E8004FF000089FED448BC1465FFA88F39D4296
:1016F80055D84FF0000ADFF81091424F9FED3E8B0E
:1017080099F800205FFA8AF39A426DD92DB117F83B
:1017180033109DF81820914224D007EBC3034FF0F3
:10172800000803212046B3F803B04246CDF80080F4
:101738008DED028BB3F8013008F09AF85B46012270
:1017480003212046CDF800808DED028B08F090F83B
:10175800012143464FF4A572204600918DED028B7E
:1017680008F086F80AF1010ACAE74FEAC8234A4690
:101778000DF11201204603F59E4308F1010809F115
:10178800080943F08103ADF8123008231BF0AFFEBF
:101798000028A1DA09B0BDEC028BBDE8F08FB7F8DC
:1017A80003A000220321CDF80090204608F101088B
:1017B80008378DED028B37F8073C08F059F8534687
:1017C800012203212046CDF800908DED028B08F010
:1017D8004FF801234FF4A5722046194600938DED6A
:1017E800028B08F045F880E7334689F8005003CBB0
:1017F80038607960CEE700BFFFFFFFFFFFFFFFFF04
:1018080073AA0608015A0024005A002400000000A8
:101818002DE9F84F2DED028B81468846002219F8F4
:101828000230202B02F1010100F0A381A3F109008D
:10183800042840F29E812B2B0D4633D02D2B36D019
:101848001846042440F02003692B32D06E2B61D057
:1018580000224FF00A0A964694461346114614F49D
:1018680000666CD040F02007A7F1610BBBF1050FB3
:1018780065D8573FFFB2BA4540F3F58044F080067B
:10188800E005B6B269D5F40506F400707AD5002FE4
:1018980018BF4CF0010C00B9013219F805003446A4
:1018A8000135DCE7042419F80100951CCAE7442433
:1018B800F9E79FEDB18BB64B13F8011B51B119F83D
:1018C800052042F020028A4205F1010026D0B14AE3
:1018D800934230D1B4EE488BF1EE10FA0AD019F8E1
:1018E8000530282B06D1013519F80530292B05F1CB
:1018F800010515D1630601D5B1EE488BB8F1000F8B
:1019080002D04D44C8F80050B0EE480BBDEC028B35
:10191800BDE8F88F9FED9A8B9F4BCDE70546CBE747
:1019280023F02002413A192ADED9A3F13002092A0C
:10193800DAD95F2BD8D09FED948B0025DEE7A0F194
:101948003007FFB257452DDA44F0800614F4807052
:10195800B6B298D1BAF10A0F06D0BEF10F0F92DDD8
:1019680044F4C076B6B28EE7BEF1100F8BDD44F4B6
:10197800C076042FB6B286D9052F08BF07464FF0A8
:10198800020C80E700B1013AAAFB0334FB180AFBFA
:10199800014444F1000153EA01003FF47EAF0EF127
:1019A800010E7AE7FE2F5ED1A70558D52006C2D5CD
:1019B800002E40F09B8053EA010005F1FF3500F04E
:1019C800D580200540F1B6803632B1F5800FC0F0E1
:1019D8009680724FB1F5000F80F09580BA42C0F240
:1019E80092804CEA030303F00306032E084604D052
:1019F80003F00606062E40F08F80043341F1000004
:101A0800B0F5000FC0F088800132B2F5806F80F227
:101A1800AA8000234FF4801102F2FF3221F48011D2
:101A28001E4641EA025747EC186BB0EE480B17F018
:101A38001DFE0138022804D81FF05CFC584B2222F6
:101A48001A50B0EE480B17F011FE013802283FF685
:101A580051AF1FF04FFC524B22221A504AE744F470
:101A68000076B6B219E740F02000782804F0800725
:101A780009D147B153EA010A05D144F40066B6B268
:101A88004FF0100A09E7002F3FF455AF86B39200D4
:101A9800702686428FD119F805002B2805F101061A
:101AA80004D02D2826D144F48064A4B219F8060085
:101AB800A0F13006092E3FF67EAFAE1C354640F247
:101AC800D34A00264FF00A0B5645DCBF30380BFBD3
:101AD800060619F80500A0F13007092F05F10105E0
:101AE800F2D9670548BF7642324464E72E20CEE734
:101AF8006526CEE7A0F13007092FDFD95BE7DB18B1
:101B08004941013A61E75E0846EAC17603F00103FC
:101B18003343490801325DE7B2F5806F23DA9B0849
:101B2800B0F5800F43EA80734FEA9001BFF474AFB9
:101B3800002275E70EEB020010F5A27F10DDB0F56C
:101B48009B7F10DA03F0010040EA0C0001308008A6
:101B5800181841F1000100F027F8B0EE408B70E74B
:101B68009FED098B6DE79FED048B6AE79FED068B70
:101B7800C0E60A4653E600BF000000000000F07F00
:101B8800000000000000F87F0000000000000000D6
:101B98004CBB06084FBB060849BB060802FCFFFF02
:101BA80014000000000000002DE9FF47804616469B
:101BB8000F46002900F0A280B1FA81F4341B002EF0
:101BC80004F10A04C0F2A280304617F031FC044444
:101BD800304617F033FCA4EB060905466946304643
:101BE80017F054FCA9EB05037D336A464046394695
:101BF8001FF0A5F9A64282460D4600F38380B9F18D
:101C08003F0F00F381804FF0FF33A9F1200003FA62
:101C180000F003FA09F2C9F12001024323FA01F1A5
:101C28000A4303FA09F328EA030327EA02021343E3
:101C38000CBF01200020002D00F08A80B5FA85F342
:101C4800E31A03F23E4340F2FE72934200F38980A6
:101C5800002B23EAE376CCBF32460122121BA2F204
:101C68003341C1F1200CA2F23447A2F253442AFABC
:101C780001F305FA0CFC43EA0C0325FA04F4C7F156
:101C8800200EA2F2544C234305FA0EFE2AFA07F45A
:101C980025FA0CFC44EA0E0444EA0C0414F0010F83
:101CA80025FA01F1C7F1200CA2F2544254D0A8B190
:101CB8004FF0FF3000FA02F200FA07F4144320FA5A
:101CC8000CF2B84014432AEA000A03F0010225EA9C
:101CD80004054AEA020A5AEA050A3DD0013341F1ED
:101CE8000002C2F3130253EA020138D0184642EA4E
:101CF800065141EC100B04B0BDE8F087B0FA80F44F
:101D080020345BE7012096E7002094E7C6F100093C
:101D1800484617F093FB241A484617F08FFBA61B7A
:101D28000546694648462E4417F024FC06F17C0314
:101D38006A46404639461FF002F982460D4640463B
:101D4800394617F08BFB81458CBF0020012072E7D4
:101D5800BAFA8AF3203373E7C1F31302C6E70136F0
:101D6800C4E79FED010BC6E7000000000000F07F0C
:101D780010EE902A764922F000438B4217D9754914
:101D88008B4203D805D110EE103A13B130EE000B98
:101D98007047002A9FED500B04DD9FED517B37EE15
:101DA800000B70479FED507B37EE400B70476A4938
:101DB8008B4212D8A1F1DE718B420BD8B7EE006BC3
:101DC8009FED4B7B30EE077BB4EEC67BF1EE10FA4D
:101DD80000F381804FF0FF3315E06049B0EEC07B1F
:101DE8008B424FD8B7EE006BA1F550218B4241D8FA
:101DF80037EE075B35EE465B0023B0EE006B37EE3F
:101E0800067B85EE070B9FED3C7B20EE005B25EE05
:101E1800056B9FED3B4B06EE074B9FED3B7B04EEBE
:101E2800067B9FED3B4B07EE064B9FED3B7B04EE9D
:101E3800067B9FED3B4B9FED3C3B07EE064B9FED32
:101E48003C7B16EE073B9FED3C7B13EE067B9FED3C
:101E58003C3B17EE063B9FED3C7B591C13EE067B83
:101E680027EE067B04EE057B27EE007B1FD130EEC4
:101E7800470B704737EE465B012337EE066B85EE5E
:101E8800060BC0E736498B420BD2B7EE085BB7EEBC
:101E9800006B37EE454B07EE056B022384EE060B0D
:101EA800B1E7BFEE006B032386EE070BABE72D49C6
:101EB8002D4801EBC30100EBC30393ED006B37EE34
:101EC800467B37EE407B91ED000B002A30EE470B46
:101ED800B8BFB1EE400B7047075C143326A6913C9F
:101EE800182D4454FB21F93F182D4454FB21F9BF08
:101EF8009C7500883CE4377E11DA22E33AAD903FC6
:101F0800EB0D76244B7BA93F513DD0A0660DB13F28
:101F18006E204CC5CD45B73FFF8300922449C23F90
:101F28000D5555555555D53F9AFDDE522DDEAD3F21
:101F38002F6C6A2C44B4A2BF6D9A74AFF2B0B33F51
:101F4800711623FEC671BC3FC4EB98999999C93F95
:101F5800FFFF0F440000F07FFFFFDB3FFFFFF23F72
:101F680000800340503506083035060800000000A0
:101F78007FB58DED000B019B214A23F0004393426E
:101F880006D89FED1D1B07B05DF804EB00F018BAEA
:101F98001C4A934204D907B05DF804EB00F0F8B985
:101FA80002A800F031F800F0030001280BD0022845
:101FB80012D0C0B99DED041B9DED020B00F000FA94
:101FC80007B05DF804FB9DED041B9DED020B00F0CE
:101FD800E3FCB1EE400BF3E79DED041B9DED020B16
:101FE80000F0EEF9F5E79DED041B9DED020B0120D5
:101FF80000F0D2FCE4E700BF000000000000000091
:10200800FB21E93FFFFFEF7FF0B510EE907A984B88
:1020180027F00041994289B0064607D800220023DC
:1020280080ED000BC0E9022300201BE0914B994290
:102038003BD8A3F51B23002F9FED7D7BA3F5F06311
:1020480019DD30EE470B99420ED09FED7B6B30EED9
:10205800467B30EE470B86ED007B30EE460B86ED77
:10206800020B012009B0F0BD9FED757B9FED766BEB
:1020780030EE470BEBE7994230EE070B0ED09FEDA1
:102088006E6B30EE067B30EE470B86ED007B30EE54
:10209800060B4FF0FF3086ED020BE3E79FED687B00
:1020A8009FED696B30EE070BEBE7734B99426CD8E9
:1020B800B0EEC00BB6EE007B9FED656B00EE067BC5
:1020C800FDEEC77BB8EEE75B17EE900A9FED587BF5
:1020D80005EE470B9FED587B1F2825EE077B30EE5A
:1020E800476B05DC654B421E53F822308B4209D101
:1020F80016EE903AC3F30A53C3EB1153102B4FEA71
:10210800215202DC86ED006B1AE09FED4D4B25EE67
:10211800044B30EE446B30EE467B37EE447B9FED4C
:102128004A4B15EE047B36EE474B14EE903AC3F358
:102138000A53D31A312B17DCB0EE460B86ED004B51
:1021480096ED006B002F30EE460B30EE470B86ED18
:10215800020B87DAB1EE466BB1EE400B86ED006BF1
:1021680086ED020B40427DE79FED3B7B25EE077B2A
:1021780036EE470B36EE406B36EE477B9FED386BFD
:1021880015EE067B30EE476BBCE73D4B994206D90E
:1021980030EE400B80ED020B80ED000B44E70A1592
:1021A80010EE103AA2F21642A1EB02551C4645EC7D
:1021B800174BBDEEC76B9FED2C5BB8EEC66B37EEC9
:1021C800467B8DED026B27EE057BBDEEC76B08A83D
:1021D800B8EEC66B37EE467B8DED046B27EE057BBC
:1021E8008DED067B032130ED027BB5EE407BF1EEF1
:1021F80010FA0B4601F1FF31F5D022490191022175
:10220800009102A8314600F043F9002FBFF62AAF2B
:1022180096ED007BB1EE477B86ED007B96ED027B69
:10222800B1EE477B86ED027B9CE700BFAFF30080F1
:1022380000004054FB21F93F3163621A61B4D03D7C
:102248000000601A61B4D03D7370032E8A19A33B55
:1022580083C8C96D305FE43F0000002E8A19A33B94
:10226800C14920259A837B39000000000000704195
:10227800FB21E93F7BD90240FB213941FC4D06088F
:10228800FFFFEF7F7C4E06087FB58DED000B019BAD
:10229800234A23F00043934207D89FED1F1B0020D9
:1022A80007B05DF804EB00F077BB1E4A934204D9EF
:1022B80007B05DF804EB00F06BB802A8FFF7A4FEC6
:1022C80000F0030001280CD0022811D0D0B99DEDF0
:1022D800041B9DED020B012000F05EFB07B05DF8CA
:1022E80004FB9DED041B9DED020B00F069F8F5E77A
:1022F8009DED041B9DED020B012000F04DFBB1EE9E
:10230800400BEBE79DED041B9DED020B00F058F828
:10231800F5E700BFAFF300800000000000000000F8
:10232800FB21E93FFFFFEF7F7FB58DED000B019BA0
:10233800154A23F00043934207D89FED111B012053
:1023480007B05DF804EB00F07FBB104A934204D954
:1023580007B05DF804EB00F01BB802A8FFF754FEC5
:10236800400000F002009DED041B9DED020BC0F142
:10237800010000F069FB07B05DF804FBAFF30080D3
:102388000000000000000000FB21E93FFFFFEF7F95
:1023980008B52DED028BB0EE408B17F067F920B928
:1023A80038EE080BBDEC028B08BD9FED037B87EE72
:1023B800070BF7E7AFF30080000000000000000003
:1023C800B0EE407B17EE901AB7EE000B21F00041FB
:1023D800B1F1795F39D327EE075BB6EE006B9FED5D
:1023E8001E3B27EE017B25EE066B9FED1D4B05EE90
:1023F800034B9FED1D3B14EE053B9FED1D4B03EE7C
:10240800054B9FED1D3B204B14EE053B9FED1C4BF0
:10241800994203EE054B24EE054B14EE057B04D8D8
:1024280036EE477B30EE470B7047184B99420DD874
:102438000022A1F5001343EC152B30EE450B36EEC8
:10244800456B36EE476B30EE460B7047B5EE025BD8
:10245800F3E700BFAFF30080D43888BEE9FAA8BD1F
:10246800C4B1B4BD9EEE213EAD529C804F7E923EDB
:102478009015CB19A001FA3E7751C1166CC1563F91
:102488004C5555555555A53F3233D33F0000E93FCC
:102498002DE9F04F2DED068BADF5137D9A460F46CD
:1024A800BF4BA299A39E53F82190019012F1140FEB
:1024B800A8BFD31E0AF1FF3BB8BF00236FF0170572
:1024C8009FEDB16BA4BF182193FBF1F303FB0555F6
:1024D800A3EB0B00154409EB0B040DF1680E06EB9A
:1024E800800C0022A2420EDD1AAA02EBCA020DF5E8
:1024F800D47E00244C4525DC9FEDA37BDDF804C089
:102508001046002115E0D04209D45CF8221007EEED
:10251800901AB8EEE77BAEEC027B0132E2E7B0EE50
:10252800467BF8E7BCEC025B90ED006B013105EEF1
:10253800067B5945A0F10800F4DDAEEC027B0134BE
:102548000832D7E706AA9FED929B9FED93AB02EB6B
:10255800890206EB8303039202934C46E30004933B
:1025680092AB03EBC40313ED280B6AAA06AB02EB8C
:10257800C402184621460029A2F1080249DC28466F
:10258800059300F07DFBB4EE007BB2EE006BB0EE7D
:10259800408B20EE077BBBFE477B07EE468BFDEEAC
:1025A800C87B002D17EE908A059BB8EEE77B38EEC6
:1025B800478B40DD611E06AAC5F1180052F821605C
:1025C80046FA00F290448240B61A06AA42F8216000
:1025D800C5F117021641002E3CDD002108F1010863
:1025E80008466FF07F4E8C4267DC002D04DD012D1C
:1025F8007ED0022D00F08680022E2BD1B7EE000B84
:1026080030EE488B30B3284600F03AFB38EE408B6A
:1026180020E020EE097BBDEEC77B0139B8EEC77B11
:1026280007EE4A0BBDEEC00BA0EC010A92ED000BC1
:1026380037EE000B9FE705D1621E06A951F822600C
:10264800F615C8E7B6EE007BB4EEC78BF1EE10FACC
:1026580031DA0026B5EE408BF1EE10FA40F0A48096
:10266800621E00214A4554DA00296DD0013C06ABB0
:10267800183D53F82430002BF8D0B7EE000B28464D
:1026880000F0FEFA9FED426B621C6AA9D30001EBD1
:10269800C2012246002A80F2B1802246002AC0F2F6
:1026A800CF806AA901EBC2059FED377BDFF8F4C044
:1026B8000020A11AB9E002268FE79C465CF8042B9B
:1026C80058B97AB10131C2F180728C424CF8042CAD
:1026D8000CDDDCF8002003F1080CAEEB02024CF82C
:1026E800042C01220131634610467CE701207CE777
:1026F800621E06AB53F82230C3F3160306A941F84D
:10270800223079E7621E06AB53F82230C3F3150373
:10271800F4E706AB53F82230013A1943A2E7013334
:1027280052F8041D0029FAD0049A02F512726A447C
:1027380004EB0A011AAE601C983A06EBC101234467
:10274800834204DA1C4609E7039A0123E8E7029C5E
:10275800019E54F82040049407EE904AB8EEE77BB7
:102768000024A1EC027B9FED087B8C465C4503DDD1
:10277800A2EC027B0130E3E7B6EC025B3CED026BB6
:10278800013405EE067BF1E70000000000000000C0
:10279800000000000000703E0000000000007041D2
:1027A800844F0608703506086842B0EE480B00F002
:1027B80067FA9FED736BB4EEC60BF1EE10FA17DBF8
:1027C8009FED717B20EE077BBDEEC77B06AAB8EEB6
:1027D800C75B05EE460BBDEEC00B183510EE103A80
:1027E80042F8243017EE103A013442F8243044E716
:1027F800BDEEC00B06AA10EE103AF6E706A850F890
:102808002200019007EE900A013AB8EEE77B27EE26
:10281800007B20EE060B21ED027B3BE7BCEC025B64
:10282800B5EC026B013005EE067B484501DC8142C0
:10283800F4DA42A800EBC10181ED007B013A2DE7F3
:10284800A29A022A0ADC002A2DDC46D008F00700EA
:102858000DF5137DBDEC068BBDE8F08FA29A032A17
:10286800F4D142A9A3F108020A44114620460028DF
:10287800A1F1080152DC21460129A2F108025DDC20
:102888009FED437B42AA1344012C67DC9DED425B1C
:102898009DED446B002E67D187ED005B87ED026BE1
:1028A80087ED047BD2E79FED3A6B42AA1344224698
:1028B800002A24DA4EB3B1EE467B87ED007B9DED0E
:1028C800427B44AA012337EE467B9C4220DA0EB1B4
:1028D800B1EE477B87ED027BB8E79FED2D7B42AADF
:1028E8001344002C05DA0EB1B1EE477B87ED007B6F
:1028F800ACE733ED026B013C37EE067BF1E733EDD5
:10290800027B013A36EE076BD2E7B0EE467BD4E79E
:10291800B2EC026B013337EE067BD6E791ED007B14
:1029280091ED025B013837EE056B37EE467B81EDA2
:10293800006B37EE057B81ED027B98E792ED007B1B
:1029480092ED025B013937EE056B37EE467B82ED7F
:10295800006B37EE057B82ED027B8DE733ED026B72
:10296800013C37EE067B8FE7B1EE455BB1EE466B77
:1029780087ED005BB1EE477B87ED026B90E700BF08
:102988000000000000007041000000000000703EE0
:102998000000000000000000B0EE407B17EE903A07
:1029A80023F00043B3F1795F01D200F0F9B99FED4C
:1029B800186B20EE005B20EE054B9FED173B15EEE4
:1029C800063B9FED176B03EE056B9FED173B16EE6D
:1029D800053B9FED176B03EE056B40B99FED163B6A
:1029E80015EE063B03EE047BB0EE470B704724EE72
:1029F800066BB6EE003B11EE036B16EE051B9FED62
:102A0800106B04EE461B30EE410B7047AFF30080AD
:102A18007CD5CF5A3AD9E53DEB9C2B8AE6E55A3E60
:102A28007DFEB157E31DC73ED561C119A0012A3FFC
:102A3800A6F810111111813F495555555555C53FF7
:102A4800495555555555C5BF10EE903A8A4923F05A
:102A580000428A4210B533D8FDEEC07B17EE901ABB
:102A6800002943D110EE104A431C2343134306D1D7
:102A7800B0EEC07BB7EE006B86EE070B10BD0128E9
:102A8800FCD030EE017BBFEE006B53EC172B86EECB
:102A9800074B0A4643EC152BB7EE006B53EC142B8F
:102AA80035EE400B0A4643EC172B31EE400B05EE92
:102AB800076B00EE076B06EE047BB0EE470BDDE715
:102AC8006E498A4212D99FED4C7B002BB8BFB1EEFC
:102AD800400B37EE407B9FED4A0BB8BFB1EE411B70
:102AE80030EE410B9FED481B30EE070B20EE006BDC
:102AF8009FED475B26EE067B20EE063B9FED464B9F
:102B080007EE054B9FED465B04EE075B9FED464BDA
:102B180005EE074B9FED465B04EE075B9FED464BCA
:102B28009FED472B05EE074B9FED475B07EE025BDA
:102B38009FED472B05EE072B9FED475B02EE075BEA
:102B48009FED472B05EE072B9FED475B4B4902EEA8
:102B5800075BB0EE457BB0EE415B04EE067B07EE0B
:102B6800035B9FED437B05EE061B8A4203EE071BC2
:102B780030EE016B1DD926EE064B9B1707EE900A27
:102B880003F00203C3F10103B8EEE77B36EE076BEF
:102B980084EE065B35EE416B30EE466B36EE066B27
:102BA80037EE466B07EE903AB8EEE70B26EE000BD1
:102BB80064E701281AD0BFEE007B87EE065B51EC74
:102BC800160BB7EE006B53EC152B0020024643ECB6
:102BD800172B41EC140B04EE076B34EE400B31EE6F
:102BE800401B01EE076B06EE057B66E7B0EE460B71
:102BF80044E700BFAFF30080182D4454FB21E93FA0
:102C0800075C143326A6813C000000000000000089
:102C1800D47ABF74702AFB3EE9A7F0320FB8123F8E
:102C280068108D1AF726303F1583E0FEC8DB573F42
:102C380093846EE9E326823FFE41B31BBAA1AB3F02
:102C4800735360DBCB75F3BEA69237A0887E143F22
:102C58000165F2F2D844433F280356C9226D6D3FFF
:102C680037D60684F464963F7AFE10111111C13FDD
:102C7800635555555555D53FFFFF2F3E2794E53FE2
:102C880010EE902AC2F30A5310B41146C3B910EEDD
:102C9800103A22F000421A4318D09FED277B2A4CA5
:102CA80020EE070B10EE902AA042C2F30A531146F9
:102CB800A3F136030DDAD00F5DF8044B00F048B8E5
:102CC80040F2FF72934204D130EE000B5DF8044BE2
:102CD80070474CF25032904204DD5DF8044BC80F47
:102CE80000F04AB8184440F2FE739842F5DC002818
:102CF8000ADD21F0FF4153EC102B21F4E00141EAF9
:102D0800005343EC102BE1E710F1350F01DAC80F3F
:102D1800D2E721F0FF4153EC102B363021F4E001CB
:102D28009FED077B41EA005343EC102B20EE070B85
:102D3800CCE700BFAFF30080000000000000504364
:102D4800000000000000903CB03CFFFF00000000C5
:102D58009FED050B9FED067B002800FE077B27EE05
:102D6800000B7047AFF30080000000000000100067
:102D780000000000000010809FED050B9FED067B12
:102D8800002800FE077B27EE000B7047AFF300809A
:102D9800FFFFFFFFFFFFEF7FFFFFFFFFFFFFEFFFDB
:102DA8009FED076BB7EE007B82B037EE067B8DEDAB
:102DB800007BDDE9002302B0704700BFAFF300805D
:102DC80000000000000010001FB500F05BF903468A
:102DD80048B9064A01AC07CA84E8070019462046E4
:102DE80000F014F90346184604B010BD1032060866
:102DF80037B5104C20461CF0EDFEA0B1A5682B6835
:102E0800A3B1002120469847002807DBEB683BB1B7
:102E180001AA00212046984700EAE07003B030BDBF
:102E28006FF05700F8E76FF01200F7E76FF0570000
:102E3800F4E700BFCC1A060870B5ADF5107D022086
:102E480003A901F011FA044638B101464C4817F0BD
:102E58003BF820460DF5107D70BD0146102308AAE9
:102E6800039817F0DDFA044610B101464548EEE72D
:102E78009DF82730012B05D1BDF82C2042F24133B3
:102E88009A4205D040486FF0150417F01DF8E0E7A6
:102E98009DF82E300A9EDB072CD53C4B1EF02AFAF3
:102EA80018581DF05FFA3A49FEF742F910BB03F0D3
:102EB800B5FB384D214617F095FD204601F0D2FEAE
:102EC800AE68336D1BB10CAA0421284698474FF40D
:102ED8007A7000211DF018FB0C9B002BF1D003F039
:102EE8009DFB04232C4A009301231268294904F00E
:102EF8001BFAAEE79DF82E5015F002050AD02748B8
:102F0800274B816898474FF0FF314FF0FF301DF095
:102F1800FBFAF8E729464FF404720CA81DF0D2FE1C
:102F2800204B04AA20490D930CA8204B07950E931B
:102F38001F4B0F931F4BCDE98D360123CDE9055566
:102F48008DF8143005AB06F091FD054628B1014611
:102F580019482C4616F0B8FF7BE704980C498430D2
:102F680006F056FD014628B914486FF0010416F022
:102F7800ABFF6EE72A46049806F034FE69E700BF07
:102F880080530608A2530608C05306081000000024
:102F9800D753060890170608B0350608A809002474
:102FA80011000E085FC105081C54060889C10508F0
:102FB8009DC1050800000E08DC530608FA530608F0
:102FC8002DE9F0411D46CBB21646022B02D900204E
:102FD800BDE8F081002DFAD0642400275C430A4B39
:102FE8001C44A046D8F86030BB42F0D92368002BB7
:102FF800EDD020462A4631460C3416F048FD00280C
:10300800E6D10137EEE700BF4C35002470B50478EF
:103018000E46022C19D864220F4B54431D192A6EF0
:10302800072A15D80C2101FB02441C44D0E90112DF
:10303800204616F044FE09483246214616F09BFE0B
:103048002B6E002001332B6670BD6FF01500FBE777
:103058006FF00B00F8E700BF4C35002478360024E9
:103068000146014816F0CCBE7836002402281346E3
:1030780004D80A460146024816F0ABBE0020704745
:103088007836002438B5BFF35B8F104C012554E81F
:10309800003F002B03D144E80052002AF7D1BFF3C8
:1030A8005B8F0FD10A490B4816F061FEBFF35B8FA7
:1030B80054E8003F44E80052002AF9D10020BFF349
:1030C8005B8F38BD6FF07700FBE700BF4835002401
:1030D800C92F0408783600247FB50BAB022205936C
:1030E8000393054B029300231846CDE9003300F003
:1030F80039FE07B05DF804FB275406082DE9F04FA8
:1031080091B0840705460E46009302F00403DDF8EB
:1031180068800293C2F3C203039203F1010305938B
:1031280040F0BA81041D30B1072909D86FF01B009F
:1031380011B0BDE8F08F01F007063444C6F1080667
:10314800009B4FF000094FF0040A591E4FF0FF335F
:103158004F46CB4601935346CDF810900DB10098D9
:1031680020600598002800F3E8809848009A824279
:1031780003D397488242C0F0E080039AA4EB050E7F
:1031880092074FEA9E0000F103810F2F00F2B180F1
:10319800002D00F0058107F140020DEB020C019AA9
:1031A8000CF8200C0CF8102C049801300490E7E07F
:1031B8007A285DD84B280ED8472859D829282DD8E1
:1031C800252852D054D820287AD02338D0F1000BA3
:1031D8004BEB000B74E04C382E2849D8DFE800F0A0
:1031E8007048484848484848484848484B4848482C
:1031F800484848484859484B4B595959704B6D48AD
:103208007048184B184848827F4B48484B487F0005
:1032180000204FF0000B4FF0040A38E02A38012252
:10322800C0B202FA00F010EA0E0F49D110F0625C49
:103238002FD110EA020B43D06046013C5444B4FB42
:10324800FAF40AFB04F4002D61D0A3EB050CA444A6
:10325800B4453FF66BAF002868D1042B47D158F826
:10326800043B2360043404232AE0019A013A0192C2
:103278004FF0000B24E011F8010C6C2834D111F840
:10328800023C00206C2B8346C5D14FF0080A5346F8
:10329800D3E708F10708073428F0070824F00704E3
:1032A800F8E802AB35B106982044B0423FF63EAF8D
:1032B800C4E900AB08344FF0000B4FF0080A53463E
:1032C80011F8010F002878D0BBF1000F7FF470AF20
:1032D8002528F5D1019B4FF0010B013301934FF0E5
:1032E800040AECE7584694E700208346A5E7082B34
:1032F80002D06FF015001BE708F1070828F007084F
:10330800B8EC027B84ED007B08340823D8E768B961
:10331800042B02D108F10408A4E7082BE9D108F12D
:10332800070828F0070808F10808EDE705980138AC
:10333800059058F8040B009010E7039A900720D5E1
:10334800A4EB050E4FF0010C4FEA9E00BEF5007F7E
:10335800CFD20F2FCDD8F5B107F14002C0B20DEB97
:10336800020E019A0EF8200C0EF8102CBCF1000F7A
:103378003FF41AAF60F07F0009F101090EF8200C44
:103388000137C5F1080204344FF6DA7E069297E752
:103398004FF0000CDAE7BCF1000F01D00136EFE77F
:1033A800029A0236002AEBD10098CDE90631FDF7E2
:1033B800D1FE0644DDE90631E2E7631BB3F5806F11
:1033C80097D23DB9A6F10804E018B1E61013060833
:1033D80060BB06089B08029A28602B709DF8103085
:1033E800C2B1EB7085F80290B9F1000F05D008A8BA
:1033F8000022C5F1010C97420ED1C5F101030DF170
:1034080020084FF0000A0DF1300B0193574512D1F7
:10341800601B8DE66B70E5E710F8013B190608D5CF
:103428000CEB040E03F07F03B6453FF67FAE04F8BD
:10343800013B0132DFE7B9F1000F03D098F9002012
:10344800002A17DB029BD3B11AF80B2004F8012BD2
:103458000022019B18191044B0423FF667AE98F855
:103468000000009904F8010B204603921DF002FCAD
:10347800039A14440AF1010A08F10108C6E798F80A
:10348800002055F822300093029B009845F822301E
:10349800FDF760FE421CDCE76FF00D0048E600BF58
:1034A8002DE9F04F9BB00446164690F802A0DDF8CF
:1034B80090B088460993CBF3C0030B9341B9457884
:1034C80000780AEB80002044454516D8A0EB040894
:1034D800E3780A93BAF1000F02D01BF0010F15D15F
:1034E8000A9B002B39D11EB1099A41462046B047A4
:1034F800454628461BB0BDE8F08F471C08F1010877
:103508003846FDF727FE01303844DDE72278636846
:10351800069292000893069B0C9204EB8301002EFE
:1035280040F0E78045460F4601EB0A08002647456C
:1035380022D017F8013B069154F82300FDF70AFE44
:10354800259B0130069933B1269B9E423EBF259BA1
:1035580023F8160001360544E9E71BF0020FC2D034
:1035680023781F4606939B0004EB87010C9363683E
:103578000893002E56D1454601EB0A071BF0050FAC
:103588000A9B0CBF4FF0020A4FF0010A07EB4309F0
:103598000BF0020306934F45ABD017F8021B17F840
:1035A800013C54F82380934B984502D3924B98459D
:1035B80019D30B9B23B3089816F05DFC00B38F4812
:1035C800036813F0060F0CD0089B022204910146F1
:1035D80003938B4B029300231846CDE90033FFF782
:1035E8007BFD023DD7E70B9B23B1089816F043FCFF
:1035F8000028E4D11BF0010F05D1A5EB0A05CAE7A5
:10360800069B002BC7D04046FDF7A4FD259B3BB188
:10361800269B9E423FBF431C259A22F8163001364E
:103628000544B8E7BAF1000F67D01BF0040767D06C
:10363800574616A84FF00009524607911DF01AFB8D
:10364800079901EB0A030A9A07930A9B5B000E93FA
:10365800079B03EB42030D930BF002030F930D9BA3
:10366800079A93424ED11BF0020F637808BF79087E
:1036780003EB090218BF00211BF0010FD2B240F082
:103688008A801BF0040F14BF384600206270A070B7
:103698002046E170099A0C990893B047051EFFF679
:1036A80028AF069B3946099A16A82370089B84F808
:1036B80002A063700A9BE370B047071EC0F29580B2
:1036C8000C9BA8EB0A01099AC91A0E9B0798C91AFC
:1036D800B0470028C0F28B802F444FF000080DF14E
:1036E800480B3D18C14558D80021099A0846B047EB
:1036F800FFE6D14612A800279EE75746D146A0E725
:10370800B9469EE7079B13F8021B13F8015C079361
:1037180054F82520374B9A4202D3374B9A4217D395
:103728000B9B23B1089816F0A6FB002897D10F9B96
:10373800CBB907F168037A1C02370DEB03001AAB0B
:10374800FFB253FA82F200F8101C02F8105C86E708
:103758000B9B2BB1089816F08EFB00287FF47FAFE7
:103768001BF0010F0AD009F1680309F101020DEB02
:10377800030909F8205C5FFA82F970E71BF0040F6F
:103788003FF46DAF07F168037A1C0DEB030707F8E8
:10379800105CD7B263E7002078E718F80B3054F8CC
:1037A80023A08DF84730259BEBB1269B98451AD26C
:1037B800259B33F81870099A01210DF14700B0478D
:1037C800002814DB054427B95046FDF7C3FC471C05
:1037D800BFB2099A39465046B047002807DB05446E
:1037E80008F101087EE70027E5E73D4681E6054642
:1037F8007FE600BF1013060860BB0608EC0800242B
:1038080027540608014B1860704700BF280200249F
:1038180070B504464518044EAC4200D170BD3368FB
:1038280014F8010B9847F7E72802002480B50546ED
:103838000E461746984613F04DFFDFF820900346D2
:103848001DF058FD0446424649F8003039463046D6
:10385800A84754F8090005F0FDFB00BF1000000060
:10386800044608B5EFF31183102383F31288BFF3DE
:103878006F8F05F093FD05F0EDFD1AF048FC20462A
:1038880005F0D6FB024816F01FFB18F044FAFCE7D7
:1038980003550608054B00205A6822F002025A60B8
:1038A8005A6822F001025A60704700BF0010005C9D
:1038B800164B82B0D3F8E02042F00072C3F8E02043
:1038C800D3F8E02002F000720192019AD3F8F420B4
:1038D80042F00202C3F8F420D3F8F42002F0020206
:1038E8000092009A0A4AD2F80423D20706D503F5B3
:1038F8000053D3F89030002002B07047D3F8A020CE
:1039080042F00802C3F8A020F5E700BF00440258BF
:103918000004005808B505F083FD05F011FD104BB3
:10392800104A1A60104BDA6822F03F0242F0020295
:10393800DA609A6942F440429A619A699204FCD525
:103948000A4B1A6841F20303B3EB124F06D1084A37
:10395800D2F8083143F00103C2F8083108BD00BFAE
:10396800400800240090D003004802580010005C72
:10397800008000512DE9F84F814630480F4616F077
:1039880006FC064670B92E4C0546DFF8B8B04FF075
:10399800010AA0465C4507D3B9F1000F02D04FF0E9
:1039A800010AFDB9BDE8F88F237B83B12368DB6882
:1039B8000BB120469847636883F806A023681B6903
:1039C80043B9636804222046196816F017FC0136CB
:1039D8001034DFE7204698470028F2D00AFA06F3A9
:1039E8001D43F4E7A94695FAA5F4B4FA84F40AFA53
:1039F80004F3260108EB04146FEA030B25EA030518
:103A0800237B63B158F806301B698BB946440422FE
:103A1800204609EA0B097368196816F0EFFB002DB8
:103A2800E1D11FB1642000211CF06EFD4D46B8E7BE
:103A3800204698470028F2D1E8E700BFC83600249E
:103A4800002506081025060808B5034608462BB1C8
:103A5800044A136000F0F2FB002008BD6FF0150067
:103A6800FBE700BF2C02002400230D4A4FF47A71B3
:103A78000C4810B513700C4A13600C4A1360FFF71A
:103A8800E3FF00F099F80A4B0A4918468B4200D325
:103A980010BD1A1A5C681033121101322271F5E751
:103AA800C859002487A10508C0360024C43600245C
:103AB800002506081025060870B50B4D297841B970
:103AC8000A4C01200A4EFFF755FFB44202D30123E6
:103AD8002B7070BD63685B791BB1236820469B68B7
:103AE80098471034F1E700BFC8590024002506089C
:103AF80010250608014B1868704700BFC43600241B
:103B080010B50446084816F042FB5CB1074BBFF3FA
:103B18005B8F53E8001F013943E80012002AF8D1EF
:103B2800BFF35B8F10BD00BFC0360024C43600242D
:103B3800174B2DE9F0410546164CDFF85C801B68F1
:103B48009847A860444501D3BDE8F08163685B7974
:103B58003BB129784B0706D52368294620461B68C0
:103B680098471034EEE72E882846C1F3C20700F0C4
:103B7800C9F9C6F382160246002EEDD00028EBDB09
:103B880001233946204600F0C7F8B042E9D3E3E7FD
:103B98002C0200240025060810250608044A054BB7
:103BA8009B1AB1EBD30F34BF52F831000020704795
:103BB800A8230608002506080B4800210B4B1B1AF2
:103BC800043030B5DB080A4C994200D130BD10F8FA
:103BD80031200131256802F0070225F007052A4344
:103BE80044F8042BF0E700BFA823060800250608C0
:103BF800E4080024F8B50B4F06460B4D0024ED1BD6
:103C0800ED08AC4203D14FF0FF342046F8BD57F819
:103C1800340020B13146FDF78BFA0028F5D0013485
:103C2800EFE700BFA82306080025060800282DE9AD
:103C3800F047884615461F461DDADFF8A8904FF072
:103C4800000A244E5446A6EB09063609B24509F186
:103C5800100902D12046BDE8F08759F80C0C3B4604
:103C68002A46414600790AF1010AFFF7DFFF84423C
:103C780038BF0446EAE7184B184AD21AB5EBD20FF8
:103C880025D203EBC5031C79BC4228BF3C46C0B211
:103C98000722134E002100EB400056F825308240E1
:103CA80023EA020304F0070282401343032223FAA3
:103CB80002F0033200F00700814238BF01461E2A95
:103CC800F5D123F007030B4346F82530C2E700245B
:103CD800DDE700BF10250608A8230608002506080A
:103CE800E408002400250608F8B5094D0646094BE6
:103CF8000F460024ED1AED08AC4200D3F8BD22B2FD
:103D080001343B4600213046A4B216F069FAF3E7C5
:103D180000250608A823060870B14168097973B11F
:103D2800002A17DBCBB20C4903EB430351F82200FE
:103D3800D84000F0070070474FF0FF31EFE7074920
:103D48000748401AB2EBD00F3ABF01EBC20108791D
:103D58001846704704207047E4080024A823060882
:103D6800002506082DE9F04F87B004460E46934615
:103D780004AF98463D6BD7E90EA9BAF1000F22D0DF
:103D8800C7F804901021CDF8009053467A6B0020B4
:103D9800FFF7B4F9B0F5006F014615D31C490B685D
:103DA80013F0060F0BD040F2FF7302220393194B56
:103DB800029300231846CDE9003316F0A2FA0C3717
:103DC800BD46BDE8F08F514604F007040BF0070B21
:103DD800E40044EA8B1444EA412444EA05541735C4
:103DE8000D4425F00705ADEB050D04ADBAF1000F44
:103DF80007D0CDF8009053467A6B05F11000FFF715
:103E08007DF9434622463146284616F02AFAD6E777
:103E180044090024395506082DE9F04FC1F34A2614
:103E280091B00D4690460C0D07900893002E5AD07D
:103E380000270BAB4FF0040B4FF00A0A01933A46E8
:103E48000DAB31464046CDF808B0CDF800A0B146DC
:103E58000F97CDE90D77FFF723FBB0F5006F034609
:103E680016D325490B6813F0060F0ED040F2FF73E6
:103E7800022238460493D8F80430009703931F4B66
:103E8800CDE901733B4616F03CFA11B0BDE8F08F5E
:103E9800C0F30A0604F117000993184466F3532582
:103EA80020F00700800816F097F9044680B1099BB6
:103EB80000F11001124A40460D914946CDF808B06C
:103EC800CDE90E370BABCDE900A30DABFFF7E8FA50
:103ED80066F35325089B079920462A4611B0BDE88A
:103EE800F04F16F0BEB904F1170020F00700800863
:103EF80016F072F90446EBE74409002471550608E8
:103F08003FA20508406820B1034BC01A40F38F0058
:103F180070474FF0FF307047E40800240EB403B533
:103F280003AB0146054853F8042B019305F0BEFA8C
:103F380002B05DF804EB03B0704700BF85A3050825
:103F4800CA0605D48B064CBF02490349FFF7E6BFF2
:103F5800704700BF365E0608B05506082DE9F04FD9
:103F680087B004460D4690469DF844609946002E59
:103F780000F0A280159B03F0020A03F001030493EA
:103F8800159B03F0080B03F48073059316F026F9CC
:103F9800024600283DD095492046FFF7BFFF074657
:103FA800BAF1000F09D0159B13F0440F33D12A46FC
:103FB8008F492046FFF7B2FF0744049B53B18D4B4E
:103FC80020468D4953F826208C4B002A08BF1A46F4
:103FD800FFF7A4FF059B002B49D0BBF1000F64D16C
:103FE800B8F1000F66D0424685492046FFF796FF94
:103FF8000546129B3D44002B6DD1149B002B73D1B9
:10400800159BDB0700F1EB8015992046FFF798FF19
:10401800D8E00746C4E77B4B18680028CCD07A4B19
:104028004FF47A7A4FF03C0C1B68B5FBF3F5B5FBFF
:10403800F0F100FB11554FF461630AFB05F5B1FB84
:10404800F3F2B5FBF0FE03FB121100FB1E55B1FBAA
:10405800FCF30AFB05F50CFB1311B5FBF0F5009119
:1040680020466A49CDE901E5FFF758FFA4E7BBF10F
:10407800000F1DD0664B2046664953F82620FFF7EF
:104088004DFF0546B8F1000F05D042465C49204671
:10409800FFF744FF0544B9F1000FAAD04A465E492C
:1040A8002046FFF73BFF0544A3E74FF00009E1E78F
:1040B8005D46E7E745469CE7B9F1010F129B06D13B
:1040C800002B66D1149B002B7CD000250CE0002B24
:1040D800F8D052485EE05248129B2246514915F0EA
:1040E80099FE149B002B6AD0DFF84481DFF84491D5
:1040F800149F4FF0000B15992046102F28BF10274A
:10410800FFF71EFF5D4547DC139B4FF0010B494647
:1041180020461A78FFF702FF1BF0070F03D141462C
:104128002046FFF7FBFE5F453DD9139B49462046D5
:1041380013F80B20FFF7F2FE0BF1010BBBF1100F88
:10414800EAD14FF0000A38492046DFF8ECB0FFF713
:10415800E5FE5246139B20469A5CA2F120015F2996
:10416800594628BF2E22FFF7D9FE0AF1010ABAF1F3
:10417800100F1DD01AF0070F03D141462046FFF754
:10418800CDFE57455246E5D841462046FFF7C6FEC4
:10419800EBE7234835469FE7414620460BF1010BE4
:1041A800FFF7BCFEAEE721492046FFF7B7FEC3E79D
:1041B800139B3B441393149BDB1B149398D1002E41
:1041C8007FF41EAF6268A1682068D2E9002316F068
:1041D800C7F8636800221A6007B0BDE8F08F074A85
:1041E80020460549FFF79AFE0EE700BFB8550608B6
:1041F800BC550608C835060850600608B3550608B9
:10420800E1550608D0360024CC360024C5550608EA
:10421800DC350608E5550608EB550608A1A3050890
:1042280085A30508B5940408FA550608F655060846
:10423800F8550608F05506086666060800210123A9
:10424800064A904206D8064A01B901231360054B75
:1042580018607047400801215B00F2E740420F00F8
:10426800CC360024D0360024104B70B51C680D469F
:10427800B4B10F4B196800238B4202DB6FF00100C9
:1042880070BD224612F8106B864202D001331446E4
:10429800F2E7E0681BF09EFC28B100202C60EFE7F5
:1042A8006FF00C00ECE76FF01200E9E73002002431
:1042B800F03506080C4BF0B40C4E5F6A0C4BB34259
:1042C80003D36FF08500F0BC70475D68BD4209D329
:1042D8001C693CB195F802C00579AC4502D123466A
:1042E800F0BC18472433EAE7D4360024000B002436
:1042F800DC0A00242DE9F04705460E461746124C05
:10430800DFF84880DFF84890444503D36FF0850014
:10431800BDE8F0876268D9F824309A4212D3A369BD
:1043280083B190782979884205D13A4631462846A2
:10433800BDE8F04718475279012A03D13A46314679
:10434800284698472434DFE7DC0A0024000B0024C1
:10435800D43600242DE9F04105460E4617460A4C8E
:10436800DFF82880444502D36FF0850009E06369CF
:104378000BB92434F6E73A463146284698470028D0
:10438800F7D1BDE8F08100BFDC0A0024000B00244F
:10439800024B00221A605A60704700BF8F37002412
:1043A80070B50B4B0B4CA34201D3002070BD196AAA
:1043B80000221E7F0439D5B2AE4201D82433F2E779
:1043C800013211F832508542F5D10120EEE700BFE5
:1043D800DC0A0024000B0024094808B50378C3F35D
:1043E80041130A3350F823303BB100F1080200F1C1
:1043F80010019847C043C00F08BD1846FCE700BF2E
:10440800D436002410F0700F1FB511D00D490B6879
:104418005B0709D00C4B0122039002930023184636
:10442800CDE9003316F011F8002005B05DF804FB63
:1044380000F07F0310F0800F4FF0010018BF103319
:104448009840F2E7800900241C56060830B585B06C
:10445800054607F063F910F1780F04461AD1174999
:104468000B6813F0060F09D0154B0222039502932F
:1044780000231846CDE9003315F0E7FF284600244D
:10448800FFF7C0FF0F4AD2F8C43023EA0003C2F88E
:10449800C4300FE00028F1D008490B685B0709D049
:1044A800094B01220395029300231846CDE90033F6
:1044B80015F0CBFF204605B030BD00BF80090024B1
:1044C80037560608D43600245856060804282DE91D
:1044D800F74F04460F46DFF8A09015D001282FD1DA
:1044E800DFF8908098F8B93053B3214D00F0CAFF37
:1044F8004D4522D22A6A4FF0000A2B7F5FFA8AF6CE
:10450800B34204D82435F3E7FFF742FFE8E702EBAC
:10451800C60601920AF1010A307907F0FFF88346CE
:104528003079FFF76FFFD8F8C430BBF1000F019A5C
:1045380023EA0003C8F8C430DFDA002388F8B9306A
:104548000B4D4D4508D30B4B1B6A6BB139462046C2
:1045580003B0BDE8F04F1847EB681BB13A46214657
:10456800284698472435ECE703B0BDE8F08F00BF34
:10457800DC0A0024D4360024000B002470B5C4B231
:1045880086B00D4663068DF8174007D02046FFF722
:1045980007FF00B31C4B93F8BA00E0B11B491A4E51
:1045A8000B6803F00703C5B1022B09D9184B032286
:1045B8000394029300231846CDE9003315F045FF14
:1045C8009DF8170007F018F8F3691BB10DF11701F2
:1045D80008209847012006B070BD022B09D90D4B61
:1045E8000322284603940095CDE901532B4615F084
:1045F8002CFF9DF8170007F02BF8F369002BE9D082
:104608000DF117010920E4E7D436002480090024BD
:104618007A5606088D56060870B5044686B0807826
:104628003C4D8DF810002379627943EA0223ADF8F6
:104638001230E37803F003038DF81430FFF7E2FE3D
:10464800D5F8C430064618420CD0A478204600F0AD
:10465800FBFE2046FFF7FAFE1BF07BFE10B9962002
:104668001BF07AFF04A817F0D3FD10F1780F31D1B1
:1046780029490B6813F0060F0BD09DF81030022261
:104688000393264B029300231846CDE9003315F017
:10469800DCFE9DF8100007F007F810F1780F2ED116
:1046A8001D490B6813F0060F0BD09DF8103002223D
:1046B80003931B4B029300231846CDE9003315F0F2
:1046C800C4FED5F8C4300120334385F8B900C5F8D5
:1046D800C43012E00028DCD00F490B685A070BD011
:1046E8009DF8103003930F4B0293002301221846C4
:1046F800CDE9003315F0A9FE002006B070BD0028F2
:10470800DFD005490B685B07F6D09DF8103003939E
:10471800054BE9E7D436002480090024A256060890
:10472800E9560608C5560608095706082DE9F04750
:10473800A34E04460F461546B369FBB9237803F028
:104748001F03012B00F09D80022B00F0048133BB76
:1047580094F900002A680028617834DA062912D012
:1047680008292BD0D9B901235170137096F8C3309A
:104778005B0043F00103137002232AE198470028E5
:10478800DCD100200DE06288100A011F844601294F
:1047980005D9072803D8D2B2716A0C781CB96FF012
:1047A8001500BDE8F0874E78664503D19A4200F0BF
:1047B8000B8101332144F0E70B780AE196F8BA300F
:1047C8001370012305E101390829E8D801A353F83A
:1047D80021F000BF75480408A74704088348040867
:1047E800A747040801480408A7470408A74704087E
:1047F800A74704080D480408A07806F049FE0028D9
:10480800BFD0CCE76388756A63BBFFF7C1FD6388D7
:1048180086F8BA30F369002BB3D06A490320984769
:10482800AFE76B78042B10D0052B11D0022B04D1E5
:104838006F796388BB4208BF01202B781D442B7811
:10484800002BEED10028AAD0DFE795F80380F4E723
:104858006388BB42F1D1B8F1000FEED12846FFF7CB
:10486800DBFEEAE7FF270020B846E8E76388012B6C
:1048780095D1002386F8C33083E76388012B8ED156
:10488800F8E796F8BA30D5F800C0002B87D0756ADB
:10489800A38894F804E02A46107800283FF47FAFF4
:1048A8005178022904D192F80480F04500F29380EF
:1048B8000244F1E78CF800208CF80120396060E7A9
:1048C800154494E00B2A7FF46AAF00274FF0FF08E5
:1048D800BA46C14606E06B78042B0FD0052B21D0D1
:1048E8002B781D442B78002BF5D1F36913B1514671
:1048F80007209847002F7FF444AF50E795F80280CF
:10490800A38895F803909845EAD163889945E7D13B
:10491800B8F1070F1CD806EB0803AA46012783F84D
:10492800BB90DDE7A3884345DAD1A3784B450AD08D
:10493800AF78384600F088FD3846FFF787FDB0FAB3
:1049480080F77F09CCE72846FFF766FE0746C7E7EA
:10495800AA460027C4E794F900206378002A18DAE9
:10496800002B7FF41CAF24792D6863060AD02046FB
:10497800FFF716FD00283FF412AF96F8BA30002B67
:104988003FF40DAF2946204617F057FC00236B7003
:10499800F2E6012B08D0032B7FF401AF6388002BCC
:1049A8007FF4FDAE012103E0618800297FF4F7AEB2
:1049B800A088FFF7E3FD00287FF4E3AEEFE600BF31
:1049C800D43600248E370024022829607FF4F4AE00
:1049D8004B883B60D5E694F9000062780028BFF662
:1049E80071AF002A3FF466AF0A2A7FF4D8AE2A785E
:1049F800002A3FF4D4AE697804297FF461AFA9781E
:104A08008B427FF45DAF072B96BF9B19002393F869
:104A1800BB308CF80030D4E670B5164D95F8B83038
:104A2800FBB106F0BDFF002822DB002400F02AFDC0
:104A3800D5F8C430E6B2E340DA0714D404F1100222
:104A4800D5F8C430D340DB0705D546F08000FFF722
:104A5800FDFC00280CDB0134102CE9D1002385F87B
:104A6800B830002004E03046FFF7F0FC0028E5DA13
:104A780070BD00BFD43600242DE9F04F054687B03D
:104A88008B4698460426DFF85090124F4FF0000AE4
:104A980005924346059A5946284606F067FE10F1E6
:104AA8000B0F044612D1D9F8003013F0060F09D0C5
:104AB8000023022249461846CDE90275CDE900AA2D
:104AC80015F0C3FC12F05EFD013EE2D1204607B0AE
:104AD800BDE8F08F2A5706088009002413B5164C44
:104AE800237DF3B9E26801ABA16880200192FFF74A
:104AF800C3FF019AA3681344A360E3689B1AE360A9
:104B08006BB962B12369E2889A4208DD94F8C8203B
:104B180093FBF2F102FB11330BB90123237502B0A9
:104B280010BD002380201A461946237502B0BDE83F
:104B3800104006F01BBE00BFD436002430B5002359
:104B480089B002460D460593002864D1002941D159
:104B58000B46082206A917F07DFB002804DA8020FE
:104B680006F04AFD09B030BD304C069ABDF81E303B
:104B78002260079A2575626004F13802A2609DF9E7
:104B88001820002AC4E9035517DB802B11D92849BE
:104B98000B685B0708D0274B012228460095CDE912
:104BA80001532B4615F051FC802006F025FD00200E
:104BB800D6E713B1C4E90333D4E7FFF70DFC0028A7
:104BC800CDD0E28823699A42D4BFE260E360FFF760
:104BD80085FFC7E7154C05ABD4E90215002D04DCA9
:104BE80017F038FB0028BDDAB9E72A4617F032FB80
:104BF8000028D9DB059AA3681344A360E3689B1ACD
:104C0800E360002BAED104F13803A360FFF7E4FBA7
:104C18000028DCD1A3E78028A4D1044BDA68002A55
:104C2800D5D11B7D002BD2D19CE700BFD436002400
:104C38008009002451570608054B064A586200208F
:104C48009A62054ADA62054A1A63054A9A61704708
:104C5800D436002435470408BD4204085D430408DF
:104C6800FD4204082DE9F041044686B0584D4FF046
:104C7800FF334FF0FF32574811F0D2FC95F8B830A7
:104C8800B3B155490B6813F0060F08D0534B0222F5
:104C9800029300231846CDE9003315F0D6FB6FF0D8
:104CA80077044C4811F034FD204606B0BDE8F08189
:104CB8006B6AA3B900F0E6F8FFF7BEFF6B6A73B939
:104CC80045490A68520707D0454A18460093CDE976
:104CD8000132012215F0B9FB4FF0FF34E1E74148FA
:104CE8002C62E8616E6A06F0CDFB06F087FA041EB6
:104CF800D7DB00F0E9FB041ED3DB7378012B01D16D
:104D0800F3797BB934490B685B0708D0364B01222D
:104D1800029300231846CDE9003315F096FB6FF097
:104D28001504BEE7002604A885F8C830ADF812308F
:104D38008DF814608DF8106017F06AFA041EB0DB65
:104D4800802704A88DF8107017F062FA041EA8DBFB
:104D58002649304617F051FA041EA2DB234938468B
:104D680017F04BFA041E9CDB214CDFF88880444581
:104D78001AD3002006F098FC041E92DBD5F8C43044
:104D8800802043F00103C5F8C43006F08DFC041EF2
:104D980087DBD5F8C430002443F48033C5F8C43029
:104DA800012385F8B8307CE7276A0026227FF3B212
:104DB8009A4201D82434DAE707EBC30257F83310D4
:104DC8000136107917F019FA0028EFD084E700BFF0
:104DD800D4360024C0090024800900246A57060834
:104DE8008D570608D5440408B2570608454B0408F1
:104DF800DC0A0024000B002430B5204B8BB003F1F3
:104E0800100505AA1868083353F8041C1446AB4269
:104E180003C42246F6D11B781022002101A8237072
:104E28001BF050FF1222002115481BF04BFF1021E8
:104E380001A80AF02FFE00281DDD082801AB104943
:104E4800B8BF082009381A18002012F8013F0AAC28
:104E58000130023104EB131403F00F03082803F1A7
:104E6800280314F8144C6B4401F8024C13F8143C52
:104E780001F8013CE9D102480BB030BDEC570608F7
:104E8800CA5900249B4B2DE9F04F93F800908BB042
:104E9800B9F1000F03D098480BB0BDE8F08F964CDD
:104EA80000264FF0011835463746059623783BB95A
:104EB8000234924B9C42F3D101238E4A1370EAE7E5
:104EC8006378052B1ED8DFE813F0C700060013012E
:104ED800C70020005700402308A88DF82090ADF89F
:104EE80022308DF8249006F05DFB40B1082308A815
:104EF800ADF8223006F056FB08B1ADF82290BDF8A7
:104F08002230E37123781C44D0E7E378002BF9D1F1
:104F1800A3783BB3059B0133DBB20593F2E76A68DC
:104F2800944222D024359D42F9D375490B685D0718
:104F380016D0744B01220394029300231846CDE93E
:104F4800003315F091FA6E490B685B0708D06E4B79
:104F58000122029300231846CDE9003315F084FAA4
:104F6800002099E7694D6A4BDDE7AB68002BD1D08B
:104F7800059920469847CDE7002D6AD160490B680E
:104F88005C07EDD0634B0095CDE901532B46012218
:104F9800184615F069FAD6E72A6A94F802C002EBB7
:104FA800C3021079844546D14FF0010AE0785FFAD0
:104FB8008AFB00F003008DF82400207994F805C0DE
:104FC80040EA0C20ADF8220094F90200002826DA05
:104FD8000AF1100001FA00F010EA080F26D14BF090
:104FE80080008DF8200008A8CDE9063206F0DAFA2C
:104FF8000121DDE90632C8B99DF8203013F0800F91
:10500800A37013710B4617BF0BF1100B03FA0AF3C9
:105018005FFA8BFB01FA0BF348EA030872E701FA1F
:105028000AF010EA080F01D15846DAE70AF1010A36
:10503800BAF1100FBAD101332A7F9342ACD3304969
:105048000B6858078CD0344B02930023CDE900330A
:105058009DE700230121EFE7032E2CD1FFF7CCFEBB
:105068008346E0B1FCF776F88246C0B110280ED02E
:10507800234B1B6813F0060F09D0284B0222204946
:10508800029300231846CDE9003315F0EDF9524696
:105098005946A01C102AA8BF10221BF0EBFD23784C
:1050A8006FF00201E218091B04EB5303D14210D53B
:1050B8000136F6B226E7002EF1D18FB910490B68F8
:1050C8005A073FF44DAF164B0097CDE901733B46A5
:1050D8005DE702F8019C13F8010902F8020DE5E703
:1050E800E31BBB70C3F30723FB70059B3B71DFE732
:1050F800274607E7C9590024240A0024D90A0024AE
:105108007C090024FD570608E3580608DC0A002439
:10511800000B00241D5806085E5806087B58060830
:10512800C6580608094B00211A4610B51C78844257
:1051380005D15C681CB1482303FB012010BD013177
:1051480048330429F2D10020F8E700BFA037002433
:105158002DE9F04150F8303C88B0044610F8346C22
:1051680010330BD1036950F8282C13F0020545D0F1
:10517800D2B9590715D5002344F8303C54F8303CCF
:1051880010330BD054F81C8C54E909751BF0E1F866
:10519800002869D021463B481BF0AEF808B0BDE8AE
:1051A800F08143F00403036107AB54F82C1C30462C
:1051B800FFF762FC88B134490B685A070AD0334BB1
:1051C80002930023CDE90306CDE9003301221846F6
:1051D80015F087F96FF01503CEE7079A54F82C3CC1
:1051E800134444F82C3C54F8283C9B1A44F8283CB7
:1051F80054F8243C134444F8243CBFE750F82C1CD2
:1052080007AB304606F038FB58B11F490B685B07FF
:10521800E0D01E4B0095CDE90153CDE903062B469E
:10522800D4E7079D54F82C3C2B4444F82C3C54F804
:10523800283C5B1B44F8283C54F8243C2B4444F895
:10524800243C002D97D0304617F012F8B5FBF0F348
:1052580003FB1055002D8ED154F8283C002B8AD022
:10526800304606F06FFB89E744F8200CA4F11800DB
:1052780011F0D0FA002D91D0424639463046A84761
:105288008CE700BF000B002484090024115906088C
:105298004B1E012B70B5064686B00D461BD8FFF78E
:1052A80041FF0446C8B9012D15D105AB01220DF106
:1052B8001301304606F0E0FA059B002BF5D11049A2
:1052C8000A68520707D00F4A18460093CDE9013201
:1052D800012215F006F906B070BD1BF03AF804F18A
:1052E800340108B1012D05D1084606B0BDE870406B
:1052F800FFF72EBF044806B0BDE870401AF0FCBFA7
:10530800840900242E590608000B00242DE9F04FCB
:1053180087B0064617469846059115F0F2F80446F8
:10532800002840F08180EFF311830493102383F366
:105338001288BFF36F8FDFF80891002300224846D8
:1053480011F0A4FA0346E0B94FF0480CDFF8F4A0D6
:105358000CFB04FC0AEB0C0BDBF8045015F1100FE6
:105368002CD133490A68520707D0324A0396009075
:10537800CDE90102012215F0B4F8484611F04AFAC5
:1053880013E0013409F14809042CD6D128490B68E7
:10539800580708D0284B0122029300231846CDE96C
:1053A800003315F09EF86FF00B05049B83F311880A
:1053B800BFF36F8F284607B0BDE8F08F109B059AA2
:1053C800CBF81430119BCBF810003046CBF81830CE
:1053D8006FF00F030AF80C60CBF84480CBF8043068
:1053E800CBE9022716F044FF68B1304616F040FFBB
:1053F800B7FBF0F303FB10772FB1DBF8443043F031
:105408000403CBF8443018F0020F08D048230B48A7
:10541800002503FB04A134311AF06EFFC5E73046BE
:1054280006F090FA0546C0E76FF00F05C2E700BF27
:10543800840900246359060848590608000B00240B
:10544800BC370024A037002410B5EFF311841023D3
:1054580083F31288BFF36F8FFFF764FE50B1436880
:10546800103307D16FF08B0300F134014360044817
:105478001AF042FF84F31188BFF36F8F10BD00BF8D
:10548800000B0024F8B50E4C04251027EFF3118605
:1054980087F31288BFF36F8F6368103307D16FF0FB
:1054A8008B0304F13401074863601AF025FF86F383
:1054B8001188BFF36F8F013D04F14804E6D1F8BDB0
:1054C800A0370024000B002470B5094C0025094EB4
:1054D800314620461AF0F4FE01220135A4F11800E5
:1054E800483411461AF040FE042DF1D1002070BD59
:1054F800D4370024595104080169012381F8533035
:105508000B6833B191F851301BB1083101481AF0DA
:10551800F3BE7047000B00240169012381F8523063
:105528000B6833B191F850301BB1083101481AF0BB
:10553800E3BE7047000B002470B50569EFF31186D0
:10554800102383F31288BFF36F8FD5F8980014F0F7
:105558009DFD044686F31188BFF36F8F30B100229A
:10556800002305F12001024811F086FB204670BD9A
:10557800000B0024012370B582F850300D461368E3
:1055880014463BB192F8523023B102F108010D489C
:105598001AF0B2FED4F898305A89DB889A4205D1BD
:1055A8007DB904F120014FF47A7204E004F120017E
:1055B800002DF8D0002200230248BDE8704011F009
:1055C8005BBB70BD000B002400210D4A0346A0F808
:1055D8005010106883F8A410C3F89C009088927942
:1055E800A3F8A00003F1540083F8A220402283F816
:1055F800A310A3F8A61083F8A8101BF063BB00BF84
:10560800443206081FB5014604460C4814F053FFFF
:10561800034670B90A490A6812F0060F07D0094A0A
:1056280003940090CDE90102022215F00AF804B0B3
:1056380010BD012200F8072CF9E700BFC03800248C
:1056480074090024995906087FB504460E46017965
:105658001546224814F022FF034688B920490A68F3
:1056680012F0060F08D0A288009003921D4ACDE9D7
:105678000102022214F0E5FF6FF0120004B070BDC1
:1056880094F900106278002920DB202A04D0222A0D
:1056980018D06FF08500F1E7296802460C6852F8C7
:1056A800100D43F8104C8C8894808979917153F8C7
:1056B800101C884204D053F8942C0AB118689047FB
:1056C8000020DBE7628800F8092CF9E7212AE0D1FD
:1056D800A0F110032B6007233360F1E7C0380024E2
:1056E80074090024BF59060810B500230469C4F8DA
:1056F800B03004F1B0020B4BC4F8AC00596869B97A
:10570800C3E9002204F1080007491AF0D9FD04F1A1
:10571800200006491AF000FE002010BD0A605A60F9
:10572800F0E700BFC038002435A505081158040863
:1057380030B54FF40033426885B0056942F2A100E4
:105748000B4CADF80C1001A9CDE90103002385F835
:10575800A530106A0A220079FFF78EF995F8A5306E
:1057680023B901201AF026FA013CF7D105B030BD63
:10577800A186010070B5002386B0046910258DF854
:10578800171084F85030EFF3118685F31288BFF3B1
:105798006F8F01220DF11701D4F8980014F076FCF0
:1057A80086F31188BFF36F8F012817D01AF0D1FD47
:1057B80010B994F8A930D3B90F4D2B7873B90F49A4
:1057C8000A6812F0060F07D00D4A18460093CDE973
:1057D8000132022214F035FF01232B700A22002324
:1057E80004F12001074811F047FA06B070BD002106
:1057F8000A201AF089FEC6E7DC590024740900243F
:10580800E6590608000B0024F0B5D0F88C3085B0B6
:1058180005465B681B6A1F7D384614F072FE064613
:1058280050BB95F886303BB3A86F0146C38831F862
:105838000A2F9B1A03AA9BB2B3F5007F28BF4FF427
:10584800007314F0D4FB0446B0B18306A5F120031D
:1058580085F8306008BF00F1FF340193074B3846E4
:105868002246039900930223FFF750FDA86F2246B2
:1058780000F10A0114F0F1FB05B0F0BD7D550408F4
:105888007FB50D1E0646144633DD2A4604F1540141
:10589800D4F8940014F0FAFBA8420ED21C490B6805
:1058A8005B070AD01B4B2D1A012202930023039594
:1058B8001846CDE9003314F0C4FE012384F85130B2
:1058C80023683BB194F8533023B104F1080112481E
:1058D8001AF012FDD4F894209388918912695B1A02
:1058E8009BB2D31A3F2B04D8012384F8A83004B004
:1058F80070BD94F8A630002BF9D0084B402204F173
:1059080054013046009301230194FFF7FFFCEEE7B2
:1059180074090024055A0608000B00248958040855
:10592800F0B5054685B00E460146504814F0ABFD6B
:10593800044678B94E490B6813F0060F08D04D4B52
:10594800022203950090CDE90103034614F079FE85
:1059580005B0F0BD0546711E55F8AC395F680529DC
:10596800F6D801A353F821F0F95904085959040845
:1059780089590408DB590408055A04082B5A0408F5
:105988003B490B6803F00703022B08D93A4B032263
:10599800029300231846CDE9003314F052FE14F8A0
:1059A800061C0029D4D101232A4604F8063C3B6A88
:1059B800187BFFF765FF14F85C2C002AC8D13B6AF6
:1059C8001146187D2D4B019500930223FFF79EFC8D
:1059D800BEE727490B6803F00703022B08D9284BB9
:1059E8000322029300231846CDE9003314F029FE60
:1059F800284605B0BDE8F040FFF7E6BD1C490B6836
:105A080003F00703022B08D91E4B0322029300233D
:105A18001846CDE9003314F014FE012304F8053CC0
:105A280096E7134D2B6803F00703022B09D9164B91
:105A380003222946029300231846CDE9003314F0C7
:105A480000FE14F8053C002B82D02B6803F00703F6
:105A5800022B09D90D4B032205490293002318464E
:105A6800CDE9003314F0EDFD0023D7E7C03800245A
:105A780074090024265A0608475A06087D55040862
:105A8800595A06086D5A06087E5A06088D5A06089D
:105A98000369044A8068904206BF002099616FF04C
:105AA80015007047F422060837B5094D00244FF059
:105AB800FF334FF4806207492846009411F09EF89E
:105AC8000549284611F0D0F9204603B030BD00BF83
:105AD800000B0024185A0024C95A060810B50446B9
:105AE8000BF0CAFF03490246204615F010F80020C3
:105AF80010BD00BFE95A060837B51346002205460F
:105B08000A21019201AA586801F0D6FC019C4CB9FF
:105B180020EAE0700A2180FB01011AF0F5FC20461A
:105B280003B030BD22460349284615F00CF8019C05
:105B3800F5E700BF0E5B0608034A044908B514F0F0
:105B4800E6FF002008BD00BFF85B0608FF5B0608FB
:105B5800F7B517460023054601AA0A21B86801933C
:105B680001F0AAFC1749C6B2284614F0DEFF019CD2
:105B780044B122461449284614F0E5FF019C20460A
:105B880003B0F0BD042E09D9324610492846012435
:105B980014F0D9FF284615F015F8F0E77868FEF7F5
:105BA80029F8021E07DA7A68284609496FF01504B1
:105BB80014F0C9FFE3E7334612B22146204614F039
:105BC8000FFBDCE72A5C0608905C0608B75C060851
:105BD800CE5C0608002307B50090694604488DF896
:105BE800043011F089FF9DF8040003B05DF804FB50
:105BF800C1A7050810B504460BF020FF0749024667
:105C0800204614F084FF2046054914F080FF214601
:105C1800044811F08BFF002010BD00BF595D060835
:105C2800785D0608315C040870B58EB004460D46F0
:105C3800D0F89C601AF096FB224A03461BF05AFBE8
:105C48001058214A2149002B18BF1A4623460092B2
:105C58001F4A844218BF0A4628461E4914F057FFB7
:105C680028461D49D4E90A23CDE9002394F90E30CA
:105C7800227B14F04CFF06A92022204611F004F9DB
:105C8800636E02461549284614F041FF05A92046CF
:105C98001AF089FB024628B11149284614F037FF4B
:105CA8000EB070BD059B64222846F11A4A43009144
:105CB8000C49B2FBF6F2CDE90162324614F027FF37
:105CC800EEE700BF10000000825D0608F8550608E0
:105CD80024740608855D0608915D0608BD5D060802
:105CE800D45D0608015E0608F0B591B000250446AB
