:020000041000EA
:10000000304E0230198B00103B180210058B001087
:10001000058B0010058B0010058B0010058B001060
:10002000000000000000000000000000F58B001040
:10003000058B0010000000008D8B0010C58301109F
:10004000498D0010498D0010498D0010498D001018
:10005000498D0010498D0010498D0010498D001008
:10006000498D0010498D0010498D0010498D0010F8
:10007000498D0010498D0010498D0010498D0010E8
:1002B000002902D0B0FBF1F0704708B14FF0FF30D9
:1002C00000F01EB80029F8D00246B0FBF1F000FBA8
:1002D00011217047002902D090FBF1F070470028EF
:1002E000C8BF6FF00040B8BF4FF0004000F008B842
:1002F0000029F4D0024690FBF1F000FB1121704779
:10030000704700BF81F0004102E000BF83F000436E
:1003100030B54FEA41044FEA430594EA050F08BFA0
:1003200090EA020F1FBF54EA000C55EA020C7FEA64
:10033000645C7FEA655C00F0E2804FEA5454D4EBE1
:100340005555B8BF6D420CDD2C4480EA020281EAAB
:10035000030382EA000083EA010180EA020281EAE3
:100360000303362D88BF30BD11F0004F4FEA013135
:100370004FF4801C4CEA113102D0404261EB410144
:1003800013F0004F4FEA03334CEA133302D05242CA
:1003900063EB430394EA050F00F0A780A4F1010486
:1003A000D5F1200E0DDB02FA0EFC22FA05F28018C0
:1003B00041F1000103FA0EF2801843FA05F35941A6
:1003C0000EE0A5F120050EF1200E012A03FA0EFC25
:1003D00028BF4CF0020C43FA05F3C01851EBE3714F
:1003E00001F0004507D54FF0000EDCF1000C7EEB6C
:1003F00000006EEB0101B1F5801F1BD3B1F5001FAA
:100400000CD349085FEA30004FEA3C0C04F10104C8
:100410004FEA445212F5800F80F09A80BCF1004FF1
:1004200008BF5FEA500C50F1000041EB045141EA73
:10043000050130BD5FEA4C0C404141EB0101013C3C
:1004400028BFB1F5801FE9D291F0000F04BF01462B
:100450000020B1FA81F308BF2033A3F10B03B3F1FD
:1004600020020CDA0C3208DD02F1140CC2F10C028D
:1004700001FA0CF021FA02F10CE002F11402D8BFEB
:10048000C2F1200C01FA02F120FA0CFCDCBF41EAB7
:100490000C019040E41AA2BF01EB0451294330BD86
:1004A0006FEA04041F3C1CDA0C340EDC04F1140463
:1004B000C4F1200220FA04F001FA02F340EA03003A
:1004C00021FA04F345EA030130BDC4F10C04C4F180
:1004D000200220FA02F001FA04F340EA0300294660
:1004E00030BD21FA04F0294630BD94F0000F83F4AA
:1004F000801306BF81F480110134013D4EE77FEA8D
:10050000645C18BF7FEA655C29D094EA050F08BFD8
:1005100090EA020F05D054EA000C04BF19461046B9
:1005200030BD91EA030F1EBF0021002030BD5FEAFD
:10053000545C05D14000494128BF41F0004130BD25
:1005400014F580043CBF01F5801130BD01F0004579
:1005500045F0FE4141F470014FF0000030BD7FEAEC
:10056000645C1ABF194610467FEA655C1CBF0B46E7
:10057000024650EA013406BF52EA033591EA030FFE
:1005800041F4002130BD00BF90F0000F04BF0021F6
:10059000704730B54FF4806404F132044FF0000529
:1005A0004FF0000150E700BF90F0000F04BF0021A2
:1005B000704730B54FF4806404F1320410F0004508
:1005C00048BF40424FF000013EE700BF42004FEA03
:1005D000E2014FEA31014FEA02701FBF12F07F4380
:1005E00093F07F4F81F06051704732F07F4208BF37
:1005F000704793F07F4F04BF41F40021704730B53E
:100600004FF4607401F0004521F000411CE700BF89
:1006100050EA010208BF704730B54FF000050AE00C
:1006200050EA010208BF704730B511F0004502D50D
:10063000404261EB41014FF4806404F132045FEA0F
:10064000915C3FF4D8AE4FF003025FEADC0C18BFB8
:1006500003325FEADC0C18BF033202EBDC02C2F1AA
:10066000200300FA03FC20FA02F001FA03FE40EA3C
:100670000E0021FA02F11444BDE600BF70B54FF040
:10068000FF0C4CF4E06C1CEA11541DBF1CEA13551E
:1006900094EA0C0F95EA0C0F00F0DEF82C4481EA86
:1006A000030621EA4C5123EA4C5350EA013518BFA6
:1006B00052EA033541F4801143F4801338D0A0FB93
:1006C00002CE4FF00005E1FB02E506F00042E0FB40
:1006D00003E54FF00006E1FB03569CF0000F18BF46
:1006E0004EF0010EA4F1FF04B6F5007F64F54074EE
:1006F00004D25FEA4E0E6D4146EB060642EAC62181
:1007000041EA55514FEAC52040EA5E504FEACE2EED
:10071000B4F1FD0C88BFBCF5E06F1ED8BEF1004FF0
:1007200008BF5FEA500E50F1000041EB045170BD6C
:1007300006F0004646EA010140EA020081EA0301B0
:10074000B4EB5C04C2BFD4EB0C0541EA045170BDAC
:1007500041F480114FF0000E013C00F3AB8014F126
:10076000360FDEBF002001F0004170BDC4F100046F
:10077000203C35DA0C341BDC04F11404C4F12005F0
:1007800000FA05F320FA04F001FA05F240EA02004B
:1007900001F0004221F0004110EBD37021FA04F681
:1007A00042EB06015EEA430E08BF20EAD37070BD3B
:1007B000C4F10C04C4F1200500FA04F320FA05F09A
:1007C00001FA04F240EA020001F0004110EBD3709C
:1007D00041F100015EEA430E08BF20EAD37070BD0C
:1007E000C4F1200500FA05F24EEA020E20FA04F3E5
:1007F00001FA05F243EA020321FA04F001F0004194
:1008000021FA04F220EA020000EBD3705EEA430E04
:1008100008BF20EAD37070BD94F0000F0FD101F033
:100820000046400041EB010111F4801F08BF013C6C
:10083000F7D041EA060195F0000F18BF704703F0AA
:100840000046520043EB030313F4801F08BF013D31
:10085000F7D043EA0603704794EA0C0F0CEA1355ED
:1008600018BF95EA0C0F0CD050EA410618BF52EAA7
:100870004306D1D181EA030101F000414FF00000AD
:1008800070BD50EA410606BF1046194652EA4306BB
:1008900019D094EA0C0F02D150EA013613D195EA2F
:1008A0000C0F05D152EA03361CBF104619460AD177
:1008B00081EA030101F0004141F0FE4141F4700181
:1008C0004FF0000070BD41F0FE4141F4780170BD71
:1008D00070B54FF0FF0C4CF4E06C1CEA11541DBFD6
:1008E0001CEA135594EA0C0F95EA0C0F00F0A7F8D8
:1008F000A4EB050481EA030E52EA03354FEA013105
:1009000000F088804FEA03334FF0805545EA131317
:1009100043EA12634FEA022245EA111545EA1065DF
:100920004FEA00260EF000419D4208BF964244F176
:10093000FD0404F5407402D25B084FEA3202B61A95
:1009400065EB03055B084FEA32024FF480104FF469
:10095000002CB6EB020E75EB030E22BFB61A7546DD
:1009600040EA0C005B084FEA3202B6EB020E75EB70
:10097000030E22BFB61A754640EA5C005B084FEAD8
:100980003202B6EB020E75EB030E22BFB61A7546A5
:1009900040EA9C005B084FEA3202B6EB020E75EBB0
:1009A000030E22BFB61A754640EADC0055EA060E71
:1009B00018D04FEA051545EA16754FEA06164FEAB4
:1009C000C30343EA52734FEAC2025FEA1C1CC0D160
:1009D00011F4801F0BD141EA00014FF000004FF0ED
:1009E000004CB6E711F4801F04BF01430020B4F1AE
:1009F000FD0C88BFBCF5E06F3FF6AFAEB5EB030C66
:100A000004BFB6EB020C5FEA500C50F1000041EB62
:100A1000045170BD0EF0004E4EEA113114EB5C042F
:100A2000C2BFD4EB0C0541EA045170BD41F4801102
:100A30004FF0000E013C90E645EA060E8DE60CEA0A
:100A4000135594EA0C0F08BF95EA0C0F3FF43BAF27
:100A500094EA0C0F0AD150EA01347FF434AF95EADE
:100A60000C0F7FF425AF104619462CE795EA0C0FC2
:100A700006D152EA03353FF4FDAE1046194622E78F
:100A800050EA410618BF52EA43067FF4C5AE50EA69
:100A900041047FF40DAF52EA43057FF4EBAE12E759
:100AA0004FF0FF3C06E000BF4FF0010C02E000BF3A
:100AB0004FF0010C4DF804CD4FEA410C7FEA6C5C1D
:100AC0004FEA430C18BF7FEA6C5C1BD001B050EAC0
:100AD000410C0CBF52EA430C91EA030F02BF90EAAB
:100AE000020F0020704710F1000F91EA030F58BF6A
:100AF000994208BF90422CBFD8176FEAE37040F0CC
:100B0000010070474FEA410C7FEA6C5C02D150EA69
:100B1000013C07D14FEA430C7FEA6C5CD6D152EA24
:100B2000033CD3D05DF8040B704700BF84461046E9
:100B300062468C461946634600E000BF01B5FFF7E8
:100B4000B7FF002848BF10F1000F01BD4DF808EDB8
:100B5000FFF7F4FF0CBF012000205DF808FB00BF89
:100B60004DF808EDFFF7EAFF34BF012000205DF8E3
:100B700008FB00BF4DF808EDFFF7E0FF94BF012030
:100B800000205DF808FB00BF4DF808EDFFF7CEFF31
:100B900094BF012000205DF808FB00BF4DF808ED70
:100BA000FFF7C4FF34BF012000205DF808FB00BF41
:100BB0004FEA410C7FEA6C5C02D150EA013C0AD159
:100BC0004FEA430C7FEA6C5C02D152EA033C02D14B
:100BD0004FF0000070474FF0010070474FEA4102AC
:100BE00012F5001215D211D56FF47873B3EB62527F
:100BF00012D94FEAC12343F0004343EA505311F0A6
:100C0000004F23FA02F018BF404270474FF0000037
:100C1000704750EA013005D111F0004008BF6FF075
:100C2000004070474FF00000704700BF4A0011D2EB
:100C300012F5001211D20DD56FF47873B3EB625236
:100C40000ED44FEAC12343F0004343EA505323FA42
:100C500002F070474FF00000704750EA013002D1B7
:100C60004FF0FF3070474FF0000070474FEA4102ED
:100C7000B2F1E04324BFB3F5001CDCF1FE5C0DD9FA
:100C800001F0004C4FEAC0024CEA5070B2F1004F44
:100C900040EB830008BF20F00100704711F0804F47
:100CA00021D113F13872BCBF01F00040704741F40C
:100CB00080114FEA5252C2F11802C2F1200C10FA10
:100CC0000CF320FA02F018BF40F001004FEAC123F4
:100CD0004FEAD32303FA0CFC40EA0C0023FA02F398
:100CE0004FEA4303CCE77FEA625307D150EA01336E
:100CF0001EBF4FF0FE4040F44000704701F000403E
:100D000040F0FE4040F40000704700BF80F000401B
:100D100002E000BF81F0004142001FBF5FEA4103D3
:100D200092EA030F7FEA226C7FEA236C6AD04FEAD3
:100D30001262D2EB1363C1BFD21841404840414018
:100D4000B8BF5B42192B88BF704710F0004F40F4CA
:100D5000000020F07F4018BF404211F0004F41F4E6
:100D6000000121F07F4118BF494292EA030F3FD0B2
:100D7000A2F1010241FA03FC10EB0C00C3F12003C5
:100D800001FA03F100F0004302D5494260EB400054
:100D9000B0F5000F13D3B0F1807F06D340084FEABF
:100DA000310102F10102FE2A51D2B1F1004F40EBB4
:100DB000C25008BF20F0010040EA0300704749001C
:100DC00040EB0000013A28BFB0F5000FEDD2B0FAB9
:100DD00080FCACF1080CB2EB0C0200FA0CF0AABFDC
:100DE00000EBC25052421843BCBFD040184370477A
:100DF00092F0000F81F4000106BF80F40000013280
:100E0000013BB5E74FEA41037FEA226C18BF7FEA56
:100E1000236C21D092EA030F04D092F0000F08BF98
:100E20000846704790EA010F1CBF0020704712F07F
:100E30007F4F04D1400028BF40F00040704712F1BE
:100E400000723CBF00F50000704700F0004343F023
:100E5000FE4040F4000070477FEA226216BF084659
:100E60007FEA23630146420206BF5FEA412390EA1C
:100E7000010F40F4800070474FF0000304E000BF12
:100E800010F0004348BF40425FEA000C08BF7047C3
:100E900043F0964301464FF000001CE050EA010287
:100EA00008BF70474FF000030AE000BF50EA01029C
:100EB00008BF704711F0004302D5404261EB410189
:100EC0005FEA010C02BF84460146002043F0B643AE
:100ED00008BFA3F18053A3F50003BCFA8CF2083AD3
:100EE000A3EBC25310DB01FA02FC634400FA02FCDC
:100EF000C2F12002BCF1004F20FA02F243EB0200E3
:100F000008BF20F00100704702F1200201FA02FC44
:100F1000C2F1200250EA4C0021FA02F243EB020037
:100F200008BF20EADC7070474FF0FF0C1CEAD0527B
:100F30001EBF1CEAD15392EA0C0F93EA0C0F6FD03C
:100F40001A4480EA010C400218BF5FEA41211ED01A
:100F50004FF0006343EA501043EA5111A0FB013106
:100F60000CF00040B1F5000F3EBF490041EAD371DB
:100F70005B0040EA010062F17F02FD2A1DD8B3F157
:100F8000004F40EBC25008BF20F00100704790F0C6
:100F9000000F0CF0004C08BF49024CEA502040EA18
:100FA00051207F3AC2BFD2F1FF0340EAC2507047DE
:100FB00040F400004FF00003013A5DDC12F1190F1C
:100FC000DCBF00F000407047C2F10002410021FA8E
:100FD00002F1C2F1200200FA02FC5FEA310040F1A6
:100FE000000053EA4C0308BF20EADC70704792F01F
:100FF000000F00F0004C02BF400010F4000F013A57
:10100000F9D040EA0C0093F0000F01F0004C02BF51
:10101000490011F4000F013BF9D041EA0C018FE7C0
:101020000CEAD15392EA0C0F18BF93EA0C0F0AD0C6
:1010300030F0004C18BF31F0004CD8D180EA0100EC
:1010400000F00040704790F0000F17BF90F0004F85
:10105000084691F0000F91F0004F14D092EA0C0F67
:1010600001D142020FD193EA0C0F03D14B0218BFFA
:10107000084608D180EA010000F0004040F0FE4040
:1010800040F40000704740F0FE4040F440007047DC
:101090004FF0FF0C1CEAD0521EBF1CEAD15392EA5B
:1010A0000C0F93EA0C0F69D0A2EB030280EA010C4B
:1010B00049024FEA402037D04FF0805343EA1111E4
:1010C00043EA10130CF000408B4238BF5B0042F142
:1010D0007D024FF4000C8B4224BF5B1A40EA0C00E7
:1010E000B3EB510F24BFA3EB510340EA5C00B3EB19
:1010F000910F24BFA3EB910340EA9C00B3EBD10F07
:1011000024BFA3EBD10340EADC001B0118BF5FEA58
:101110001C1CE0D1FD2A3FF650AF8B4240EBC25081
:1011200008BF20F0010070470CF0004C4CEA502042
:101130007F32C2BFD2F1FF0340EAC250704740F491
:1011400000004FF00003013A37E792F0000F00F083
:10115000004C02BF400010F4000F013AF9D040EA01
:101160000C0093F0000F01F0004C02BF490011F495
:10117000000F013BF9D041EA0C0195E70CEAD1538D
:1011800092EA0C0F08D142027FF47DAF93EA0C0F74
:101190007FF470AF084676E793EA0C0F04D14B0258
:1011A0003FF44CAF08466EE730F0004C18BF31F00A
:1011B000004CCAD130F000427FF45CAF31F0004304
:1011C0007FF43CAF5FE700BF4FF0FF3C06E000BF9D
:1011D0004FF0010C02E000BF4FF0010C4DF804CDC0
:1011E0004FEA40024FEA41037FEA226C18BF7FEAD0
:1011F000236C11D001B052EA530C18BF90EA010FD2
:1012000058BFB2EB030088BFC81738BF6FEAE17060
:1012100018BF40F0010070477FEA226C02D15FEAFC
:10122000402C05D17FEA236CE4D15FEA412CE1D068
:101230005DF8040B704700BF844608466146FFE72F
:101240000FB5FFF7C9FF002848BF10F1000F0FBD11
:101250004DF808EDFFF7F4FF0CBF012000205DF80A
:1012600008FB00BF4DF808EDFFF7EAFF34BF01208F
:1012700000205DF808FB00BF4DF808EDFFF7E0FF28
:1012800094BF012000205DF808FB00BF4DF808ED79
:10129000FFF7D2FF94BF012000205DF808FB00BFDC
:1012A0004DF808EDFFF7C8FF34BF012000205DF8BE
:1012B00008FB00BF4FEA40024FEA41037FEA226C7D
:1012C00002D15FEA402C08D17FEA236C02D15FEAA9
:1012D000412C02D14FF0000070474FF001007047E1
:1012E00042000ED2B2F1FE4F0BD34FF09E03B3EB90
:1012F000126209D44FEA002343F0004323FA02F0BC
:1013000070474FF00000704712F1610F01D14202A7
:1013100002D14FF0FF3070474FF00000704700BF20
:101320007BB972B90029BEBF00204FF0004106E032
:1013300008BF00281CBF6FF000414FF0FF30FEF7E0
:10134000DFBFADF1080C6DE904CE002909DB002BED
:101350001ADB00F0BCF8DDF804E0DDE9022304B09C
:101360007047404261EB4101002B1BDB00F0AFF8FE
:10137000DDF804E0DDE9022304B0404261EB410105
:10138000524263EB43037047524263EB430300F066
:101390009EF8DDF804E0DDE9022304B0404261EB91
:1013A00041017047524263EB430300F090F8DDF8CF
:1013B00004E0DDE9022304B0524263EB43037047CB
:1013C00053B94AB9002908BF00281CBF4FF0FF31AC
:1013D0004FF0FF30FEF794BFADF1080C6DE904CE7D
:1013E00000F075F8DDF804E0DDE9022304B0704791
:1013F000D0B5FFF7EBF800220B4B06460F46FFF780
:101400003DF9FFF713FC0446FFF7BEF80022074B37
:10141000FFF734F902460B4630463946FEF776FFB1
:10142000FFF704FC2146D0BD0000F03D0000F04174
:10143000D0B500220B4B06460F46FFF71FF9FFF70A
:10144000F5FB0446FFF7A0F80022074BFFF716F95B
:1014500002460B4630463946FEF758FFFFF7E6FBDB
:101460002146D0BD0000F03D0000F04110F8012BF6
:1014700011F8013B012A28BF9A42F7D0D01A7047D1
:10148000034611F8012B03F8012B002AF9D170470C
:10149000034613F8012B002AFBD1181A01387047B4
:1014A00038B50022002304460D46FFF759FB28B942
:1014B00020462946BDE83840FFF7BABF204605F16F
:1014C0000041FFF7B5FF404261EB410138BD2DE916
:1014D000F04786468C460846089E154674461946CF
:1014E000002B40F0C1808542B2FA82F245D94AB160
:1014F000C2F1200300FA02FC954094402EFA03F357
:1015000043EA0C0C4FEA154EA8B2230CBCFBFEF8C4
:101510000EFB18CC08FB00F943EA0C43994528D987
:10152000EB1808F1FF3704D2994502D9A8F1020758
:101530002B44A3EB0903A4B2B3FBFEFC0EFB1C334C
:101540000CFB00F044EA0344A04214D92C190CF11E
:10155000FF3304D2A04202D9ACF102032C44241A76
:1015600043EA07401EB1D440002334607360BDE8F5
:10157000F0874746DDE76346F1E792BB431B012155
:101580004FEA154EAFB2200CB3FBFEFC0EFB1C3332
:101590000CFB07F840EA0343984561D9EB180CF1BE
:1015A000FF3004D2984502D9ACF102002B44A3EBE2
:1015B0000803A4B2B3FBFEFC0EFB1C330CFB07F7C5
:1015C00044EA0344A7424DD92C190CF1FF3304D24D
:1015D000A74202D9ACF102032C44E41B43EA0040C9
:1015E000C0E7C2F120039540944020FA03F12EFA9F
:1015F00003F34FEA154E9040AFB20343B1FBFEFC3C
:101600000EFB1C10190C0CFB07F841EA0041884541
:1016100022D969180CF1FF3004D2884502D9ACF107
:1016200002002944A1EB08019BB2B1FBFEFC0EFBBA
:101630001C110CFB07F743EA01439F420ED9EB183C
:101640000CF1FF3104D29F4202D9ACF102012B44CC
:10165000DB1B41EA004193E76046E3E76146F7E7B9
:101660006046A4E76346B8E7834206D916B900216D
:1016700008467CE7C6E900E0F9E7B3FA83F78FB9DB
:10168000834201D3724508D8BEEB020460EB03032A
:1016900001209C461EB9002169E73846FAE7C6E9F1
:1016A000004CF8E7C7F1200CBB400EFA07F522FA10
:1016B0000CF42EFA0CF1BA401C4320FA0CF3B8409B
:1016C0004FEA144901431FFA84FEB3FBF9F809FB02
:1016D00018300B0C08FB0EFA43EA00439A4540D938
:1016E000E31808F1FF3004D29A4502D9A8F10200AC
:1016F0002344A3EB0A0389B2B3FBF9F809FB1833BF
:1017000008FB0EFE41EA03418E452CD9611808F111
:10171000FF3304D28E4502D9A8F10203214443EAE3
:101720000040A1EB0E01A0FB02984145CE46434686
:1017300002D306D14D4504D20138B9EB020E68EB55
:101740000403002EA7D0B5EB0E0261EB030101FAF2
:101750000CFC22FA07F3F9404CEA0303C6E9003116
:1017600099E74046C5E74346D9E70000000000007E
:101770002DE9F04704468846174688B028F0F4FB68
:101780000A220023FFF71CFEB8F1010F06460D46A2
:1017900007D102460B46204627491FF036F80020A5
:1017A00011E07F6825483946FFF760FE70B1394681
:1017B0002348FFF75BFE48B120463A4621491FF017
:1017C00040F86FF0040008B0BDE8F087304618A379
:1017D000D3E900232946FFF7A3FD06460D46104630
:1017E0001946194A0023FFF79BFD80460F46104615
:1017F00019464EF660220023FFF792FD8246894685
:10180000104619464FF47A720023FFF789FDCDE99F
:1018100002A9CDE90623CDE9040132462B46204634
:10182000CDE9008709491EF0F0FFB8E7AFF300806B
:10183000005C260500000000A3E40210B4E40210DE
:10184000B7E40210C0E4021080EE3600D8E40210C3
:10185000012870B50C4607D029F0A2F816221C4BBF
:101860001A504FF0FF3070BD8A681A4B9A42F3D875
:1018700028F07AFB184D23686668A3FB053205FB48
:101880000622A468154D1B1942EBE474A0FB050267
:1018900005FB0121181A64EB01010BA3D3E9002316
:1018A000FFF73EFDEFF31184202383F31288BFF38B
:1018B0006F8F0B4BC3E900019A6084F31188BFF36B
:1018C0006F8F0020CFE700BF00CA9A3B00000000E6
:1018D00014000000FFC99A3B00CA9A3BA086010091
:1018E00050220030000000002DE9F04F85B0029238
:1018F000026E88464249C2F3C2628A5C0190B3FB21
:10190000F2F6029B3246032B4FF000033DD136A185
:10191000D1E90001FFF754FD324607468A4634A15B
:10192000D1E900010023FFF74BFD0124054647459F
:101930007AF1000A39D24FF0FF3B4FF0FF09002740
:10194000304B0134A4FB034A039332460023204664
:101950005146FFF735FD404571F10001034607F19F
:10196000010203D3A0EB080058452AD3B2F5807FCB
:1019700024D0039B5846E4184F462B464AF1000AF0
:10198000B946834617461D46DFE71BA1D1E9000192
:10199000FFF716FD324607468A4600233B211A48C8
:1019A000FFF70EFD00240546C1E701980021029AC9
:1019B00026F002FD384605B0BDE8F08F4F462B46B5
:1019C00008E0B2F5807F05D0039964184AF1000A57
:1019D0000028D5D101983946029A039326F0ECFCF1
:1019E000039B1846E7E700BF00943577000000002E
:1019F00000CA64D63B00000000CA9A3B0000000009
:101A0000DE2E031000CA9A3B0000CA9A00000000B4
:101A10002DE9F84FC04A21F0004304460D46934299
:101A20008B4620D9BD4A934201D80CD158B12246E9
:101A30002B4620462946FEF76BFC04460D46204601
:101A40002946BDE8F88FBBF1000F95A3D3E9002329
:101A500003DD95A1D1E90001EDE795A1D1E90001F0
:101A6000FEF754FCE9E7AE4A934211D8A2F1DE72C8
:101A700093420AD890A3D3E90023FEF749FC002241
:101A8000A84BFFF78BF80028D9D14FF0FF3A27E099
:101A9000A54A064621F00047934200F2B880A2F51D
:101AA0005022934200F29B8002463B4639464FF05B
:101AB000000AFEF72DFC00229A4BFEF727FC044695
:101AC0000D4600224FF0804330463946FEF720FC99
:101AD00002460B4620462946FEF7FAFE04460D460E
:101AE00022462B4620462946FEF7C8FD02460B46F5
:101AF00080468946FEF7C2FD06460F4670A3D3E92D
:101B00000023FEF7BBFD70A3D3E90023FEF700FC22
:101B100032463B46FEF7B2FD6DA3D3E90023FEF744
:101B2000F7FB32463B46FEF7A9FD6BA3D3E9002342
:101B3000FEF7EEFB32463B46FEF7A0FD68A3D3E975
:101B40000023FEF7E5FB32463B46FEF797FD66A312
:101B5000D3E90023FEF7DCFB42464B46FEF78EFD41
:101B6000804689463046394661A3D3E90023FEF713
:101B700085FD61A3D3E90023FEF7C8FB32463B464F
:101B8000FEF77CFD5EA3D3E90023FEF7BFFB3246E0
:101B90003B46FEF773FD5CA3D3E90023FEF7B6FBDB
:101BA00032463B46FEF76AFD59A3D3E90023FEF710
:101BB000ADFB32463B46FEF761FD02460B46404612
:101BC0004946FEF7A5FB22462B46FEF757FDBAF124
:101BD000FF3F02460B4644D12046294640E70022FB
:101BE000504B39464FF0010AFEF790FB04460D4674
:101BF00000224C4B30463946FEF78AFB02460B4624
:101C000020462946FEF764FE04460D4668E7474A2B
:101C100093421BD20022464B39464FF0020AFEF790
:101C200075FB002204460D46414B30463946FEF70F
:101C300025FD00223B4BFEF76BFB02460B46204680
:101C40002946FEF745FE04460D4649E702463B4657
:101C500000203849FEF73CFE4FF0030A04460D46CB
:101C60003EE7354B354E03EBCA0306EBCA06D3E914
:101C70000023FEF74BFB22462B46FEF747FB0246AE
:101C80000B46D6E90001FEF741FBBBF1000F04460D
:101C90000D46BFBF024601F1004314461D46CEE685
:101CA000075C143326A6913C182D4454FB21F93FC0
:101CB000182D4454FB21F9BF9C7500883CE4377E05
:101CC00011DA22E33AAD903FEB0D76244B7BA93F2E
:101CD000513DD0A0660DB13F6E204CC5CD45B73FFC
:101CE000FF8300922449C23F0D5555555555D53FA8
:101CF0002F6C6A2C44B4A2BF9AFDDE522DDEAD3F9C
:101D00006D9A74AFF2B0B33F711623FEC671BC3F3B
:101D1000C4EB98999999C93FFFFF0F440000F07FE9
:101D2000FFFFDB3F0000F03FFFFFF23F008003407A
:101D30000000F83F0000F0BF40C8021060C8021069
:101D40002DE9F04FC24B21F000488DB082469845F6
:101D50008B461446049107D80023C2E900AB002249
:101D6000C4E90223002526E0BA4B984576D8049BA7
:101D7000B94D002BA8A3D3E9002338DDFEF7C6FA3E
:101D8000A84506460F461AD0A5A3D3E90023FEF7BF
:101D9000BDFA02460B468046894630463946FEF774
:101DA000B5FA9FA3D3E900230125FEF7AFFAC4E9F2
:101DB0000089C4E9020128460DB0BDE8F08F9AA35E
:101DC000D3E90023FEF7A2FA06460F4698A3D3E90B
:101DD0000023FEF79BFA02460B46804689463046B2
:101DE0003946FEF793FA92A3D3E90023DCE7FEF726
:101DF0008FFAA84506460F4618D089A3D3E90023D9
:101E0000FEF786FA02460B4680468946304639463A
:101E1000FEF77CFA82A3D3E90023FEF779FA4FF0AC
:101E2000FF35C4E90089C4E90201C4E77EA3D3E910
:101E30000023FEF76DFA06460F467DA3D3E9002383
:101E4000FEF766FA02460B4680468946304639461A
:101E5000FEF75CFA76A3D3E90023DEE77F4B9845D3
:101E600000F2CD8021F0004773A3D3E90023394667
:101E7000FEF704FC00227A4BFEF74AFAFEF7AEFEAC
:101E80000546FEF791FB02460B46CDE9022362A30D
:101E9000D3E90023FEF7F2FB02460B4650463946D3
:101EA000FEF734FA82468B465DA3D3E90023DDE9D1
:101EB0000201FEF7E3FB02460B4606460F4650467C
:101EC0005946FEF723FA1F2D05DC6A1E654B53F8B1
:101ED0002230434508D14FEA28530593C1F30A53F2
:101EE000C3EB1853102B02DCC4E9000139E04EA308
:101EF000D3E90023DDE90201FEF7C0FB06460F46E9
:101F000002460B4650465946FEF700FA02460B467B
:101F10008046894650465946FEF7F8F932463B4618
:101F2000FEF7F4F906460F4641A3D3E90023DDE9A5
:101F30000201FEF7A3FB32463B46FEF7E7F90246F5
:101F40000B4606460F4640464946FEF7DFF9059A1E
:101F5000C1F30A53D31A312B20DCC246CB46C4E965
:101F60000001D4E900895046594642464B46FEF7E7
:101F7000CDF93B463246FEF7C9F9049B002BC4E974
:101F80000201BFF618AF09F10043C4F80080A06059
:101F9000636001F10043E3606D420CE728A3D3E9DD
:101FA0000023DDE90201FEF769FB06460F46024603
:101FB0000B4640464946FEF7A9F982468B46024643
:101FC0000B4640464946FEF7A1F932463B46FEF72E
:101FD0009DF906460F461CA3D3E90023DDE9020163
:101FE000FEF74CFB32463B46FEF790F906460F469D
:101FF00002460B4650465946FEF788F974E71A4BDD
:10200000984533D902460B46FEF780F9C4E9020130
:10201000C4E90001A6E600BF00004054FB21F93FDF
:102020003163621A61B4D03D0000601A61B4D03DE2
:102030007370032E8A19A33B83C8C96D305FE43FD8
:102040000000002E8A19A33BC14920259A837B39C1
:10205000FB21E93F7BD90240FB21F93FFB213941BC
:102060000000E03F98D60210FFFFEF7F4FEA2855AF
:102070000DF13009A5F21645A8EB05514FF0030804
:102080000F46FEF7ABFDFEF78FFA02460B465046B1
:102090003946CDE90623FEF739F900221F4BFEF73A
:1020A000EDFA0F460646FEF799FDFEF77DFA024669
:1020B0000B463046394600260027CDE90823FEF7B7
:1020C00025F90022154BFEF7D9FACDE90A0132466F
:1020D0003B46C24608F1FF3879E90201FEF736FDBA
:1020E0000028F4D10E4B2A46214606A8019302236C
:1020F000009353461CF07EFC049B0546002BBFF664
:102100005AAED4E9002101F10043C4E90023D4E927
:10211000022101F10043C4E902233DE700007041C0
:1021200018D70210000000002DE9F74F21F00046FB
:1021300080468946B6F1795FCDE90023C0F08480FE
:1021400002460B46FEF79AFA04460D4600224C4B17
:10215000FEF794FA82468B46204629463CA3D3E9F3
:102160000023FEF78BFA3CA3D3E90023FEF7D0F857
:1021700022462B46FEF782FA39A3D3E90023FEF765
:10218000C5F822462B46FEF779FA37A3D3E9002398
:10219000FEF7BEF822462B46FEF770FA34A3D3E9C9
:1021A0000023FEF7B3F822462B46FEF767FA32A368
:1021B000D3E90023FEF7ACF822462B46FEF75EFA81
:1021C00022462B46FEF75AFA04460D46404649463B
:1021D000DDE90023FEF752FA0B4602462946204667
:1021E000FEF794F8274B804689469E420ED8024659
:1021F0000B4650465946FEF789F802460B4600202A
:102200002149FEF783F803B0BDE8F08F1F4B00248F
:1022100000201D499E42224694BFA6F500151C4D84
:102220002B46FEF773F8224606460F462B465046CD
:102230005946FEF76BF842464B46FEF767F80246F2
:102240000B4630463946DCE700200F49DBE700BF8C
:10225000D43888BEE9FAA8BDC4B1B4BD9EEE213E13
:10226000AD529C804F7E923E9015CB19A001FA3E54
:102270007751C1166CC1563F4C5555555555A53F24
:102280000000E03F3233D33F0000F03F0000E93F61
:102290000000D23F000000002DE9F04F1F4621F062
:1022A000004385B00446B3F1795F0D4616464FD31F
:1022B00002460B46FEF7E2F982468B4602460B4683
:1022C00020462946FEF7DAF98046894650465946A7
:1022D0003BA3D3E90023FEF7D1F93BA3D3E90023C5
:1022E000FEF714F852465B46FEF7C8F938A3D3E967
:1022F0000023FEF70DF852465B46FEF7BFF936A302
:10230000D3E90023FEF702F852465B46FEF7B6F922
:1023100033A3D3E90023FDF7FBFF0E9BCDE90001BA
:10232000DBB902460B4650465946FEF7A7F92EA3E5
:10233000D3E90023FDF7EAFF42464B46FEF79EF93C
:1023400002460B4620462946FDF7E2FF04460D46AD
:102350002046294605B0BDE8F08F0022264B3046C6
:102360003946FEF78BF9DDE90023CDE9020140464D
:102370004946FEF783F902460B46DDE90201FDF707
:10238000C5FF52465B46FEF779F932463B46FDF7FC
:10239000BDFF06460F464046494615A3D3E9002334
:1023A000FEF76CF902460B4630463946FDF7AEFFA4
:1023B00002460B4620462946FDF7A8FFC6E700BFA8
:1023C0007CD5CF5A3AD9E53DEB9C2B8AE6E55A3EBF
:1023D0007DFEB157E31DC73ED561C119A0012A3F5B
:1023E000A6F810111111813F495555555555C53F56
:1023F000495555555555C5BF0000E03F0000000048
:102400002DE9F04F994621F00046D74B89B082461E
:102410008B469E429046129F029157D8FEF7DEFBF4
:102420000546002878D17B1C51460B4333430CD121
:10243000524633460020CD49FEF74AFA82468B4683
:102440005046594609B0BDE8F08F012FF8D04246FA
:102450004B4650465946FDF75BFF02460B460F467A
:102460000020C349FEF734FA2E462C46CDE9000180
:10247000DDE90023304652461D4639465B46FDF7EE
:1024800045FF02460B4640464946FDF73FFF3246B0
:102490002B46FEF7F3F8324682468B462B463046F3
:1024A0003946FEF7EBF80022B04BFDF731FF02464C
:1024B0000B4650465946FDF72BFFDDE90023FEF79A
:1024C000DDF822462B46FDF723FFB7E7A94B9E42D6
:1024D00022D9029B002B05DA01F100439B4609F14A
:1024E0000043994652465B4681A1D1E90001FDF7C0
:1024F0000DFF04460D4642464B464FF000084FF094
:1025000000097DA1D1E90001FDF700FF22462B461D
:10251000FDF7FEFE82468B4652465B4650465946C4
:10252000FEF7ACF802460B46CDE90023FEF7A6F80D
:1025300004460D4650465946DDE90023FEF79EF855
:102540006FA3D3E90023CDE9040120462946FEF715
:1025500095F86DA3D3E90023FDF7DAFE22462B465A
:10256000FEF78CF86AA3D3E90023FDF7D1FE2246DB
:102570002B46FEF783F868A3D3E90023FDF7C8FED6
:1025800022462B46FEF77AF865A3D3E90023FDF730
:10259000BFFE22462B46FEF771F863A3D3E9002362
:1025A000FDF7B6FEDDE90023FEF768F860A3D3E986
:1025B0000023CDE9060120462946FEF75FF85EA319
:1025C000D3E90023FDF7A4FE22462B46FEF756F87A
:1025D0005BA3D3E90023FDF79BFE22462B46FEF7C3
:1025E0004DF859A3D3E90023FDF792FE22462B466E
:1025F000FEF744F856A3D3E90023FDF789FE2246EF
:102600002B46FEF73BF854A3D3E90023FDF780FEE9
:1026100002460B46DDE90601FDF77AFEDDE90423FB
:10262000FEF72CF842464B46FDF772FEDDE900232B
:10263000FEF724F842464B46FDF76AFE04460D4677
:1026400047A3D3E90023DDE90401FEF717F822468A
:102650002B46FDF75DFE0B460246CDE900015046D4
:102660005946FDF755FE434B04460D469E4240F247
:1026700083803846FDF798FF2246804689462B46E0
:1026800020462946FDF7FAFF06460F4642464B46CE
:1026900020462946FDF73CFE02460B4630463946A9
:1026A000FEF716F9DDE90023FDF730FE02460B4682
:1026B00050465946FDF72AFE02460B46FDF728FE16
:1026C00002460B4640464946FDF720FE029B044663
:1026D0000D464FEAA37A0AF0020ACAF10100FDF79B
:1026E00063FF02460B4620462946FDF7C7FFA5E6D5
:1026F000182D4454FB21E93F075C143326A6813C86
:10270000D47ABF74702AFB3EE9A7F0320FB8123FAB
:1027100068108D1AF726303F1583E0FEC8DB573F5F
:1027200093846EE9E326823FFE41B31BBAA1AB3F1F
:10273000735360DBCB75F3BEA69237A0887E143F3F
:102740000165F2F2D844433F280356C9226D6D3F1C
:1027500037D60684F464963F7AFE10111111C13FFA
:10276000635555555555D53FFFFF2F3E0000F03FAF
:102770000000F0BF2794E53F012F33D04FF0000851
:10278000894602460B46002018494446CDE9028995
:10279000FEF79EF852460F465B4606460D464046FB
:1027A0004946FDF7B3FD02460B46DDE90001FDF7A2
:1027B000ADFD42463B46FDF761FF424682468B46F1
:1027C0003B4640464946FDF759FF0022084BFDF7BE
:1027D0009FFD02460B4650465946FDF799FD32468D
:1027E0003B466CE682468B462AE600BF0000F0BFFF
:1027F0000000F03F70B5584BADF5107D022002A9E6
:102800001B688F934FF0000301F024FB044668B16E
:10281000014652481DF0A0F84F4B1A688F9B5A4052
:102820004FF0000300F0948027F03CFB014610239A
:10283000029807AA1DF073FC044610B101464848EF
:10284000E8E79DF82330012B05D142F24133BDF872
:1028500028209A4205D043481DF07EF86FF01504F9
:10286000DAE79DF82A30099EDB072CD528F098F886
:102870003D4B185827F094F83C49FEF7F7FD10BB84
:1028800003F0D4FD3A4D21461DF02AFF204601F009
:10289000B7FFAE68336D1BB10421284604AA9847E0
:1028A0004FF47A70002127F050F9049B002BF1D0EF
:1028B00003F0BCFD04232F4A0093126801232C4926
:1028C00004F04AFCA8E79DF82A5015F002050AD04A
:1028D00029482A4B816898474FF0FF314FF0FF306D
:1028E00027F033F9F8E729464FF404720BA827F0D4
:1028F0003CFD234BCDE904550C93224B22490D930B
:10290000224B03AA0E93224B0BA8CDE98C36012350
:102910008DF8103004AB069507F04CFF054628B142
:1029200001461C481DF018F82C4675E703980F491E
:10293000843007F011FF014628B917481DF00CF844
:102940006FF0010468E72A46039807F0EFFF63E79A
:1029500020460DF5107D70BDC823033015DD021033
:1029600037DD021055DD0210100000006CDD021092
:1029700024AD0210C0C80210680B003011000F1007
:10298000BD1F0210E71F0210B1DD0210FB1F021075
:1029900000000F1071DD02108FDD02107FB50BAB50
:1029A00005930393054B0222029300231846CDE9B9
:1029B000003300F0BDFF07B05DF804FBBCDD021082
:1029C0002DE9F04F93B00093944B03921B68119341
:1029D0004FF00003039B840703F004030293039B5F
:1029E0000546C3F3C20303F101030E46DDF8708010
:1029F000059340F0C481041D68B1072910D86FF019
:102A00001B00864B1A68119B5A404FF0000300F0E0
:102A1000B98127F047FA01F007063444C6F10806E9
:102A2000009B4FF000094FF0040A591E4FF0FF338E
:102A30004F460193CB465346CDF810900DB1009A06
:102A400022600598002800F3EF807548009A8242C2
:102A500003D374488242C0F0E780039AA4EB050ECA
:102A600092074FEA9E0000F10A810F2F00F2B18019
:102A7000002D00F00C8107F148020DEB020C019AC9
:102A80000CF8240C0CF8142C049801300490EEE09F
:102A90007A285DD84B280ED8472859D829282DD810
:102AA000252852D054D820287AD02338D0F1000BD2
:102AB0004BEB000B74E04C382E2849D8DFE800F0CF
:102AC0007048484848484848484848484B4848485B
:102AD000484848484859484B4B595959704B6D48DC
:102AE0007048184B184848827F4B48484B487F0035
:102AF00000204FF0000B4FF0040A38E001222A3882
:102B0000C0B202FA00F010EA0E0F49D110F0625C78
:102B10002FD110EA020B43D06046013C5444B4FB71
:102B2000FAF40AFB04F4002D61D0A3EB050CA444D5
:102B3000B4453FF664AF002868D1042B47D158F85C
:102B4000043B2360042304342AE0019A013A0192F1
:102B50004FF0000B24E011F8010C6C2834D1002058
:102B600011F8023C83466C2BC5D14FF0080A53463E
:102B7000D3E708F1070828F00708073424F0070412
:102B8000F8E802AB35B106982044B0423FF637AFC3
:102B9000C4E900AB4FF0000B08344FF0080A53466D
:102BA00011F8010F00287FD0BBF1000F7FF470AF48
:102BB0002528F5D14FF0010B019B013301934FF014
:102BC000040AECE7584694E700208346A5E7082B63
:102BD00002D06FF0150014E708F1070828F0070885
:102BE000F8E80223C4E9002308230834D8E768B9C9
:102BF000042B02D108F10408A4E7082BE9D108F15D
:102C0000070828F0070808F10808EDE7059A013AD7
:102C1000059258F8042B009210E700BFC823033038
:102C2000B4A9021064300310039A900720D54FF026
:102C3000010CA4EB050E4FEA9E00BEF5007FC8D242
:102C40000F2FC6D8F5B107F148020DEB020E019A1D
:102C5000C0B20EF8240C0EF8142CBCF1000F3FF497
:102C600013AF60F07F000EF8240C09F10109013761
:102C7000C5F108024FF6DA7E0434069290E74FF071
:102C8000000CDAE7BCF1000F01D00136EFE7029843
:102C900002360028EBD10098CDE90631FEF7F8FBAB
:102CA000DDE906310644E2E7631BB3F5806F90D29D
:102CB0001DB9A6F10804E018A3E6029A9B08286053
:102CC0002B709DF81030C2B1EB7085F80290B9F10D
:102CD000000F05D0002209A8C5F1010C97420ED1C2
:102CE0004FF0000AC5F101030DF1240801930DF125
:102CF000340B574512D1601B83E66B70E5E710F883
:102D0000013B190608D50CEB040EB64503F07F0312
:102D10003FF675AE04F8013B0132DFE7B9F1000F71
:102D200003D098F90020002A17DB029BD3B11AF8D0
:102D30000B2004F8012B0022019B18191044B0420B
:102D40003FF65DAE98F80000009904F8010B2046AC
:102D5000039227F0E3FA039A14440AF1010A08F1F6
:102D60000108C6E798F8002055F822300093029B2E
:102D7000009845F82230FEF78BFB421CDCE76FF031
:102D80000D003EE613B0BDE8F08F00BF2DE9F04F17
:102D90009DB00A93DDE926B30B939B4B04461B6859
:102DA0001B934FF00003CBF3C0031646884690F800
:102DB00002A00D9341B9457800780AEB80002044C9
:102DC00045451CD8A0EB0408E3780C93BAF1000F3A
:102DD00002D01BF0010F1BD10C9B002B3FD11EB169
:102DE000414620460A9AB0474546874B1A681B9BC6
:102DF0005A404FF0000300F0888127F053F8471C39
:102E00003846FEF745FB0130384408F10108D7E7A2
:102E10002278636807920993079B92000E9204EB55
:102E20008301002E40F0E7800F460026454601EB67
:102E30000A08474522D017F8013B079154F82300B0
:102E4000FEF726FB0B9B0799013033B1289B9E426E
:102E50003EBF0B9B23F8160001360544E9E71BF043
:102E6000020FBCD023781F4607939B000E93636824
:102E700004EB87010993002E56D145461BF0050F40
:102E800001EB0A070CBF4FF0020A4FF0010A0C9B3E
:102E900007EB43090BF0020307934F45A5D017F842
:102EA000021B17F8013C54F82380584B984502D375
:102EB000574B984519D30D9B23B309981CF023FD5C
:102EC00000B35448036813F0060F0CD0099B04911B
:102ED0000393514B01460293002302221846CDE989
:102EE0000033FFF75BFD023DD7E70D9B23B1099847
:102EF0001CF009FD0028E4D11BF0010F05D1A5EB62
:102F00000A05CAE7079B002BC7D04046FEF7C0FA68
:102F10000B9B3BB1289B9E423FBF0B9A431C22F860
:102F2000163001360544B8E7BAF1000F67D01BF040
:102F3000040767D057464FF0000917A8524608917A
:102F400027F0ECF9089901EB0A0308930C9B0C9A03
:102F50005B001093089B03EB42030F930BF00203FB
:102F600011930F9B089A934258D163781BF0020F7C
:102F700018BF002103EB090208BF79081BF0010FFD
:102F8000D2B240F094801BF0040F14BF38460020EA
:102F90006270A070E17020460A9A0E990993B047BA
:102FA000051EFFF622AF079B39462370099B0A9A3C
:102FB00063700C9B84F802A0E37017A8B047071E4B
:102FC000C0F29F800E9BA8EB0A01C91A109B0A9AB7
:102FD0000898C91AB0470028C0F295804FF0000841
:102FE0002F443D180DF14C0BC14562D800210A9ABF
:102FF0000846B047F9E6D146002713A89EE7574692
:10300000D146A0E7B9469EE7C8230330B4A9021011
:10301000643003102C0A0030BCDD0210089B13F84A
:10302000021B13F8015C089354F82520394B9A428F
:1030300002D3394B9A4217D30D9B23B109981CF048
:1030400062FC00288DD1119BCBB907F170037A1C6B
:103050000DEB03001CAB023753FA82F200F8141C8C
:10306000FFB202F8145C7CE70D9B2BB109981CF0B1
:103070004AFC00287FF475AF1BF0010F0AD009F15C
:10308000700309F101020DEB030909F8245C5FFAF2
:1030900082F966E71BF0040F3FF463AF07F170039A
:1030A0007A1C0DEB030707F8145CD7B259E7002030
:1030B0006EE718F80B3054F823A08DF84B300B9BBB
:1030C000EBB1289B98451AD20B9B33F8187001215D
:1030D0000A9A0DF14B00B047002814DB054427B9CC
:1030E0005046FEF7D5F9471CBFB2394650460A9AFA
:1030F000B047002807DB054408F1010874E7002702
:10310000E5E73D4671E605466FE628461DB0BDE899
:10311000F08F00BFB4A9021064300310014B186097
:10312000704700BF5803003070B50446044E451880
:10313000AC4200D170BD336814F8010B9847F7E733
:103140005803003080B505460E461746984619F0DC
:1031500037F8034627F024FC0446DFF8189042466F
:1031600049F8003039463046A84754F8090005F0C0
:10317000F7FC00BF1000000000B5162227F010FC7D
:10318000024B1A504FF0FF305DF804FB14000000B2
:103190000F2800B508D927F003FC0922074B1A5065
:1031A0004FF0FF305DF804FB3022054B02FB00338B
:1031B000D3E8AF3F002BEED00020F3E7140000006F
:1031C000640300303023434330B50D4908330B44CA
:1031D000D3E8AF2F92B1541ED3E8EF5F954204D1EC
:1031E000C3E8EC4FBCF1000FF6D1F1D1012A05D1B3
:1031F0003023584300230A180B50536030BD00BFE2
:103200005C03003038B504461546FFF7C1FF0028BF
:103210000BDB094A59B1302303FB04235B688B4263
:1032200005D027F0BDFB054B1D50002038BD3023D5
:103230005C431059FAE700BF5C0300301400000043
:103240002DE9F041184E90461F460024354633685C
:10325000984202D1736899420BD00134102C06F1C8
:103260003006F4D127F09CFB17224FF0FF340F4BB0
:103270001A502046FFF78CFF002812DBB8F1000F30
:1032800005D0302101FB04510C31C8F8001017B9EA
:103290000120BDE8F081302303FB045520353D605B
:1032A000F6E70020F5E700BF5C03003014000000E3
:1032B00038B504461546FFF76BFF00280DDB3023B9
:1032C0006343074AD0184068086015B10C331344B3
:1032D0002B6030235C43105938BD0020FCE700BF51
:1032E0005C03003070B500254FF0FF334FF0FF3224
:1032F00018481CF051FB184BD3E8AF2F82B10135B1
:10330000102D03F13003F7D127F04AFB17224FF0BD
:10331000FF35124B1A500F481CF040FB284670BD79
:1033200030246C43D3E8EF0F0130C3E8E10F0029EC
:10333000F8D10B4E331932515A609A6204F10C00E5
:10334000304426F0C1F804F12000304426F01BFB85
:10335000E1E700BF940B003064030030140000006C
:103360005C0300302DE9F0413024164644430F4AF7
:10337000101911514660C362B6B1F368A3B127F0CA
:103380000FFB0B4F0C3450F807801319054640F221
:10339000051230461CF0EFFAB8F15F0F04D0EB597C
:1033A0005F2B08BF45F80780BDE8F0815C03003063
:1033B00014000000F8B50546FFF7EAFE002824DBFC
:1033C00030246C43124F04F10C063E444FF0FF32A0
:1033D0004FF0FF3330461CF0DFFA3A1953689B6810
:1033E0008BB1D26A385912F4404F0AD02946984717
:1033F000044630461CF0D2FA2846FFF7E3FE20468A
:10340000F8BD9847F4E71C46F3E74FF0FF34F6E7C2
:103410005C0300302DE9F84340F26C7344690569A0
:10342000E1170135E41841F10001022D8CBF0023A2
:103430000123E41AC76861F100010029064607F17B
:10344000FF374EDA6FF4C7704FF4C87200232018AC
:1034500061F10001FDF764FF244B4FF03C0E03FBCC
:103460000044D6E900834FEAE37C99466346022D87
:1034700002468CBF6FF002000920B6680544C6FB07
:103480000E93A9FB0EC60EFB036640F26D1E99203B
:10349000A3080EFB04333B44642745430520B4FBDB
:1034A000F7F40235B5FBF0F51B1B114C1CEB080CB7
:1034B000A2FB042004FB01012B4446EBE87698189C
:1034C0000C4A41F1000380180B4A63F10003A0FB92
:1034D000020102FB031110EB0C0041EB0601BDE8F9
:1034E000F8834FF4C87200232046B3E770FEFFFF55
:1034F000B13A02009405F5FF8051010010B5FFF7C5
:1035000089FF0024024627F04BFA0B46024944503B
:103510001046194610BD00BF14000000094B4FF0C3
:10352000A0420B44B3FBF1F3013BDBB2082B28BFF5
:1035300008230020C2F8A804C2F8AC340123C2F862
:10354000A83470477FD1F0082DE9F84F8146304804
:103550000F461CF0A0FC064670B92E4C0546A0464E
:103560004FF0010ADFF8B0B05C4507D3B9F1000FA6
:1035700002D04FF0010AFDB9BDE8F88F237B83B17B
:103580002368DB680BB120469847636883F806A080
:1035900023681B6943B963680422204619681CF03C
:1035A000ADFC01361034DFE7204698470028F2D002
:1035B0000AFA06F31D43F4E7A94695FAA5F4B4FA0E
:1035C00084F40AFA04F3260108EB04146FEA030BEF
:1035D00025EA0305237B63B158F806301B698BB9D4
:1035E0004644736804222046196809EA0B091CF056
:1035F00085FC002DE1D11FB16420002126F0A5FA41
:103600004D46B8E7204698470028F2D1E8E700BFCA
:1036100018620030ACB70210BCB7021008B5034600
:1036200008462BB1044A136000F0FEFB002008BDE1
:103630006FF01500FBE700BF5C06003000230D4A69
:1036400010B513700C4A4FF47A7113600B4A0C4892
:103650001360FFF7E3FF00F095F80A4B0A4918469C
:103660008B4200D310BD1A1A5C681211013222710C
:103670001033F5E7AE8E0030106200301462003077
:1036800087FE0110ACB70210BCB7021070B50B4D2D
:10369000297841B90120FFF757FF094C094EB44280
:1036A00002D301232B7070BD63685B791BB1236863
:1036B00020469B6898471034F1E700BFAE8E00307B
:1036C000ACB70210BCB70210014B1868704700BFBE
:1036D0001462003010B5044606481CF0DCFB3CB117
:1036E000054BD3E8EF1F0139C3E8E21F002AF8D1E8
:1036F00010BD00BF10620030146200302DE9F041AF
:10370000164B05461B689847154CDFF85880A86093
:10371000444501D3BDE8F08163685B793BB129780A
:103720004B0706D52368294620461B689847103466
:10373000EEE728462E88C1F3C20700F0D9F9C6F398
:1037400082160246002EEDD00028EBDB012339461D
:10375000204600F0C7F8B042E9D3E3E75C0600304A
:10376000ACB70210BCB70210044A054B9B1AB1EB70
:10377000D30F34BF52F83100002070474CB602100E
:10378000ACB7021000210B480B4B30B51B1A0B4C89
:10379000DB080430994200D130BD10F83120256893
:1037A00002F0070225F007052A4344F8042B0131F3
:1037B000F0E700BF4CB60210ACB70210280A003088
:1037C000F8B5064600240A4F0A4DED1BED08AC4241
:1037D00003D14FF0FF342046F8BD57F8340020B134
:1037E0003146FDF743FE0028F5D00134EFE700BF76
:1037F0004CB60210ACB7021000282DE9F0478846FD
:1038000015461F461DDA4FF0000A5446DFF8909027
:10381000244EA6EB09063609B24509F1100902D17A
:103820002046BDE8F08759F80C0C3B462A46414635
:103830000079FFF7E1FF844238BF04460AF1010A2C
:10384000EAE7194B194AD21AB5EBD20F26D203EB8D
:10385000C5031C79BC4228BF3C460722144EC0B2A7
:1038600000EB400056F82530824023EA020304F0C2
:103870000702824013430021032223FA02F000F0E2
:103880000700814202F1030238BF01461E2AF4D12B
:1038900023F007030B4346F82530C1E70024DCE79B
:1038A000ACB70210BCB702104CB60210ACB7021095
:1038B000280A0030F8B506460F460024074D084B8D
:1038C000ED1AED08AC4200D3F8BD002122B23B4610
:1038D000304601341CF004FBA4B2F3E7ACB702108D
:1038E0004CB6021070B14168097973B1002A17DB38
:1038F000CBB20C4903EB430351F82200D84000F04F
:10390000070070474FF0FF31EFE707490748401ABB
:10391000B2EBD00F3ABF01EBC201087918467047ED
:1039200004207047280A00304CB60210ACB70210D1
:103930002DE9F04F87B093462F4A04AF0446D7E9EC
:103940000EA90E46984612687A604FF000023D6B51
:10395000BAF1000F27D0C7F80090CDF800901021E1
:10396000534600207A6BFFF72BF8B0F5006F014645
:103970001AD322490B6813F0060F0BD040F2FF73E5
:1039800003931F4B0222029300231846CDE9003314
:103990001CF037FB184B1A687B685A404FF0000345
:1039A00026D026F07FFA514604F007040BF0070BEF
:1039B000E40044EA8B1444EA412444EA05541735F0
:1039C0000D4425F00705ADEB050D04ADBAF1000F70
:1039D00007D0CDF8009053467A6B05F11000FEF742
:1039E000EFFF43462246314628461CF0BAFAD1E79B
:1039F0000C37BD46BDE8F08FC8230330680A00309D
:103A0000A5DE02102DE9F04FC1F34A2691B00D4614
:103A10009046079008930C0D002E5AD000274FF0C7
:103A2000040B4FF00A0A0BAB01933A460DAB31463B
:103A30004046CDF808B0CDF800A0CDE90D770F973E
:103A4000FFF7A4F9B0F5006FB146034616D3254938
:103A50000B6813F0060F0ED040F2FF730493D8F8F2
:103A6000043002220393204B3846CDE901730097BE
:103A70003B461CF0C6FA11B0BDE8F08FC0F30A0651
:103A800004F11700184420F00700800809931CF087
:103A900023FA66F35325044680B1099B00F1100117
:103AA000CDE90E370BABCDE900A30D914046494659
:103AB0000E4ACDF808B00DABFFF768F966F3532551
:103AC0002A462046089B079911B0BDE8F04F1CF02C
:103AD00048BA04F1170020F0070080081CF0FCF938
:103AE0000446EBE7680A0030DDDE021037FF011004
:103AF000406820B1034BC01A40F38F0070474FF06D
:103B0000FF307047280A00300EB403B503AB53F8FA
:103B1000042B01460448019305F028F902B05DF832
:103B200004EB03B0704700BF7D000210CA0605D445
:103B30008B064CBF02490349FFF7E6BF704700BF41
:103B400075E702101CDF02102DE9F04F87B09DF8D9
:103B5000446004460D4690469946002E00F0A2802F
:103B6000159B03F0020A03F001030493159B03F075
:103B7000080B03F4807305931CF0B0F9024600288B
:103B80003DD020469449FFF7BFFF0746BAF1000F2A
:103B900009D0159B13F0440F33D12A4620468F4994
:103BA000FFF7B2FF0744049B53B18D4B204653F8F7
:103BB00026208C4B8C49002A08BF1A46FFF7A4FF29
:103BC000059B002B49D0BBF1000F64D1B8F1000F69
:103BD00066D0424620468549FFF796FF0546129B70
:103BE0003D44002B6DD1149B002B73D1159BDB073B
:103BF00000F1EB8020461599FFF798FFD8E00746C3
:103C0000C4E77B4B18680028CCD07A4B4FF47A7A03
:103C10001B684FF03C0CB5FBF3F5B5FBF0F14FF42E
:103C2000616300FB11550AFB05F5B1FBF3F2B5FB2F
:103C3000F0FE03FB121100FB1E55B1FBFCF30AFB67
:103C400005F5B5FBF0F50CFB131120460091CDE90D
:103C500001E56949FFF758FFA4E7BBF1000F1DD04C
:103C6000664B204653F826206549FFF74DFF054671
:103C7000B8F1000F05D0424620465C49FFF744FFEB
:103C80000544B9F1000FAAD04A4620465D49FFF726
:103C90003BFF0544A3E74FF00009E1E75D46E7E796
:103CA00045469CE7B9F1010F129B06D1002B66D166
:103CB000149B002B7CD000250CE0002BF8D0524840
:103CC0005EE05248129B224651491BF0EBFD149BCB
:103CD000002B6AD0DFF83C81DFF83C91149F20462E
:103CE000102F159928BF10274FF0000BFFF71EFF6C
:103CF0005D4547DC139B494620461A78FFF704FFD1
:103D00004FF0010B1BF0070F03D141462046FFF790
:103D1000FBFE5F453DD9139B4946204613F80B2017
:103D2000FFF7F2FE0BF1010BBBF1100FEAD14FF0E0
:103D3000000A20463949FFF7E7FE5246DFF8E0B0B7
:103D4000139B20469A5CA2F120015F2928BF2E22F6
:103D50005946FFF7D9FE0AF1010ABAF1100F1DD03A
:103D60001AF0070F03D141462046FFF7CDFE574515
:103D70005246E5D841462046FFF7C6FEEBE723480A
:103D800035469FE741462046FFF7BEFE0BF1010B8B
:103D9000AEE720462349FFF7B7FEC3E7139B3B443A
:103DA0001393149BDB1B149398D1002E7FF41EAF4A
:103DB0006268A168D2E9002320681CF051F9002252
:103DC00063681A6007B0BDE8F08F2046054A0649CF
:103DD000FFF79AFE0EE700BF24DF021028DF021073
:103DE000E8C802101FDF02108FE902104DDF021039
:103DF000206200301C62003031DF0210FCC802106B
:103E000051DF021057DF0210990002107D000210EE
:103E10006D8D001064DF02105CDF021066DF02109F
:103E200075F0021062DF021000210123064A904261
:103E300006D8064A01B901231360054B1860704784
:103E4000012140085B00F2E740420F001C62003095
:103E50002062003070B5104B0D461C68B4B10F4B9A
:103E6000196800238B4202DB6FF0010070BD22460F
:103E700012F8106B864202D014460133F2E7E06874
:103E800025F018F928B100202C60EFE76FF00C0046
:103E9000ECE76FF01200E9E76006003010C902108D
:103EA000F0B40C4B0C4E5F6A0C4BB34203D36FF073
:103EB0008500F0BC70475D68BD4209D31C693CB108
:103EC00095F802C00579AC4502D12346F0BC1847ED
:103ED0002433EAE724620030840F0030600F0030A2
:103EE0002DE9F04705460E461746124CDFF848808C
:103EF000DFF84890444503D36FF08500BDE8F087B4
:103F00006268D9F824309A4212D3A36983B19078B9
:103F10002979884205D13A4631462846BDE8F0471E
:103F200018475279012A03D13A4631462846984724
:103F30002434DFE7600F0030840F0030246200304B
:103F40002DE9F04105460E4617460A4CDFF8288059
:103F5000444502D36FF0850009E063690BB924344E
:103F6000F6E73A463146284698470028F7D1BDE89B
:103F7000F08100BF600F0030840F00300022024B40
:103F80001A605A60704700BFDF62003070B50B4B9B
:103F90000B4CA34201D3002070BD0022196A1E7F82
:103FA0000439D5B2AE4201D82433F2E7013211F818
:103FB00032508542F5D10120EEE700BF600F00309E
:103FC000840F003008B509480378C3F341130A335E
:103FD00050F823303BB100F1080200F1100198477E
:103FE000C043C00F08BD1846FCE700BF2462003084
:103FF00010F0700F1FB511D00D490B685B0709D089
:104000000C4B03900293002301221846CDE90033A4
:104010001CF09AF8002005B05DF804FB00F07F0367
:1040200010F0800F4FF0010018BF10339840F2E7F6
:10403000D00A003088DF021030B585B0054611F097
:10404000A5F910F1780F04461AD117490B6813F03F
:10405000060F09D0154B0222029300230395184640
:10406000CDE900331CF070F82846FFF7C1FF104A75
:104070000024D2F8C43023EA0003C2F8C4300FE0B1
:104080000028F1D008490B685B0709D0094B0122D1
:104090000293002303951846CDE900331CF054F831
:1040A000204605B030BD00BFD00A0030A3DF0210AB
:1040B00024620030C4DF021004282DE9F74F0446C3
:1040C0000F46DFF8989015D001282FD1DFF89080A7
:1040D00098F8B93053B300F0B1FF224D4D4522D2CC
:1040E0004FF0000A2A6A2B7F5FFA8AF6B34204D89F
:1040F0002435F3E7FFF742FFE8E702EBC606307925
:10410000019211F043F983463079FFF771FFD8F837
:10411000C430BBF1000F23EA0003019AC8F8C43091
:104120000AF1010ADFDA002388F8B9300D4D4D4558
:1041300008D30B4B1B6A6BB13946204603B0BDE870
:10414000F04F1847EB681BB13A462146284698477E
:104150002435ECE703B0BDE8F08F00BF840F0030DA
:1041600024620030600F003070B5C4B286B06306C0
:104170000D468DF8174007D02046FFF707FF00B324
:104180001C4B93F8BA00E0B11B491A4E0B6803F0C0
:104190000703C5B1022B09D9184B03220293002350
:1041A00003941846CDE900331BF0CEFF9DF81700AD
:1041B00010F084FFF3691BB108200DF11701984737
:1041C000012006B070BD022B09D90D4B0322CDE9A9
:1041D000015328462B46039400951BF0B5FF9DF82C
:1041E000170010F0A9FFF369002BE9D009200DF1A9
:1041F0001701E4E724620030D00A0030E6DF021045
:10420000F9DF021070B50446807886B08DF8100092
:10421000237962793A4D43EA0223ADF81230E3780C
:1042200003F003038DF81430FFF7E2FED5F8C43035
:10423000064618420CD0A478204600F0E1FE204645
:10424000FFF7FAFE25F0A3FB10B9962025F0A5FC98
:1042500004A810F071FE10F1780F31D129490B68D4
:1042600013F0060F0BD09DF8103002220393264B5B
:10427000029300231846CDE900331BF065FF9DF83B
:10428000100011F011F810F1780F2ED11D490B68B4
:1042900013F0060F0BD09DF81030022203931B4B36
:1042A000029300231846CDE900331BF04DFF012097
:1042B000D5F8C43085F8B9003343C5F8C43012E0EE
:1042C0000028DCD00F490B685A070BD09DF810303E
:1042D00003930F4B0293002301221846CDE90033CC
:1042E0001BF032FF002006B070BD0028DFD005496A
:1042F0000B685B07F6D09DF810300393054BE9E798
:1043000024620030D00A00300EE0021055E00210A6
:1043100031E0021075E002102DE9F047924D04469D
:10432000AB690E461746C3B9207800F01F0001287C
:1043300076D0022800F0DC8000BB94F900103A68C7
:10434000002963782EDA062B0CD0082B25D0ABB9C8
:10435000537001231370022303E198470028E3D12F
:1043600000200DE06388190A0A1F012A8C4605D92E
:10437000072903D8DAB26B6A1C781CB96FF01500F4
:10438000BDE8F0875D78654503D1824200F0E480A6
:1043900001302344F0E71B78E3E095F8BA3013705E
:1043A0000123DEE0052B11D0092BE7D163886E6A6B
:1043B000002B32D1FFF7E2FD638885F8BA30EB6954
:1043C000002BCDD0032069499847C9E7A07810F0A9
:1043D00061FD0028C4D0D1E77378042B10D0052BE1
:1043E00011D0022B04D177796388BB4208BF01202A
:1043F00033781E443378002BEED10028BED0D9E7A5
:1044000096F80380F4E76388BB42F1D1B8F1000F5E
:10441000EED13046FFF7F6FEEAE7FF27B846E9E7B8
:1044200095F8BA30D7F800C0002BA7D06F6AA288E1
:104430003B4694F804E0187800289FD05978022968
:1044400004D193F80480F04500F292800344F2E72F
:104450008CF800308CF80130316081E71F4493E024
:104460000B2B8BD100264FF0FF08B246C14606E069
:104470007B78042B0FD0052B21D03B781F443B7851
:10448000002BF5D1EB6913B1514607209847002E58
:104490007FF466AF72E797F80280A38897F80390DD
:1044A0009845EAD163889945E7D1B8F1070F1CD840
:1044B00005EB0803BA46012683F8BB90DDE7A38825
:1044C0004345DAD1A3784B450AD0BE78304600F098
:1044D00097FD3046FFF7B0FDB0FA80F67609CCE7DD
:1044E0003846FFF78FFE0646C7E7BA460026C4E700
:1044F00094F900206378002A18DA002B7FF43EAF8D
:1045000024793F6863060AD02046FFF73FFD002864
:104510003FF434AF95F8BA30002B3FF42FAF394653
:10452000204610F079FE00237B7014E7012B08D0A1
:10453000032B7FF423AF6388002B7FF41FAF01218F
:1045400003E0618800297FF419AFA088FFF70CFE13
:1045500000287FF405AF11E702293B607FF41BAF11
:104560005B883360FCE600BF24620030DE6200300E
:1045700094F9000063780028BFF672AF002B3FF477
:1045800067AF0A2B7FF4FAAE3B78002B3FF4F6AE10
:10459000797804297FF462AFB9788A427FF45EAFFC
:1045A000072A8EBF0023521992F8BB308CF80030D6
:1045B000F6E600BF70B5164D95F8B830FBB110F0B7
:1045C00039FC002822DB00F039FD0024D5F8C43086
:1045D000E6B2E340DA0714D4D5F8C43004F110028F
:1045E000D340DB0705D546F08000FFF725FD002806
:1045F0000CDB0134102CE9D1002385F8B830002001
:1046000004E03046FFF718FD0028E5DA70BD00BF72
:10461000246200302DE9F04F05468B46984604266B
:104620004FF0000A87B0DFF84890124F05924346DA
:1046300059462846059A10F0F9FE10F10B0F044672
:1046400012D1D9F8003013F0060F09D0002302224E
:1046500049461846CDE90275CDE900AA1BF074FD64
:1046600017F006FD013EE2D1204607B0BDE8F08F0D
:10467000D00A003096E0021013B5164C237DF3B932
:10468000E26801AB8020A1680192FFF7C3FF019AA5
:10469000A3681344A360E3689B1AE3606BB962B13B
:1046A0002369E2889A4208DD94F8C82093FBF2F16E
:1046B00002FB11330BB90123237502B010BD002397
:1046C00080201A461946237502B0BDE8104010F04C
:1046D000ADBE00BF24620030002330B589B0024671
:1046E0000D460593002864D1002941D10B460822CC
:1046F00006A921F0E2FD002804DA802010F0DEFC9B
:1047000009B030BD304C069AC4E903552260079ABF
:10471000BDF81E30626004F13802A2609DF91820D5
:104720002575002A17DB802B11D928490B685B07F8
:1047300008D0274B0122CDE9015328462B4600958E
:104740001BF002FD802010F0B9FC0020D6E713B169
:10475000C4E90333D4E7FFF735FC0028CDD0E28865
:1047600023699A42D4BFE260E360FFF785FFC7E7A1
:10477000154C05ABD4E90215002D04DC21F09DFD9C
:104780000028BDDAB9E72A4621F097FD0028D9DBD9
:10479000059AA3681344A360E3689B1AE360002BA7
:1047A000AED104F13803A360FFF70CFC0028DCD184
:1047B000A3E78028A4D1044BDA68002AD5D11B7D59
:1047C000002BD2D19CE700BF24620030D00A003019
:1047D000BDE00210054B064A58629A62054A002065
:1047E000DA62054A1A63054A9A617047246200300A
:1047F00019430010A13E0010413F0010E13E00109F
:104800002DE9F041044686B0584D4FF0FF334FF08C
:10481000FF32574816F058FC95F8B830B3B15549F7
:104820000B6813F0060F08D0534B022202930023AB
:104830001846CDE900331BF087FC6FF077044C4835
:1048400016F0BAFC204606B0BDE8F0816B6AA3B949
:1048500000F0F4F8FFF7BEFF6B6A73B945490A68C8
:10486000520707D0454A1846CDE90132009301228C
:104870001BF06AFC4FF0FF34E1E741482C62E8612D
:104880006E6A10F07FFF10F093FA041ED7DB00F081
:10489000F7FB041ED3DB7378012B01D1F3797BB9CD
:1048A00034490B685B0708D0364B01220293002382
:1048B0001846CDE900331BF047FC6FF01504BEE746
:1048C000002604A885F8C830ADF812308DF81460C1
:1048D0008DF8106010F030FB041EB0DB802704A8B8
:1048E0008DF8107010F028FB041EA8DB3046264916
:1048F00010F01AFF041EA2DB3846234910F014FF03
:10490000041E9CDB214CDFF8888044451AD300202C
:1049100010F0CAFC041E92DBD5F8C430802043F0AE
:104920000103C5F8C43010F0BFFC041E87DBD5F8C6
:10493000C430002443F48033C5F8C430012385F823
:10494000B8307CE70026276A227FF3B29A4201D86A
:104950002434DAE707EBC30257F83310107910F06C
:10496000E3FE01360028EFD084E700BF2462003068
:104970005C0C0030D00A0030D6E00210F9E00210E2
:10498000B94000101EE10210D9460010600F00303F
:10499000840F003030B5264B8BB01B6809934FF065
:1049A0000003244B04AA03F1100514461868596843
:1049B000083303C4AB422246F7D11B781022237080
:1049C0000021684625F0D1FC122200211A4825F06A
:1049D000CCFC1021684612F0A3FD00281BDD08283E
:1049E000B8BF082009380DEB00020020124912F868
:1049F000013F0AAC04EB131403F00F0328336B449C
:104A000014F8184C13F8183C013008280C704B703F
:104A100001F10201EBD1064B1A68099B5A404FF095
:104A2000000301D025F03EFA03480BB030BD00BFB3
:104A3000C823033058E10210B08E00302DE9F04F4A
:104A40009A4B8BB093F80090B9F1000F03D09848BF
:104A50000BB0BDE8F08F964C00264FF0011835469C
:104A60003746059623783BB9924B02349C42F3D1EA
:104A700001238E4A1370EAE76378052B1ED8DFE81E
:104A800013F0C70006001301C700200057004023A1
:104A900008A88DF82090ADF822308DF8249010F001
:104AA0001DFA40B1082308A8ADF8223010F016FA1C
:104AB00008B1ADF82290BDF82230E37123781C4490
:104AC000D0E7E378002BF9D1A3783BB3059B013302
:104AD000DBB20593F2E76A68944222D024359D4206
:104AE000F9D375490B685D0716D0744B0122029308
:104AF000002303941846CDE900331BF034FB6E49C4
:104B00000B685B0708D06E4B012202930023184606
:104B1000CDE900331BF027FB002099E7694D6A4B74
:104B2000DDE7AB68002BD1D0204605999847CDE74B
:104B3000002D6AD160490B685C07EDD0634B00958E
:104B4000CDE901532B46012218461BF00CFBD6E79A
:104B50002A6A94F802C002EBC3021079844546D158
:104B60004FF0010AE0785FFA8AFB00F003008DF84D
:104B70002400207994F805C040EA0C20ADF822000A
:104B800094F90200002826DA0AF1100001FA00F078
:104B900010EA080F26D14BF080008DF8200008A8FD
:104BA000CDE9063210F09AF9DDE906320121C8B9E3
:104BB0009DF8203013F0800FA37013710B461DBFBA
:104BC0000BF1100B5FFA8BFB01FA0BF303FA0AF3FC
:104BD00048EA030872E701FA0AF010EA080F01D167
:104BE0005846DAE70AF1010ABAF1100FBAD10133D7
:104BF0002A7F9342ACD330490B6858078CD0344B92
:104C000002930023CDE900339DE700230121EFE764
:104C1000032E2CD1FFF7BEFE8346E0B1FCF738FC33
:104C20008246C0B110280ED0234B1B6813F0060F2C
:104C300009D0284B0222029300231F491846CDE9D0
:104C400000331BF090FA5246102AA8BF1022594692
:104C5000A01C25F063FB6FF002012378091BE2180A
:104C600004EB5303D14210D50136F6B226E7002EED
:104C7000F1D18FB910490B685A073FF44DAF164B6D
:104C80000097CDE901733B465DE702F8019C13F8FC
:104C9000010902F8020DE5E7E31BBB70C3F307232C
:104CA000FB70059B3B71DFE7274607E7AF8E0030BF
:104CB000B00E00305D0F0030CC0A003069E1021008
:104CC0004FE20210600F0030840F003089E10210C3
:104CD000CAE10210E7E1021032E20210094B0021A2
:104CE0001A4610B51C78844205D15C681CB1482373
:104CF00003FB012010BD0131042903F14803F1D168
:104D00000020F7E7F06200302DE9F04150F8303C28
:104D10000446103310F8346C88B00BD1036950F896
:104D2000282C13F0020545D0D2B9590715D5002318
:104D300044F8303C54F8303C10330BD054E909753A
:104D400054F81C8C24F023FE002869D021463B48EF
:104D500024F0D5FD08B0BDE8F08143F00403036101
:104D6000304654F82C1C07ABFFF754FC88B134498B
:104D70000B685A070AD0334BCDE903060293002390
:104D8000CDE90033012218461BF02AFA6FF0150313
:104D9000CEE7079A54F82C3C134444F82C3C54F8C2
:104DA000283C9B1A44F8283C54F8243C134444F80B
:104DB000243CBFE750F82C1C07AB304610F0A0FB9A
:104DC00058B11F490B685B07E0D01E4BCDE90306C5
:104DD000CDE9015300952B46D4E7079D54F82C3CB0
:104DE0002B4444F82C3C54F8283C5B1B44F8283CEA
:104DF00054F8243C2B4444F8243C002D97D03046F2
:104E000010F0C6FCB5FBF0F303FB1055002D8ED15E
:104E100054F8283C002B8AD0304610F017FC89E764
:104E200044F8200CA4F1180016F048FA002D91D097
:104E3000424639463046A8478CE700BF001E003086
:104E4000D40A00307DE2021070B54B1E012B0646DD
:104E50000D4686B01BD8FFF741FF0446C8B9012DA7
:104E600015D105AB012230460DF1130110F048FBBE
:104E7000059B002BF5D110490A68520707D00F4A4D
:104E80001846CDE90132009301221BF0A9F906B0C2
:104E900070BD24F07CFD04F1340108B1012D05D171
:104EA000084606B0BDE87040FFF72EBF044806B0C4
:104EB000BDE8704024F023BDD40A00309AE202100D
:104EC000001E00302DE9F04F87B006461746984681
:104ED00005911BF095F90446002840F08180EFF31E
:104EE00011830493202383F31288BFF36F8FDFF8BD
:104EF000F89000230022484616F01AFA0346E0B95B
:104F00004FF0480C0CFB04FCDFF8E0A00AEB0C0BA4
:104F1000DBF8045015F1100F2CD135490A685207FF
:104F200007D0344A0396CDE90102009001221BF01C
:104F300057F9484616F0C2F913E00134042C09F180
:104F40004809D6D12A490B68580708D02A4B0122B4
:104F5000029300231846CDE900331BF041F96FF0AE
:104F60000B05049B83F31188BFF36F8F284607B0AE
:104F7000BDE8F08F109B059ACBF81430119BCBF84D
:104F80001000CBF818306FF00F033046CBE9022742
:104F90000AF80C60CBF84480CBF8043010F0F8FB32
:104FA00068B1304610F0F4FBB7FBF0F303FB107769
:104FB0002FB1DBF8443043F00403CBF8443018F051
:104FC000020F08D0482303FB04A10C48343124F01D
:104FD00096FC0025C5E7304610F038FB0546C0E7D3
:104FE0006FF00F05C2E700BF0C630030F0620030C5
:104FF000D40A0030CFE20210B4E20210001E0030EA
:1050000010B5EFF31184202383F31288BFF36F8F61
:10501000FFF764FE50B14368103307D16FF08B0384
:1050200000F134014360044824F069FC84F31188E2
:10503000BFF36F8F10BD00BF001E0030F8B5042510
:1050400020270D4CEFF3118687F31288BFF36F8F83
:105050006368103307D16FF08B030848636004F175
:10506000340124F04CFC86F31188BFF36F8F013DAF
:1050700004F14804E6D1F8BDF0620030001E0030B3
:1050800070B50025094C0A4E3146204624F00CFC30
:105090000122A4F118001146013524F027FB042D4C
:1050A00004F14804F0D1002070BD00BF246300303B
:1050B000094D00100123016981F853300B6833B1A9
:1050C00091F851301BB10248083124F018BC7047E8
:1050D000001E00300123016981F852300B6833B1A2
:1050E00091F850301BB10248083124F008BC7047D9
:1050F000001E003070B50569EFF31186202383F39D
:105100001288BFF36F8FD5F858021AF054FE044688
:1051100086F31188BFF36F8F30B10022002303485C
:1051200005F1200116F0FCFA204670BD001E00308B
:10513000012370B582F8503013680D4614463BB118
:1051400092F8523023B10E4802F1080124F0D7FB47
:10515000D4F858325A89DB889A4205D17DB904F1D6
:1051600020014FF47A7204E004F12001002DF8D000
:105170000022BDE870400023014816F0D1BA70BD8E
:10518000001E0030002103460C4AA0F850101068A1
:1051900083F86412C3F85C0290889279A3F86002E5
:1051A00083F8622283F863124FF40072A3F8661248
:1051B00083F8681203F1540025F0D7B858C50210DF
:1051C0001FB5014604460C481AF0F4FF034670B9B7
:1051D0000A490A6812F0060F07D0094A0394CDE97C
:1051E0000102009002221BF0ABF804B010BD0122B6
:1051F00000F8072CF9E700BF10640030C40A003043
:1052000005E302107FB504460E4601792348154692
:105210001AF0C3FF034688B921490A6812F0060F45
:1052200008D0A288009003921E4ACDE90102022212
:105230001BF086F86FF0120004B070BD94F90010F6
:105240006278002922DB202A04D0222A1AD06FF0AB
:105250008500F1E72968A0F51B720C6850F8100C66
:1052600043F8104C8C8823F80C4C897903F80A1CFD
:1052700053F8101C884203D092690AB1186890470D
:105280000020D9E7628800F8092CF9E7212ADED14D
:10529000A0F110032B6007233360F1E710640030A6
:1052A000C40A00302BE30210002310B50469C4F8CF
:1052B00070320C4BC4F86C02596804F51C7269B961
:1052C000C3E9002204F10800074924F0EDFA04F1D3
:1052D0002000064924F029FB002010BD0A605A6016
:1052E000F0E700BF106400302B020210C953001019
:1052F00030B54FF400334268056942F2A10085B031
:10530000CDE90103002385F86532106AADF80C1071
:105310000A22007901A9FFF77DF9054C95F865325D
:1053200023B9012023F0B7FE013CF7D105B030BD11
:10533000A1860100002370B52025046986B08DF890
:10534000171084F85030EFF3118685F31288BFF3FD
:105350006F8F0122D4F858020DF117011AF02BFDBE
:1053600086F31188BFF36F8F012817D024F00FFB4D
:1053700010B994F86932D3B90F4D2B7873B90F492E
:105380000A6812F0060F07D00D4A1846CDE901321F
:10539000009302221AF0D4FF01232B700A2200236B
:1053A00004F12001074816F0BBF906B070BD0021DA
:1053B0000A2024F0CAFBC6E7C28E0030C40A0030BF
:1053C00052E30210001E0030F0B5D0F84C32054612
:1053D0005B6885B01B6A1F7D38461AF011FF0646D0
:1053E00060BB95F846324BB3D5F838020146C38806
:1053F00031F80A2F9B1A9BB2B3F5007F28BF4FF4F8
:10540000007303AA1AF088FC0446B8B1C0F308037D
:1054100085F8306003B9441EA5F120030193084BC1
:1054200022460399009338460223FFF74BFDD5F837
:105430003802224600F10A011AF0A4FC05B0F0BDC2
:10544000315100107FB50D1E0646144634DD2A4644
:10545000D4F8540204F154011AF0ADFCA8420ED263
:105460001D490B685B070AD01C4B2D1A02930023C1
:1054700001221846CDE9003303951AF061FF01239C
:1054800084F8513023683BB194F8533023B1144869
:1054900004F1080124F033FAD4F854229388918956
:1054A00012695B1A9BB2D31AB3F5007F04D20123B1
:1054B00084F8683204B070BD94F86632002BF9D0DD
:1054C000084B4FF40072009330460123019404F11D
:1054D0005401FFF7F7FCEDE7C40A003071E3021056
:1054E000001E0030455400107FB504460D460146AD
:1054F0004F481AF047FE034670B94E490A6812F049
:10550000060F07D04C4A0394CDE901020090022215
:105510001AF016FF04B070BD0368691EA0F51B7475
:105520005E680529F6D801A353F821F0B55500109F
:10553000155500104555001097550010C155001025
:10554000E75500103B490B6803F00703022B08D90D
:105550003A4B0322029300231846CDE900331AF098
:10556000EFFE94F866120029D4D1012384F8663244
:10557000336A2246187BFFF765FF94F85020002A13
:10558000C8D1336A1146187D2D4B01940093022334
:10559000FFF798FCBEE727490B6803F00703022BCF
:1055A00008D9284B0322029300231846CDE9003383
:1055B0001AF0C6FE204604B0BDE87040FFF7E2BD19
:1055C0001C490B6803F00703022B08D91E4B03226A
:1055D000029300231846CDE900331AF0B1FE0123EF
:1055E00084F8673296E7134D2B6803F00703022B0C
:1055F00009D9164B03220293002329461846CDE908
:1056000000331AF09DFE94F86732002B82D02B688D
:1056100003F00703022B09D90D4B03220293002349
:1056200004491846CDE900331AF08AFE0023D7E773
:1056300010640030C40A003092E30210B3E3021099
:1056400031510010C5E30210D9E30210EAE3021061
:10565000F9E302100369044A8068904206BF002003
:1056600099616FF01500704734B5021037B500240A
:10567000084D4FF0FF334FF48062284606490094EE
:1056800016F010F80549284616F042F9204603B0F6
:1056900030BD00BF001E00304090003034E40210E6
:1056A00010B5044612F05AFF0349024620461BF08B
:1056B000ACF8002010BD00BF54E4021037B513460B
:1056C0000022054601920A21586801AA01F00EFE47
:1056D000019C4CB90A2120EAE07080FB010124F012
:1056E00034FA204603B030BD2246284602491BF05A
:1056F000A8F8019CF5E700BF80E4021008B5034A52
:1057000003491BF082F8002008BD00BF6AE50210C3
:1057100071E50210F7B51746002305460A2101AAD4
:10572000B868019301F0E2FD1749C6B228461BF0A4
:105730007AF8019C44B12246284614491BF081F8AE
:10574000019C204603B0F0BD042E09D932462846FC
:105750000F491BF076F828461BF0B2F80124F0E759
:105760007868FEF72DF8021E07DA28467A6809499C
:105770001BF067F86FF01504E3E733462146204637
:1057800012B21AF0ADFBDCE79CE5021002E6021053
:1057900029E6021040E60210002307B50090694692
:1057A00004488DF8043016F01DFF9DF8040003B086
:1057B0005DF804FBA904021010B5044612F0B0FE17
:1057C0000749024620461BF020F8204605491BF0F9
:1057D0001CF82146044816F01FFF002010BD00BF32
:1057E00098E60210B7E60210ED57001070B52D4B89
:1057F0008EB004460D461B680D934FF00003D0F8A1
:105800009C6024F0CDF8034625F0CAF8264A2749C3
:105810001058274A002B18BF1A460092254A2346E3
:10582000844218BF0A46284623491AF0EEFFD4E9FD
:105830000A23CDE90023284694F90E30227B1F4924
:105840001AF0E3FF05A92022204616F071F8636ED6
:1058500002461B4928461AF0D8FF204604A924F026
:10586000C3F8024660B1284616491AF0CEFF0D4B28
:105870001A680D9B5A404FF0000310D024F012FB21
:105880006422049B2846F11A4A43B2FBF6F20091C7
:10589000CDE901620C4932461AF0B7FFE7E70EB0D6
:1058A00070BD00BFC82303301000000064DF021089
:1058B000C1E602103DFC0210C4E60210D0E6021060
:1058C000FCE6021013E7021040E7021070B5002555
:1058D000044690B01C4B1C22294607AE08A81B6842
:1058E0000F934FF0000324F040FD1A222021304690
:1058F00024F03BFD2146154816F08EFE4FF4006162
:1059000006AA134824F061F86423069A2046C2F5DB
:1059100000614B43DB0A05934FF400630096CDE929
:105920000313CDE901320B492B46094A1AF06DFFEA
:10593000054B1A680F9B5A404FF0000301D024F02A
:10594000B1FA284610B070BDC82303305959001071
:10595000F0C4013091E7021070B504460D46D0F84E
:105960009C6088B007A924F03FF8024628B1284679
:105970000E491AF04AFF08B070BD204624F010F816
:105980006422079B0096F11A4A43B2FBF6F2CDE976
:105990000131074BCDE90362002818BF03462246B8
:1059A000284604491AF031FFE5E700BF13E702106B
:1059B000C1E60210DAE7021038B513460546102298
:1059C0000021586817F0DCFC0446FFF7E5FE38B903
:1059D000224628460D491AF034FF6FF0150038BDF5
:1059E00024F0DEFF0A4B1B589C4204D1284609498B
:1059F0001AF027FFF1E7204616F072F928462246F2
:105A000005491AF002FF0020E9E700BF3EE8021056
:105A10001000000059E8021081E8021038B5134662
:105A2000054610220021586817F0AAFC0446FFF72B
:105A3000B3FE38B9224628460D491AF002FF6FF02E
:105A4000150038BD24F0ACFF0A4B1B589C4204D112
:105A5000284609491AF0F5FEF1E7204616F046FA05
:105A60002846224605491AF0D0FE0020E9E700BF8B
:105A70003EE8021010000000B8E80210DEE8021054
:105A800038B51346054610220021586817F078FCF7
:105A90000446FFF781FE38B9224628460D491AF020
:105AA000D0FE6FF0150038BD24F07AFF0A4B1B586A
:105AB0009C4204D1284609491AF0C3FEF1E720466A
:105AC00003F04EF82846224605491AF09EFE0020B3
:105AD000E9E700BF3EE802101000000012E90210E2
:105AE00037E902102DE9F04F324B89B0044601A886
:105AF0001B6807934FF0000314F03AFF2423019F23
:105B0000082103FB00772C4A20461AF071FEDFF8CB
:105B1000ACA0019DDFF8A8B0BD4208D3254B1A68A0
:105B2000079B5A404FF000033FD024F0BBF92B688D
:105B30000BB11A7832B92B461421224A02A817F069
:105B40009BF902AB5246082120461AF051FE284626
:105B500023F0B0FA1C4B0821002808BF5B461B4A03
:105B600020461AF045FE2B6AA3B11E6896B1336831
:105B700083B108212046164A1AF03AFEB1464FF08A
:105B800000083368134A434506D808212046124AC4
:105B90001AF02EFE2435BFE70821204659F8043FAD
:105BA0001AF026FE08F10108EBE7002009B0BDE875
:105BB000F08F00BFC82303307EE902108DE9021088
:105BC00075E9021088E902106FE90210D4F00210A2
:105BD00092E902108EE9021075E702101FB50C68F9
:105BE000D1E9043203944C68013302948C6802F2C8
:105BF0006C720194C968009102491AF006FE04B063
:105C000010BD00BFCCE90210F7B5137806463A2B59
:105C10000F46154614D1541C23783A2B28D1013451
:105C20000A22204601A917F035FB019A0346A24239
:105C3000386017D01078A8B93C2B15D915490EE05B
:105C40000A22284601A917F025FB019CB860AC4246
:105C500008D023783A2B05D1172807D90E493046AA
:105C60001AF0EFFD6FF0150003B0F0BD0134D3E77B
:105C70000A22204601A917F00DFB019B7860A34280
:105C8000F0D01A783A2AEDD13B2801D90349E6E74A
:105C90005C1CC5E70BEA0210EDE90210FBE90210FB
:105CA0002DE9F0410D4690B002A9044601201746A7
:105CB00003F0F6FA07A902A817F002F8032D55D150
:105CC0007D680A22284601A917F0E4FA019E804661
:105CD000B54215D032782D2A12D101360A2230462B
:105CE00001A917F0D7FA019B9E4209D01A782D2AF4
:105CF00006D1451E0B2D0CD9284920461AF0A1FDCE
:105D000020461AF0DDFD6FF01505284610B0BDE8FD
