:020000040200F8
:1000000008520122B9800002DB050102A58000022E
:10001000A5800002A5800002A5800002A580000244
:10002000000000000000000000000000B581000298
:10003000A5800002000000001D81000225AD000225
:100040009183000291830002918300029183000258
:100050009183000291830002918300029183000248
:100060009183000291830002918300029183000238
:100070009183000291830002918300029183000228
:100080009183000291830002918300029183000218
:100090009183000291830002918300029183000208
:1000A00091830002918300029183000291830002F8
:1000B00091830002918300029183000291830002E8
:1000C00091830002918300029183000291830002D8
:1000D00091830002918300029183000291830002C8
:1000E00091830002918300029183000291830002B8
:1000F00091830002918300029183000291830002A8
:100100009183000291830002918300029183000297
:100110009183000291830002918300029183000287
:100120009183000291830002918300029183000277
:100130009183000291830002918300029183000267
:100140009183000291830002918300029183000257
:100150009183000291830002918300029183000247
:100160009183000291830002918300029183000237
:100170009183000291830002918300029183000227
:100180009183000291830002918300029183000217
:100190009183000291830002918300029183000207
:1001A00091830002918300029183000291830002F7
:1001B00091830002918300029183000291830002E7
:1001C0009FED0B7B41EC160B9FED0B5B26EE077B47
:1001D000BCEEC77BB8EE474B17EE101AA4EE456B8A
:1001E000FCEEC67B17EE900A704700BFAFF30080AD
:1001F000000000000000F03D000000000000F041A1
:10020000002902D0B0FBF1F0704708B14FF0FF3089
:1002100000F01EB80029F8D00246B0FBF1F000FB58
:1002200011217047002902D090FBF1F0704700289F
:10023000C8BF6FF00040B8BF4FF0004000F008B8F2
:100240000029F4D0024690FBF1F000FB1121704729
:10025000704700BF81F0004102E000BF83F000431F
:1002600030B54FEA41044FEA430594EA050F08BF51
:1002700090EA020F1FBF54EA000C55EA020C7FEA15
:10028000645C7FEA655C00F0E2804FEA5454D4EB92
:100290005555B8BF6D420CDD2C4480EA020281EA5C
:1002A000030382EA000083EA010180EA020281EA94
:1002B0000303362D88BF30BD11F0004F4FEA0131E6
:1002C0004FF4801C4CEA113102D0404261EB4101F5
:1002D00013F0004F4FEA03334CEA133302D052427B
:1002E00063EB430394EA050F00F0A780A4F1010437
:1002F000D5F1200E0DDB02FA0EFC22FA05F2801871
:1003000041F1000103FA0EF2801843FA05F3594156
:100310000EE0A5F120050EF1200E012A03FA0EFCD5
:1003200028BF4CF0020C43FA05F3C01851EBE371FF
:1003300001F0004507D54FF0000EDCF1000C7EEB1C
:1003400000006EEB0101B1F5801F1BD3B1F5001F5A
:100350000CD349085FEA30004FEA3C0C04F1010479
:100360004FEA445212F5800F80F09A80BCF1004FA2
:1003700008BF5FEA500C50F1000041EB045141EA24
:10038000050130BD5FEA4C0C404141EB0101013CED
:1003900028BFB1F5801FE9D291F0000F04BF0146DC
:1003A0000020B1FA81F308BF2033A3F10B03B3F1AE
:1003B00020020CDA0C3208DD02F1140CC2F10C023E
:1003C00001FA0CF021FA02F10CE002F11402D8BF9C
:1003D000C2F1200C01FA02F120FA0CFCDCBF41EA68
:1003E0000C019040E41AA2BF01EB0451294330BD37
:1003F0006FEA04041F3C1CDA0C340EDC04F1140414
:10040000C4F1200220FA04F001FA02F340EA0300EA
:1004100021FA04F345EA030130BDC4F10C04C4F130
:10042000200220FA02F001FA04F340EA0300294610
:1004300030BD21FA04F0294630BD94F0000F83F45A
:10044000801306BF81F480110134013D4EE77FEA3D
:10045000645C18BF7FEA655C29D094EA050F08BF89
:1004600090EA020F05D054EA000C04BF194610466A
:1004700030BD91EA030F1EBF0021002030BD5FEAAE
:10048000545C05D14000494128BF41F0004130BDD6
:1004900014F580043CBF01F5801130BD01F000452A
:1004A00045F0FE4141F470014FF0000030BD7FEA9D
:1004B000645C1ABF194610467FEA655C1CBF0B4698
:1004C000024650EA013406BF52EA033591EA030FAF
:1004D00041F4002130BD00BF90F0000F04BF0021A7
:1004E000704730B54FF4806404F132044FF00005DA
:1004F0004FF0000150E700BF90F0000F04BF002153
:10050000704730B54FF4806404F1320410F00045B8
:1005100048BF40424FF000013EE700BF42004FEAB3
:10052000E2014FEA31014FEA02701FBF12F07F4330
:1005300093F07F4F81F06051704732F07F4208BFE7
:10054000704793F07F4F04BF41F40021704730B5EE
:100550004FF4607401F0004521F000411CE700BF3A
:1005600050EA010208BF704730B54FF000050AE0BD
:1005700050EA010208BF704730B511F0004502D5BE
:10058000404261EB41014FF4806404F132045FEAC0
:10059000915C3FF4D8AE4FF003025FEADC0C18BF69
:1005A00003325FEADC0C18BF033202EBDC02C2F15B
:1005B000200300FA03FC20FA02F001FA03FE40EAED
:1005C0000E0021FA02F11444BDE600BF70B54FF0F1
:1005D000FF0C4CF4E06C1CEA11541DBF1CEA1355CF
:1005E00094EA0C0F95EA0C0F00F0DEF82C4481EA37
:1005F000030621EA4C5123EA4C5350EA013518BF57
:1006000052EA033541F4801143F4801338D0A0FB43
:1006100002CE4FF00005E1FB02E506F00042E0FBF0
:1006200003E54FF00006E1FB03569CF0000F18BFF6
:100630004EF0010EA4F1FF04B6F5007F64F540749E
:1006400004D25FEA4E0E6D4146EB060642EAC62131
:1006500041EA55514FEAC52040EA5E504FEACE2E9E
:10066000B4F1FD0C88BFBCF5E06F1ED8BEF1004FA1
:1006700008BF5FEA500E50F1000041EB045170BD1D
:1006800006F0004646EA010140EA020081EA030161
:10069000B4EB5C04C2BFD4EB0C0541EA045170BD5D
:1006A00041F480114FF0000E013C00F3AB8014F1D7
:1006B000360FDEBF002001F0004170BDC4F1000420
:1006C000203C35DA0C341BDC04F11404C4F12005A1
:1006D00000FA05F320FA04F001FA05F240EA0200FC
:1006E00001F0004221F0004110EBD37021FA04F632
:1006F00042EB06015EEA430E08BF20EAD37070BDEC
:10070000C4F10C04C4F1200500FA04F320FA05F04A
:1007100001FA04F240EA020001F0004110EBD3704C
:1007200041F100015EEA430E08BF20EAD37070BDBC
:10073000C4F1200500FA05F24EEA020E20FA04F395
:1007400001FA05F243EA020321FA04F001F0004144
:1007500021FA04F220EA020000EBD3705EEA430EB5
:1007600008BF20EAD37070BD94F0000F0FD101F0E4
:100770000046400041EB010111F4801F08BF013C1D
:10078000F7D041EA060195F0000F18BF704703F05B
:100790000046520043EB030313F4801F08BF013DE2
:1007A000F7D043EA0603704794EA0C0F0CEA13559E
:1007B00018BF95EA0C0F0CD050EA410618BF52EA58
:1007C0004306D1D181EA030101F000414FF000005E
:1007D00070BD50EA410606BF1046194652EA43066C
:1007E00019D094EA0C0F02D150EA013613D195EAE0
:1007F0000C0F05D152EA03361CBF104619460AD128
:1008000081EA030101F0004141F0FE4141F4700131
:100810004FF0000070BD41F0FE4141F4780170BD21
:1008200070B54FF0FF0C4CF4E06C1CEA11541DBF86
:100830001CEA135594EA0C0F95EA0C0F00F0A7F888
:10084000A4EB050481EA030E52EA03354FEA0131B5
:1008500000F088804FEA03334FF0805545EA1313C8
:1008600043EA12634FEA022245EA111545EA106590
:100870004FEA00260EF000419D4208BF964244F127
:10088000FD0404F5407402D25B084FEA3202B61A46
:1008900065EB03055B084FEA32024FF480104FF41A
:1008A000002CB6EB020E75EB030E22BFB61A75468E
:1008B00040EA0C005B084FEA3202B6EB020E75EB21
:1008C000030E22BFB61A754640EA5C005B084FEA89
:1008D0003202B6EB020E75EB030E22BFB61A754656
:1008E00040EA9C005B084FEA3202B6EB020E75EB61
:1008F000030E22BFB61A754640EADC0055EA060E22
:1009000018D04FEA051545EA16754FEA06164FEA64
:10091000C30343EA52734FEAC2025FEA1C1CC0D110
:1009200011F4801F0BD141EA00014FF000004FF09D
:10093000004CB6E711F4801F04BF01430020B4F15E
:10094000FD0C88BFBCF5E06F3FF6AFAEB5EB030C16
:1009500004BFB6EB020C5FEA500C50F1000041EB13
:10096000045170BD0EF0004E4EEA113114EB5C04E0
:10097000C2BFD4EB0C0541EA045170BD41F48011B3
:100980004FF0000E013C90E645EA060E8DE60CEABB
:10099000135594EA0C0F08BF95EA0C0F3FF43BAFD8
:1009A00094EA0C0F0AD150EA01347FF434AF95EA8F
:1009B0000C0F7FF425AF104619462CE795EA0C0F73
:1009C00006D152EA03353FF4FDAE1046194622E740
:1009D00050EA410618BF52EA43067FF4C5AE50EA1A
:1009E00041047FF40DAF52EA43057FF4EBAE12E70A
:1009F0004FF0FF3C06E000BF4FF0010C02E000BFEB
:100A00004FF0010C4DF804CD4FEA410C7FEA6C5CCD
:100A10004FEA430C18BF7FEA6C5C1BD001B050EA70
:100A2000410C0CBF52EA430C91EA030F02BF90EA5B
:100A3000020F0020704710F1000F91EA030F58BF1A
:100A4000994208BF90422CBFD8176FEAE37040F07C
:100A5000010070474FEA410C7FEA6C5C02D150EA1A
:100A6000013C07D14FEA430C7FEA6C5CD6D152EAD5
:100A7000033CD3D05DF8040B704700BF844610469A
:100A800062468C461946634600E000BF01B5FFF799
:100A9000B7FF002848BF10F1000F01BD4DF808ED69
:100AA000FFF7F4FF0CBF012000205DF808FB00BF3A
:100AB0004DF808EDFFF7EAFF34BF012000205DF894
:100AC00008FB00BF4DF808EDFFF7E0FF94BF0120E1
:100AD00000205DF808FB00BF4DF808EDFFF7CEFFE2
:100AE00094BF012000205DF808FB00BF4DF808ED21
:100AF000FFF7C4FF34BF012000205DF808FB00BFF2
:100B00004FEA410C7FEA6C5C02D150EA013C0AD109
:100B10004FEA430C7FEA6C5C02D152EA033C02D1FB
:100B20004FF0000070474FF0010070474FEA41025C
:100B300012F5001215D211D56FF47873B3EB62522F
:100B400012D94FEAC12343F0004343EA505311F056
:100B5000004F23FA02F018BF404270474FF00000E8
:100B6000704750EA013005D111F0004008BF6FF026
:100B7000004070474FF00000704700BF4A0011D29C
:100B800012F5001211D20DD56FF47873B3EB6252E7
:100B90000ED44FEAC12343F0004343EA505323FAF3
:100BA00002F070474FF00000704750EA013002D168
:100BB0004FF0FF3070474FF0000070474FEA41029E
:100BC000B2F1E04324BFB3F5001CDCF1FE5C0DD9AB
:100BD00001F0004C4FEAC0024CEA5070B2F1004FF5
:100BE00040EB830008BF20F00100704711F0804FF8
:100BF00021D113F13872BCBF01F00040704741F4BD
:100C000080114FEA5252C2F11802C2F1200C10FAC0
:100C10000CF320FA02F018BF40F001004FEAC123A4
:100C20004FEAD32303FA0CFC40EA0C0023FA02F348
:100C30004FEA4303CCE77FEA625307D150EA01331E
:100C40001EBF4FF0FE4040F44000704701F00040EE
:100C500040F0FE4040F40000704700BF4FF0FF3C02
:100C600006E000BF4FF0010C02E000BF4FF0010CA6
:100C70004DF804CD4FEA40024FEA41037FEA226C6F
:100C800018BF7FEA236C11D001B052EA530C18BF91
:100C900090EA010F58BFB2EB030088BFC81738BFF6
:100CA0006FEAE17018BF40F0010070477FEA226CE4
:100CB00002D15FEA402C05D17FEA236CE4D15FEAE0
:100CC000412CE1D05DF8040B704700BF8446084614
:100CD0006146FFE70FB5FFF7C9FF002848BF10F1D5
:100CE000000F0FBD4DF808EDFFF7F4FF0CBF01201A
:100CF00000205DF808FB00BF4DF808EDFFF7EAFFA4
:100D000034BF012000205DF808FB00BF4DF808ED5E
:100D1000FFF7E0FF94BF012000205DF808FB00BF53
:100D20004DF808EDFFF7D2FF94BF012000205DF8D9
:100D300008FB00BF4DF808EDFFF7C8FF34BF0120E6
:100D400000205DF808FB00BF4FEA40024FEA410374
:100D50007FEA226C02D15FEA402C08D17FEA236C43
:100D600002D15FEA412C02D14FF0000070474FF0F2
:100D7000010070477BB972B90029BEBF00204FF057
:100D8000004106E008BF00281CBF6FF000414FF093
:100D9000FF30FFF75DBAADF1080C6DE904CE002914
:100DA00009DB002B1ADB00F07FF8DDF804E0DDE959
:100DB000022304B07047404261EB4101002B1BDB72
:100DC00000F072F8DDF804E0DDE9022304B04042EF
:100DD00061EB4101524263EB43037047524263EBC4
:100DE000430300F061F8DDF804E0DDE9022304B01C
:100DF000404261EB41017047524263EB430300F014
:100E000053F8DDF804E0DDE9022304B0524263EB5D
:100E10004303704753B94AB9002908BF00281CBFD3
:100E20004FF0FF314FF0FF30FFF712BAADF1080C71
:100E30006DE904CE00F038F8DDF804E0DDE90223C6
:100E400004B0704710F8012B11F8013B012A28BFAC
:100E50009A42F7D0D01A7047034611F8012B03F8D5
:100E6000012B002AF9D17047034613F8012B002A01
:100E7000FBD1181A01387047024608B50B4643ECFF
:100E8000172BB5EEC07BF1EE10FA03D4BDE8084095
:100E9000FFF796B9B1EE477B51EC170BFFF790F9CE
:100EA000404261EB410108BD2DE9F04786468C4682
:100EB0000846089E154674461946002B40F0C1802E
:100EC0008542B2FA82F245D94AB1C2F1200300FA52
:100ED00002FC954094402EFA03F343EA0C0C4FEACF
:100EE000154EA8B2230CBCFBFEF80EFB18CC08FB79
:100EF00000F943EA0C43994528D9EB1808F1FF376C
:100F000004D2994502D9A8F102072B44A3EB0903A7
:100F1000A4B2B3FBFEFC0EFB1C330CFB00F044EA56
:100F20000344A04214D92C190CF1FF3304D2A0427F
:100F300002D9ACF102032C44241A43EA07401EB143
:100F4000D440002334607360BDE8F0874746DDE796
:100F50006346F1E792BB431B01214FEA154EAFB246
:100F6000200CB3FBFEFC0EFB1C330CFB07F840EA25
:100F70000343984561D9EB180CF1FF3004D2984532
:100F800002D9ACF102002B44A3EB0803A4B2B3FBDB
:100F9000FEFC0EFB1C330CFB07F744EA0344A7429C
:100FA0004DD92C190CF1FF3304D2A74202D9ACF170
:100FB00002032C44E41B43EA0040C0E7C2F12003D3
:100FC0009540944020FA03F12EFA03F34FEA154EB0
:100FD0009040AFB20343B1FBFEFC0EFB1C10190C9A
:100FE0000CFB07F841EA0041884522D969180CF149
:100FF000FF3004D2884502D9ACF102002944A1EBAC
:1010000008019BB2B1FBFEFC0EFB1C110CFB07F7A9
:1010100043EA01439F420ED9EB180CF1FF3104D291
:101020009F4202D9ACF102012B44DB1B41EA004193
:1010300093E76046E3E76146F7E76046A4E7634667
:10104000B8E7834206D916B9002108467CE7C6E90D
:1010500000E0F9E7B3FA83F78FB9834201D3724511
:1010600008D8BEEB020460EB030301209C461EB9C6
:10107000002169E73846FAE7C6E9004CF8E7C7F10E
:10108000200CBB400EFA07F522FA0CF42EFA0CF1F4
:10109000BA401C4320FA0CF3B8404FEA144901430C
:1010A0001FFA84FEB3FBF9F809FB18300B0C08FBA0
:1010B0000EFA43EA00439A4540D9E31808F1FF309D
:1010C00004D29A4502D9A8F102002344A3EB0A03F3
:1010D00089B2B3FBF9F809FB183308FB0EFE41EAAD
:1010E00003418E452CD9611808F1FF3304D28E4597
:1010F00002D9A8F10203214443EA0040A1EB0E010A
:10110000A0FB02984145CE46434602D306D14D4549
:1011100004D20138B9EB020E68EB0403002EA7D00D
:10112000B5EB0E0261EB030101FA0CFC22FA07F3A6
:10113000F9404CEA0303C6E9003199E74046C5E7A8
:101140004346D9E7000000002DE9F04704468846F1
:10115000174688B010F0A5FB0A220023FFF75AFEBD
:10116000B8F1010F06460D4607D102460B46204650
:1011700027490EF0E2F8002011E07F682548394643
:10118000FFF760FE70B139462348FFF75BFE48B1B8
:1011900020463A4621490EF0ECF86FF0040008B002
:1011A000BDE8F087304618A3D3E900232946FFF7AE
:1011B000E1FD06460D4610461946194A0023FFF781
:1011C000D9FD80460F46104619464EF66022002390
:1011D000FFF7D0FD82468946104619464FF47A72D1
:1011E0000023FFF7C7FDCDE902A9CDE90623CDE92C
:1011F000040132462B462046CDE9008709490EF00E
:101200009CF8B8E7AFF30080005C26050000000002
:10121000BC480102CD480102D0480102D948010270
:1012200080EE3600F1480102A0F101000028FBD158
:10123000704700BF000000002DE9F843984684681D
:10124000089D1746D0F8209090ED044B0E4690ED87
:10125000066B08F09BFEE31CB8F1000F04F10204DA
:1012600008BF1C4620FA08F006EB4403B3FBF0F37A
:1012700007EE903AB8EE675B35EE043BB7EE002B15
:1012800033EE063B3C4482EE037BB4FBF0F4BCEE51
:10129000C77B07EE904A36EE046B85ED007AB8EE18
:1012A000677B36EE055B37EE047B87EE056B9FEDC3
:1012B0000C7B26EE077BFCEEC77B17EE900AA0EBBB
:1012C00009024845A9EB000388BF1346B3FBF9F3B5
:1012D000C5E90108F61B2F61EE606B61BDE8F8837C
:1012E00000000000000059402DE9F84F8146884673
:1012F00000232DED028B19F803605A1C202E00F0FC
:101300006881A6F10901042940F263812B2E15465C
:1013100032D02D2E35D0042446F02003692B4BD03B
:101320006E2B55D000224FF00A0A94461346104601
:10133000114614F4006E51D046F02007A7F1610B5E
:10134000BBF1050F4AD8573FFFB2BA454BDC46F018
:10135000200604F08007782E40F0CD80002F00F0AA
:10136000CA8050EA010A40F0C68044F4006E4FF093
:10137000100A1FFA8EFE45E0042419F802609D1C35
:10138000CAE74424F9E719F80520681C42F0200256
:101390008A4221D0984A934215D000259FED908B28
:1013A000B8F1000F02D04D44C8F80050B0EE480B21
:1013B000BDEC028BBDE8F88F9FED8B8B8F4B13F844
:1013C000011B0029DFD16306EAD5B1EE488BE7E7C0
:1013D0009FED878B8A4BF2E70546F0E7A6F13007D1
:1013E000FFB257452DDA44F0800E14F4807F04F4E8
:1013F00000761FFA8EFE0AD0002F18BF43F00103BB
:1014000006B9013219F805607446013591E706B155
:10141000013AAAFB00060AFB0161381841F10001FC
:1014200050EA0106EED0BAF10A0F0CF1010C0CBF24
:1014300010260F26B445E5DD44F4C07E1FFA8EFE6B
:10144000E0E7FE2F83D1A70552D514F08006A4D083
:1014500050EA010605F1FF3500F0B880260540F19D
:10146000A2803632B1F5800FC0F08280654FB1F5B1
:10147000000F80F08280BA427FDB0343084603F00E
:101480000306032E03D003F00606062E7ED1043396
:1014900041F10000B0F5000F78D30132B2F5806F52
:1014A00080F2918000234FF4801102F2FF3221F488
:1014B00080111E4641EA025747EC186BB0EE480B0C
:1014C0000CF01EFF0138022804D84F4B222210F0E6
:1014D00043FF1A50B0EE480B0CF012FF01380228FF
:1014E0003FF671AF484B222210F036FF1A506AE7E0
:1014F00044F4007EA2E71FFA87FA002F6BD0BEF1FA
:10150000000F0CBF65277027BE42A1D119F80560F6
:101510006F1C2B2E04D02D2E24D144F48064A4B251
:1015200019F80760A6F13007092F91D8AF1C3D4686
:1015300040F2D34A00274FF00A0B5745DCBF303E3C
:101540000BFB076719F805600135A6F1300EBEF1F7
:10155000090FF2D9660548BF7F42260548BF9200B1
:101560003A4475E7A6F1300EBEF1090FDFD96FE7F7
:10157000001802F1FF32494174E7460800F001000B
:10158000013246EAC1764908304370E7B2F5806F10
:1015900019DA9B08B0F5800F4FEA900143EA807397
:1015A00083D2002285E70CEB020313F5A27F07DD4F
:1015B000B3F59B7F07DA00F02BF8B0EE408B89E79C
:1015C0009FED078B86E79FED088B83E79FED048BEC
:1015D000F9E613468FE69FED028B5546E0E600BF25
:1015E0000000000000000000000000000000F07F8C
:1015F000000000000000F87F2B7F0102287F01021D
:10160000257F010202FCFFFF140000000000000023
:101610002DE9FF47804616460F46002900F0A280BC
:10162000B1FA81F4341B002E04F10A04C0F2A28046
:1016300030460CF049FD044430460CF04BFDA4EB61
:1016400006090546694630460CF06CFDA9EB05031A
:101650006A4640467D33394610F04AFCA64282462F
:101660000D4600F38380B9F13F0F00F381804FF006
:10167000FF33A9F12000C9F1200103FA00F003FAB9
:1016800009F223FA01F103FA09F3024328EA0303FA
:101690000A4327EA020213430CBF01200020002D59
:1016A00000F08A80B5FA85F3E31A40F2FE7203F285
:1016B0003E43934200F38980002B23EAE376D4BFB4
:1016C00001223246121BA2F23341A2F23447A2F2A7
:1016D0005344C1F1200C2AFA01F325FA04F4C7F1AE
:1016E000200E05FA0CFC25FA01F105FA0EFE43EA7C
:1016F0000C03A2F2544CA2F2544223432AFA07F4F8
:1017000025FA0CFC44EA0E0444EA0C04C7F1200C50
:1017100014F0010F54D0A8B14FF0FF3000FA02F2DC
:1017200000FA07F4144320FA0CF2B840144303F013
:1017300001022AEA000A25EA04054AEA020A5AEAEC
:10174000050A3DD0013341F10002C2F3130253EA0E
:10175000020138D0184642EA065141EC100B04B0A1
:10176000BDE8F087B0FA80F420345BE7012096E70B
:10177000002094E7C6F1000948460CF0ABFC241A9F
:1017800048460CF0A7FCA61B0546694648462E4471
:101790000CF03AFD6A46404606F17C03394610F0EB
:1017A000A7FB82460D46404639460CF0A3FC814516
:1017B0008CBF0020012072E7BAFA8AF3203373E766
:1017C000C1F31302C6E70136C4E79FED010BC6E77C
:1017D000000000000000F07F10EE902A764922F011
:1017E00000438B4217D975498B4203D805D110EEBF
:1017F000103A13B130EE000B7047002A9FED500BEA
:1018000004DD9FED517B37EE000B70479FED507B61
:1018100037EE400B70476A498B4212D8A1F1DE7156
:101820008B420BD8B7EE006B9FED4B7B30EE077B06
:10183000B4EEC67BF1EE10FA00F381804FF0FF3377
:1018400015E06049B0EEC07B8B424FD8A1F5502126
:10185000B7EE006B8B4241D837EE075B002335EEC5
:10186000465BB0EE006B37EE067B85EE070B591C2E
:1018700020EE005B9FED3A7B9FED3B4B25EE056B29
:101880009FED3B3B06EE074B9FED3B7B04EE067B5B
:101890009FED3B4B07EE064B9FED3B7B04EE067B3B
:1018A0009FED3B4B07EE064B9FED3B7B16EE073B58
:1018B0009FED3B7B13EE067B9FED3B3B17EE063B1C
:1018C0009FED3B7B13EE067B27EE067B04EE057B4C
:1018D00027EE007B1FD130EE470B704737EE465B9B
:1018E000012337EE066B85EE060BC0E736498B42C7
:1018F0000BD2B7EE085B0223B7EE006B37EE454B19
:1019000007EE056B84EE060BB1E7BFEE006B032319
:1019100086EE070BABE72D49002A2D4801EBC301EA
:1019200000EBC30393ED006B37EE467B37EE407B55
:1019300091ED000B30EE470BB8BFB1EE400B704796
:10194000075C143326A6913C182D4454FB21F93F23
:10195000182D4454FB21F9BF9C7500883CE4377E68
:1019600011DA22E33AAD903FEB0D76244B7BA93F91
:101970009AFDDE522DDEAD3F513DD0A0660DB13F48
:101980006E204CC5CD45B73FFF8300922449C23F2E
:101990000D5555555555D53F2F6C6A2C44B4A2BFF3
:1019A0006D9A74AFF2B0B33F711623FEC671BC3F9F
:1019B000C4EB98999999C93FFFFF0F440000F07F4D
:1019C000FFFFDB3FFFFFF23F0080034028380102AA
:1019D00008380102000000007FB58DED000B019B6F
:1019E000214A23F00043934206D89FED1D1B07B008
:1019F0005DF804EB00F014BA1C4A934204D907B016
:101A00005DF804EB00F0F4B902A800F031F800F042
:101A1000030001280BD0022812D0C0B99DED041B91
:101A20009DED020B00F0FCF907B05DF804FB9DEDA5
:101A3000041B9DED020B00F0DFFCB1EE400BF3E761
:101A40009DED041B9DED020B00F0EAF9F5E79DED1D
:101A5000041B9DED020B012000F0CEFCE4E700BF6B
:101A60000000000000000000FB21E93FFFFFEF7FC6
:101A7000F0B510EE907A964B89B0064627F00041FB
:101A8000994207D80022002380ED000BC0E9022311
:101A900000201BE08F4B99423BD8A3F51B23002F5E
:101AA0009FED7B7BA3F5F06319DD994230EE470B88
:101AB0000ED09FED796B30EE467B012030EE470B68
:101AC00086ED007B30EE460B86ED020B09B0F0BDD3
:101AD0009FED737B9FED746B30EE470BEBE7994204
:101AE00030EE070B0ED09FED6C6B30EE067B4FF0A7
:101AF000FF3030EE470B86ED007B30EE060B86EDB7
:101B0000020BE3E79FED667B9FED676B30EE070B03
:101B1000EBE7714B99426BD8B6EE007BB0EEC00B91
:101B20009FED636B00EE067BFDEEC77BB8EEE75BD7
:101B300017EE900A9FED567B1F2805EE470B9FED91
:101B4000567B25EE077B30EE476B05DC421E634B70
:101B500053F822308B4208D116EE903A0A15C3F39F
:101B60000A53C3EB1153102B02DC86ED006B1AE015
:101B70009FED4B4B25EE044B30EE446B30EE467B35
:101B800037EE447B9FED484B15EE047B36EE474B1A
:101B900014EE903AC3F30A53D31A312B17DCB0EE8C
:101BA000460B86ED004B96ED006B002F30EE460B9A
:101BB00030EE470B86ED020B88DAB1EE466BB1EEE4
:101BC000400B86ED006B86ED020B40427EE79FEDF9
:101BD0003A7B25EE077B36EE470B36EE406B36EE52
:101BE000477B9FED376B15EE067B30EE476BBCE70E
:101BF0003B4B994206D930EE400B80ED020B80ED55
:101C0000000B45E70A1510EE103A08A8A2F216429A
:101C10001C46A1EB0255032145EC174BBDEEC76BEB
:101C20009FED295BB8EEC66B37EE467B8DED026B00
:101C300027EE057BBDEEC76BB8EEC66B37EE467B75
:101C40008DED046B27EE057B8DED067B30ED027B81
:101C50000B460139B5EE407BF1EE10FAF6D0214982
:101C600002A8019102210091314600F041F9002FB4
:101C7000BFF62CAF96ED007BB1EE477B86ED007B87
:101C800096ED027BB1EE477B86ED027B9DE700BFC0
:101C900000004054FB21F93F3163621A61B4D03D2A
:101CA0000000601A61B4D03D7370032E8A19A33B03
:101CB00083C8C96D305FE43F0000002E8A19A33B42
:101CC000C14920259A837B39000000000000704143
:101CD000FB21E93F7BD90240FB2139410041010250
:101CE000FFFFEF7F804101027FB58DED000B019B6F
:101CF000234A23F00043934207D800209FED1E1B88
:101D000007B05DF804EB00F077BB1E4A934204D99C
:101D100007B05DF804EB00F06BB802A8FFF7A8FE6F
:101D200000F0030001280CD0022811D0D0B9012006
:101D30009DED041B9DED020B00F05EFB07B05DF80E
:101D400004FB9DED041B9DED020B00F069F8F5E727
:101D50009DED041B9DED020B012000F04DFBB1EE4B
:101D6000400BEBE79DED041B9DED020B00F058F8D6
:101D7000F5E700BFAFF300800000000000000000A6
:101D8000FB21E93FFFFFEF7F7FB58DED000B019B4E
:101D9000154A23F00043934207D801209FED101B02
:101DA00007B05DF804EB00F07FBB104A934204D902
:101DB00007B05DF804EB00F01BB802A8FFF758FE6F
:101DC000400000F002009DED041BC0F101009DEDFC
:101DD000020B00F069FB07B05DF804FBAFF3008075
:101DE0000000000000000000FB21E93FFFFFEF7F43
:101DF00008B52DED028BB0EE408B0CF081FA20B9C6
:101E000038EE080BBDEC028B08BD9FED037B87EE1F
:101E1000070BF7E7AFF300800000000000000000B0
:101E2000B0EE407BB7EE000B17EE901A21F00041A8
:101E3000B1F1795F39D327EE075B2B4B994227EE3F
:101E4000017BB6EE006B9FED1C3B9FED1D4B25EE1D
:101E5000066B05EE034B9FED1C3B14EE053B9FED1F
:101E60001C4B03EE054B9FED1C3B14EE053B9FED19
:101E70001C4B03EE054B24EE054B14EE057B04D8FA
:101E800036EE477B30EE470B7047184B99420DD822
:101E90000022A1F5001343EC152B36EE456B30EE16
:101EA000450B36EE476B30EE460B7047B5EE025BE6
:101EB000F3E700BFAFF30080D43888BEE9FAA8BDCD
:101EC000C4B1B4BD9EEE213EAD529C804F7E923E89
:101ED0009015CB19A001FA3E7751C1166CC1563F3F
:101EE0004C5555555555A53F3233D33F0000E93F7A
:101EF0002DE9F04F2DED068BADF5137D12F1140F8A
:101F00009A460F46BE4B6FF01705A2990AF1FF3BA8
:101F1000A39E0DF1680E53F82190A6BFD31E182181
:101F20000023019009EB0B04A8BF93FBF1F303FB23
:101F30000555A3EB0B009FEDAC6B154406EB800C35
:101F40000022A2420EDD1AAA0DF5D47E002402EB77
:101F5000CA024C4525DCDDF804C0104600219FED87
:101F6000A27B15E0D04209D45CF8221007EE901A4B
:101F7000B8EEE77B0132AEEC027BE2E7B0EE467BE7
:101F8000F8E7BCEC025B90ED006B013105EE067BDF
:101F90005945A0F10800F4DD01340832AEEC027BB3
:101FA000D7E706AA06EB83034C4602EB89020293AD
:101FB0009FED8F9B9FED90AB0392E3006AAA2146B1
:101FC000049392AB02EBC40203EBC40313ED280BA2
:101FD00006AB18460029A2F1080249DC2846059301
:101FE00000F07AFBB4EE007BB0EE408B20EE077B76
:101FF000BBFE477B002D059BB2EE006B07EE468BC8
:10200000FDEEC87B17EE908AB8EEE77B38EE478B83
:1020100040DD611E06AAC5F1180052F8216046FA9B
:1020200000F290448240B61A06AA42F82160C5F137
:1020300017021641002E3CDD002108F101086FF067
:102040007F4E08468C4267DC002D04DD012D7ED0DA
:10205000022D00F08680022E2BD1B7EE000B30EE61
:10206000488B30B3284600F037FB38EE408B20E039
:1020700020EE097B0139BDEEC77BB8EEC77B07EECA
:102080004A0BBDEEC00BA0EC010A92ED000B37EE3F
:10209000000B9FE705D1621E06A951F82260F615D4
:1020A000C8E7B6EE007BB4EEC78BF1EE10FA31DA7A
:1020B0000026B5EE408BF1EE10FA40F0A580621ECE
:1020C00000214A4554DA00296DD0013C06AB183D89
:1020D00053F82430002BF8D0B7EE000B284600F060
:1020E000FBFA621C6AA9D30001EBC20122469FEDF4
:1020F000406B002A80F2B2802246002AC0F2D080D3
:102100006AA9DFF800C1002001EBC205A11A9FED0A
:10211000367BBAE002268FE79C465CF8042B58B960
:102120007AB10131C2F180728C424CF8042C0CDD82
:10213000DCF8002003F1080CAEEB02024CF8042C92
:1021400001220131634610467CE701207CE7621ED4
:1021500006AB53F82230C3F3160306A941F8223028
:1021600079E7621E06AB53F82230C3F31503F4E798
:1021700006AB53F82230013A1943A2E7013352F873
:10218000041D0029FAD0049A04EB0A011AAE601C5F
:1021900002F51272234406EBC1016A44983A834265
:1021A00004DA1C4609E7039A0123E8E7029C019E32
:1021B00054F8204007EE904A04940024B8EEE77BE0
:1021C000A1EC027B9FED087B8C465C4503DD013072
:1021D000A2EC027BE3E7B6EC025B3CED026B013460
:1021E00005EE067BF1E700BF0000000000000000E4
:1021F000000000000000703E000000000000704180
:102200008842010248380102B0EE480B684200F0F3
:1022100063FA9FED736BB4EEC60BF1EE10FA17DBA9
:1022200006AA18359FED707B20EE077BBDEEC77BBD
:10223000B8EEC75B05EE460BBDEEC00B10EE103AD4
:1022400042F82430013417EE103A42F8243043E7C4
:10225000BDEEC00B06AA10EE103AF6E706A850F83D
:102260002200013A07EE900A0190B8EEE77B27EED4
:10227000007B20EE060B21ED027B3AE7BCEC025B13
:10228000B5EC026B013005EE067B484501DC81426E
:10229000F4DA42A8013A00EBC10181ED007B2CE7A2
:1022A000A29A022A0ADC002A2DDC46D008F0070098
:1022B0000DF5137DBDEC068BBDE8F08FA29A032AC5
:1022C000F4D142A9A3F1080220460A44114600288D
:1022D000A1F1080152DC21460129A2F108025DDCCE
:1022E00042AA9FED437B1344012C67DC9DED425BCA
:1022F0009DED446B002E67D187ED005B87ED026B8F
:1023000087ED047BD2E742AA9FED396B1344224646
:10231000002A24DA4EB3B1EE467B44AA012387EDAE
:10232000007B9DED427B37EE467B9C4220DA0EB16E
:10233000B1EE477B87ED027BB8E742AA9FED2C7B8D
:102340001344002C05DA0EB1B1EE477B87ED007B1C
:10235000ACE733ED026B013C37EE067BF1E733ED82
:10236000027B013A36EE076BD2E7B0EE467BD4E74C
:10237000B2EC026B013337EE067BD6E791ED007BC2
:1023800091ED025B013837EE056B37EE467B81ED50
:10239000006B37EE057B81ED027B98E792ED007BC9
:1023A00092ED025B013937EE056B37EE467B82ED2D
:1023B000006B37EE057B82ED027B8DE733ED026B20
:1023C000013C37EE067B8FE7B1EE455BB1EE466B25
:1023D000B1EE477B87ED005B87ED026B90E700BFB6
:1023E0000000000000007041000000000000703E8E
:1023F0000000000000000000B0EE407B17EE903AB5
:1024000023F00043B3F1795F01D200F0F5B920EE7B
:10241000005B9FED176B9FED183B20EE054B15EE13
:10242000063B9FED176B03EE056B9FED173B16EE1A
:10243000053B9FED176B03EE056B40B99FED163B17
:1024400015EE063B03EE047BB0EE470B704724EE1F
:10245000066BB6EE003B11EE036B16EE051B9FED0F
:10246000106B04EE461B30EE410B7047AFF300805B
:102470007CD5CF5A3AD9E53DEB9C2B8AE6E55A3E0E
:102480007DFEB157E31DC73ED561C119A0012A3FAA
:10249000A6F810111111813F495555555555C53FA5
:1024A000495555555555C5BF10EE903A884923F00A
:1024B00000428A4210B533D8FDEEC07B17EE901A69
:1024C000002942D1431C10EE104A2343134306D186
:1024D000B7EE006BB0EEC07B86EE070B10BD012897
:1024E000FCD030EE017BBFEE006B53EC172B86EE79
:1024F000074B0A46B7EE006B43EC152B35EE400B4D
:1025000031EE400B53EC142B0A4643EC172B05EE2F
:10251000076B00EE076B06EE047BB0EE470BDDE7C2
:102520006C498A4211D9002B9FED497BBCBFB1EEAB
:10253000400BB1EE411B37EE407B9FED470B30EE79
:10254000410B9FED471B30EE070B20EE006B6149FE
:102550008A429FED455B9FED464B26EE067B20EEC3
:10256000063B07EE054B9FED445B9FED452B04EECC
:10257000075B9FED454B05EE074B9FED455B04EE7A
:10258000075B9FED454B05EE074B9FED455B07EE67
:10259000025B9FED452B05EE072B9FED455B02EEA1
:1025A000075B9FED452B05EE072B9FED455B02EE8C
:1025B000075BB0EE457BB0EE415B04EE067B07EEB9
:1025C000035B9FED417B05EE061B03EE071B30EE20
:1025D000016B1DD907EE900A26EE064B9B17B8EE4D
:1025E000E77B03F00203C3F1010336EE076B84EED1
:1025F000065B35EE416B30EE466B36EE066B37EE22
:10260000466B07EE903AB8EEE70B26EE000B65E757
:1026100001281AD0BFEE007B51EC160B87EE065B4B
:102620000020B7EE006B41EC140B34EE400B31EEA2
:10263000401B53EC152B024643EC172B04EE076BA3
:1026400001EE076B06EE057B67E7B0EE460B45E74C
:10265000182D4454FB21E93F075C143326A6813C26
:102660000000000000000000D47ABF74702AFB3E16
:10267000E9A7F0320FB8123F68108D1AF726303FE5
:10268000735360DBCB75F3BE1583E0FEC8DB573FA9
:1026900093846EE9E326823FFE41B31BBAA1AB3FB0
:1026A000A69237A0887E143F0165F2F2D844433FDA
:1026B000280356C9226D6D3F37D60684F464963FD1
:1026C0007AFE10111111C13F635555555555D53F2F
:1026D000FFFF2F3E2794E53F10EE902AC2F30A53E6
:1026E000114610B4C3B922F0004210EE103A1A435A
:1026F00018D02B4C9FED267BA04220EE070B10EE4E
:10270000902AC2F30A531146A3F136030DDAD00F13
:102710005DF8044B00F048B840F2FF72934204D1D8
:1027200030EE000B5DF8044B70474CF25032904293
:1027300004DDC80F5DF8044B00F04AB8184440F2BD
:10274000FE739842F5DC00280ADD21F0FF4121F4F8
:10275000E00153EC102B41EA005343EC102BE1E76E
:1027600010F1350F01DAC80FD2E721F0FF41363002
:1027700021F4E00153EC102B9FED077B41EA00535D
:1027800043EC102B20EE070BCCE700BFAFF300802B
:102790000000000000005043000000000000903CDA
:1027A000B03CFFFF000000009FED050B9FED067B96
:1027B000002800FE077B27EE000B7047AFF3008078
:1027C0000000000000001000000000000000108069
:1027D0009FED050B9FED067B002800FE077B27EE93
:1027E000000B7047AFF30080FFFFFFFFFFFFEF7F9D
:1027F000FFFFFFFFFFFFEFFF9FED076BB7EE007BD3
:1028000082B037EE067B8DED007BDDE9002302B060
:10281000704700BFAFF30080000000000000100010
:1028200070B5ADF50E7D002001A901F0E5F8044674
:1028300020B1014637480CF040F924E006AE0146CD
:102840001023324601980CF0D1FB044610B101462A
:102850003148F0E73378013BDBB2FD2B05D92F4837
:102860000CF02BF96FF001040DE00A22304602A9AA
:102870000AF0C8FB029B0546B34208D128480CF079
:102880001CF96FF0150420460DF50E7D70BD014654
:102890004FF480500AF064FA064618B929462148D8
:1028A0000CF00BF92B463246102101980CF09EFBE0
:1028B000044610B101461C48BDE701464FF40472BE
:1028C0000AA80FF063FC194BCDE904440B93184B95
:1028D00018490C93184B03AA0D9301230AA88DF8ED
:1028E000103004ABCDE98B6505F0E6FF044610B16E
:1028F000014612489FE703981149843005F0AEFF66
:10290000014608B90F48ABE72246039806F090F855
:10291000B9E700BF88450102AA450102C845010286
:10292000D9450102F645010213460102090A0102D6
:10293000330A01027B460102470A010236460102C0
:1029400054460102594601027FB50BAB0593039330
:10295000054B0222029300231846CDE9003300F014
:10296000C7FD07B05DF804FB864601022DE9F04F74
:1029700091B0009302F004030293C2F3C2030E4627
:10298000013381070546DDF868800392059340F026
:10299000BC81041D30B1072E09D86FF01B0011B0A7
:1029A000BDE8F08F06F007063444C6F10806009B28
:1029B0004FF000094FF0040A591E4FF0FF334F4605
:1029C0000193CB465346CDF810900DB1009820608E
:1029D0000598002800F3EB809948009A824203D3BF
:1029E00098488242C0F0E380039AA4EB050E920758
:1029F0004FEA9E0000F106810F2F00F2B480002DF7
:102A000000F0088107F140020DEB020C019A0CF86E
:102A1000200C0CF8102C049801300490EAE07A287D
:102A200060D84B2810D847285CD829282FD82528CB
:102A300055D057D8A0F12302D2F1000C4CEB020C78
:102A4000202818BFE34675E04C382E284AD8DFE826
:102A500000F07149494949494949494949494C495D
:102A6000494949494949495A494C4C5A5A5A714C61
:102A70006E497149184C18494983804C49494C4961
:102A8000800000204FF0000B4FF0040A39E00122D3
:102A9000A0F12A0C5FFA8CFC02FA0CFC1CEA0E0F67
:102AA00048D11CF062502ED11CEA020B42D0013CEE
:102AB0005444B4FBFAF40AFB04F4002D61D0A3EBF8
:102AC000050CA444B4453FF668AF002868D1042B38
:102AD00047D158F8043B2360042304342AE0019AC8
:102AE000013A01924FF0000B24E011F8010C6C2820
:102AF00034D1002011F8023C83466C2BC4D14FF036
:102B0000080A5346D3E708F1070828F007080734F6
:102B100024F00704F8E802AB35B106982044B0422F
:102B20003FF63BAFC4E900AB4FF0000B08344FF069
:102B3000080A534611F8010F002878D0BBF1000FA6
:102B40007FF46DAF2528F5D14FF0010B019B0133C8
:102B500001934FF0040AECE7584693E700208346C0
:102B6000A5E7082B02D06FF0150018E708F1070859
:102B700028F00708B8EC027B84ED007B08230834BA
:102B8000D8E768B9042B02D108F10408A4E7082BA0
:102B9000E9D108F1070828F0070808F10808EDE76F
:102BA00005980138059058F8040B00900DE7039A3A
:102BB000900720D54FF0010CA4EB050E4FEA9E00C4
:102BC000BEF5007FCFD20F2FCDD8F5B107F140026F
:102BD0000DEB020E019AC0B20EF8200C0EF8102C6C
:102BE000BCF1000F3FF417AF60F07F000EF8200C2F
:102BF00009F101090137C5F108024FF6DA7E043404
:102C0000069297E74FF0000CDAE7BCF1000F01D015
:102C10000136EFE7029A0236002AEBD10098CDE99F
:102C20000631FEF721F9DDE906310644E2E7631BD0
:102C3000B3F5806F97D23DB9A6F10804E018AEE66F
:102C4000A82301023C7F0102029A9B0828602B7096
:102C50009DF81030C2B1EB7085F80290B9F1000F09
:102C600005D008A8C5F1010C7A1C013A0ED14FF02D
:102C7000000AC5F101030DF1200801930DF1300B9D
:102C8000574511D1601B8AE66B70E5E710F8013BF0
:102C90001906EAD50CEB040EB64503F07F033FF6A8
:102CA0007CAE04F8013BE0E7B9F1000F03D098F9DE
:102CB0000020002A17DB029BD3B11AF80B2004F87E
:102CC000012B0022019B18191044B0423FF665AE5B
:102CD00098F80000009904F8010B204603920FF0C9
:102CE0002EFA039A14440AF1010A08F10108C7E711
:102CF00098F8002055F822300093029B009845F880
:102D00002230FEF7B1F8421CDCE76FF00D0046E61A
:102D10002DE9F04F9BB00993249B0446C3F3C003F5
:102D20001746894690F802B00B9341B94578007870
:102D30000BEB800020444D4516D8A0EB0409E37846
:102D40000A93BBF1000F02D0249BDD0715D40A9B28
:102D5000002B37D11FB149462046099AB8474E4645
:102D600030461BB0BDE8F08F461C3046FEF77CF8BD
:102D70000130304409F10109DDE7227863680792E8
:102D80000893079B92000C9204EB8305002F40F000
:102D9000E880A84600274E4605EB0B09C84520D021
:102DA00018F8013B54F82300FEF75EF8259B01302C
:102DB00033B1269B9F423EBF259B23F81700013766
:102DC0000644EBE7249B9807C4D523781D46079358
:102DD0009B000C93636804EB85050893002F58D182
:102DE0004E46249B5D4413F0050F0CBF4FF0020AC2
:102DF0004FF0010A0A9BDFF878B205EB4309249BE8
:102E000003F0020307934D45AAD015F8021B15F8ED
:102E1000013C54F82380D84502D3924B984519D3EE
:102E20000B9B23B308980BF01DFE00B38E4803687C
:102E300013F0060F0CD0089B049103938B4B0146B3
:102E40000293002302221846CDE90033FFF77CFDF0
:102E5000023ED8E70B9B23B108980BF003FE002835
:102E6000E4D1249BD90705D4A6EB0A06CBE7079B40
:102E7000002BC8D04046FDF7F7FF259B3BB1269BB2
:102E80009F423FBF259A431C22F817300137064462
:102E9000B9E7BBF1000F69D0249B13F0040868D098
:102EA000D8464FF0000A16A85A4629460FF047F9AF
:102EB0000A9B5D445B000E930A9B05EB43030D9355
:102EC000249B03F002030F930D9BAB4253D10021CF
:102ED000249E637816F0020F03EB0A004FEA5802B3
:102EE00018BF0A4616F0010FC0B205D116F0040F44
:102EF000314614BF414600216070A170E270204647
:102F0000099A0C990893B847061EFFF629AF079B4C
:102F100041462370089B099A63700A9B84F802B0AB
:102F2000E37016A8B847B0F10008C0F297800C9B78
:102F3000A9EB0B01C91A0E9B2846099AC91AB84772
:102F40000028C0F28D80B04408EB00064FF0000866
:102F50000DF1480BC2455AD80021099A0846B847D6
:102F6000FEE6DA464FF0000812A89DE7D846DA469A
:102F70009EE7C2469CE715F8021B3D4B15F8016C15
:102F800054F826209A4202D3364B9A421AD30B9B0E
:102F900023B108980BF066FD002895D10F9BE3B98B
:102FA00008F1680308F101020DEB03001AAB08F108
:102FB000020853FA82F200F8101C5FFA88F802F84F
:102FC000106C81E70B9B2BB108980BF04BFD002890
:102FD0007FF47AAF249BDA070AD50AF168030AF175
:102FE00001020DEB030A0AF8206C5FFA82FA6BE724
:102FF000249B5B077FF568AF08F1680308F10102C5
:103000000DEB030808F8106C5FFA82F85CE718F81B
:103010000B30259D54F823908DF8473035B1269B11
:10302000984536BF2B46002533F818500121099AE0
:103030000DF14700B847002812DB064425B9484681
:10304000FDF712FF451CADB229464846099AB8471C
:10305000002805DB064408F101087BE746467FE6C9
:1030600006467DE63C7F0102E80300228646010217
:10307000A8230102014B1860704700BF0000002226
:1030800070B50446044E4518AC4200D170BD33689B
:1030900014F8010B9847F7E70000002280B50546B9
:1030A0000E461746984609F089FA03460FF054F980
:1030B0000446DFF81890424649F800303946304659
:1030C000A84754F8090005F013F800BF10000000ED
:1030D000034B044A1A600022034B1A60704700BF7A
:1030E000740C002200127A00700C00222DE9F84FB7
:1030F00081462E480F460BF046FE064670B92C4C12
:103100000546A0464FF0010BDFF8A8A0544507D3B1
:10311000B9F1000F02D04FF0010AE5B9BDE8F88F10
:10312000237B6BB12368DB680BB12046984723688B
:103130001B6943B9636804222046196800F096F9B8
:1031400001361034E2E7204698470028F2D00BFA07
:1031500006F31D43F4E7A94695FAA5F4B4FA84F4FE
:103160000AFA04F3260108EB04146FEA030B25EABC
:103170000305237B63B158F806301B698BB94644BD
:10318000736804222046196809EA0B0900F06EF9F9
:10319000002DE1D11FB16420002109F0C5F94D4691
:1031A000BBE7204698470028F2D1E8E7800C0022D0
:1031B000D42A0102E42A010208B5034608462BB1CD
:1031C000044A136000F000FC002008BD6FF01500F9
:1031D000FBE700BF0400002208B50023074A4FF4B4
:1031E0007A711370064A07481360074A1360FFF7A5
:1031F000E3FFBDE8084000F085B800BF6C20002266
:10320000780C002277ED00027C0C002270B50B4D8B
:10321000297841B90120FFF769FF094C094EB442F2
:1032200002D301232B7070BD63685B791BB12368E7
:1032300020469B6898471034F1E700BF6C200022BD
:10324000D42A0102E42A0102014B1868704700BF2A
:103250007C0C002210B5044606480BF094FD3CB1EE
:10326000054BD3E8EF1F0139C3E8E21F002AF8D16C
:1032700010BD00BF780C00227C0C00222DE9F0412B
:10328000164B05461B689847154CDFF85880A86018
:10329000444501D3BDE8F08163685B793BB129788F
:1032A0004B0706D52368294620461B6898471034EB
:1032B000EEE728462E88C1F3C20700F0E9F9C6F30D
:1032C00082160246002EEDD00028EBDB01233946A2
:1032D000204600F0E5F8B042E9D3E3E7040000221D
:1032E000D42A0102E42A0102044A054B9B1AB1EBDD
:1032F000D30F34BF52F83100002070473C2A01023E
:10330000D42A010200200B490B4B30B55B1ADB08B5
:103310000A4C04310133013B00D130BD11F830209B
:10332000256802F0070225F007052A4344F8042B1C
:103330000130F0E73C2A0102D42A0102E403002212
:10334000F8B5064600240A4F0A4DED1BED08AC42C5
:1033500003D14FF0FF342046F8BD57F8340020B1B8
:103360003146FDF76FFD0028F5D00134EFE700BFCF
:103370003C2A0102D42A010200282DE9F0478846A0
:1033800015461F461DDA4FF0000A5446DFF8A89094
:10339000254EA6EB09063609B24509F1100902D1FE
:1033A0002046BDE8F08759F80C0C3B462A464146BA
:1033B0000079FFF7E1FF844238BF04460AF1010AB1
:1033C000EAE71A4B1A4AD21AB5EBD20F29D203EB0D
:1033D000C5031C79BC4228BF3C4607224FF0090EAA
:1033E000144EC0B200EB400056F82530824023EA6C
:1033F000020304F0070282401343032100224EF02F
:1034000001E023FA01F000F00700824238BF0246D3
:1034100003310FF00BC023F00703134346F82530A8
:10342000BEE70024D9E700BFE42A01023C2A0102DA
:10343000D42A0102E4030022D42A0102F8B5064688
:103440000F460024074D084BED1AED08AC4200D39F
:10345000F8BD002122B23B46304601340BF0B8FCE7
:10346000A4B2F3E7D42A01023C2A010238B50D4682
:1034700011460A4B4268C31A1B11044601331371EB
:1034800043689971FFF7DAFF012263681D60636882
:103490005A71BDE838400BF094BC00BFD42A010239
:1034A00010B570B14168097973B1002A17DBCBB24E
:1034B0000C4903EB430351F82200D84000F0070009
:1034C00010BD4FF0FF31EFE70749084C1846641A6A
:1034D000B2EBD40FF4D201EBC2010879F0E704207B
:1034E000EEE700BFE40300223C2A0102D42A0102D5
:1034F0002DE9F04F87B004AF0446D7E90EA90E4678
:10350000934698463D6BBAF1000F22D0C7F804905D
:10351000CDF800901021534600207A6BFFF726FA71
:10352000B0F5006F014615D31C490B6813F0060F68
:103530000BD040F2FF730393194B02220293002336
:103540001846CDE900330BF0C3FC0C37BD46BDE88F
:10355000F08F514604F007040BF0070BE40044EA37
:103560008B1444EA412444EA055417350D4425F0F0
:103570000705ADEB050D04ADBAF1000F07D0CDF88E
:10358000009053467A6B05F11000FFF7EFF94346C0
:103590002246314628460BF04BFCD6E70C040022AD
:1035A000734701022DE9F04FC1F34A2691B00D4651
:1035B0009046079008930C0D002E5AD000274FF02C
:1035C000040B4FF00A0A0BAB01933A460DAB3146A0
:1035D0004046CDF808B0CDF800A0CDE90D770F97A3
:1035E000FFF796FBB0F5006FB146034616D32549A9
:1035F0000B6813F0060F0ED040F2FF730493D8F857
:10360000043002220393204B3846CDE90173009722
:103610003B460BF05DFC11B0BDE8F08FC0F30A062D
:1036200004F11700184420F00700800809930BF0FC
:10363000CBFB66F35325044680B1099B00F11001D2
:10364000CDE90E370BABCDE900A30D9140464946BD
:103650000E4ACDF808B00DABFFF75AFB66F35325C1
:103660002A462046089B079911B0BDE8F04F0BF0A1
:10367000DFBB04F1170020F0070080080BF0A4FB6B
:103680000446EBE70C040022AB47010205EE000202
:1036900043680548002BA3EB000040F38F0008BFF0
:1036A0004FF0FF30704700BFE40300220EB403B5B3
:1036B00003AB53F8042B01460448019304F0C2FE07
:1036C00002B05DF804EB03B0704700BF4BEF00029F
:1036D000CA0605D48B064CBF02490349FFF7E6BF73
:1036E000704700BF284B0102EA4701022DE9F04F65
:1036F00087B09DF8446004460D4690469946002EDA
:1037000000F0A080159B03F0020A03F0010304936C
:10371000159B03F0080B03F4807305930BF056FB25
:103720000246074620B120469349FFF7BFFF0746F0
:10373000BAF1000F0AD0159B13F0440F33D12A467B
:1037400020468E49FFF7B2FF03461F44049B53B146
:103750008B4B8C4A53F826302046002B18BF1A4654
:103760008949FFF7A3FF059B002B49D0BBF1000F50
:1037700065D14546B8F1000F05D042462046834941
:10378000FFF794FF0546129B3D44002B69D1149B23
:10379000002B6FD1159BDB0700F1E78020461599C0
:1037A000FFF796FFD4E07A4B186803460028CCD088
:1037B000784B4FF47A7A1B684FF03C0CB5FBF3F56D
:1037C000B5FBF0F14FF4616300FB11550AFB05F501
:1037D000B1FBF3F2B5FBF0FE03FB121100FB1E552B
:1037E000B1FBFCF30AFB05F5B5FBF0F50CFB13117F
:1037F00020460091CDE901E56749FFF757FFA3E7B0
:103800005D46BBF1000F07D0644B204653F82620DD
:103810006349FFF74BFF0546B8F1000F05D042465C
:1038200020465A49FFF742FF0544B9F1000FAAD0DC
:103830004A4620465B49FFF739FF0544A3E74FF0AE
:103840000009E1E7B9F1010F129B06D1002B66D107
:10385000149B002B7CD000250CE0002BF8D05248A4
:103860005EE05248129B224651490BF0CAF8149B65
:10387000002B6AD0DFF84481DFF84491149F204682
:10388000102F159928BF10274FF0000BFFF720FFCE
:103890005D4547DC139B494620461A78FFF706FF33
:1038A0004FF0010B1BF0070F03D141462046FFF7F5
:1038B000FDFE5F453DD9139B4946204613F80B207A
:1038C000FFF7F4FE0BF1010BBBF1100FEAD14FF043
:1038D000000A20463749FFF7E9FE5246DFF8E4B018
:1038E000139B20469A5CA2F120015F2928BF2E225B
:1038F0005946FFF7DBFE0AF1010ABAF1100F1DD09D
:103900001AF0070F03D141462046FFF7CFFE574577
:103910005246E5D841462046FFF7C8FEEBE723486C
:1039200035469FE741462046FFF7C0FE0BF1010BED
:10393000AEE720462049FFF7B9FEC3E7139B3B449F
:103940001393149BDB1B149398D1002E7FF422AFAA
:103950006268A168D2E9002320680BF0E8FA00222F
:1039600063681A6007B0BDE8F08F2046054A064933
:10397000FFF79CFE12E700BFF2470102F647010283
:103980009C380102ED470102114C01021B48010263
:10399000880C0022840C0022FF470102B03801028B
:1039A0001F4801022548010267EF00024BEF0002A9
:1039B00045840002344801023048010232480102C5
:1039C0002A4801022E52010200220123074988429F
:1039D00007D8002A08BF0123054A1360054B186069
:1039E0007047012240085B00F1E700BF40420F0032
:1039F000840C0022880C002238B5124B0D461C683E
:103A0000CCB1114B1A68002A02F10103B8BF01239F
:103A1000013B02D16FF0010038BD224612F8101BA5
:103A2000814201D01446F3E7E0680DF0D3FA28B1E3
:103A300000202C60F0E76FF00C00EDE76FF0120053
:103A4000EAE700BF08000022C438010210B50446AE
:103A500007F034FA0349024620460BF06EFC0020C2
:103A600010BD00BF6D48010237B513460022054660
:103A700001920A21586801AA01F032FC019C4CB95C
:103A80000A2120EAE07080FB010108F04DFD20468C
:103A900003B030BD2246284602490BF06AFC019C67
:103AA000F5E700BF9948010208B5034A03490BF046
:103AB00044FC002008BD00BF834901028A4901027D
:103AC0002DE9F3411746002304460A21B86801AAEC
:103AD000019301F005FC019DC6B24DB12A46204676
:103AE00013490BF046FC019D284602B0BDE8F08169
:103AF000042E09D9324620460E490BF03AFC2046E6
:103B00000BF075FC0125EFE77868FFF719FCB0F1C1
:103B1000000804DA20467A6807490BF02AFC0021E5
:103B2000334608460FFA88F20BF052F9DCE700BF83
:103B3000B5490102DC490102F349010210B504460E
:103B400007F09EF90749024620460BF0F6FB204697
:103B500005490BF0F2FB2146044808F02DFE002039
:103B600010BD00BF4B4A01026A4A0102713B0002CC
:103B700070B58EB004460D46D0F89C600DF047FD40
:103B800003460EF0E9FB214A214912589442214A8A
:103B900018BF0A46181E204B204908BF1846234666
:103BA000009028460BF0C9FBD4E90A23CDE9002395
:103BB000284694F90E30227B19490BF0BEFB06A96A
:103BC0002022204608F080F8636E024615492846F8
:103BD0000BF0B3FB204605A90DF03BFD024628B1D2
:103BE000284611490BF0A9FB0EB070BD6422059B5D
:103BF0002846F11A4A43B2FBF6F20091CDE9016280
:103C00000A4932460BF099FBEEE700BF10000000B6
:103C1000324801024D5D0102744A0102774A0102F5
:103C2000834A0102AF4A0102C64A0102F34A010275
:103C3000F0B50025044691B0294608AF1C2209A81A
:103C40000EF0A4FA134E1A22202138460EF09EFAE6
:103C50002146114808F0B0FD07AA4FF40061304634
:103C60000DF0EAFC6423079A2046C2F500614B433D
:103C7000DB0A05934FF400630097CDE90313CDE908
:103C8000013206492B4632460BF057FB284611B04D
:103C9000F0BD00BFC8C80022A13C0002444B010295
:103CA00070B504460D46D0F89C6088B007A90DF0A9
:103CB000D0FC024628B128460F490BF03EFB08B065
:103CC00070BD20460DF0A3FC6422079B0028A6EBE4
:103CD000030101FB02F2B2FBF6F2CDE90131CDE9BD
:103CE0000362064B224618BF034605492846009644
:103CF0000BF023FBE3E700BFC64A0102744A01024E
:103D00008D4B01022DE9F04F87B00446684607F05D
:103D100007F91823009F082103FB0077264A204655
:103D20000BF0FEFADFF8ACA0009DDFF8ACB0BD42AE
:103D300003D3002007B0BDE8F08F2B680BB11A78D1
:103D400032B92B4614211D4A01A809F091F801ABA4
:103D50005246082120460BF0E3FA28460DF03AF9C6
:103D60000028174B4FF0080108BF5B462046154A54
:103D70000BF0D6FA6B69A3B11E6896B1336883B1B4
:103D800008212046104A0BF0CBFAB1464FF000084C
:103D900033680E4A434506D8082120460C4A0BF0EA
:103DA000BFFA1835C3E70821204659F8043F0BF045
:103DB000B7FA08F10108EBE7004C01020A4C0102D6
:103DC000F14B01028D520102144C0102104C010210
:103DD000284B01020F4C0102F74B01022DE9F04183
:103DE00014468846074610220021606809F00AF947
:103DF000B8F1020F064607D8202308213846244A86
:103E00000BF08EFA336816E00A220021A06809F050
:103E1000F9F8C5B22B46082138461D4A0BF080FA46
:103E2000B8F1030F1AD1102D0CD0202DEAD0082D97
:103E30000BD13378DBB208213846164A0BF070FA02
:103E4000002009E033889BB2F5E738460821124A82
:103E50000BF066FA6FF01500BDE8F081102200212A
:103E6000E06809F0CFF80821034604460B4A3846BB
:103E70000BF056FA102D06D0202D07D0082DE4D1D6
:103E8000E4B23470DCE7A4B23480D9E73460D7E719
:103E9000554C0102804C01026A4C0102914C010216
:103EA00000232DE9F04F91464FF0FF35012287B0F6
:103EB0000193504B074688461A60202604F080FB89
:103EC0002C46DFF84CA149465246404604F09CFB84
:103ED000411C06D16A1C41D1474938460BF049FACA
:103EE00017E073281AD0772828D0612811D1DFF87D
:103EF00024B11021DBF8000001AA01F0F1F9019BC7
:103F00000546002BDFD0DBF800203C4938460BF09B
:103F100030FA6FF0150007B0BDE8F08FDFF8F4B0AD
:103F20000021DBF8000001AA01F0DAF9019B044648
:103F3000002BC8D0DBF800203149E7E7DFF8D4B028
:103F40000021DBF8000001AA01F0CAF9019B064636
:103F5000002BB8D0DBF800202A49D7E7631C01D139
:103F60002949BAE75FFA86F8C6F3C406002C3FD0A9
:103F700002AB29461A46A6EB050C0CE0B8F1100F6F
:103F80001DD0B8F1200F20D0B8F1080F2AD1087841
:103F9000187031443344A64203D80CEB01001028BA
:103FA000ECD9102CA14628BF4FF0100929464B46EA
:103FB000384601F065F81035A4EB0904D6E7088807
:103FC00080B21870000A5870E3E708684FEA102EB4
:103FD000187083F801E04FEA104E000E83F802E0FB
:103FE000D870D6E708213846084A0BF099F990E7CF
:103FF000204690E788000022E64C0102A54C010211
:10400000B84C0102CB4C0102034D01026A4C010283
:10401000DF4C0102B81F002270B50F4E04460D465A
:10402000337871B123B10D49BDE870400BF0A1B9EF
:104030000123337020460A490BF07FF901233370C6
:1040400004E083F001033370002BF3D129462046AE
:10405000BDE870400BF0EAB96D2000221D4D010251
:10406000584D010270B504463F480378182B02D121
:104070000B78112B30D00B46551E013A25D14B5DE4
:104080000A780370A2F13003092B384C04D922F0CE
:104090002003413B052B04D823683549CA5401331A
:1040A00023602368022B3BD110220021304808F006
:1040B000A9FF304A136803F8010B13602E4A1368F6
:1040C00001331360002323602AE013F8016B182EDC
:1040D000D3D11E78112ED0D1274D20462A682749EA
:1040E0000BF02BF900212046FFF796FF244B1E789A
:1040F000B6B92B6823495A1E9208002B02F101021F
:10410000CCBF144601240868013C0AD10EB10860F6
:104110002B6013F003020BD10A6813681BBA1360FB
:1041200070BD0268012612BA40F8042B043BEBE78D
:104130005B4203F0030352EA43B3022B04D10A6843
:1041400013885BBA9BB2EAE7032BE9D108680268DF
:104150001104C2F3074301F47F010B4302F47F42D1
:1041600013430360DCE700BF6E2000228C0C0022AA
:1041700070200022980C0022900C0022824D010237
:104180006F200022940C00222DE9F84F00230646F0
:1041900015460C462949DFF8BC800B602849DFF83A
:1041A000B890DFF8B8B088F800300B60012C2F46CB
:1041B00055F804AF1ED90222494650460DF017FEAD
:1041C00080B99AF80220003A18BF01229244504662
:1041D00002221C490DF00BFE30B9012388F8003093
:1041E000013CE3E70022F1E749465046FCF72AFE8E
:1041F000A8B9043700227868114608F003FF0022AE
:10420000114B11461860786808F0FCFE0F4B1049FE
:1042100018603046FFF700FF0020BDE8F88F9AF8DD
:1042200000202D2AE6D19AF80120002AE2D0524639
:10423000594630460BF081F8D2E700BF8C0C0022C3
:10424000900C00229F4D0102980C0022940C002239
:10425000654000026F2000229C4D0102A24D010228
:104260007FB50BAB05930393054B0222029300230A
:104270001846CDE90033FFF73BF907B05DF804FBC2
:10428000044F010207B50A480CF0A4FE60B10423F4
:10429000084A0093126801230549074800F056FFB9
:1042A000002003B05DF804FB6FF01200F9E700BFD7
:1042B0001826010290390102BC33010210B544688E
:1042C000A3604023C4E9001242680821D36402F1CC
:1042D000580313630023C2E90E33C2E91133C2E964
:1042E0000633C2E90933D162146802F15001536305
:1042F0001364116153611362C2F8D030A36823B113
:104300009B6C13B1204604499847A3689B6A0BB184
:1043100020469847002010BD1D4300022DE9F043C0
:1043200004460D4687B083685B6C03B19847A36869
:104330005B6B0BBB4FF0000905F130084046EA6C9F
:1043400005A90AF04EFC0646002836D0A368059958
:104350009B693BB3024620469847074628B3394637
:1043600040460AF05BFCBE424FF00109E6D0002057
:10437000D5E90131984703E0204698470028D9D174
:10438000A3685B6A83BB05F110073846EA6A05A992
:104390000AF078FC064670BB20460AF04CFEC5F8D1
:1043A000D06033E06FF05707D9E7014640460AF086
:1043B00035FCB9F1000FE3D0D9E718490B6813F0C9
:1043C000060F07D0164B0222CDE9010300900346E9
:1043D000FFF746FFA3689B69002BEAD00122204625
:1043E0000DF113019847E4E7204698470028CAD109
:1043F00007B0BDE8F083A36805995B695BB102462D
:1044000020469847014638460AF058FCD5E9013164
:1044100001209847ECE76FF05701F4E728040022E9
:10442000044F010210B504468168183101F094F977
:10443000A1682046BDE81040014A183101F032B9A8
:10444000464F010238B58368044603F580539B6FDD
:10445000DB071FD4C0690BF0D5FC606803685B689C
:104460009847054620B9E0680BF024FEA3681D7547
:10447000A3685B6C13B129462046984700220DF0D3
:104480006BFFA36803F58053C3F82021034B185832
:1044900003F02EFE6FF00F05EAE700BF10000000EA
:1044A00001490AF044BE00BF284B0102F7B504469B
:1044B00080680D4600F580539B6F5A0705D5002193
:1044C0000AF07FFEE0680BF0C7FDE368DB6873B9B4
:1044D000002D3CD0A66806F1560738460AF034FE97
:1044E000002836D0394606F65600FCF7B5FCA2681F
:1044F0002946E0680DF1060356320BF0B0FD58B9BD
:10450000A06800F656015630FCF7A6FCA0685630AD
:104510000AF01AFEADF8060020460BF07DFAA368FB
:1045200003F580535B6F9B0603D50B4960690AF066
:10453000FEFD204600F03CFFA268BDF80630204694
:10454000A2F85230A268A2F850300BF0CAF903B0BA
:10455000F0BD86F85608CAE7103501022DE9F04F84
:10456000A7B004465422002111A80DF00FFE00232D
:10457000CDE90533A3682046563302930BF053FA76
:1045800020460BF096F910B96069FFF789FF002605
:104590004FF0FF37B246B3463546B146A068142205
:1045A000002118300DF0F2FD20460BF027F9A1682C
:1045B000E068B1F8502056310BF088FD20460BF032
:1045C0000EFE0DF144080396DDE90532012A6DD097
:1045D000132B6ED85FBBBBF1000F0AD020460BF047
:1045E0001FFE1423A26811A956320DEB03000AF036
:1045F00085FFB9F1000F0CD099F81130FE2B08D1CE
:10460000059B26AA02EB830252F8542C0AB101330F
:104610000593A068059D436A002B40F0B780CEB19A
:10462000C3699E422DD00D9600F1180524E00223A7
:104630004146029A06A80AF061FFD8F804200699BC
:104640000346029231B101290AD148B16D4A204690
:104650000BF098FA6FF00705284627B0BDE8F08FF9
:10466000059B002B34D0D8F8000001F095F898B1E4
:1046700066B1A5680D9618350CAE0FCE0FC5336820
:104680002B602046FFF7CEFE0125E5E75E4A0121BB
:1046900020460BF077FADDE7059BCBB12946204693
:1046A000D8F8002001F022FA022809D1059B132B2B
:1046B00091D9069B022B8ED10121544B544AC6E757
:1046C000032805D0059B4FF0010B013305937BE7D1
:1046D000039B33B94846D8F8001007AA0BF005F839
:1046E000054608F10408013F002D3BD0EB68BBF103
:1046F000000F08D0F3B120460BF095F920460BF0DF
:10470000F0F8444AC3E7ABB1AE46A368DDF814A0A5
:1047100003F1180CBEE80F00ACE80F00DEF8003023
:10472000CCF80030AB682BB96B7CFE2B04BF2F7C20
:1047300007F1FF37D5F804C0A946BCF1000F08D037
:10474000AE460CAEBEE80F000FC6DEF80030336098
:104750006646069B17B9022B7FF436AF059B0133E3
:10476000059331E7059B13B101230393F1E7A36898
:10477000DB6A13B1DB68002BF6D1274B01210093D4
:104780002046119B254A0BF0FDF9EDE790F8283003
:10479000A5EB0A05BBB14FF6FF7190F82920FF2A5F
:1047A00008BF0A469D4202D313449D420BD9836938
:1047B000012120461A4A0BF0E5F92046FFF732FEA8
:1047C0006FF0150548E741F20C1601210AF0EDFCE7
:1047D000A06830440AF010FDA36811AA294602EB34
:1047E0008A0220465B6A98470546A0684FF0FF3270
:1047F0004FF0FF3330440AF098FC0021A0680AF023
:10480000D4FC29E7544F0102684F0102C94F01024D
:104810000E4A0102864F0102B54F0102BA5201024F
:10482000ED4F0102022210B5836804461A758368B1
:104830009B6CCBB90AF058FC836803F580539B6FDF
:10484000DB040CD50321094B094A0BF09BF9A06846
:104850006FF4805100F5835018300AF05BFC20465D
:10486000BDE8104000F000BF10BD00BF08500102BD
:10487000114C01022DE9F04F04468068012100F53A
:104880008350B1B018300AF03AFCA3681B7D022BAC
:1048900020D100230993A36860689E6C03681D699A
:1048A00009AB16B310221BA9A847099B93B101219C
:1048B000A0680AF07AFC2046099A1BA9B04700219B
:1048C000A0680AF072FCA3689B6C002BE3D1204621
:1048D000FFF7A8FF6FF00101A06800F583501830C2
:1048E00031B0BDE8F04F0AF015BC01220DF12301F3
:1048F000A847099B002BEDD09DF923109DF823308C
:104900000029A268C7DB517D032900F21883DFE884
:1049100011F004009402AD0216030D2B02F5805134
:104920007CD00A2B5AD0B1F87820092B6FF3CA0239
:10493000A1F87820A06800F086803FD8002BAAD08C
:10494000082B00F00582024602F58052516F89075C
:10495000A1D5013B162B9ED801A151F823F000BF31
:104960000D4F0002914D0002994D0002894D000249
:10497000014F0002B74D000297480002974800021D
:104980009748000297480002BF4D0002C74D000241
:1049900097480002F14D000297480002FB4D0002CB
:1049A0009748000297480002974800029748000283
:1049B000FF4D0002974800022B4E00021B2B3FD0F8
:1049C0007F2B00F0D281A3F120015E290246BBD8E3
:1049D00001210AF0F6FB9DF82310BBE0886FC0F3BD
:1049E000C70020B1886FC0F3C7000A28ACD1B1F866
:1049F000782063F3CA02A1F87820A568B5F85010B2
:104A0000B1B928460AF0DDFBE0680BF025FB6069D0
:104A1000FFF746FD2046FFF705FF3CE7886FC0F330
:104A2000C7000028E3D0886FC0F3C7000D28DDE77A
:104A30002046FFF793FD05F58055C5F82401E9E709
:104A40000123437527E700F580535B6F9B077FF5D4
:104A500022AF01210AF0B5FB40F2FF73A068B0F865
:104A600050209A423FF417AF0025B0F8522000F1D1
:104A7000560100F656000DF062FBA3681BA9B3F8BF
:104A800052200BA8134483F85658A268142302F648
:104A900056020AF033FD0B9914293FF6FCAE30ABF9
:104AA00003EB810343F8545CA368B3F85220002A57
:104AB00054D0134493F85530202B02D0093B042BDB
:104AC0004CD800294DD100250A950A9B30AA02EB4B
:104AD000830353F854AC002650460AF035FBB34626
:104AE0008146B04637463946284616AA00F0BEFB36
:104AF0000346002841D1012EA76866D10A9B30AA3F
:104B000002EB830353F8540C0AF01EFB41460646A1
:104B100007F11802284600F0A9FB056828460AF0AC
:104B200013FB864205D0821B92B22046A9190BF0D6
:104B300072F8A068B0F85230034493F85630202B36
:104B400032D0093B042B2FD900F580535B6FDF0770
:104B50002FD42021204600F04DFD9CE60129B2D93A
:104B6000013900200CAB009301900AAB1BAA0AF09C
:104B7000E7FD05460028A8D18DE61B684A46514648
:104B8000184603930DF033F960B9039B1846FCF700
:104B90006BF9584538BF5846002E08BFB8461FFA73
:104BA00080FB013601379EE7012120460AF0CDFE49
:104BB00071E600210AF010FB2021204600F01AFDCA
:104BC0000121A0680AF008FB65E604907FF663AE59
:104BD0000A9A30AB03EB820252F8543CC1461846A5
:104BE00003930AF0B1FA049B0590A7F840300496AD
:104BF000A26849462846183200F038FB039BD0F8DB
:104C000000A009F101094BB1BAF1000F06D0194615
:104C10005046059A0DF0EBF80028E9D1A168BAF1E9
:104C2000000F52D1A1F840A0049B013B0493DFD1B7
:104C30006069FFF735FC204600F016FD0A9B30AA9C
:104C400002EB830353F8540C0AF07EFA414611AA92
:104C50000746284600F00AFB08F1010B8046A068D1
:104C6000D8F8001040F2FF7200F656000DF0D1F8AF
:104C7000D8F800904FF6FF785946284616AA0BF14F
:104C8000010A00F0F3FA002855D000234FF6FF7117
:104C9000A268D0F800C002F6550212F801EF1CF825
:104CA0000300704504D118B1013903F10103F4D1B7
:104CB0000FB1BB4207DB4345A8BF4346013E012E6F
:104CC0001FFA83F837D0D346D6E79E4806910AF0FC
:104CD0003BFA069900EB0B074A8FBFB2121A92FB00
:104CE000F7F2504692B2079106920AF02DFA079910
:104CF0003F1AB1F84000069A00F1010CA1F840C03B
:104D0000B0FBF2F102FB110080B2BFB260B9062124
:104D100020468C4B8C4ACDF800A00AF033FF394670
:104D2000204600F02FFB7FE7534606212046874AA6
:104D30000AF028FFF3E7B8F1000F3FF4ACADA8EBA1
:104D40000702204692B209EB07010AF064FFA2E5D0
:104D500000F580535B6F9E077FF59DAD01210AF042
:104D600030FA20460AF078FF95E500F580535B6F36
:104D70009D077FF590AD01210AF023FAA36803F5A2
:104D800080535B6F1807ECD420460AF046FF82E59B
:104D900020460AF051FE7EE520460AF044FE2046F9
:104DA0000AF087FD10B96069FFF77AFB0121A0685E
:104DB0000AF007FA2EE620460AF047FE6BE5204689
:104DC0000AF04EFE67E5536F9F0603D560496069A0
:104DD0000AF0ADF9A36803F580535B6F9E0603D517
:104DE0005C4960690AF0A3F9204600F03DFC52E5F9
:104DF00000212046FFF75AFB4DE50121F9E7204647
:104E00000AF00AFE20460AF06FF90121A0680AF0B4
:104E1000D8F9A36803F580535B6F9D067FF53BAD22
:104E20004D4960690AF083F935E5204600F03EFB04
:104E30000121A0680AF0C5F92DE55B2B02D1022300
:104E4000537528E502F58052526F900706D5622B04
:104E500008D14FF0FF3120460AF0A0FD0022A368E0
:104E60005A7518E5662BF9D10121F4E70021517537
:104E7000A26802F58051496F89077FF50CAD313B7F
:104E80001B2B3FF608AD01A151F823F0094F00029A
:104E9000154F00022B4F0002FD4E00029748000202
:104EA000974800029748000297480002974800027E
:104EB000974800029748000297480002974800026E
:104EC000974800029748000297480002FB4D0002F5
:104ED000F14D0002B74D0002914D000297480002CB
:104EE000014F0002974800020D4F00029748000250
:104EF0009748000297480002194F00020323537598
:104F000020460AF090FDC6E40323537520460AF0BC
:104F100083FDC0E403235375A06800F58053596FE7
:104F200001F0010181F001014CE603235375A368F0
:104F300003F580535B6F9B077FF5ADAC24E700233F
:104F40007EE700BF314801024C500102114C0102C2
:104F5000153501021A350102103501022DE9F84319
:104F600004468068154600F583501830002938D073
:104F70004FF480410AF0C3F8A3680021DD64606843
:104F800003689B68984700284DD120460AF04DF9E8
:104F9000002848D1254E264FDFF89C80A06800F5F8
:104FA00085501C304FF0FF324FF0FF33032107F0E4
:104FB00057FE41F20C190546A0684FF0FF324FF042
:104FC000FF33484495B10AF0B0F820462B46012142
:104FD000184A0AF0D7FDA0684844BDE8F8430AF033
:104FE0000BB96FF480410AF095F8C5E70AF09DF817
:104FF0003246022120460AF001F93A462946204667
:105000000AF0FCF82046424601210AF0F7F86068F1
:1050100003685B6903B19847A06800F588500C30BD
:105020000AF0EAF8BAE7BDE8F88300BF4544000299
:10503000754800025250010259F1000210B50446B1
:105040000A490AF07AF9204609490AF076F9204619
:1050500008490AF072F9204607490AF06EF920461D
:105060000021064A00F01EFB002010BD695001021D
:10507000A7500102065101025A510102F4510102E6
:10508000F8B51E4617460A46294904460AF055F95E
:105090003EB320463A7827490AF04FF901256A07BE
:1050A00003D1204624490AF048F9AE421ED92046D1
:1050B0007A5D20490AF041F90135102DEFD12046E3
:1050C0001E490AF03AF9B6B920461B490AF035F9EB
:1050D0000125AE422B4610D8204617490AF02DF97B
:1050E00015E0204616490AF028F901252046144902
:1050F0000AF023F9E0E700252B46FA5C2046A2F1EE
:1051000020035F2B28BF2E220E490AF016F9013525
:10511000102D06D06B07DCD1204607490AF00DF9A7
:10512000D7E72046BDE8F84007490AF006B900BFB6
:105130000A5201022A48010232480102344801029F
:10514000304801022E520102B87501022DE9F047E4
:1051500004468068984600F580538946D3F82011AC
:10516000154688B0002965D141F228120DF00EF8DD
:10517000E0680BF013F8A06800F588500C3041F29D
:10518000BC070CF0BEF841F27C06BA46A068304479
:105190000CF054FDA0680022831901213844103618
:1051A0000CF023FD564507F11407EFD10026A36943
:1051B00002211E60A06866F3820500F58350183056
:1051C00009F09DFF5022A36820465A871822A36841
:1051D0001A8721680AF0DBF8A368494603F5805373
:1051E0005D676068154A03681D682346A847054641
:1051F000E0B90122A3681A75D4E90A01002200234C
:10520000CDE906230E230393109B4FF40062CDE9F2
:10521000018304950A4B009406F004FEA36803F58D
:105220008053C3F82001616A06F03EFD284608B0AD
:10523000BDE8F0876FF07705F8E700BF8BF100025B
:105240005D4F000210B5044613460A460146064863
:1052500003F0F8F823691B7923B12046BDE810401C
:105260000AF0EAB810BD00BF51F4000238B50B4691
:10527000154648B91449154A521AB3EB920F05D294
:1052800051F82350284638BD84680CB90025F9E749
:105290000F4A94420AD30F4A944207D2184629462D
:1052A000226890472B68002BECD1EFE70A4A944222
:1052B00002D30A4A944205D3246814225343E518C2
:1052C000E358F0E70133F8E7EC3301021C34010244
:1052D000F8340102003501021C340102F8340102E5
:1052E000F7B5037804462D2B164605D16FF015034C
:1052F0000020336003B0F0BD0DF02EF8002305460A
:105300000A4F0A46C35101A9204607F07BFEEB591C
:10531000222B02D16FF02103EAE7002BE6D1019B9B
:10532000A342E3D01B78002BE4D0DFE71400000099
:10533000836803F580535B6F9B0603D50249406980
:105340000AF097BA704700BF2035010201490AF000
:1053500090BA00BF284B01020A1E0EDC0FD0422378
:10536000816801F58051496F890608D5002A0449F2
:105370004069B8BF52420AF07CBA4123F0E7704757
:105380002A5201020A1E0EDC0FD04423816801F567
:105390008051496F890608D5002A04494069B8BF81
:1053A00052420AF066BA4323F0E770472A520102DC
:1053B0002DE9F0478568044605F15600FBF754FDDA
:1053C0000023984695F83C70DFF8589086B2A268A2
:1053D000558FED1BB54209DB002E1FDD563360698A
:1053E0000F491A44BDE8F0470AF043BA1D442A4465
:1053F00092F856A082F85680A26856331A4449465D
:1054000060690AF036FAA3682B4483F856A0A368B3
:105410005B8FDB1BF61A00272B46D8E7BDE8F08729
:10542000114C01020E4A010208290A4618D8836865
:1054300093F83E10914213D083F83E208368082AE7
:1054400003F580535B6F05D0990609D5054940697E
:105450000AF00FBA9B0603D5034940690AF009BA5E
:10546000704700BF315201022535010238B50D46A3
:1054700009780446FFF7D8FF6A78072A12D8A3688C
:1054800093F83F1091420DD083F83F20A36803F5B5
:1054900080535B6F9B0605D560690349BDE83840C2
:1054A0000AF0E7B938BD00BF3A520102F8B5836887
:1054B0000446B3F85020002A57D0B3F85210002900
:1054C00053D0553103F156050B441846A84206D374
:1054D000014611F80169202E3ED0A8423ED286B284
:1054E0009DB2AB1B9BB2591C471CD21A01443846D3
:1054F0000CF032FEA268711BB2F85030204613FA4D
:1055000081F3A2F85030A36809B2B3F850201344D5
:10551000002283F856200AF018FAA36803F5805396
:105520005B6F9A0603D5114960690AF0A2F93B4600
:10553000082120460E4A0AF025FB2046FFF7F8FE18
:10554000A36803F580535B6F9B060ED5606909491C
:10555000BDE8F8400AF08DB90846B7E7014611F8F2
:105560000169202EBBD00846B7E7F8BD2A350102F5
:10557000114C01022E3501022DE9F04104460D4681
:1055800017460AB1FFF7D4FEA36803F58052516FA6
:10559000B3F85220563213444A0721D51846FBF778
:1055A00063FC0646DFF84880A6B9A368B3F850202C
:1055B000A3F85220A0680AF069F920B107B115B12B
:1055C0006069FFF7C3FE69422046BDE8F04109B2B9
:1055D0000AF0BBB9414660690AF04BF9013EE3E7C6
:1055E00008212046014A0AF0CDFADEE7114C0102FB
:1055F0004D5D010213B583688DF8071003F58052E5
:10560000526F0446D00725D5B3F85210B3F8502096
:105610008A421FD0481C9DF80720A3F852000B4473
:1056200083F85620A36803F58053596F89070FD577
:105630005B6F606913F0040F18BF2A2209490AF052
:1056400018F920460AF035F910B16069FFF77EFEBF
:1056500002B010BD012220460DF107010AF09FFAA9
:10566000F6E700BF2E52010210B5044683680221FE
:10567000084A0AF087FAA36803F580535B6F9B071B
:1056800007D52046FFF794FE2046BDE810400AF0FB
:1056900037B910BD114C010201490AF0BCBB00BF73
:1056A000284B01022DE9F04F0E4600210446174613
:1056B0000D4689B0304603AA01F10108FFF7D6FD77
:1056C000B0B995B127B13A46082120460AF05AFAF6
:1056D00000211E4FDFF87890DFF878A0304603AA4B
:1056E00001F10108FFF7C2FD68B909B0BDE8F08F0C
:1056F0000068034610B1FBF7B7FB83B29D4238BF89
:105700001D464146D6E703688BB11A787AB1D0F8C6
:1057100004B04A46CDE9005308213B4620460AF032
:1057200031FABBF1000F04D16069FFF7B5FF4146C4
:10573000D4E7524620463B4608210AF023FAAA1D28
:105740005946204692B20AF073FBF0E75852010224
:105750004352010225480102F7B50F6805460E467F
:105760003C461FB13846FBF77FFB84B2084B284606
:10577000009308213B46074A0AF004FA2846E21C37
:10578000716892B203B0BDE8F0400AF051BB00BFAF
:10579000545201024D50010210B507490446FBF76F
:1057A00051FB38B120460549FBF74CFBB0FA80F0BD
:1057B000400910BD0120FCE74A5201024D5201028E
:1057C00010B58368044603F580535B6F9B0603D5D1
:1057D000054940690AF0ABFB5022A36800205A87B4
:1057E0001822A3681A8710BD3235010208B58369F3
:1057F00002491A6809F0A1FD002008BD5B520102B0
:105800002DE9F3410D49054609F097FD00220C4CA6
:105810000C4EDFF83480B44202F1010703D30020BC
:1058200002B0BDE8F081636A92B20093A36841467A
:10583000284609F082FD30343A46ECE76B5201020B
:10584000BC330102EC3301028352010208B5024964
:1058500009F09DFD002008BD294B010273B50446E7
:1058600000250D4EA2680DF106030121E06802F645
:1058700056020AF0F4FBBDF80600A36840B12A46C0
:105880003146204603F6560309F057FD0135E9E796
:1058900083F8560802B070BD9452010210B5044658
:1058A00009F0BAFD03490246204609F046FD0020F2
:1058B00010BD00BF984D0102022907B50BD15368F6
:1058C0000C49009312680C4B09F053FD6FF0150062
:1058D00003B05DF804FB8368084A03F580535B6FEF
:1058E000074913F0020F074B18BF1A4609F025FDB0
:1058F0000020EDE7B7520102A25201029E520102BE
:10590000C05201021775010210B58368044603F501
:1059100080535B6F9A0603D5074940690AF007FB7D
:10592000A36803F580535B6F9B0603D50349606949
:105930000AF0FDFA002010BD393501023E350102A2
:10594000F0B50129044685B00AD053686149009337
:105950001268614B09F00DFD6FF0150005B0F0BD48
:10596000836803F580535B6F990603D55B494069F3
:105970000AF0DDFA00256FF0F9012046FFF7ECFC94
:10598000FA212046FFF7FEFCA0684FF4006229468A
:1059900000F656008DF80B500CF0F8FB504960698A
:1059A0000AF0C5FA606909F047FD4FF47A7660683D
:1059B000012203680DF10B011F6903ABB847039B7C
:1059C000F3B9013E4FF47A70B6B20BF0F3FA002E41
:1059D000EDD1A36803F580535B6F9B0603D5414966
:1059E00060690AF0A4FA5022A36820465A87182258
:1059F000A3683D491A8709F0AEFC6FF00700ADE7D8
:105A00009DF80B20A3681B2A57D093F856181B2922
:105A1000CDD1522A51D15A19002382F85638A6689E
:105A200096F857285B2A33D1022740F2FE7006F61B
:105A3000570515F8012F39463B2A07F10107BFB278
:105A400029D140F2FF729142C3D001F6560116FAF5
:105A500081F00021D21B92B2013210F8015F1DBB10
:105A6000FA2928BFFA21FA2B28BFFA2386F85658BC
:105A7000A2685187A2681387A36803F580535B6F00
:105A80009A0603D5174960690AF051FA002065E7C4
:105A900086F856389DE703EB8303303A02EB430266
:105AA000013893B2C5D194E701EB8101303D05EB9C
:105AB0004105013AA9B2D0D18BE72B440135ADB2F3
:105AC000092D83F856287FF672AF0022A36883F869
:105AD00056287EE7B7520102A25201024435010264
