:020000021000EC
:10000000B84805201D7901000DF0030009790100B1
:100010000979010009790100097901000000000057
:10002000000000000000000000000000217A010034
:1000300009790100000000008D790100BD970200E0
:100040000D7C01000D7C01000D7C01000D7C010088
:100050000D7C01000D7C01000D7C01000D7C010078
:100060000D7C01000D7C01000D7C01000D7C010068
:100070000D7C01000D7C01000D7C01000D7C010058
:100080000D7C01000D7C01000D7C01000D7C010048
:100090000D7C01000D7C01000D7C01000D7C010038
:1000A0000D7C01000D7C01000D7C01000D7C010028
:1000B0000D7C01000D7C01000D7C01000D7C010018
:1000C0000D7C01000D7C01000D7C01000D7C010008
:1000D0000D7C01000D7C01000D7C01000D7C0100F8
:1000E0000D7C01000D7C01000D7C01000D7C0100E8
:1000F0000D7C01000D7C01000D7C01000D7C0100D8
:100100000D7C01000D7C01000D7C01000D7C0100C7
:100110000D7C01000D7C01000D7C01000D7C0100B7
:100120000D7C01000D7C01000D7C01000D7C0100A7
:100130000D7C01000D7C01000D7C01000D7C010097
:100140000D7C01000D7C01000D7C01000D7C010087
:100150000D7C01000D7C01000D7C01000D7C010077
:100160000D7C01000D7C01000D7C01000D7C010067
:100170000D7C01000D7C01000D7C01000D7C010057
:100180000D7C01000D7C01000D7C01000D7C010047
:100190000D7C01000D7C01000D7C01000D7C010037
:1001A0000D7C01000D7C01000D7C01000D7C010027
:1001B0000D7C01000D7C01000D7C01000D7C010017
:1001C000002902D0B0FBF1F0704708B14FF0FF30CA
:1001D00000F01EB80029F8D00246B0FBF1F000FB99
:1001E00011217047002902D090FBF1F070470028E0
:1001F000C8BF6FF00040B8BF4FF0004000F008B833
:100200000029F4D0024690FBF1F000FB1121704769
:10021000704700BF81F0004102E000BF83F000435F
:1002200030B54FEA41044FEA430594EA050F08BF91
:1002300090EA020F1FBF54EA000C55EA020C7FEA55
:10024000645C7FEA655C00F0E2804FEA5454D4EBD2
:100250005555B8BF6D420CDD2C4480EA020281EA9C
:10026000030382EA000083EA010180EA020281EAD4
:100270000303362D88BF30BD11F0004F4FEA013126
:100280004FF4801C4CEA113102D0404261EB410135
:1002900013F0004F4FEA03334CEA133302D05242BB
:1002A00063EB430394EA050F00F0A780A4F1010477
:1002B000D5F1200E0DDB02FA0EFC22FA05F28018B1
:1002C00041F1000103FA0EF2801843FA05F3594197
:1002D0000EE0A5F120050EF1200E012A03FA0EFC16
:1002E00028BF4CF0020C43FA05F3C01851EBE37140
:1002F00001F0004507D54FF0000EDCF1000C7EEB5D
:1003000000006EEB0101B1F5801F1BD3B1F5001F9A
:100310000CD349085FEA30004FEA3C0C04F10104B9
:100320004FEA445212F5800F80F09A80BCF1004FE2
:1003300008BF5FEA500C50F1000041EB045141EA64
:10034000050130BD5FEA4C0C404141EB0101013C2D
:1003500028BFB1F5801FE9D291F0000F04BF01461C
:100360000020B1FA81F308BF2033A3F10B03B3F1EE
:1003700020020CDA0C3208DD02F1140CC2F10C027E
:1003800001FA0CF021FA02F10CE002F11402D8BFDC
:10039000C2F1200C01FA02F120FA0CFCDCBF41EAA8
:1003A0000C019040E41AA2BF01EB0451294330BD77
:1003B0006FEA04041F3C1CDA0C340EDC04F1140454
:1003C000C4F1200220FA04F001FA02F340EA03002B
:1003D00021FA04F345EA030130BDC4F10C04C4F171
:1003E000200220FA02F001FA04F340EA0300294651
:1003F00030BD21FA04F0294630BD94F0000F83F49B
:10040000801306BF81F480110134013D4EE77FEA7D
:10041000645C18BF7FEA655C29D094EA050F08BFC9
:1004200090EA020F05D054EA000C04BF19461046AA
:1004300030BD91EA030F1EBF0021002030BD5FEAEE
:10044000545C05D14000494128BF41F0004130BD16
:1004500014F580043CBF01F5801130BD01F000456A
:1004600045F0FE4141F470014FF0000030BD7FEADD
:10047000645C1ABF194610467FEA655C1CBF0B46D8
:10048000024650EA013406BF52EA033591EA030FEF
:1004900041F4002130BD00BF90F0000F04BF0021E7
:1004A000704730B54FF4806404F132044FF000051A
:1004B0004FF0000150E700BF90F0000F04BF002193
:1004C000704730B54FF4806404F1320410F00045F9
:1004D00048BF40424FF000013EE700BF42004FEAF4
:1004E000E2014FEA31014FEA02701FBF12F07F4371
:1004F00093F07F4F81F06051704732F07F4208BF28
:10050000704793F07F4F04BF41F40021704730B52E
:100510004FF4607401F0004521F000411CE700BF7A
:1005200050EA010208BF704730B54FF000050AE0FD
:1005300050EA010208BF704730B511F0004502D5FE
:10054000404261EB41014FF4806404F132045FEA00
:10055000915C3FF4D8AE4FF003025FEADC0C18BFA9
:1005600003325FEADC0C18BF033202EBDC02C2F19B
:10057000200300FA03FC20FA02F001FA03FE40EA2D
:100580000E0021FA02F11444BDE600BF70B54FF031
:10059000FF0C4CF4E06C1CEA11541DBF1CEA13550F
:1005A00094EA0C0F95EA0C0F00F0DEF82C4481EA77
:1005B000030621EA4C5123EA4C5350EA013518BF97
:1005C00052EA033541F4801143F4801338D0A0FB84
:1005D00002CE4FF00005E1FB02E506F00042E0FB31
:1005E00003E54FF00006E1FB03569CF0000F18BF37
:1005F0004EF0010EA4F1FF04B6F5007F64F54074DF
:1006000004D25FEA4E0E6D4146EB060642EAC62171
:1006100041EA55514FEAC52040EA5E504FEACE2EDE
:10062000B4F1FD0C88BFBCF5E06F1ED8BEF1004FE1
:1006300008BF5FEA500E50F1000041EB045170BD5D
:1006400006F0004646EA010140EA020081EA0301A1
:10065000B4EB5C04C2BFD4EB0C0541EA045170BD9D
:1006600041F480114FF0000E013C00F3AB8014F117
:10067000360FDEBF002001F0004170BDC4F1000460
:10068000203C35DA0C341BDC04F11404C4F12005E1
:1006900000FA05F320FA04F001FA05F240EA02003C
:1006A00001F0004221F0004110EBD37021FA04F672
:1006B00042EB06015EEA430E08BF20EAD37070BD2C
:1006C000C4F10C04C4F1200500FA04F320FA05F08B
:1006D00001FA04F240EA020001F0004110EBD3708D
:1006E00041F100015EEA430E08BF20EAD37070BDFD
:1006F000C4F1200500FA05F24EEA020E20FA04F3D6
:1007000001FA05F243EA020321FA04F001F0004184
:1007100021FA04F220EA020000EBD3705EEA430EF5
:1007200008BF20EAD37070BD94F0000F0FD101F024
:100730000046400041EB010111F4801F08BF013C5D
:10074000F7D041EA060195F0000F18BF704703F09B
:100750000046520043EB030313F4801F08BF013D22
:10076000F7D043EA0603704794EA0C0F0CEA1355DE
:1007700018BF95EA0C0F0CD050EA410618BF52EA98
:100780004306D1D181EA030101F000414FF000009E
:1007900070BD50EA410606BF1046194652EA4306AC
:1007A00019D094EA0C0F02D150EA013613D195EA20
:1007B0000C0F05D152EA03361CBF104619460AD168
:1007C00081EA030101F0004141F0FE4141F4700172
:1007D0004FF0000070BD41F0FE4141F4780170BD62
:1007E00070B54FF0FF0C4CF4E06C1CEA11541DBFC7
:1007F0001CEA135594EA0C0F95EA0C0F00F0A7F8C9
:10080000A4EB050481EA030E52EA03354FEA0131F5
:1008100000F088804FEA03334FF0805545EA131308
:1008200043EA12634FEA022245EA111545EA1065D0
:100830004FEA00260EF000419D4208BF964244F167
:10084000FD0404F5407402D25B084FEA3202B61A86
:1008500065EB03055B084FEA32024FF480104FF45A
:10086000002CB6EB020E75EB030E22BFB61A7546CE
:1008700040EA0C005B084FEA3202B6EB020E75EB61
:10088000030E22BFB61A754640EA5C005B084FEAC9
:100890003202B6EB020E75EB030E22BFB61A754696
:1008A00040EA9C005B084FEA3202B6EB020E75EBA1
:1008B000030E22BFB61A754640EADC0055EA060E62
:1008C00018D04FEA051545EA16754FEA06164FEAA5
:1008D000C30343EA52734FEAC2025FEA1C1CC0D151
:1008E00011F4801F0BD141EA00014FF000004FF0DE
:1008F000004CB6E711F4801F04BF01430020B4F19F
:10090000FD0C88BFBCF5E06F3FF6AFAEB5EB030C56
:1009100004BFB6EB020C5FEA500C50F1000041EB53
:10092000045170BD0EF0004E4EEA113114EB5C0420
:10093000C2BFD4EB0C0541EA045170BD41F48011F3
:100940004FF0000E013C90E645EA060E8DE60CEAFB
:10095000135594EA0C0F08BF95EA0C0F3FF43BAF18
:1009600094EA0C0F0AD150EA01347FF434AF95EACF
:100970000C0F7FF425AF104619462CE795EA0C0FB3
:1009800006D152EA03353FF4FDAE1046194622E780
:1009900050EA410618BF52EA43067FF4C5AE50EA5A
:1009A00041047FF40DAF52EA43057FF4EBAE12E74A
:1009B0004FF0FF3C06E000BF4FF0010C02E000BF2B
:1009C0004FF0010C4DF804CD4FEA410C7FEA6C5C0E
:1009D0004FEA430C18BF7FEA6C5C1BD001B050EAB1
:1009E000410C0CBF52EA430C91EA030F02BF90EA9C
:1009F000020F0020704710F1000F91EA030F58BF5B
:100A0000994208BF90422CBFD8176FEAE37040F0BC
:100A1000010070474FEA410C7FEA6C5C02D150EA5A
:100A2000013C07D14FEA430C7FEA6C5CD6D152EA15
:100A3000033CD3D05DF8040B704700BF84461046DA
:100A400062468C461946634600E000BF01B5FFF7D9
:100A5000B7FF002848BF10F1000F01BD4DF808EDA9
:100A6000FFF7F4FF0CBF012000205DF808FB00BF7A
:100A70004DF808EDFFF7EAFF34BF012000205DF8D4
:100A800008FB00BF4DF808EDFFF7E0FF94BF012021
:100A900000205DF808FB00BF4DF808EDFFF7CEFF22
:100AA00094BF012000205DF808FB00BF4DF808ED61
:100AB000FFF7C4FF34BF012000205DF808FB00BF32
:100AC0004FEA410C7FEA6C5C02D150EA013C0AD14A
:100AD0004FEA430C7FEA6C5C02D152EA033C02D13C
:100AE0004FF0000070474FF0010070474FEA41029D
:100AF00012F5001215D211D56FF47873B3EB625270
:100B000012D94FEAC12343F0004343EA505311F096
:100B1000004F23FA02F018BF404270474FF0000028
:100B2000704750EA013005D111F0004008BF6FF066
:100B3000004070474FF00000704700BF4A0011D2DC
:100B400012F5001211D20DD56FF47873B3EB625227
:100B50000ED44FEAC12343F0004343EA505323FA33
:100B600002F070474FF00000704750EA013002D1A8
:100B70004FF0FF3070474FF0000070474FEA4102DE
:100B8000B2F1E04324BFB3F5001CDCF1FE5C0DD9EB
:100B900001F0004C4FEAC0024CEA5070B2F1004F35
:100BA00040EB830008BF20F00100704711F0804F38
:100BB00021D113F13872BCBF01F00040704741F4FD
:100BC00080114FEA5252C2F11802C2F1200C10FA01
:100BD0000CF320FA02F018BF40F001004FEAC123E5
:100BE0004FEAD32303FA0CFC40EA0C0023FA02F389
:100BF0004FEA4303CCE77FEA625307D150EA01335F
:100C00001EBF4FF0FE4040F44000704701F000402E
:100C100040F0FE4040F40000704700BF80F000400C
:100C200002E000BF81F0004142001FBF5FEA4103C4
:100C300092EA030F7FEA226C7FEA236C6AD04FEAC4
:100C40001262D2EB1363C1BFD21841404840414009
:100C5000B8BF5B42192B88BF704710F0004F40F4BB
:100C6000000020F07F4018BF404211F0004F41F4D7
:100C7000000121F07F4118BF494292EA030F3FD0A3
:100C8000A2F1010241FA03FC10EB0C00C3F12003B6
:100C900001FA03F100F0004302D5494260EB400045
:100CA000B0F5000F13D3B0F1807F06D340084FEAB0
:100CB000310102F10102FE2A51D2B1F1004F40EBA5
:100CC000C25008BF20F0010040EA0300704749000D
:100CD00040EB0000013A28BFB0F5000FEDD2B0FAAA
:100CE00080FCACF1080CB2EB0C0200FA0CF0AABFCD
:100CF00000EBC25052421843BCBFD040184370476B
:100D000092F0000F81F4000106BF80F40000013270
:100D1000013BB5E74FEA41037FEA226C18BF7FEA47
:100D2000236C21D092EA030F04D092F0000F08BF89
:100D30000846704790EA010F1CBF0020704712F070
:100D40007F4F04D1400028BF40F00040704712F1AF
:100D500000723CBF00F50000704700F0004343F014
:100D6000FE4040F4000070477FEA226216BF08464A
:100D70007FEA23630146420206BF5FEA412390EA0D
:100D8000010F40F4800070474FF0000304E000BF03
:100D900010F0004348BF40425FEA000C08BF7047B4
:100DA00043F0964301464FF000001CE050EA010278
:100DB00008BF70474FF000030AE000BF50EA01028D
:100DC00008BF704711F0004302D5404261EB41017A
:100DD0005FEA010C02BF84460146002043F0B6439F
:100DE00008BFA3F18053A3F50003BCFA8CF2083AC4
:100DF000A3EBC25310DB01FA02FC634400FA02FCCD
:100E0000C2F12002BCF1004F20FA02F243EB0200D3
:100E100008BF20F00100704702F1200201FA02FC35
:100E2000C2F1200250EA4C0021FA02F243EB020028
:100E300008BF20EADC7070474FF0FF3C06E000BFBF
:100E40004FF0010C02E000BF4FF0010C4DF804CD53
:100E50004FEA40024FEA41037FEA226C18BF7FEA63
:100E6000236C11D001B052EA530C18BF90EA010F65
:100E700058BFB2EB030088BFC81738BF6FEAE170F4
:100E800018BF40F0010070477FEA226C02D15FEA90
:100E9000402C05D17FEA236CE4D15FEA412CE1D0FC
:100EA0005DF8040B704700BF844608466146FFE7C3
:100EB0000FB5FFF7C9FF002848BF10F1000F0FBDA5
:100EC0004DF808EDFFF7F4FF0CBF012000205DF89E
:100ED00008FB00BF4DF808EDFFF7EAFF34BF012023
:100EE00000205DF808FB00BF4DF808EDFFF7E0FFBC
:100EF00094BF012000205DF808FB00BF4DF808ED0D
:100F0000FFF7D2FF94BF012000205DF808FB00BF6F
:100F10004DF808EDFFF7C8FF34BF012000205DF851
:100F200008FB00BF4FEA40024FEA41037FEA226C10
:100F300002D15FEA402C08D17FEA236C02D15FEA3C
:100F4000412C02D14FF0000070474FF00100704774
:100F50007BB972B90029BEBF00204FF0004106E006
:100F600008BF00281CBF6FF000414FF0FF30FFF7B3
:100F70004FB9ADF1080C6DE904CE002909DB002B57
:100F80001ADB00F09CF8DDF804E0DDE9022304B090
:100F90007047404261EB4101002B1BDB00F08FF8F2
:100FA000DDF804E0DDE9022304B0404261EB4101D9
:100FB000524263EB43037047524263EB430300F03A
:100FC0007EF8DDF804E0DDE9022304B0404261EB85
:100FD00041017047524263EB430300F070F8DDF8C3
:100FE00004E0DDE9022304B0524263EB430370479F
:100FF00053B94AB9002908BF00281CBF4FF0FF3180
:101000004FF0FF30FFF704B9ADF1080C6DE904CEE5
:1010100000F055F8DDF804E0DDE9022304B0704784
:10102000D0B500220B4B06460F46FFF7AFFAFFF78D
:1010300085FD0446FFF730FA0022074BFFF7A6FABA
:1010400002460B4630463946FFF7E8F8FFF776FDD3
:101050002146D0BD0000F03D0000F04110F8012B0A
:1010600011F8013B012A28BF9A42F7D0D01A7047E5
:10107000034611F8012B03F8012B002AF9D1704720
:10108000034613F8012B002AFBD1181A01387047C8
:1010900038B50022002304460D46FFF7E9FC28B9C5
:1010A00020462946BDE83840FFF7BABF204605F183
:1010B0000041FFF7B5FF404261EB410138BD2DE92A
:1010C000F04786468C460846089E154674461946E3
:1010D000002B40F0C1808542B2FA82F245D94AB174
:1010E000C2F1200300FA02FC954094402EFA03F36B
:1010F00043EA0C0C4FEA154EA8B2230CBCFBFEF8D9
:101100000EFB18CC08FB00F943EA0C43994528D99B
:10111000EB1808F1FF3704D2994502D9A8F102076C
:101120002B44A3EB0903A4B2B3FBFEFC0EFB1C3360
:101130000CFB00F044EA0344A04214D92C190CF132
:10114000FF3304D2A04202D9ACF102032C44241A8A
:1011500043EA07401EB1D440002334607360BDE809
:10116000F0874746DDE76346F1E792BB431B012169
:101170004FEA154EAFB2200CB3FBFEFC0EFB1C3346
:101180000CFB07F840EA0343984561D9EB180CF1D2
:10119000FF3004D2984502D9ACF102002B44A3EBF6
:1011A0000803A4B2B3FBFEFC0EFB1C330CFB07F7D9
:1011B00044EA0344A7424DD92C190CF1FF3304D261
:1011C000A74202D9ACF102032C44E41B43EA0040DD
:1011D000C0E7C2F120039540944020FA03F12EFAB3
:1011E00003F34FEA154E9040AFB20343B1FBFEFC50
:1011F0000EFB1C10190C0CFB07F841EA0041884556
:1012000022D969180CF1FF3004D2884502D9ACF11B
:1012100002002944A1EB08019BB2B1FBFEFC0EFBCE
:101220001C110CFB07F743EA01439F420ED9EB1850
:101230000CF1FF3104D29F4202D9ACF102012B44E0
:10124000DB1B41EA004193E76046E3E76146F7E7CD
:101250006046A4E76346B8E7834206D916B9002181
:1012600008467CE7C6E900E0F9E7B3FA83F78FB9EF
:10127000834201D3724508D8BEEB020460EB03033E
:1012800001209C461EB9002169E73846FAE7C6E905
:10129000004CF8E7C7F1200CBB400EFA07F522FA24
:1012A0000CF42EFA0CF1BA401C4320FA0CF3B840AF
:1012B0004FEA144901431FFA84FEB3FBF9F809FB16
:1012C00018300B0C08FB0EFA43EA00439A4540D94C
:1012D000E31808F1FF3004D29A4502D9A8F10200C0
:1012E0002344A3EB0A0389B2B3FBF9F809FB1833D3
:1012F00008FB0EFE41EA03418E452CD9611808F126
:10130000FF3304D28E4502D9A8F10203214443EAF7
:101310000040A1EB0E01A0FB02984145CE4643469A
:1013200002D306D14D4504D20138B9EB020E68EB69
:101330000403002EA7D0B5EB0E0261EB030101FA06
:101340000CFC22FA07F3F9404CEA0303C6E900312A
:1013500099E74046C5E74346D9E700000000000092
:101360002DE9F04704468846174688B039F00EFB51
:101370000A220023FFF73CFEB8F1010F06460D4696
:1013800007D102460B46204627492CF00CFE0020D0
:1013900011E07F6825483946FFF760FE70B1394695
:1013A0002348FFF75BFE48B120463A4621492CF01E
:1013B00016FE6FF0040008B0BDE8F087304618A3B1
:1013C000D3E900232946FFF7C3FD06460D46104624
:1013D0001946194A0023FFF7BBFD80460F46104609
:1013E00019464EF660220023FFF7B2FD8246894679
:1013F000104619464FF47A720023FFF7A9FDCDE994
:1014000002A9CDE90623CDE9040132462B46204648
:10141000CDE9008709492CF0C6FDB8E7AFF300809D
:10142000005C260500000000BD390500CE3905002E
:10143000D1390500DA39050080EE3600F2390500B1
:10144000012870B50C4607D039F0BAFF16221C4BA4
:101450001A504FF0FF3070BD8A681A4B9A42F3D889
:1014600039F094FA184D23686668A3FB053205FB32
:101470000622A468154D1B1942EBE474A0FB05027B
:1014800005FB0121181A64EB01010BA3D3E900232A
:10149000FFF75EFDEFF31184102383F31288BFF38F
:1014A0006F8F0B4BC3E900019A6084F31188BFF37F
:1014B0006F8F0020CFE700BF00CA9A3B00000000FA
:1014C00014000000FFC99A3B00CA9A3BA0860100A5
:1014D00078580020000000002DE9F04F0029D0F8D6
:1014E000108044688BB005DD6FF0150738460BB0EF
:1014F000BDE8F08FD8F80030D4E90069002B4BD15B
:10150000A389A5680793B368494630465B6808AA73
:101510009847071EEADBDDE9087BA5FB072305FBEF
:101520000B334FF0FF3A05920493DDE9041032A328
:10153000D3E90023FFF75CFD059B049A9A45304BE5
:101540000690934102D26FF08507CFE76B08A3FBAB
:10155000075703FB0B7728A3D3E900232846394616
:10156000FFF746FD264AAA45BA410346EBD3069942
:10157000B2689942B8D30799304600914946156838
:10158000069AA84707460028B0D1208A38F09FFA6B
:10159000012388F80430A9E7B368494630465B6800
:1015A00008AA984707460028A0D10346DDE90801AC
:1015B000D8F80020FFF71CFD1A430DD011490B6825
:1015C00013F0060F08D0104B0222CDE90173384604
:1015D0003B46009716F012FADDE90801D8F8002022
:1015E0000023FFF705FDA5890246D4E900018368C1
:1015F00000951D685308C4E700CA9A3B000000002C
:10160000FFC99A3BD81E0020237F05000000000080
:1016100001292DE9F04F4AD889B30FF2D40BDBE949
:1016200000AB0FF2D409D9E9008935A7D7E90067E3
:1016300035A5D5E9004536A3D3E900239FED1E5B10
:101640009FED1F6B9FED207B9FED214B80ED045B99
:1016500080ED004B80ED024B80ED066B80ED087B4A
:10166000C0E90AABC0E90C89C0E90E67C0E91045C2
:10167000C0E91223C0F8D0100020BDE8F08F9FED24
:10168000165B0FF2940BDBE900AB0FF29409D9E97A
:10169000008925A7D7E9006725A5D5E9004526A338
:1016A000D3E900239FED0E6B9FED0F7BCCE76FF02E
:1016B0007400E2E7AFF30080D89E05C15D9DBBCB0F
:1016C00007D57C362A299A6217DD70305A01599164
:1016D000000000000000000008C9BCF367E6096ACA
:1016E0003BA7CA8485AE67BB2BF894FE72F36E3CB1
:1016F00039590EF7D8EC2F15310BC0FF6726336729
:1017000011155868874AB48EA78FF9640D2E0CDB2B
:10171000A44FFABE1D48B547F1361D5F3AF54FA5F7
:10172000D182E6AD7F520E511F6C3E2B8C68059B1B
:101730006BBD41FBABD9831F79217E1319CDE05BD3
:101740002DE9FF47804616460F46002900F0A2808B
:10175000B1FA81F4341B002E04F10A04C0F2A28015
:1017600030462BF017F8044430462BF019F8A4EB60
:1017700006090546694630462BF03AF8A9EB050301
:101780006A4640467D33394639F03DFCA6428246E2
:101790000D4600F38380B9F13F0F00F381804FF0D5
:1017A000FF33A9F12000C9F1200103FA00F003FA88
:1017B00009F223FA01F103FA09F3024328EA0303C9
:1017C0000A4327EA020213430CBF01200020002D28
:1017D00000F08A80B5FA85F3E31A40F2FE7203F254
:1017E0003E43934200F38980002B23EAE376D4BF83
:1017F00001223246121BA2F23341A2F23447A2F276
:101800005344C1F1200C2AFA01F325FA04F4C7F17C
:10181000200E05FA0CFC25FA01F105FA0EFE43EA4A
:101820000C03A2F2544CA2F2544223432AFA07F4C6
:1018300025FA0CFC44EA0E0444EA0C04C7F1200C1F
:1018400014F0010F54D0A8B14FF0FF3000FA02F2AB
:1018500000FA07F4144320FA0CF2B840144303F0E2
:1018600001022AEA000A25EA04054AEA020A5AEABB
:10187000050A3DD0013341F10002C2F3130253EADD
:10188000020138D0184642EA065141EC100B04B070
:10189000BDE8F087B0FA80F420345BE7012096E7DA
:1018A000002094E7C6F1000948462AF079FF241A7F
:1018B00048462AF075FFA61B0546694648462E4451
:1018C0002BF008F86A46404606F17C03394639F0A9
:1018D0009AFB82460D46404639462AF071FF814503
:1018E0008CBF0020012072E7BAFA8AF3203373E735
:1018F000C1F31302C6E70136C4E79FED010BC6E74B
:10190000000000000000F07F2DE9F84F55EC104B6F
:1019100025F00043C24AAB46934220D9C14A9342C4
:1019200001D80CD15CB122462B4620462946FEF751
:1019300077FC04460D4645EC104BBDE8F88FBBF133
:10194000000F99A3D3E9002303DD99A1D1E9000198
:10195000EDE799A1D1E90001FEF760FCE9E7B24AA1
:10196000934213D8A2F1DE7293420CD82046294646
:1019700093A3D3E90023FEF753FC0022AB4BFFF700
:1019800095F80028D7D14FF0FF3A28E0A84A26461C
:1019900025F00047934200F2BA80A2F5502293420C
:1019A00000F29C8022463B4620463946FEF738FC32
:1019B00000229E4B4FF0000AFEF730FC04460D4615
:1019C00000224FF0804330463946FEF729FC02469C
:1019D0000B4620462946FEF703FF04460D462246E5
:1019E0002B4620462946FEF7D1FD02460B4680468F
:1019F0008946FEF7CBFD06460F4673A3D3E90023C5
:101A0000FEF7C4FD72A3D3E90023FEF709FC3246BA
:101A10003B46FEF7BBFD70A3D3E90023FEF700FCB5
:101A200032463B46FEF7B2FD6DA3D3E90023FEF735
:101A3000F7FB32463B46FEF7A9FD6BA3D3E9002333
:101A4000FEF7EEFB32463B46FEF7A0FD68A3D3E966
:101A50000023FEF7E5FB42464B46FEF797FD804626
:101A600089463046394664A3D3E90023FEF78EFD4C
:101A700063A3D3E90023FEF7D1FB32463B46FEF7D2
:101A800085FD61A3D3E90023FEF7C8FB32463B4640
:101A9000FEF77CFD5EA3D3E90023FEF7BFFB3246D1
:101AA0003B46FEF773FD5CA3D3E90023FEF7B6FBCC
:101AB00032463B46FEF76AFD02460B464046494623
:101AC000FEF7AEFB22462B46FEF760FDBAF1FF3F64
:101AD00002460B4646D1204629463DE70022534B9D
:101AE00020463946FEF79AFB04460D4600224F4B2E
:101AF000304639464FF0010AFEF792FB02460B468C
:101B000020462946FEF76CFE04460D4667E7494A23
:101B100093421CD20022484B20463946FEF77EFBFA
:101B2000002204460D46444B304639464FF0020A27
:101B3000FEF72CFD00223D4BFEF772FB02460B46E2
:101B400020462946FEF74CFE04460D4647E722464E
:101B50003B4600203949FEF743FE4FF0030A044696
:101B60000D463CE7364B374E03EBCA0306EBCA067D
:101B7000D3E90023FEF752FB22462B46FEF74EFB2D
:101B800002460B46D6E90001FEF748FBBBF1000F09
:101B900004460D46BFBF024601F1004314461D46F0
:101BA000C9E600BFAFF30080075C143326A6913C62
:101BB000182D4454FB21F93F182D4454FB21F9BF43
:101BC0009C7500883CE4377E11DA22E33AAD903F01
:101BD000EB0D76244B7BA93F513DD0A0660DB13F64
:101BE0006E204CC5CD45B73FFF8300922449C23FCC
:101BF0000D5555555555D53F2F6C6A2C44B4A2BF91
:101C00009AFDDE522DDEAD3F6D9A74AFF2B0B33F58
:101C1000711623FEC671BC3FC4EB98999999C93FD0
:101C2000FFFF0F440000F07FFFFFDB3F0000F03FAD
:101C3000FFFFF23F008003400000F83F0000F0BFCC
:101C400028180500481805007FB58DED000B019B95
:101C5000254A23F00043934206D89FED211B07B08D
:101C60005DF804EB00F0D4BA204A934204D907B0DF
:101C70005DF804EB00F0C0BA02A800F039F800F0FB
:101C8000030001280BD0022819D0F8B99DED041BE0
:101C90009DED020B00F0BCFA53EC102B0AE09DED19
:101CA000041B9DED020B00F0CFFE51EC100B024621
:101CB00001F1004343EC102B07B05DF804FB9DEDF0
:101CC000041B9DED020B00F0A3FAEEE79DED041B53
:101CD0009DED020B012000F0B7FEDDE7AFF30080C1
:101CE0000000000000000000FB21E93FFFFFEF7F44
:101CF0002DE9F04F5BEC10AB2BF00048C44B8DB0DE
:101D000004469845CDF810B007D80022002380ED96
:101D1000000BC0E90223002528E0BE4B984578D887
:101D2000049B5046BC4D5946002BABA3D3E900237E
:101D300038DDFEF773FAA84506460F461AD0A8A369
:101D4000D3E90023FEF76AFA02460B46804689462D
:101D500030463946FEF762FAA1A3D3E900230125F4
:101D6000FEF75CFAC4E90089C4E9020128460DB017
:101D7000BDE8F08F9CA3D3E90023FEF74FFA064697
:101D80000F469BA3D3E90023FEF748FA02460B4611
:101D90008046894630463946FEF740FA94A3D3E997
:101DA0000023DCE7FEF73CFAA84506460F4618D0AC
:101DB0008BA3D3E90023FEF733FA02460B46804695
:101DC000894630463946FEF729FA85A3D3E9002330
:101DD000FEF726FA4FF0FF35C4E90089C4E9020195
:101DE000C4E781A3D3E90023FEF71AFA06460F469B
:101DF0007FA3D3E90023FEF713FA02460B46804681
:101E0000894630463946FEF709FA79A3D3E900231B
:101E1000DEE7824B984500F2CE802BF0004750461B
:101E200075A3D3E900233946FEF7B0FB00227C4BB3
:101E3000FEF7F6F9FEF75AFE0546FEF73DFB0246B1
:101E40000B46CDE9022364A3D3E90023FEF79EFBF2
:101E500002460B4650463946FEF7E0F982468B466D
:101E60005FA3D3E90023DDE90201FEF78FFB024601
:101E70000B4606460F4650465946FEF7CFF91F2D32
:101E800005DC6A1E674B53F82230434508D14FEA00
:101E900028530593C1F30A53C3EB1853102B02DCEC
:101EA000C4E9000139E050A3D3E90023DDE90201D0
:101EB000FEF76CFB06460F4602460B465046594657
:101EC000FEF7ACF902460B46804689465046594615
:101ED000FEF7A4F932463B46FEF7A0F906460F4648
:101EE00043A3D3E90023DDE90201FEF74FFB3246AD
:101EF0003B46FEF793F902460B4606460F46404620
:101F00004946FEF78BF9059AC1F30A53D31A312BD0
:101F100020DCC246CB46C4E90001D4E90089504622
:101F2000594642464B46FEF779F93B463246FEF7A4
:101F300075F9049B002BC4E90201BFF617AF09F144
:101F40000043C4F80080A060636001F10043E360D7
:101F50006D420BE72AA3D3E90023DDE90201FEF776
:101F600015FB06460F4602460B4640464946FEF71D
:101F700055F982468B4602460B4640464946FEF7D7
:101F80004DF932463B46FEF749F906460F461EA379
:101F9000D3E90023DDE90201FEF7F8FA32463B46B9
:101FA000FEF73CF906460F4602460B465046594698
:101FB000FEF734F974E71C4B984537D952465B4617
:101FC00050465946FEF72AF9C4E90201C4E9000166
:101FD000A1E600BFAFF3008000004054FB21F93FB1
:101FE0003163621A61B4D03D0000601A61B4D03D23
:101FF0007370032E8A19A33B83C8C96D305FE43F19
:102000000000002E8A19A33BC14920259A837B3901
:10201000FB21E93F7BD90240FB21F93FFB213941FC
:102020000000E03F242F0500FFFFEF7F4FEA285517
:1020300050460DF13009A5F21645A8EB05514FF0B9
:1020400003080F46FEF752FDFEF736FA02460B462E
:1020500050463946CDE90623FEF7E0F80022204B32
:10206000FEF794FA0F460646FEF740FDFEF724FA07
:1020700002460B463046394600260027CDE90823A4
:10208000FEF7CCF80022164BFEF780FACDE90A01E4
:1020900032463B46C24608F1FF3879E90201FEF7B5
:1020A000DDFC0028F4D10F4B2A46214606A80193F7
:1020B00002230093534600F06BF9049B0546002B66
:1020C000BFF654AED4E9002101F10043C4E9002376
:1020D000D4E9022101F10043C4E9022338E700BF3B
:1020E00000007041A42F05007FB58DED000B019B12
:1020F000254A23F00043934207D800209FED201B80
:1021000007B05DF804EB00F09FBC204A934204D96D
:1021100007B05DF804EB00F06FB802A8FFF7E8FD28
:1021200000F00300012810D0022815D008BB0120C0
:102130009DED041B9DED020B00F086FC53EC102B73
:1021400043EC102B07B05DF804FB9DED041B9DEDE7
:10215000020B00F05DF8F1E79DED041B9DED020B15
:10216000012000F071FC51EC100B024601F100431C
:10217000E6E79DED041B9DED020B00F049F8F2E748
:102180000000000000000000FB21E93FFFFFEF7F9F
:102190007FB58DED000B019B154A23F00043934260
:1021A00007D801209FED101B07B05DF804EB00F08D
:1021B00003BD104A934204D907B05DF804EB00F068
:1021C0001BB802A8FFF794FD400000F002009DED4F
:1021D000041BC0F101009DED020B00F0EDFC07B007
:1021E0005DF804FBAFF30080000000000000000079
:1021F000FB21E93FFFFFEF7F08B52AF043FC9FED8D
:10220000020B08BDAFF30080000000000000F87F63
:102210002DE9F74F59EC108B29F00046B6F1795FA4
:102220008DED001BC0F0888042464B464046494633
:10223000FEF7ACF904460D4600224F4BFEF7A6F917
:1022400082468B46204629463DA3D3E90023FEF76C
:102250009DF93DA3D3E90023FDF7E2FF22462B467B
:10226000FEF794F93AA3D3E90023FDF7D7FF2246FE
:102270002B46FEF78BF938A3D3E90023FDF7D0FFF7
:1022800022462B46FEF782F935A3D3E90023FDF75A
:10229000C5FF22462B46FEF779F933A3D3E9002385
:1022A000FDF7BEFF22462B46FEF770F922462B466D
:1022B000FEF76CF904460D4640464946DDE9002329
:1022C000FEF764F90B46024629462046FDF7A6FFB5
:1022D0002A4B804689469E4210D802460B465046FD
:1022E0005946FDF79BFF02460B4600202449FDF7A7
:1022F00095FF41EC100B03B0BDE8F08F214B00249B
:1023000000201F499E42224694BFA6F500151E4D8F
:102310002B46FDF783FF224606460F462B465046C6
:102320005946FDF77BFF42464B46FDF777FF0246D5
:102330000B4630463946DAE79FED0D0BDBE700BF71
:10234000D43888BEE9FAA8BDC4B1B4BD9EEE213E22
:10235000AD529C804F7E923E9015CB19A001FA3E63
:102360007751C1166CC1563F4C5555555555A53F33
:10237000000000000000F03F0000E03F3233D33F98
:102380000000F03F0000E93F0000D23F00000000E5
:102390002DE9F04F2DED028BADF51B7D12F1140FE1
:1023A0004FF000050993A8BFD41EBD4BB8BF002451
:1023B000019122AEA6990A9053F821300493099B0B
:1023C00003F1FF330693A4BF182394FBF3F46FF0DB
:1023D000170304FB033303EB020B049B069A03EB86
:1023E0000208A71AA79B9FEDAA8B03EB8709454517
:1023F00013DD22AA099B0DF5E47A4FF0000802EBE9
:10240000C305049B984530DCDDF828902F46002654
:102410009FED9F7B8DED027B1BE0EF4207D459F8C7
:102420002500FEF749F80135E6E80201DFE751EC47
:10243000180BF8E7D7E90023F9E802010136FEF7A7
:10244000A5F802460B46DDE90201FDF7E9FECDE9FC
:102450000201069B083F9E42ECDD08F101080835A9
:102460009DED027BAAEC027BCBE7049B0EAADDF874
:10247000109002EB83030C93A79B03EB84030B9355
:102480004FEAC9030DF1380A4F460D939AABD04677
:1024900003EBC90313ED287B72AB03EBC9068DED8B
:1024A000027B002FA6F1080677DC58469DED020B53
:1024B0002AF024FB00224FF07F5355EC104B2046AE
:1024C0002946FEF763F841EC100B2AF075FB002259
:1024D000744B51EC100BFEF759F802460B462046A0
:1024E0002946FDF79BFE0D460446FEF7FFFA0890CD
:1024F000FDF7E2FF02460B4620462946FDF78EFE19
:10250000BBF1000F06460F466BDD09F1FF310EAB44
:10251000CBF11800089C53F8213043FA00F2144420
:1025200082409B1A0EAA089442F82130CBF1170280
:1025300013410293029B002B62DD089B00226FF087
:102540007F40013314460893914500F3B780BBF1F7
:10255000000F07DDBBF1010F00F0C980BBF1020FD6
:1025600000F0D080029B022B4AD132463B4600202D
:102570004D49FDF753FE06460F46002C40D0584605
:102580009FED450B2AF0BAFA3046394653EC102B32
:10259000FDF744FE06460F4632E00022434B013F62
:1025A000DDE90201FDF7F2FFFEF7A0FAFDF784FF77
:1025B00000223F4B04460D46FDF7E8FF02460B465E
:1025C000DDE90201FDF72AFEFEF790FA294648F8F8
:1025D000040B2046D6E90023FDF722FECDE90201D7
:1025E0005FE706D109F1FF330EAA52F82330DB155D
:1025F0009FE700222F4BFEF74FFA002843D10290AD
:102600000022002330463946FEF728FA002800F061
:10261000CB8009F1FF33002204998B427ADA002A39
:1026200000F0958009F1FF390EABABF1180B53F8B0
:102630002930002BF6D058464E464FF0000ADFF8FE
:102640006CB09FED150B2AF059FA09F1010372AA3B
:102650004FEAC30802EBC30755EC104B002E80F283
:10266000DB804C46002CC0F20981134B4FF0000A6E
:102670004FF0000B00261F4672ABA9EB040503EBDD
:10268000C4030693EEE00223029356E7AFF3008003
:102690000000000000000000000000000000F03F0B
:1026A000AC300500000020400000F03F0000703E0C
:1026B000000070410000E03F68180500514651F8E5
:1026C000043B54B96BB10132C3F18073914541F8B9
:1026D000043C0ADD0B680AF10801C31A41F8043C06
:1026E000012301328A461C462EE701242FE709F117
:1026F000FF320EAB53F82230C3F316030EA941F894
:1027000022302FE709F1FF320EAB53F82230C3F32A
:102710001503F3E70EA951F82310013B0A437BE7A9
:10272000013453F8042D002AFAD00D9B22AA09F196
:1027300001074C4403F51A730DEB0305099B4B4449
:10274000983D02EBC306BC4204DAA14698E60C9B16
:102750000124E6E70B9B4FF0000853F82700FDF734
:10276000ABFEDDF828909FEDAC7BE6E80201B246B7
:102770008DED027B069B984505DD01379DED027BC3
:10278000A5EC027BDFE77AE90223F9E80201FDF715
:10279000FDFE02460B4608F10108DDE90201FDF7E6
:1027A0003FFDCDE90201E5E7CBF1000047EC106BFE
:1027B0002AF0A4F900229A4B55EC104B20462946EA
:1027C000FEF76AF900B30022964B20462946FDF732
:1027D000DDFE0BF1180BFEF789F90646FDF76CFEDE
:1027E00000228F4BFDF7D2FE0B46024629462046BB
:1027F000FDF714FDFEF77AF90EAB43F8290009F155
:10280000010943F8296016E720462946FEF76EF9CC
:102810000EAB43F829000EE70EAB53F82600013E3D
:10282000FDF74AFE22462B46FDF7B0FE52465B46B8
:1028300067E9020120462946FDF7A8FE04460D4639
:102840000CE706990136F1E802230691F7E8020148
:10285000FDF79CFE02460B4650465946FDF7E0FC4C
:1028600082468B46049B9E4201DCB542E9DA4AABC4
:10287000013C03EBC505C5E900ABF3E6A69B022BC3
:102880000BDC002B38DC5AD0089B03F007000DF559
:102890001B7DBDEC028BBDE8F08FA69B032BF3D113
:1028A00008F51A73CA460DEB0304A4F5A474254673
:1028B000BAF1000FA5F1080567DC4D46012DA4F122
:1028C000080400F383804AAB0020002103EB0804D6
:1028D000B9F1010F00F39880029BDDE94A78DDE948
:1028E0004C56002B40F0A080019BC3E90078C3E95F
:1028F0000256C3E90401C7E74AAB4C460020002159
:102900009844002C32DA029B002B35D0024601F1AC
:102910000043019C4CADC4E90023012402460B4650
:10292000DDE94A01FDF77AFCA14528DA029B13B1E3
:1029300001F100431946019BC3E90201A4E74AAB38
:10294000002000219844B9F1000F08DA029B13B16E
:1029500001F100431946019BC3E9000194E778E9BE
:10296000022309F1FF39FDF75BFCECE778E902236C
:10297000013CFDF755FCC4E702460B46C9E7F5E804
:1029800002230134FDF74CFCCEE795ED007B0AF104
:10299000FF3A8DED047B95ED027BDDE9040153ECFC
:1029A000172B8DED067BFDF73BFC02460B460646DA
:1029B0000F46DDE90401FDF731FCDDE90623FDF7F3
:1029C0002FFCC5E90067C5E9020171E794ED007BC2
:1029D000D4E902AB013D52465B4651EC170B8DED3D
:1029E000047BFDF71DFC02460B4606460F46DDE95B
:1029F0000401FDF713FC52465B46FDF711FCC4E9E8
:102A00000067C4E9020159E774E9022309F1FF39BB
:102A1000FDF706FC5CE700BF0000000000000000BE
:102A2000000070410000703E019B08F10044019AD3
:102A30001F605C609D6006F100431061D36001F18E
:102A40000043536120E700BF2DE9F04F5BEC10AB72
:102A50002BF0004385B08046B3F1795F8DED001B0C
:102A600004D205B0BDE8F04F38F0A9BC52465B4631
:102A700050465946FDF78AFD04460D4602460B4670
:102A800050465946FDF782FD06460F462046294628
:102A90003CA3D3E90023FDF779FD3CA3D3E9002350
:102AA000FDF7BCFB22462B46FDF770FD39A3D3E9A9
:102AB0000023FDF7B5FB22462B46FDF767FD37A344
:102AC000D3E90023FDF7AAFB22462B46FDF75EFD66
:102AD00034A3D3E90023FDF7A3FBCDE90201B8F14C
:102AE000000F17D102460B4620462946FDF74EFD42
:102AF0002EA3D3E90023FDF791FB32463B46FDF7B9
:102B000045FD52465B46FDF78BFB41EC100B05B0D3
:102B1000BDE8F08F00221A4BDDE90001FDF736FD1C
:102B20008046894630463946DDE90223FDF72EFD11
:102B300002460B4640464946FDF770FB22462B46AF
:102B4000FDF724FDDDE90023FDF768FB04460D4693
:102B50003046394608A3D3E90023FDF717FD0246A6
:102B60000B4620462946FDF759FB02460B465046C8
:102B70005946FDF753FBC8E7495555555555C5BF4F
:102B80000000E03F7CD5CF5A3AD9E53DEB9C2B8A3B
:102B9000E6E55A3E7DFEB157E31DC73ED561C1193A
:102BA000A0012A3FA6F810111111813F4955555532
:102BB0005555C53F000000002DE9F04F5BEC10AB10
:102BC0002BF00047D84B89B006469F42CDF808B09D
:102BD00059EC118B59D850465946FDF787FF0546E9
:102BE000002878D1731C51460B433B430CD152460D
:102BF0003B460020CD49FDF7F3FD82468B464BEC6A
:102C000010AB09B0BDE8F08F012EF8D042464B461C
:102C100050465946FDF704FB02460B460F4600207E
:102C2000C349FDF7DDFD2E462C46CDE90001DDE967
:102C30000023304652461D4639465B46FDF7EEFA04
:102C400002460B4640464946FDF7E8FA32462B4617
:102C5000FDF79CFC324682468B462B463046394671
:102C6000FDF794FC0022B14BFDF7DAFA02460B4661
:102C700050465946FDF7D4FADDE90023FDF786FCFE
:102C800022462B46FDF7CCFAB7E7AA4B9F4222D942
:102C9000029B002B05DA0BF100439B4609F1004330
:102CA000994652465B4682A1D1E90001FDF7B6FA8A
:102CB00004460D4642464B464FF000084FF00009CF
:102CC0007DA1D1E90001FDF7A9FA22462B46FDF7C7
:102CD000A7FA82468B4652465B4650465946FDF758
:102CE00055FC02460B46CDE90023FDF74FFC044698
:102CF0000D4650465946DDE90023FDF747FC70A319
:102D0000D3E90023CDE9040120462946FDF73EFC26
:102D10006DA3D3E90023FDF783FA22462B46FDF786
:102D200035FC6BA3D3E90023FDF77AFA22462B4644
:102D3000FDF72CFC68A3D3E90023FDF771FA2246C6
:102D40002B46FDF723FC66A3D3E90023FDF768FAC1
:102D500022462B46FDF71AFC63A3D3E90023FDF7B7
:102D60005FFADDE90023FDF711FC61A3D3E900233D
:102D7000CDE9060120462946FDF708FC5EA3D3E90C
:102D80000023FDF74DFA22462B46FDF7FFFB5CA31F
:102D9000D3E90023FDF744FA22462B46FDF7F6FB64
:102DA00059A3D3E90023FDF73BFA22462B46FDF752
:102DB000EDFB57A3D3E90023FDF732FA22462B4659
:102DC000FDF7E4FB54A3D3E90023FDF729FA0246FB
:102DD0000B46DDE90601FDF723FADDE90423FDF7E3
:102DE000D5FB42464B46FDF71BFADDE90023FDF714
:102DF000CDFB42464B46FDF713FA04460D4648A369
:102E0000D3E90023DDE90401FDF7C0FB22462B4690
:102E1000FDF706FA0B460246CDE900015046594639
:102E2000FDF7FEF9434B04460D469F4240F2848075
:102E30003046FDF741FB2246804689462B46204618
:102E40002946FDF7A3FB06460F4642464B46204661
:102E50002946FDF7E5F902460B4630463946FDF7AF
:102E6000BFFCDDE90023FDF7D9F902460B465046C9
:102E70005946FDF7D3F902460B46FDF7D1F9024654
:102E80000B4640464946FDF7C9F9029B04460D46EC
:102E90004FEAA37A0AF0020ACAF10100FDF70CFB1F
:102EA00002460B4620462946FDF770FBA5E600BF0B
:102EB000182D4454FB21E93F075C143326A6813CBE
:102EC000D47ABF74702AFB3EE9A7F0320FB8123FE4
:102ED00068108D1AF726303F1583E0FEC8DB573F98
:102EE00093846EE9E326823FFE41B31BBAA1AB3F58
:102EF000735360DBCB75F3BEA69237A0887E143F78
:102F00000165F2F2D844433F280356C9226D6D3F54
:102F100037D60684F464963F7AFE10111111C13F32
:102F2000635555555555D53FFFFF2F3E0000F03FE7
:102F30000000F0BF2794E53F012E33D04FF000088A
:102F4000894602460B46002018494446CDE90289CD
:102F5000FDF746FC52460F465B4606460D46404688
:102F60004946FDF75BF902460B46DDE90001FDF736
:102F700055F942463B46FDF709FB424682468B46E1
:102F80003B4640464946FDF701FB0022084BFDF752
:102F900047F902460B4650465946FDF741F932467D
:102FA0003B466BE682468B4629E600BF0000F0BF39
:102FB0000000F03F0000000010B19FED030B7047D0
:102FC0009FED030B704700BF000000000000008071
:102FD000000000000000000010B19FED030B7047DF
:102FE0009FED030B704700BF000000000000F0FFE2
:102FF000000000000000F07F70B5ADF58C4D92B080
:1030000044F23C521C4943A837F09AFE002002A922
:1030100001F06CFB044640B1014618482AF0E6F97D
:1030200020460DF58C4D12B070BD03AB019302AD7F
:103030000146019A4FF4807328682AF0C7FD4FF4C7
:103040008072019943A837F019FF0028E8D028685A
:10305000214682682AF0E4FD064628B10146084868
:103060002AF0C4F93446DBE744F23C532146286891
:1030700043AA2AF0C0FDD3E750CD0400F23005008A
:103080001431050070B5ADF50E7D022001A901F0E7
:103090002DFB044620B1014631482AF0A7F919E07A
:1030A00001461023019806AA2AF090FD044610B1AB
:1030B00001462C48F1E79DF81F50012D05D142F241
:1030C0004133BDF824209A4208D027482AF08EF9CF
:1030D0006FF0150420460DF50E7D70BD9DF826306D
:1030E000089E9B070AD52148214B816898474FF0DD
:1030F000FF314FF0FF3037F042FAF8E701464FF466
:1031000004720AA837F043FE1A4B1B490B931B4B62
:1031100002AA0C931A4B0AA80D934FF48013CDE921
:103120008B3603ABCDE9034405948DF80C5008F0C1
:1031300005FB044610B101461248AEE70298124959
:10314000843008F0CDFA014628B910482AF04EF92B
:103150006FF00104BEE72246029808F0ABFBB9E726
:10316000F23005003C3605005A3605002C200020C0
:103170001100100005020400B63605002F020400FD
:1031800043020400713605008F36050094360500B1
:103190007FB50BAB05930393054B022202930023EB
:1031A0001846CDE9003301F01FF807B05DF804FBC5
:1031B000C13605002DE9F04F91B0009302F00403F1
:1031C0000293C2F3C2030133840705460E46DDF8BD
:1031D00068800392059340F0BB81041D30B107293C
:1031E00009D86FF01B0011B0BDE8F08F01F00706A1
:1031F0003444C6F10806009B4FF000094FF0040A62
:10320000591E4FF0FF334F460193CB465346CDF83E
:1032100010900DB1009820600598002800F3E88018
:103220009848009A824203D397488242C0F0E080D7
:10323000039AA4EB050E92074FEA9E0000F103816A
:103240000F2F00F2B180002D00F0058107F1400240
:103250000DEB020C019A0CF8200C0CF8102C0498C1
:1032600001300490E7E07A285DD84B280ED8472833
:1032700059D829282DD8252852D054D820287AD09A
:103280002338D0F1000B4BEB000B74E04C382E28A8
:1032900049D8DFE800F0704848484848484848485E
:1032A00048484B484848484848484859484B4B5973
:1032B0005959704B6D487048184B184848827F4BDD
:1032C00048484B487F0000204FF0000B4FF0040AA5
:1032D00038E001222A38C0B202FA00F010EA0E0FDC
:1032E00049D110F0625C2FD110EA020B43D0604646
:1032F000013C5444B4FBFAF40AFB04F4002D61D001
:10330000A3EB050CA444B4453FF66BAF002868D18D
:10331000042B47D158F8043B2360042304342AE0EB
:10332000019A013A01924FF0000B24E011F8010CD0
:103330006C2834D1002011F8023C83466C2BC5D197
:103340004FF0080A5346D3E708F1070828F00708AA
:10335000073424F00704F8E802AB35B1069820449E
:10336000B0423FF63EAFC4E900AB4FF0000B08346B
:103370004FF0080A534611F8010F002878D0BBF12E
:10338000000F7FF470AF2528F5D14FF0010B019BA2
:10339000013301934FF0040AECE7584694E700200C
:1033A0008346A5E7082B02D06FF015001BE708F154
:1033B000070828F00708B8EC027B84ED007B08239F
:1033C0000834D8E768B9042B02D108F10408A4E74F
:1033D000082BE9D108F1070828F0070808F10808C8
:1033E000EDE705980138059058F8040B009010E7B8
:1033F000039A900720D54FF0010CA4EB050E4FEA7D
:103400009E00BEF5007FCFD20F2FCDD8F5B107F1CA
:1034100040020DEB020E019AC0B20EF8200C0EF81D
:10342000102CBCF1000F3FF41AAF60F07F000EF8D3
:10343000200C09F101090137C5F108024FF6DA7EC7
:103440000434069297E74FF0000CDAE7BCF1000F66
:1034500001D00136EFE7029A0236002AEBD100983C
:10346000CDE90631FDF70CFEDDE906310644E2E761
:10347000631BB3F5806F97D245B9A6F10804E01835
:10348000B1E600BF10B4040058960500029A9B08EC
:1034900028602B709DF81030C2B1EB7085F8029057
:1034A000B9F1000F05D0002208A8C5F1010C974220
:1034B0000ED14FF0000AC5F101030DF12008019370
:1034C0000DF1300B574512D1601B8CE66B70E5E7B0
:1034D00010F8013B190608D50CEB040EB64503F0B5
:1034E0007F033FF67EAE04F8013B0132DFE7B9F11E
:1034F000000F03D098F90020002A17DB029BD3B1FC
:103500001AF80B2004F8012B0022019B1819104413
:10351000B0423FF666AE98F80000009904F8010B3F
:103520002046039237F00CFC039A14440AF1010A76
:1035300008F10108C6E798F8002055F822300093FA
:10354000029B009845F82230FDF79AFD421CDCE70B
:103550006FF00D0047E600BF2DE9F04F9BB0DDF89E
:1035600090B00993CBF3C00304461646884690F802
:1035700002A00B9341B9457800780AEB8000204403
:10358000454516D8A0EB0408E3780A93BAF1000F7A
:1035900002D01BF0010F15D10A9B002B39D11EB1AF
:1035A00041462046099AB047454628461BB0BDE82B
:1035B000F08F471C3846FDF763FD0130384408F1B1
:1035C0000108DDE72278636806920893069B920063
:1035D0000C9204EB8301002E40F0E7800F4600269A
:1035E000454601EB0A08474522D017F8013B0691F2
:1035F00054F82300FDF744FD259B0699013033B1B3
:10360000269B9E423EBF259B23F8160001360544AB
:10361000E9E71BF0020FC2D023781F4606939B00F8
:103620000C93636804EB87010893002E56D145463E
:103630001BF0050F01EB0A070CBF4FF0020A4FF019
:10364000010A0A9B07EB43090BF0020306934F455F
:10365000ABD017F8021B17F8013C54F82380934BAA
:10366000984502D3924B984519D30B9B23B30898E6
:1036700029F093FE00B38F48036813F0060F0CD0B7
:10368000089B049103938C4B014602930023022272
:103690001846CDE90033FFF77BFD023DD7E70B9BD2
:1036A00023B1089829F079FE0028E4D11BF0010F1E
:1036B00005D1A5EB0A05CAE7069B002BC7D04046FB
:1036C000FDF7DEFC259B3BB1269B9E423FBF259A22
:1036D000431C22F8163001360544B8E7BAF1000F52
:1036E00067D01BF0040767D057464FF0000916A8B3
:1036F0005246079137F024FB079901EB0A03079321
:103700000A9B0A9A5B000E93079B03EB42030D93FF
:103710000BF002030F930D9B079A93424ED16378EF
:103720001BF0020F18BF002103EB090208BF790844
:103730001BF0010FD2B240F08A801BF0040F14BFBF
:10374000384600206270A070E1702046099A0C99FA
:103750000893B047051EFFF628AF069B3946237035
:10376000089B099A63700A9B84F802A0E37016A86C
:10377000B047071EC0F295800C9BA8EB0A01C91A3E
:103780000E9B099A0798C91AB0470028C0F28B808F
:103790004FF000082F443D180DF1480BC14558D893
:1037A0000021099A0846B047FFE6D146002712A833
:1037B0009EE75746D146A0E7B9469EE7079B13F818
:1037C000021B13F8015C079354F82520374B9A42EB
:1037D00002D3374B9A4217D30B9B23B1089829F099
:1037E000DCFD002897D10F9BCBB907F168037A1C49
:1037F0000DEB03001AAB023753FA82F200F8101CEB
:10380000FFB202F8105C86E70B9B2BB1089829F0F9
:10381000C4FD00287FF47FAF1BF0010F0AD009F12F
:10382000680309F101020DEB030909F8205C5FFA56
:1038300082F970E71BF0040F3FF46DAF07F16803E6
:103840007A1C0DEB030707F8105CD7B263E7002082
:1038500078E718F80B3054F823A08DF84730259BF3
:10386000EBB1269B98451AD2259B33F8187001219D
:10387000099A0DF14700B047002814DB054427B929
:103880005046FDF7FDFB471CBFB239465046099A2A
:10389000B047002807DB054408F101087EE7002750
:1038A000E5E73D4681E605467FE600BF10B404002B
:1038B00058960500D41E0020C1360500014B186043
:1038C000704700BF880E002070B50446044E4518AE
:1038D000AC4200D170BD336814F8010B9847F7E78C
:1038E000880E002080B505460E461746984626F0FD
:1038F0002BFE034637F064FD0446DFF8189042467D
:1039000049F8003039463046A84754F8090004F019
:1039100027F800BF1000000000B5162237F050FD58
:10392000024B1A504FF0FF305DF804FB140000000A
:103930000F2800B508D937F043FD0922074B1A506C
:103940004FF0FF305DF804FB3022054B02FB0033E3
:10395000D3E8AF3F002BEED00020F3E714000000C7
:10396000940E00203023434330B50D4908330B44F7
:10397000D3E8AF2F92B1541ED3E8EF5F954204D144
:10398000C3E8EC4FBCF1000FF6D1F1D1012A05D10B
:103990003023584300230A180B50536030BD00BF3A
:1039A0008C0E002038B504461546FFF7C1FF0028ED
:1039B0000BDB094A59B1302303FB04235B688B42BC
:1039C00005D037F0FDFC054B1D50002038BD3023DD
:1039D0005C431059FAE700BF8C0E00201400000071
:1039E0002DE9F041184E90461F46002435463368B5
:1039F000984202D1736899420BD00134102C06F121
:103A00003006F4D137F0DCFC17224FF0FF340F4BB7
:103A10001A502046FFF78CFF002812DBB8F1000F88
:103A200005D0302101FB04510C31C8F8001017B942
:103A30000120BDE8F081302303FB045520353D60B3
:103A4000F6E70020F5E700BF8C0E00201400000010
:103A500038B504461546FFF76BFF00280DDB302311
:103A60006343074AD0184068086015B10C3313440B
:103A70002B6030235C43105938BD0020FCE700BFA9
:103A80008C0E002070B500254FF0FF334FF0FF3251
:103A9000184829F0CBFC184BD3E8AF2F82B1013581
:103AA000102D03F13003F7D137F08AFC17224FF0C5
:103AB000FF35124B1A500F4829F0BAFC284670BD4A
:103AC00030246C43D3E8EF0F0130C3E8E10F002945
:103AD000F8D10B4E331932515A609A6204F10C003E
:103AE000304436F00CFA04F12000304436F068FC23
:103AF000E1E700BF70200020940E002014000000B9
:103B00008C0E00202DE9F0413024164644430F4A24
:103B1000101911514660C362B6B1F368A3B137F012
:103B20004FFC0B4F0C3450F807801319054640F238
:103B30000512304629F069FCB8F15F0F04D0EB594B
:103B40005F2B08BF45F80780BDE8F0818C0E002090
:103B500014000000F8B50546FFF7EAFE002824DB54
:103B600030246C43124F04F10C063E444FF0FF32F8
:103B70004FF0FF33304629F059FC3A1953689B68DF
:103B80008BB1D26A385912F4404F0AD0294698476F
:103B90000446304629F04CFC2846FFF7E3FE204659
:103BA000F8BD9847F4E71C46F3E74FF0FF34F6E71B
:103BB0008C0E00202DE9F84340F26C7344690569CE
:103BC000E1170135E41841F10001022D8CBF0023FB
:103BD0000123E41AC76861F100010029064607F1D4
:103BE000FF374EDA6FF4C7704FF4C8720023201805
:103BF00061F10001FDF7ACF9244B4FF03C0E03FBE3
:103C00000044D6E900834FEAE37C99466346022DDF
:103C100002468CBF6FF002000920B6680544C6FB5F
:103C20000E93A9FB0EC60EFB036640F26D1E992093
:103C3000A3080EFB04333B44642745430520B4FB33
:103C4000F7F40235B5FBF0F51B1B114C1CEB080C0F
:103C5000A2FB042004FB01012B4446EBE8769818F4
:103C60000C4A41F1000380180B4A63F10003A0FBEA
:103C7000020102FB031110EB0C0041EB0601BDE851
:103C8000F8834FF4C87200232046B3E770FEFFFFAD
:103C9000B13A02009405F5FF8051010010B5FFF71D
:103CA00089FF0024024637F08BFB0B460249445043
:103CB0001046194610BD00BF1400000070B5EFF3A8
:103CC0001186102383F31288BFF36F8F00242546DB
:103CD000134B03201C805C809C80DC8015F058FF17
:103CE000104B5C609C60DC601C61A3F558231C6772
:103CF0005C679C670C4B04F1A0020134102C43F864
:103D00002250F8D1032015F017FF084B084A1A601B
:103D1000084B1D6086F31188BFF36F8F70BD00BF25
:103D2000F8D7002000000E4000E100E034900020B1
:103D300000127A0030900020F0B587B02A4D2B4E4B
:103D4000284635F0D3FE034668B93268510707D0DC
:103D5000274A3146CDE901020090012229F0D9FD20
:103D60006FF0120415E0AF683B68ABB10021284644
:103D70009847041E13DA33685A070AD01D4B039480
:103D80000293002301221846CDE90033174929F098
:103D9000C0FD204607B0F0BD6FF05704EBE7FB68AD
:103DA0005BB10021284605AA9847041E08DA33684B
:103DB0005B07EED0104B0394E2E76FF05704F6E791
:103DC000336803F00703022B01D80024E1E7059BC9
:103DD00003220393094B3146029300231846CDE991
:103DE000003329F096FDF0E7B8BA0400E01E002089
:103DF000A1370500D3370500063805003C3805001B
:103E00002DE9F84F814630480F4629F09BFD0646C4
:103E100070B92E4C0546A0464FF0010ADFF8B0B04D
:103E20005C4507D3B9F1000F02D04FF0010AFDB98C
:103E3000BDE8F88F237B83B12368DB680BB1204694
:103E40009847636883F806A023681B6943B96368D1
:103E500004222046196829F0A8FD01361034DFE756
:103E6000204698470028F2D00AFA06F31D43F4E7EB
:103E7000A94695FAA5F4B4FA84F40AFA04F32601E3
:103E800008EB04146FEA030B25EA0305237B63B1F7
:103E900058F806301B698BB94644736804222046E3
:103EA000196809EA0B0929F080FD002DE1D11FB145
:103EB0006420002136F063FB4D46B8E72046984762
:103EC0000028F2D1E8E700BF4090002024BF0400A2
:103ED00034BF040008B5034608462BB1044A1360FA
:103EE00000F0EEFB002008BD6FF01500FBE700BFFF
:103EF0008C11002000230D4A10B513700C4A4FF4AA
:103F00007A7113600B4A0C481360FFF7E3FF00F06F
:103F100095F80A4B0A4918468B4200D310BD1A1A6D
:103F20005C681211013222711033F5E702D80020CB
:103F3000389000203C90002035D9030024BF0400B5
:103F400034BF040070B50B4D297841B90120FFF74B
:103F500057FF094C094EB44202D301232B7070BDA8
:103F600063685B791BB1236820469B6898471034CF
:103F7000F1E700BF02D8002024BF040034BF0400D2
:103F8000014B1868704700BF3C90002010B50446F4
:103F9000064829F0D7FC3CB1054BD3E8EF1F0139A7
:103FA000C3E8E21F002AF8D110BD00BF38900020FE
:103FB0003C9000202DE9F041164B05461B689847C0
:103FC000154CDFF85880A860444501D3BDE8F08166
:103FD00063685B793BB129784B0706D5236829468E
:103FE00020461B6898471034EEE728462E88C1F318
:103FF000C20700F0C9F9C6F382160246002EEDD0C2
:104000000028EBDB01233946204600F0C7F8B04218
:10401000E9D3E3E78C11002024BF040034BF04007F
:10402000044A054B9B1AB1EBD30F34BF52F8310051
:10403000002070479CBD040024BF040000210B48F1
:104040000B4B30B51B1A0B4CDB080430994200D1E6
:1040500030BD10F83120256802F0070225F0070571
:104060002A4344F8042B0131F0E700BF9CBD040053
:1040700024BF0400D01E0020F8B5064600240A4FD5
:104080000A4DED1BED08AC4203D14FF0FF34204642
:10409000F8BD57F8340020B13146FCF7DFFF0028A7
:1040A000F5D00134EFE700BF9CBD040024BF04003D
:1040B00000282DE9F047884615461F461DDA4FF0C7
:1040C000000A5446DFF8A090234EA6EB09063609F5
:1040D000B24509F1100902D12046BDE8F08759F830
:1040E0000C0C3B462A4641460079FFF7E1FF84422B
:1040F00038BF04460AF1010AEAE7184B184AD21AF7
:10410000B5EBD20F26D203EBC5031C79BC4228BF06
:104110003C460722134EC0B200EB400056F8253053
:10412000824023EA020304F0070282401343002185
:10413000032223FA02F000F00700814202F1030299
:1041400038BF01461E2AF4D123F007030B4346F87B
:104150002530C1E70024DCE734BF04009CBD040027
:1041600024BF0400D01E002024BF0400F8B506467A
:104170000F460024074D084BED1AED08AC4200D362
:10418000F8BD002122B23B463046013429F0FFFB46
:10419000A4B2F3E724BF04009CBD040070B14168E1
:1041A000097973B1002A17DBCBB20C4903EB430347
:1041B00051F82200D84000F0070070474FF0FF315F
:1041C000EFE707490748401AB2EBD00F3ABF01EBBF
:1041D000C20108791846704704207047D01E00209D
:1041E0009CBD040024BF04002DE9F04F87B004AF4C
:1041F0000446D7E90EA90E46934698463D6BBAF1A0
:10420000000F22D0C7F80490CDF80090102153463B
:1042100000207A6BFEF7CEFFB0F5006F014615D394
:104220001C490B6813F0060F0BD040F2FF73039389
:10423000194B0222029300231846CDE9003329F0DE
:1042400037FC0C37BD46BDE8F08F514604F007043B
:104250000BF0070BE40044EA8B1444EA412444EADF
:10426000055417350D4425F00705ADEB050D04ADDC
:10427000BAF1000F07D0CDF8009053467A6B05F1E4
:104280001000FEF797FF434622463146284629F0A4
:10429000BFFBD6E7081F00207B3805002DE9F04F53
:1042A000C1F34A2691B00D469046079008930C0D35
:1042B000002E5AD000274FF0040B4FF00A0A0BAB28
:1042C00001933A460DAB31464046CDF808B0CDF8E3
:1042D00000A0CDE90D770F97FFF73EF9B0F5006F1D
:1042E000B146034616D325490B6813F0060F0ED0CE
:1042F00040F2FF730493D8F8043002220393204B5A
:104300003846CDE9017300973B4629F0D1FB11B047
:10431000BDE8F08FC0F30A0604F11700184420F03E
:1043200007008008099329F02EFB66F35325044605
:1043300080B1099B00F11001CDE90E370BABCDE93F
:1043400000A30D91404649460E4ACDF808B00DAB8A
:10435000FFF702F966F353252A462046089B079982
:1043600011B0BDE8F04F29F053BB04F1170020F065
:104370000700800829F007FB0446EBE7081F002030
:10438000B3380500E5D90300406820B1034BC01ADB
:1043900040F38F0070474FF0FF307047D01E002071
:1043A0000EB403B503AB53F8042B01460448019344
:1043B00003F03EFC02B05DF804EB03B0704700BFB1
:1043C0002BDB0300CA0605D48B064CBF0249034908
:1043D000FFF7E6BF704700BF078D0500F238050004
:1043E0002DE9F04F87B09DF8446004460D46904695
:1043F0009946002E00F0A280159B03F0020A03F0FC
:1044000001030493159B03F0080B03F480730593D9
:1044100029F0BBFA024600283DD020469449FFF718
:10442000BFFF0746BAF1000F09D0159B13F0440FE8
:1044300033D12A4620468F49FFF7B2FF0744049B39
:1044400053B18D4B204653F826208C4B8C49002AC3
:1044500008BF1A46FFF7A4FF059B002B49D0BBF10C
:10446000000F64D1B8F1000F66D04246204685495E
:10447000FFF796FF0546129B3D44002B6DD1149B20
:10448000002B73D1159BDB0700F1EB8020461599BB
:10449000FFF798FFD8E00746C4E77B4B1868002871
:1044A000CCD07A4B4FF47A7A1B684FF03C0CB5FBBA
:1044B000F3F5B5FBF0F14FF4616300FB11550AFB16
:1044C00005F5B1FBF3F2B5FBF0FE03FB121100FBA7
:1044D0001E55B1FBFCF30AFB05F5B5FBF0F50CFB33
:1044E000131120460091CDE901E56949FFF758FF16
:1044F000A4E7BBF1000F1DD0664B204653F82620E1
:104500006549FFF74DFF0546B8F1000F05D042465B
:1045100020465C49FFF744FF0544B9F1000FAAD0DB
:104520004A4620465D49FFF73BFF0544A3E74FF0AD
:104530000009E1E75D46E7E745469CE7B9F1010F71
:10454000129B06D1002B66D1149B002B7CD000253A
:104550000CE0002BF8D052485EE05248129B2246F5
:10456000514928F0E9FE149B002B6AD0DFF8448102
:10457000DFF84491149F2046102F159928BF10276B
:104580004FF0000BFFF71EFF5D4547DC139B4946CC
:1045900020461A78FFF704FF4FF0010B1BF0070FBE
:1045A00003D141462046FFF7FBFE5F453DD9139BF3
:1045B0004946204613F80B20FFF7F2FE0BF1010BE2
:1045C000BBF1100FEAD14FF0000A20463749FFF740
:1045D000E7FE5246DFF8E4B0139B20469A5CA2F156
:1045E00020015F2928BF2E225946FFF7D9FE0AF184
:1045F000010ABAF1100F1DD01AF0070F03D141467E
:104600002046FFF7CDFE57455246E5D841462046A5
:10461000FFF7C6FEEBE7234835469FE741462046B5
:10462000FFF7BEFE0BF1010BAEE720462049FFF776
:10463000B7FEC3E7139B3B441393149BDB1B1493FC
:1046400098D1002E7FF41EAF6268A168D2E90023E2
:10465000206829F05CFA002263681A6007B0BDE8A0
:10466000F08F2046054A0649FFF79AFE0EE700BF85
:10467000FA380500FE380500CC180500F5380500AD
:10468000A43E0500233905004890002044900020F6
:1046900007390500E0180500273905002D39050008
:1046A00047DB03002BDB0300317C01003C390500B4
:1046B000383905005C8F0500323905008745050053
:1046C00000210123064A904206D8064A01B9012377
:1046D0001360054B18607047012140085B00F2E74A
:1046E00040420F00449000204890002070B5104BCD
:1046F0000D461C68B4B10F4B196800238B4202DBD6
:104700006FF0010070BD224612F8106B864202D095
:1047100014460133F2E7E06835F0E8F928B10020EB
:104720002C60EFE76FF00C00ECE76FF01200E9E7A8
:1047300090110020F418050010B5044615F00AF990
:1047400003490246204629F02EFC002010BD00BF80
:104750007539050037B513460022054601920A2136
:10476000586801AA01F0BCFD019C4CB90A2120EA5D
:10477000E07080FB010135F002FF204603B030BD40
:1047800022462846024929F02AFC019CF5E700BF91
:104790009A39050008B5034A034929F004FC0020B2
:1047A00008BD00BF843A05008B3A0500F7B51746EF
:1047B000002305460A2101AAB868019301F090FD83
:1047C0001749C6B2284629F0FCFB019C44B1224699
:1047D0002846144929F003FC019C204603B0F0BD93
:1047E000042E09D9324628460F4929F0F8FB2846FD
:1047F00029F034FC0124F0E77868FFF73DFC021E45
:1048000007DA28467A68094929F0E9FB6FF01504B0
:10481000E3E733462146204612B229F0B8F8DCE738
:10482000B63A05001C3B0500433B05005A3B05001A
:10483000002307B50090694604488DF8043026F03F
:1048400095F89DF8040003B05DF804FB55DC030007
:1048500010B5044615F060F807490246204629F0D5
:10486000A2FB2046054929F09EFB2146044826F07C
:1048700097F8002010BD00BFB23B0500D13B0500FA
:104880008548010070B58EB004460D46D0F89C6096
:1048900035F0A3FD034636F093FD214A2149105817
:1048A000214A002B18BF1A460092204A2346844210
:1048B00018BF0A4628461E4929F075FBD4E90A2389
:1048C000CDE90023284694F90E30227B194929F0BE
:1048D0006AFB06A92022204625F010FA636E0246E4
:1048E0001549284629F05FFB204605A935F096FDBD
:1048F000024628B12846114929F055FB0EB070BD7B
:104900006422059B2846F11A4A43B2FBF6F2009155
:10491000CDE901620A49324629F045FBEEE700BFC6
:10492000100000005C8F0500DB3B05005A8B050082
:10493000DE3B0500EA3B0500163C05002D3C05006A
:104940005A3C0500F0B50025044691B0294608AF51
:104950001C2209A836F01BFA134E1A2220213846D1
:1049600036F015FA2146114826F01AF807AA4FF436
:104970000061304635F046FD6423079A2046C2F5B3
:1049800000614B43DB0A05934FF400630097CDE9C8
:104990000313CDE9013206492B46324629F003FBC9
:1049A000284611B0F0BD00BF78BF0420B549010012
:1049B000A63C050070B504460D46D0F89C6088B052
:1049C00007A935F02BFD024628B128460E4929F0EB
:1049D000EAFA08B070BD204635F0FFFC6422079B60
:1049E0000096F11A4A43B2FBF6F2CDE90131074BCA
:1049F000CDE90362002818BF034622462846044931
:104A000029F0D1FAE5E700BF2D3C0500DB3B0500AE
:104A1000EF3C050038B513460546102200215868C2
:104A200026F06CFE0446FFF703FF38B922462846FD
:104A30000D4929F0D4FA6FF0150038BD36F0C0FCEE
:104A40000A4B1B589C4204D12846094929F0C7FA51
:104A5000F1E7204625F008FB28462246054929F0C3
:104A6000A2FA0020E9E700BF533D05001000000056
:104A70006E3D0500963D050038B5134605461022EB
:104A80000021586826F03AFE0446FFF7D1FE38B9F7
:104A9000224628460D4929F0A2FA6FF0150038BDCC
:104AA00036F08EFC0A4B1B589C4204D1284609491B
:104AB00029F095FAF1E7204625F0DCFB284622464E
:104AC000054929F070FA0020E9E700BF533D0500D1
:104AD00010000000CD3D0500F33D050038B513463C
:104AE000054610220021586826F008FE0446FFF70C
:104AF0009FFE38B9224628460D4929F070FA6FF01A
:104B0000150038BD36F05CFC0A4B1B589C4204D1A2
:104B10002846094929F063FAF1E7204602F020FF10
:104B200028462246054929F03EFA0020E9E700BF61
:104B3000533D050010000000273E05004C3E0500D7
:104B40002DE9F04F87B00446684624F04DF9242340
:104B5000009F082103FB0077264A204629F016FA19
:104B6000DFF8ACA0009DDFF8ACB0BD4203D300205D
:104B700007B0BDE8F08F2B680BB11A7832B92B461D
:104B800014211D4A01A826F035FB01AB524608212D
:104B9000204629F0FBF9284634F0A8FF174B0821DE
:104BA000002808BF5B46164A204629F0EFF92B6A19
:104BB000A3B11E6896B1336883B108212046114A1B
:104BC00029F0E4F9B1464FF0000833680E4A434536
:104BD00006D8082120460D4A29F0D8F92435C4E723
:104BE0000821204659F8043F29F0D0F908F10108BE
:104BF000EBE700BF933E05009D3E0500843E0500A7
:104C0000E6450500A73E0500A33E0500078D05000B
:104C1000A23E05008A3E05001FB50C68D1E90432AA
:104C200003944C68013302948C6802F26C72019414
:104C3000C9680091024929F0B6F904B010BD00BF5F
:104C4000E13E0500F7B5137806463A2B0F461546A8
:104C500014D1541C23783A2B28D101340A2220463F
:104C600001A926F0D5FC019A0346A242386017D06C
:104C70001078A8B93C2B15D915490EE00A22284610
:104C800001A926F0C5FC019CB860AC4208D023788D
:104C90003A2B05D1172807D90E49304629F09FF93C
:104CA0006FF0150003B0F0BD0134D3E70A222046AF
:104CB00001A926F0ADFC019B7860A342F0D01A78E0
:104CC0003A2AEDD13B2801D90349E6E75C1CC5E748
:104CD000203F0500023F0500103F05002DE9F0418F
:104CE0000D4690B002A904460120174603F03AFA97
:104CF00007A902A826F0A2F9032D55D17D680A2242
:104D0000284601A926F084FC019E8046B54215D0B4
:104D100032782D2A12D101360A22304601A926F016
:104D200077FC019B9E4209D01A782D2A06D1451E98
:104D30000B2D0CD92849204629F051F9204629F09D
:104D40008DF96FF01505284610B0BDE8F0815E1CA6
:104D50000A22304601A926F05BFC019B9E42EDD061
:104D60001B78002BEAD1431E1E2B01D91B49E2E719
:104D7000A8F26C73CDE90B53BA680A90204607A9D4
:104D8000FFF760FF0028D9D107A8FEF787FFB1F130
:104D9000FF3F08BFB0F1FF3FCDE9020108D1204637
:104DA0000F4929F01CF9CCE7022DC7D17A68E5E755
:104DB0000023012002A90493FCF742FB054628B119
:104DC00002460849204629F00AF9BAE7204607A911
:104DD000FFF722FFB7E700BF303F05003F3F050068
:104DE0004C3F0500753F05002DE9F041144688460B
:104DF000074610220021606826F080FCB8F1020FFF
:104E0000064607D8202308213846244A29F0BEF850
:104E1000336816E00A220021A06826F06FFCC5B2B4
:104E20002B46082138461D4A29F0B0F8B8F1030F87
:104E30001AD1102D0CD0202DEAD0082D0BD13378AB
:104E4000DBB208213846164A29F0A0F8002009E014
:104E500033889BB2F5E738460821124A29F096F8C4
:104E60006FF01500BDE8F08110220021E06826F007
:104E700045FC0821034604460B4A384629F086F8CB
:104E8000102D06D0202D07D0082DE4D1E4B23470C7
:104E9000DCE7A4B23480D9E73460D7E7B13F05003E
:104EA000DC3F0500C63F0500ED3F050000232DE96E
:104EB000F04F91464FF0FF35012287B00193504BE0
:104EC000074688461A60202602F08CFF2C46DFF841
:104ED0004CA149465246404602F0A8FF411C06D16B
:104EE0006A1C41D14749384629F079F817E0732800
:104EF0001AD0772828D0612811D1DFF824B11021E9
:104F0000DBF8000001AA01F0EBF9019B0546002B3C
:104F1000DFD0DBF800203C49384629F060F86FF01C
:104F2000150007B0BDE8F08FDFF8F4B00021DBF822
:104F3000000001AA01F0D4F9019B0446002BC8D05F
:104F4000DBF800203149E7E7DFF8D4B00021DBF8D7
:104F5000000001AA01F0C4F9019B0646002BB8D05D
:104F6000DBF800202A49D7E7631C01D12949BAE7B9
:104F70005FFA86F8C6F3C406002C3FD002AB294680
:104F80001A46A6EB050C0CE0B8F1100F1DD0B8F1D5
:104F9000200F20D0B8F1080F2AD1087818703144BA
:104FA0003344A64203D80CEB01001028ECD9102C96
:104FB000A14628BF4FF0100929464B46384601F05C
:104FC0005FF81035A4EB0904D6E7088880B21870A2
:104FD000000A5870E3E708684FEA102E187083F84B
:104FE00001E04FEA104E000E83F802E0D870D6E7D9
:104FF00008213846084A28F0C9FF90E7204690E784
:105000000412002042400500014005001440050044
:10501000274005005F400500C63F05003B400500F6
:10502000B0A2002070B50F4E04460D46337871B122
:1050300023B10D49BDE8704028F0D1BF0123337082
:1050400020460A4928F0AFFF0123337004E083F0C3
:1050500001033370002BF3D129462046BDE8704090
:1050600029F01CB803D8002079400500B4400500A1
:1050700070B504463B480378182B02D10B78112BEE
:1050800031D00B46013A8D18AB4225D18B5C0A78A2
:105090000370A2F13003092B334C04D922F0200312
:1050A000413B052B04D823683049CA54013323609F
:1050B0002368022B33D1102200212C4826F01EFB3E
:1050C0002B4A136803F8010B13602A4A1368013353
:1050D00013600023236022E013F8016B182ED3D154
:1050E0001E78112ED0D1234D20462A68224928F05F
:1050F0005AFF20460021FFF795FF204B187870B922
:105100001F4A2B681168042B0ADC08B111602B6060
:1051100013F003010BD1126813681BBA136070BD42
:105120000868043B00BA41F8040B0120EBE75B423E
:1051300003F0030358BF5942022904D112681388AF
:105140005BBA9BB2EAE70329E9D11068026811044F
:10515000C2F3074301F47F010B4302F47F42134380
:105160000360DCE704D800204C90002006D8002023
:105170005890002050900020DE40050005D8002007
:10518000549000202DE9F84F0023064615460C46A2
:105190002949DFF8BC800B602849DFF8B890DFF8B8
:1051A000B8B088F800300B60012C2F4655F804AFDA
:1051B0001ED902224946504635F0A4FE80B99AF81D
:1051C0000220003A18BF01229244504602221C4994
:1051D00035F098FE30B9012388F80030013CE3E750
:1051E0000022F1E749465046FBF738FFA8B90437DB
:1051F00000227868114626F081FA0022114B1146F0
:105200001860786826F07AFA0F4B1049186030461B
:10521000FFF708FF0020BDE8F88F9AF800202D2A3C
:10522000E6D19AF80120002AE2D05246594630468B
:1052300028F0B9FED2E700BF4C900020509000202B
:10524000F840050058900020549000207150010053
:1052500005D8002010940500FB4005007FB50BAB7E
:1052600005930393054B0222029300231846CDE9D0
:105270000033FEF7B9FF07B05DF804FB5D4205009F
:1052800007B50A4834F032FC60B10423084A0093A1
:10529000126801230549074800F058FF002003B0B9
:1052A0005DF804FB6FF01200F9E700BF98B9040045
:1052B000341A0500BCCB040010B54468C4E90012E0
:1052C000A36042684021134653F8404B5163536238
:1052D000002302F13801C2E904130821C2E90A33AC
:1052E000C2E9063313631162C2F8B830A36823B170
:1052F0009B6C13B1204604499847A3689B6A0BB185
:1053000020469847002010BD0D5301002DE9F047BD
:1053100005460C4686B083685B6C03B19847AB6862
:105320005B6B73BB4FF0000A04F1240804F12809F9
:10533000218E238D626B5B1A9BB2D31A934228BFD6
:1053400013464946404605AA28F030FA064600288A
:1053500044D0AB6805999B69002B33D002462846A0
:105360009847074688B33A464946404628F054FADB
:10537000B7424FF0010ADBD00020D4E90131984751
:1053800003E0284698470028CCD1AB685B6A002B25
:105390003BD1628BE38A04F110079B1A226A9BB20D
:1053A000934204F11A0828BF13464146384605AA1D
:1053B00028F0FCF9064678BB284628F073FCC4F8B0
:1053C000B86035E06FF05707CDE7024649464046E2
:1053D00028F022FABAF1000FD7D0CDE718490B68B0
:1053E00013F0060F07D0174B0222CDE901030090FE
:1053F0000346FFF733FFAB689B69002BEAD001221D
:1054000028460DF113019847E4E7284698470028FD
:10541000BFD106B0BDE8F087AB6805995B6963B1A1
:1054200002462846984702464146384628F0F4F995
:10543000D4E9013101209847EBE76FF05702F3E719
:10544000581F00205D42050010B5044681681831E0
:1054500001F0B4F9A1682046BDE81040014A1831B6
:1054600001F052B99F42050038B58368044603F540
:1054700080539B6FDB071FD4C06929F0F8FA60687E
:1054800003685B689847054620B9E06829F03FFC4F
:10549000A3681D75A3685B6C13B129462046984725
:1054A000002235F08DFFA36803F58053C3F8202157
:1054B000034B185802F054FA6FF00F05EAE700BFEB
:1054C00010000000014928F069BC00BF078D0500ED
:1054D000F7B5044680680D4600F580539B6F5A0768
:1054E00005D5002128F09EFCE06829F0E2FBE36886
:1054F000DB6873B9002D3CD0A66806F15607384624
:1055000028F059FC002836D0394606F65600FBF73D
:10551000AFFDA2682946E0680DF10603563229F076
:10552000CBFB58B9A06800F656015630FBF7A0FD3A
:10553000A068563028F03FFCADF80600204629F060
:10554000A0F8A36803F580535B6F9B0603D50B4956
:10555000606928F023FC204600F02AFFA268BDF80D
:1055600006302046A2F85230A268A2F8503028F047
:10557000EDFF03B0F0BD86F85608CAE78C120500AF
:105580002DE9F04FA7B004465422002111A835F0B0
:10559000FEFB0023CDE90533A36820465633029372
:1055A00029F076F8204628F0B9FF10B96069FFF7B6
:1055B00089FF00264FF0FF37B246B3463546B14665
:1055C000A06814220021183035F0E1FB204628F0B5
:1055D0004BFFA168E068B1F85020563129F0A3FBD9
:1055E000204629F032FC0DF144080396DDE905322E
:1055F000012A6DD0132B6ED85FBBBBF1000F0AD010
:10560000204629F043FC1423A26811A956320DEB61
:10561000030028F0A9FDB9F1000F0CD099F8113062
:10562000FE2B08D1059B26AA02EB830252F8542CCC
:105630000AB101330593A068059D436A002B40F031
:10564000B680CEB1C3699E422DD00D9600F11805EB
:1056500024E002234146029A06A828F085FDD8F8E6
:10566000042006990346029231B101290AD148B1BA
:105670006D4A204629F0BBF86FF00705284627B091
:10568000BDE8F08F059B002B34D0D8F8000001F066
:10569000B5F898B166B1A5680D9618350CAE0FCE69
:1056A0000FC533682B602046FFF7CEFE0125E5E7E6
:1056B0005E4A0121204629F09AF8DDE7059BCBB12F
:1056C00029462046D8F8002001F042FA022809D1E4
:1056D000059B132B91D9069B022B8ED10121544B94
:1056E000544AC6E7032805D0059B4FF0010B013350
:1056F00005937BE7039B33B94846D8F8001007AA07
:1057000028F029FE054608F10408013F9DB3EB6827
:10571000BBF1000F08D0F3B1204628F0B9FF2046B6
:1057200028F014FF444AC4E7ABB1AE46A368DDF8E5
:1057300014A003F1180CBEE80F00ACE80F00DEF86F
:105740000030CCF80030AB682BB96B7CFE2B04BF6B
:105750002F7C07F1FF37D5F804C0BCF1000F08D04B
:10576000AE460CAEBEE80F000FC6DEF80030336068
:105770006646A94603E0059B53B101230393069BAC
:1057800017B9022B7FF432AF059B013305932DE748
:10579000A368DB6A13B1DB68002BEED1274B012134
:1057A00000932046119B264A29F021F8E5E790F85E
:1057B0002830A5EB0A05BBB14FF6FF7290F829100F
:1057C000FF2918BF0A469D4202D313449D420BD9BC
:1057D0008369012120461B4A29F009F82046FFF77A
:1057E00033FE6FF0150549E741F20C16012128F050
:1057F0000DFBA068304428F030FBA36811AA2946AD
:1058000002EB8A0220465B6A98470546A0684FF083
:10581000FF324FF0FF33304428F0BEFA0021A06879
:1058200028F0F4FA2AE700BFAD420500C1420500A6
:1058300022430500753B0500DF4205000E430500CD
:105840001346050046430500022210B5836804464E
:105850001A7583689B6CCBB928F07DFA836803F5D1
:1058600080539B6FDB040CD50321094B094A28F0B8
:10587000BEFFA0686FF4805100F58350183028F007
:1058800080FA2046BDE8104000F020BF10BD00BFE8
:1058900061430500A43E05002DE9F04F04468068F1
:1058A000012100F58350B1B0183028F05FFAA368E9
:1058B0001B7D022B20D100230993A36860689E6C96
:1058C00003681D6909AB16B310221BA9A847099BE1
:1058D00093B10121A06828F099FA2046099A1BA9E2
:1058E000B0470021A06828F091FAA3689B6C002BB8
:1058F000E3D12046FFF7A8FF6FF00101A06800F593
:105900008350183031B0BDE8F04F28F03ABA012288
:105910000DF12301A847099B002BEDD09DF9232011
:105920009DF82330002AA068C7DB427D032A00F2DD
:105930000283DFE812F004007E02960200030D2BC2
:1059400000F5805266D00A2B44D0B2F87810092BAB
:105950006FF3CA01A2F8781071D02AD8002B00F09A
:105960000681082BA06800F0EC81024602F5805009
:10597000426F920740F1FB80013B162B00F2F7804B
:10598000DFE813F0C002FF010302FB01BA021502B7
:10599000F500F500F500F50019021D02F5003202D0
:1059A000F5003702F500F500F500F5003902F500C5
:1059B0004F021B2BA0683FD07F2B00F0CF81A3F1BB
:1059C00020015E290246D1D8012128F02BFA9DF84A
:1059D0002310BAE0916FC1F3C70121B1916FC1F3F8
:1059E000C7010A29C1D1B2F8781063F3CA01A2F83D
:1059F0007810A568B5F85010B1B9284628F012FA09
:105A0000E06829F056F96069FFF75CFD2046FFF772
:105A10001BFF52E7916FC1F3C7010029E3D0916FDB
:105A2000C1F3C7010D29DDE72046FFF7A9FD05F504
:105A30008055C5F82401E9E70123437597E0A06884
:105A400000F580535B6F9B0740F19180012128F0A6
:105A5000E9F940F2FF73A068B0F850209A4200F0D4
:105A600086800025B0F8522000F1560100F656005D
:105A700035F066F9A3681BA9B3F852200BA81344AC
:105A800083F85658A268142302F6560228F06CFBDD
:105A90000B9914296BD830AB03EB810343F8545CAA
:105AA000A368B3F85220002A53D0134493F855301A
:105AB000202B02D0093B042B4BD800294CD10025C8
:105AC0000A950A9B30AA02EB830353F854AC0026D4
:105AD000504628F070F9B3468146B04637463946FD
